:020000040000FA
:0400000013EF00F00A
:060008007E822CEF0BF0DC
:100018007E80E0CF4EF04EC0E0FF7E90100026EFCD
:1000280007F02604D8A40CD02550A8EC05F0716E72
:10003800FE0E7118D8B4120071C02AF0266A120098
:10004800020E2618D8A4BDD224C056F0255055EC6F
:1000580008F0716E7150D8B41200266A12000D0EA5
:10006800256E070E246E020E266E010E336E1200E8
:10007800260E2D6E770E326E300E316E020E256E04
:1000880032508009246E020E266E020E336E120064
:10009800040E256E010E266E030E336E12002A28FA
:1000A800D8A402D0336A1200020E256E2A507F0BA4
:1000B800246E020E266E040E336E12000A0E256E92
:1000C800010E266E050E336E12002A28D8B4EAD720
:1000D8000A0E256E2A508009246E020E266E060E20
:1000E800336E1200010E256E246A020E266E070E6C
:1000F800336E1200090E256E2DC024F0020E266EF6
:10010800080E336E1200010E256E0C0E246E020EC0
:10011800266E090E336E12000D0E256E010E266E28
:100128000A0E336E12002A28D8B4BCD70D0E256EDD
:100138002A508009246E020E266E0B0E336E1200B2
:100148002F68040E256E010E266E0C0E336E1200FB
:100158002A28D8B4A7D72AC030F030B007D03050FA
:1001680031140009D8A402D02F2E07D00D0E256E09
:10017800010E266E0D0E336E1200040E256E010E52
:10018800266E12002A28D8B48DD72A50D8B40AD09F
:100198000D0E256E2A507F0B246E020E266E0E0E53
:1001A800336E12000D0E256E010E266E1200060E1D
:1001B800256E010E266E0F0E336E12002A28D8B453
:1001C80071D72F50D8B40DD02AC067F01B0E671610
:1001D800D8A407D00A0E256E010E266E100E336EB7
:1001E8001200336A346A12002A28D8B45BD72AC0AE
:1001F80028F00C0E256E010E266E110E336E1200BD
:100208002A28D8B44FD72A50070B296E2950D8A4CA
:1002180007D02850080DF3CF6FF0F4CF70F016D048
:10022800295028C067F0686AD89067366836D89031
:1002380067366836D890673668366726000E6822B3
:10024800F80E67246F6EFF0E6820706E6FC027F07F
:10025800100E2718D8A4C5D7010E346E23D73350F3
:10026800000AD8B4FCD6010AD8B402D7030AD8B415
:100278000FD7010AD8B413D7070AD8B41FD7010A71
:10028800D8B423D7030AD8B42DD7010AD8B432D7A3
:100298000F0AD8B438D7010AD8B43ED7030AD8B45D
:1002A80042D7010AD8B44CD7070AD8B451D7010AA3
:1002B800D8B468D7030AD8B47AD7010AD8B47ED795
:1002C8001F0AD8B491D7010AD8A4120099D70D0EE5
:1002D800256E246A020E266E010E336E1200930EEE
:1002E800016E200E026E080E256E010E266E020E9D
:1002F800336E12002A28D8B474D7080E256E2A50F7
:10030800F70B246E020E266E030E336E1200770E64
:10031800326E300E316E020E256E32508009C8D60C
:10032800040E256E010E266E050E336E12002A2865
:10033800D8B457D7040E256E2A507F0BCDD60A0E97
:10034800256E010E266E070E336E12002A28D8B4C9
:1003580048D70A0E256E2A508009246E020E266E92
:10036800080E336E1200010E256E246A020E266EE8
:10037800090E336E1200090E256E01C024F0020E1C
:10038800266E0A0E336E1200090E256E02C024F086
:10039800020E266E0B0E336E1200010E256E0C0E29
:1003A800246E020E266E0C0E336E12002A28D8B464
:1003B80018D70D0E256E2A508009EED62F68040E28
:1003C800256E010E266E0F0E336E12002A28D8B441
:1003D80008D72AC030F030B007D0305031140009A7
:1003E800D8A402D02F2EC9D60D0E256E010E266E6A
:1003F800100E336E12002A28D8B4F3D60D0E256ECF
:100408002A507F0B246E020E266E110E336E1200D8
:10041800060E256E010E266E120E336E12002A2865
:10042800D8B4DFD62F50D8B4DCD62AC067F01B0E5C
:100438006716D8A4D6D6090E256E010E266E130EA1
:10044800336E12002A28D8B4CCD62AC001F0090E7F
:10045800256E010E266E140E336E12002A28D8B4AB
:10046800C0D62AC002F0090E256E010E266E150EA2
:10047800336E12002A28D8B4B4D62AC003F0090E65
:10048800256E010E266E160E336E12002A28D8B479
:10049800A8D62AC004F0090E256E010E266E170E86
:1004A800336E12002A28D8B49CD62AC005F0066AF2
:1004B80002500318041801182C6E0250031004107F
:1004C80001100009D8A402D0010E01D0000E2B6E35
:1004D800180E336E12002C500518D8A482D62B5053
:1004E800D8A47FD6010E6E6E690E4F6EFF0E506E49
:1004F80069EC07F001506918D8B40BD002C062F05B
:1005080003C063F004C064F005C065F0015064ECFA
:100518000AF00D0E256E246A020E266E190E336E31
:1005280012003350000AD8B4D2D6010AD8B4D7D6AC
:10053800030AD8B4DFD6010AD8B4E9D6070AD8B472
:10054800EFD6010AD8B4F3D6030AD8B4F8D6010A0C
:10055800D8B4FCD60F0AD8B406D7010AD8B40BD73A
:10056800030AD8B411D7010AD8B417D7070AD8B4E0
:10057800FDD5010AD8B41AD7030AD8B41FD7010A7F
:10058800D8B424D71F0AD8B436D7010AD8B440D76C
:10059800030AD8B444D7010AD8B454D7070AD8B440
:1005A8005DD7010AD8B466D7030AD8B46FD7010A51
:1005B800D8B478D70F0AD8B48ED7010AD8A41200B5
:1005C80010D63450000AD8B44AD6010AD8A412006A
:1005D800A8D71D50D8B435D11CEC08F0E806D8A42B
:1005E80012001D6A2ED126EC0BF00009D8B405D0F4
:1005F80038EC0BF01B0AD8B403D01E50D8B4120044
:10060800DB0E536E1F0E546EC2EC0AF0010E1D6E07
:100618000A0E1C6E1E6A12001D50D8A41200240E69
:10062800536E1F0E546EC2EC0AF0010E1D6E0D0EB5
:100638001C6E12001D50D8A41200C60E536E1E0E5A
:10064800546EC2EC0AF0010E1D6E010E1C6E1200F3
:1006580026EC0BF00009D8B4120038EC0BF0766EDB
:10066800300E766411D0340E76600ED0EA0E536EDA
:100678001F0E546EC2EC0AF0010E1D6E76500A0D64
:10068800F3502A0F1C6E1200780E536E1F0E546E14
:10069800C2EC0AF0010E1D6E1C6A12001D50D8A48F
:1006A80012003F0E4F6EFF0E506E69EC07F03F5080
:1006B800D8B407D03F0E556EFF0E566E48EC04F0C6
:1006C80008D0570E536E1F0E546EC2EC0AF0010E7E
:1006D8001D6E190E1C6E12001D50D8A41200EA0ED1
:1006E800536E1F0E546EC2EC0AF0D4D71D50D8A416
:1006F8001200ED0E536E1F0E546EC2EC0AF0010E7E
:100708001D6E1A6A1F0E1C6E12001D50D8A412000E
:10071800040E1A60C1D7620E776E7750D96EDA6A06
:10072800550EDF6E772A7750D96EDA6A730EDF6E50
:10073800772A7750D96EDA6A750EDF6E772A775086
:10074800D96EDA6A610EDF6E772A7750D96EDA6A67
:10075800720EDF6E772A7750D96EDA6A690EDF6E0D
:10076800772A7750D96EDA6A200EDF6E772A7750AB
:10077800D96EDA6A1A50310FDF6E772A7750D96E40
:10078800DA6A3A0EDF6E772A7750D96EDA6A0D0E7A
:10079800DF6E772A7750D96EDA6A0A0EDF6E772A0B
:1007A8007750D96EDA6ADF6A620E536E546AC2EC09
:1007B8000AF0010E1D6E200E1C6E12001D50D8A4EA
:1007C80012003F0E4F6E1AC050F069EC07F03F0E52
:1007D800556E1AC056F048EC04F01A2A93D71D50EB
:1007E800D8A41200BA0E536E1F0E546EC2EC0AF053
:1007F800010E1D6E020E1C6E1B6A120026EC0BF019
:100808000009D8B412001B507A0FD96EDA6A38EC96
:100818000BF0DF6E1B507A0FD96EDA6ADF50F2ECFC
:100828000AF01B2A040E1B18D8A412007A0E4F6E69
:1008380090EC0AF0990E536E1F0E546EC2EC0AF03B
:1008480029D71C50000AD8B4CED6010AD8B400D78C
:10085800030AD8B4D3D7080AD8B4DED6070AD8B45E
:10086800E9D6190AD8B41AD70D0AD8B435D7070A61
:10087800D8B43CD7010AD8B448D73F0AD8B49ED7D1
:10088800080AD8A41200ABD7B60E616E6150D96EB3
:10089800DA6A090EDF6E612A6150D96EDA6A550E7E
:1008A800DF6E612A6150D96EDA6A490EDF6E612AFD
:1008B8006150D96EDA6A440EDF6E612A6150D96ED2
:1008C800DA6A3A0EDF6E612A6150D96EDA6A200E52
:1008D800DF6E612A606A5550D8B406D05550D96E7B
:1008E800DA6ADF50D8A40CD06150D96EDA6A300EBB
:1008F800DF6E612A6150D96EDA6A300EDF6E27D05A
:1009080055506024D96EDA6ADF505F6E5F380F0B7E
:10091800576E586AA90E5724F66E1E0E5820F76EA9
:100928006150D96EDA6A0800F5CFDFFF612A5F509F
:100938000F0B576E586AA90E5724F66E1E0E5820D4
:10094800F76E6150D96EDA6A0800F5CFDFFF612AC9
:10095800040E606006D06150D96EDA6A2D0EDF6E23
:10096800612A602A040E6064B6D76150D96EDA6ACB
:100978000D0EDF6E612A6150D96EDA6A0A0EDF6EDB
:10098800612A6150D96EDA6A090EDF6E612A590E42
:100998004F6E56C050F04CEC09F0606A6150D96E49
:1009A800DA6A4C0EDF6E612A6150D96EDA6A6050DD
:1009B800300FDF6E612A6150D96EDA6A3A0EDF6E47
:1009C800612A6150D96EDA6A200EDF6E612A6050A2
:1009D800590FD96EDA6ADF500F0B576E586AA90E95
:1009E8005724F66E1E0E5820F76E6150D96EDA6ADB
:1009F8000800F5CFDFFF612A050E606012D0615054
:100A0800D96EDA6A200EDF6E612A6150D96EDA6A11
:100A18002D0EDF6E612A6150D96EDA6A200EDF6E04
:100A2800612A602A050E6064B9D76150D96EDA6A06
:100A38000D0EDF6E612A6150D96EDA6A0A0EDF6E1A
:100A4800612A6150D96EDA6ADF6AB60E536E546A4B
:100A5800C2EC0AF0010E1D6E1200656E4D0E4F6E4F
:100A6800DDEC09F065C039F064C038F0366A376AE1
:100A7800939293949396000E676E000E666E4DC027
:100A88005CF05D6A000E5F6E640E5E6E18EC0AF034
:100A9800030EA7EC07F04DC05CF05D6A000E5F6EB8
:100AA800040E5E6E18EC0AF0030EA7EC07F04DC0BA
:100AB8005CF05D6A000E5F6E010E5E6E18EC0AF067
:100AC800030EA7EC07F04DC05CF05D6A000E5F6E88
:100AD800010E5E6E18EC0AF0020EA7EC07F04DC08E
:100AE8005CF05D6A000E5F6E010E5E6E18EC0AF037
:100AF800280E4BEC0AF006EC0BF0080E4BEC0AF053
:100B080006EC0BF0010E4BEC0AF04DC05CF05D6A90
:100B1800000E5F6E020E5E6E18EC0AF006EC0BF02B
:100B2800060E4BEC0AF006EC0BF00F0E4BEC0AF03D
:100B3800664A672A67BEA3D7675005E1020E665C5E
:100B4800D8B012009CD71200576E0F4A102AE90E2F
:100B58000F5C030E1058D8A053D08B848B864B6A39
:100B6800000E106E000E0F6EFF0E1200000E106EBB
:100B7800000E0F6E8B948B96575057247E0B80096E
:100B8800456E356A466A010E4B6EFE0E1200450E22
:100B9800516E460E526E4B0E536E020E546E1EEC84
:100BA80009F0F3D78B84050EDAEC0AF082A003D0A3
:100BB800566A562A01D0566A355035245610356E75
:100BC8008B94050EDAEC0AF0462A070E4664DDD748
:100BD8008B848B864B6A000E106E000E0F6EFE0E15
:100BE8003518D8B407D03528D8B404D035C058F053
:100BF800596A04D0000E596EFD0E586E58501200F6
:100C08004B50000AD8B4B2D7010AD8B4C0D7030AE7
:100C1800D8B4C8D7BAD757D01950D8A403D01850C9
:100C2800D8B41200186A196A010E166E12003EC076
:100C380014F0090E146402D0370E01D0300E1424BB
:100C48006D6E6E6A000E6E226D50E2EC07F0200E9B
:100C5800E2EC07F0020E166E12006F6A6F50F40F86
:100C6800D96EDA6ADF50E2EC07F06F04D8A403D03B
:100C78003A0EE2EC07F06F2A030E6F64EFD7200EEE
:100C8800E2EC07F0156A030E166E1200060E1560E8
:100C980017D01550310FE2EC07F02D0EE2EC07F0FB
:100CA8001750060DF350800F1524D96EDA6ADF50FD
:100CB800300FE2EC07F0200EE2EC07F0152A1200E4
:100CC800156A166A12001650000AD8B4A5D7010A88
:100CD800D8B4ADD7030AD8B4C0D7010AD8A4120033
:100CE800D5D7948094929494949694984A6A4B6A2F
:100CF8008B848B868B88010EDAEC0AF08B98010EB8
:100D0800DAEC0AF08B88010EDAEC0AF00F0E566E58
:100D1800010E55EC08F00009D8B4F8D7010EDAEC4A
:100D28000AF08D0E566E2A0E55EC08F00009D8B45C
:100D3800F8D73E0E566E2B0E55EC08F00009D8B4C5
:100D4800F8D71E0E566E2D0E55EC08F00009D8B4D3
:100D5800F8D7000E566E2C0E55EC08F00009D8B4E2
:100D6800F8D7400E566E150E55EC08F00009D8B4A9
:100D7800F8D73D0E566E110E55EC08F00009D8B4A0
:100D8800F8D7140EA8EC05F05A6EFE0E5A18D8B40F
:100D9800F8D7030E5A125AC056F0140E55EC08F044
:100DA8000009D8A41200F7D76B6E36D06450D8B4B7
:100DB80004D0000E686E400E03D0000E686E000E60
:100DC800676E6B506724696E000E68206A6E2FD0BC
:100DD8006BC069F06A6A6404D8A402D0400E05D0DA
:100DE800020E6418D8A404D038506926000E0ED01C
:100DF800030E6418D8A41BD03850656E666A400E7E
:100E08006526000E66226550692666506A220FD054
:100E18006BC069F06A6A0BD03950010AD8B4F8D7A8
:100E2800030AD8B4C3D7060AD8B4D2D7F1D706EC88
:100E38000BF0695080094BEC0AF064C037F06BC0C6
:100E480036F012003E0EF66E130EF76E000EF86EB8
:100E580001EE00F010EE40F00900F5CFEEFFE5508E
:100E6800E150FAE13E0EF66E160EF76E000EF86EC1
:100E780000EEEEF010EE0DF00900F5CFEEFFE550B4
:100E8800E150FAE16A0EF66E160EF76E000EF86E75
:100E980000EE78F010EE06F00900F5CFEEFFE55011
:100EA800E150FAE100EE80F06E0EEE6AE806FDE130
:100EB80000EE01F04D0EEE6AE806FDE17E907E92AE
:100EC800000EF86E0001FBEF09F04F50D8B4120085
:100ED8005028D8A41ED03A50D8B410D0546A5450D0
:100EE8003A0FD96EDA6A4F505424E16EE26ADFCFC6
:100EF800E7FF542A040E5464F2D71200536A4F5085
:100F08005324D96EDA6ADF6A532A040E5364F7D77A
:100F18001200556A5050100D000EF324516E010E48
:100F2800F420526E55505124D96E000E5220DA6EBC
:100F38004F505524E16EE26ADFCFE7FF552A040ED1
:100F48005564E8D71200506E96909692939A9398AB
:100F58008A968A948A828A8250A603D04F6A4F2A38
:100F680001D04F6A8D504F18FE0B4F188D6E50A44C
:100F780003D04F6A4F2A01D04F6A4F468D504F1801
:100F8800FD0B4F188D6E50A203D04F6A4F2A01D027
:100F98004F6A4F3A4F468A504F18DF0B4F188A6EE8
:100FA80050A003D04F6A4F2A01D04F6A4F3A8A5057
:100FB8004F18EF0B4F188A6E8A9212006C6E06EC6F
:100FC8000BF06C5032EC0AF0362A030E3918D8A40C
:100FD8000FD0130E36641200366A372A030E3764B0
:100FE80001D0376A37C064F03650D8EC06F01200EA
:100FF800020E3918D8A40FD0270E36641200366AAC
:10100800372A010E376401D0376A37C064F036508A
:10101800D8EC06F012003704D8A41200270E366464
:1010280001D0366A37C064F03650D8EC06F01200AA
:1010380030D0010E12000BC0F6FF0CC0F7FFF86AA3
:10104800010EF76403D00800F55005D0F6CFE1FF94
:10105800F7CFE2FFE7500009D8A402D01F6AE9D70A
:101068000BC0F6FF0CC0F7FFF86A010EF76403D057
:101078000800F55005D0F6CFE1FFF7CFE2FFE750C3
:10108800B5EC0AF00009D8B402D00B4A0C2A000EBD
:1010980012001F50000AD8B4CCD7010AD8B4CBD755
:1010A800F6D7576E28D08B948B96575057247E0BC3
:1010B800486E56C047F0496A010E4A6E26D0480E5F
:1010C800516E490E526E4A0E536E020E546E1EEC4D
:1010D80009F01BD0470E516E490E526E4A0E536EE0
:1010E800000E546E1EEC09F04A50D8A40ED08B8620
:1010F8008B84010E12004A50000AD8B4D4D7010AD2
:10110800D8B4DDD7030AD8B4E5D7000E1200506E64
:1011180050A603D04F6A4F2A01D04F6A8D504F18FE
:10112800FE0B4F188D6E50A403D04F6A4F2A01D082
:101138004F6A4F468D504F18FD0B4F188D6E50A2B9
:1011480003D04F6A4F2A01D04F6A4F3A4F468A5010
:101158004F18DF0B4F188A6E50A003D04F6A4F2AE2
:1011680001D04F6A4F3A8A504F18EF0B4F188A6ECA
:101178001200506E50AE03D04F6A4F2A01D04F6A0A
:101188008D504F18FE0B4F188D6E50AC03D04F6A20
:101198004F2A01D04F6A4F468D504F18FD0B4F18FC
:1011A8008D6E50AA03D04F6A4F2A01D04F6A4F3A2A
:1011B8004F468A504F18DF0B4F188A6E50A803D03D
:1011C8004F6A4F2A01D04F6A4F3A8A504F18EF0B97
:1011D8004F188A6E12003A50D8A402D0000E12009E
:1011E800546A010E536E556A5450100D000EF324C4
:1011F8004F6E010EF420506E55504F24D96E000EDC
:101208005020DA6E55503A0FE16EE26ADE50E61869
:10121800D8B402D0536A04D0552A040E5564E4D7D2
:101228005350D8B402D054501200542A030E5464B8
:10123800D8D7D4D75150D96EDA6ADFAE03D0556A01
:10124800552A01D0556A55468B505518FD0B55182F
:101258008B6E8B845150D96EDA6AD890DF36050EC2
:10126800DAEC0AF08B94050EDAEC0AF05250D96EDB
:10127800DA6ADF2A080EDE18D8A412005250D96E96
:10128800DA6ADF6A5350D96EDA6A54C0DFFF120097
:101298004F50D8B41200140E5018D8A413D0516A65
:1012A8001750060DF350800F5124D96EDA6A4F504B
:1012B8005124E16EE26ADFCFE7FF512A050E51643F
:1012C800EFD71200526A5050060DF350800F522487
:1012D800D96EDA6A4F505224E16EE26ADFCFE7FF37
:1012E800522A050E5264EFD712005B6EF29E07C0B9
:1012F80057F008C058F009C059F00AC05AF0F28EE9
:101308005B50050DF350980FD96EDA6ADECF53F0B3
:10131800DECF54F0DECF55F0DECF56F05350575C99
:101328004F6E54505858506E55505958516E56502B
:101338005A58526E120065DCF903430000000000A1
:10134800000000000000DC0DF9032B000000000085
:10135800000000000000DF8BDFC44F000000000029
:101368000000000000002132A989330000000000BD
:101378000000000000004F6A4F503A0FD96EDA6A39
:10138800DF6A4F2A040E4F64F7D7516A506A5150EA
:10139800060DF350800F5024D96EDA6A51C0DFFF72
:1013A800502A050E5064F3D7512A030E5164EED724
:1013B8001200516A05D0512A040E5118D8B41200EF
:1013C8005150050DF3509C0FD96EDA6ADE04D8B47B
:1013D800F2D75150050DF3509C0FD96EDA6A010E01
:1013E800DF6E4F50D96EDA6A51C0DFFF12007BEC16
:1013F8000AF0CEEC0AF075EC06F010EC0BF031ECCC
:101408000BF018EC0BF0100E646E020E31EC05F0C8
:10141800BFEC09F0F28EF29CEDEC02F015EC00F056
:101428000FEC06F08D74F8D75C50A3EC0AF05EC0A0
:1014380060F05FC061F0000E61BEFF0E626E636E09
:101448005C5079EC09F060504F5C61505058625024
:10145800515863505258D8B01200E9D7516E96903F
:101468009692939A93988A868A948A825150BDEC70
:1014780008F08A828A928A928A8251508BEC08F00C
:101488008A828A9296809682938A93881200516EF5
:1014980096909692939A93988A968A948A825150B3
:1014A800BDEC08F08A828A928A928A8251508BEC2B
:1014B80008F08A828A9296809682938A938812008C
:1014C800666E66C03AF062C03BF063C03CF064C030
:1014D8003DF065C03EF0010E186EEFEC08F0176E97
:1014E8003A0E556E17C056F048EC04F012004F6AD9
:1014F8004F50050DF3509C0FD96EDA6ADF6A4F2AF8
:10150800030E4F64F5D7820ED56EF60ED76E3C0EDD
:10151800D66EF294F28A12004F50D8B41200506A74
:101528004F505024D96EDA6A5050F40FE16EE26AD7
:10153800DFCFE7FF502A030E5064F2D712004F6E38
:10154800F29E4F50050DF350980FD96EDA6A07C016
:10155800DEFF08C0DEFF09C0DEFF0AC0DEFFF28E34
:101568001200526EFCEC0AF04F505010D8A402D072
:10157800000E120052C0ADFF010E12001CEC08F064
:10158800E806D8A4120053C00BF054C00CF0010EAA
:101598001F6E12000F0E956E8C6A206A216A226AED
:1015A800236A440E4F6EDDEC09F012004F6E4F5067
:1015B800080DF3CF50F001D0000050065028D8B4E1
:1015C8001200FAD7F60ED76E3C0ED66EF294010EC4
:1015D8000726000E082209220A221200526EFCEC8D
:1015E8000AF04F505010D8B4FAD752C0ADFF1200CD
:1015F8009EA803D0516A512A01D0516A51504F6EAA
:10160800506A12004DC05CF05D6A000E5F6E020EFB
:101618005E6E18EC0AF01200240EAC6E900EAB6EE3
:10162800AF68B86A1E6A1200926A966A4C0E4F6ECC
:10163800DDEC09F0120001020408102030303030CF
:031648002040102F
:10164C009EAA02D0010E1200000E1200F2B4E6ECBB
:10165C000AF07E9211000F0EC16E96941200E803F0
:08166C0030303030AE501200A6
:101EA80000303132333435363738394142434445CE
:101EB80046000102030405060708090A000B093158
:101EC8002E205175692068692068612061206C6145
:101ED8002073616C613F0D0A09322E204D6F7374B7
:101EE80072617220636F6E66696775726163696F8C
:101EF8006E730D0A09332E204D6F6469666963613C
:101F08007220686F72612064656C207369737465F0
:101F18006D610D0A4F706369F33A20004D656EFAE2
:101F2800207072696E636970616C0D0A2D2D2D2DFC
:101F38002D2D2D2D2D2D2D2D2D2D2D0D0A54726964
:101F48006120756E61206F706369F33A0D0A004E67
:101F58006F206869206861206361702075737561FE
:101F680072692061206C612073616C612E0D0A001A
:101F78004552524F522E2056616C6F7220696E7412
:101F8800726F64756974206572726F6E692E0D0ABE
:101F9800000D0A486F726120696E74726F6475690A
:101FA800646120636F7272656374616D656E740D30
:101FB8000A00496E74726F64756365206C612068ED
:101FC8006F72612061637475616C2848484D4D29B2
:101FD8003A20002D2D2D2D2D2D2D2D2D2D2D2D2D56
:101FE8002D2D0D0A00436F6E66696775726163690E
:081FF8006F6E733A0D0A000040
:020000040020DA
:08000000FFFFFFFFFFFFFFFF00
:020000040030CA
:0E000000FF06191EFF8181FF03C003E00340CD
:00000001FF
