:020000040000FA
:0400000013EF00F00A
:06000800768298EF0EF075
:100018007680E0CF4CF04CC0E0FF7690100028EFDF
:100028000CF06DEF05F0070E4F6E0D0E12EC09F097
:100038006D6E6D50D8B423EF00F025EF00F078EF27
:1000480005F0260E2A6E010E306E78EF05F0770E59
:100058002F6E300E2E6EF70E4F6E020E12EC09F058
:100068006D6E6D50D8B43BEF00F03DEF00F078EFC7
:1000780005F0020E306E78EF05F0040E79EC07F00B
:100088006D6E6D28D8A44BEF00F04DEF00F050EFE7
:1000980000F0306A78EF05F0FE0E6D18D8B457EF0F
:1000A80000F059EF00F05FEF02F06DC027F0030E8B
:1000B800306E78EF05F027507F0B4F6E020E12EC72
:1000C80009F06D6E6D50D8B46CEF00F06EEF00F073
:1000D80078EF05F0040E306E78EF05F00A0E79EC33
:1000E80007F06D6E6D28D8A47CEF00F07EEF00F06D
:1000F80080EF00F04DEF00F0FE0E6D18D8B487EFDA
:1001080000F089EF00F05FEF02F06DC027F0050EF8
:10011800306E78EF05F0275080094F6E0A0E12EC0A
:1001280009F06D6E6D50D8B49CEF00F09EEF00F0B2
:1001380078EF05F0060E306E78EF05F0000E4F6E82
:10014800010E12EC09F06D6E6D50D8B4AEEF00F0F0
:10015800B0EF00F078EF05F0070E306E78EF05F09D
:100168002AC04FF0090E12EC09F06D6E6D50D8B42C
:10017800C0EF00F0C2EF00F078EF05F0080E306E27
:1001880078EF05F00C0E4F6E010E12EC09F06D6E53
:100198006D50D8B4D2EF00F0D4EF00F078EF05F04E
:1001A800090E306E78EF05F00D0E79EC07F06D6EE4
:1001B8006D28D8A4E2EF00F0E4EF00F0E6EF00F0DD
:1001C8004DEF00F0FE0E6D18D8B4EDEF00F0EFEF34
:1001D80000F05FEF02F06DC027F00A0E306E78EF86
:1001E80005F0275080094F6E0D0E12EC09F06D6E68
:1001F8006D50D8B402EF01F004EF01F078EF05F08C
:100208002C680B0E306E78EF05F0040E79EC07F0D1
:100218006D6E6D28D8A413EF01F015EF01F017EFFC
:1002280001F04DEF00F0FE0E6D18D8B41EEF01F08E
:1002380020EF01F078EF05F06DC02DF02DB027EF1D
:1002480001F029EF01F036EF01F02D502E140009CE
:10025800D8A431EF01F033EF01F036EF01F02C2E86
:1002680078EF05F00C0E306E78EF05F00D0E79EC96
:1002780007F06D6E6D28D8A444EF01F046EF01F049
:1002880048EF01F04DEF00F0FE0E6D18D8B44FEFB7
:1002980001F051EF01F05FEF02F06D50D8B457EF65
:1002A80001F059EF01F05FEF02F00D0E306E78EFBC
:1002B80005F027507F0B4F6E0D0E12EC09F06D6E96
:1002C8006D50D8B46AEF01F06CEF01F078EF05F0EB
:1002D8000E0E306E78EF05F0060E79EC07F06D6EB5
:1002E8006D28D8A47AEF01F07CEF01F07EEF01F0E1
:1002F8004DEF00F0FE0E6D18D8B485EF01F087EFD2
:1003080001F078EF05F06DC027F02C50D8B48FEFCE
:1003180001F091EF01F0A0EF01F027C062F01B0E91
:100328006216D8A49AEF01F09CEF01F0A0EF01F05B
:100338000F0E306E78EF05F0306A316A78EF05F00D
:100348000A0E79EC07F06D6E6D28D8A4AEEF01F0B7
:10035800B0EF01F0B2EF01F04DEF00F0FE0E6D18B6
:10036800D8B4B9EF01F0BBEF01F05FEF02F06DC058
:1003780025F0100E306E78EF05F00C0E79EC07F0D2
:100388006D6E6D28D8A4CBEF01F0CDEF01F0CFEF63
:1003980001F04DEF00F0FE0E6D18D8B4D6EF01F065
:1003A800D8EF01F05FEF02F06D50070B266E110ECB
:1003B800306E78EF05F02650D8A4E5EF01F0E7EFAE
:1003C80001F0EFEF01F02550080DF3CF6AF0F4CFFC
:1003D8006BF005EF02F0265025C062F0636AD890F2
:1003E80062366336D89062366336D89062366336A2
:1003F8006226000E6322F80E62246A6EFF0E6320E6
:100408006B6E6AC06CF0100E6C18D8A40EEF02F078
:1004180010EF02F0A0EF01F0010E316E4DEF00F089
:100428003050000AD8B417EF00F0010AD8B42BEF07
:1004380000F0030AD8B441EF00F0010AD8B45FEF26
:1004480000F0070AD8B472EF00F0010AD8B48FEFB1
:1004580000F0030AD8B4A2EF00F0010AD8B4B4EF50
:1004680000F00F0AD8B4C6EF00F0010AD8B4D8EFEC
:1004780000F0030AD8B4F5EF00F0010AD8B409EF88
:1004880001F0070AD8B43AEF01F0010AD8B45DEFD9
:1004980001F0030AD8B470EF01F0010AD8B4A4EF50
:1004A80001F01F0AD8B4C1EF01F0010AD8B4DFEF98
:1004B80001F078EF05F078EF05F0000E4F6E0D0EA5
:1004C80012EC09F06D6E6D50D8B46DEF02F06FEF5D
:1004D80002F078EF05F0930E016E200E026E010E09
:1004E800306E78EF05F0080E79EC07F06D6E6D2828
:1004F800D8A481EF02F083EF02F085EF02F0A0EFBD
:1005080001F0FE0E6D18D8B48CEF02F08EEF02F0F9
:1005180078EF05F06DC027F03DEF00F02750F70B9E
:100528004F6E080E12EC09F06D6E6D50D8B49FEF47
:1005380002F0A1EF02F078EF05F05BEF00F0770E24
:100548002F6E300E2E6EF70E4F6E020E12EC09F063
:100558006D6E6D50D8B4B3EF02F0B5EF02F078EFDE
:1005680005F06EEF00F0040E79EC07F06D6E6D2863
:10057800D8A4C1EF02F0C3EF02F0C5EF02F0A0EF7C
:1005880001F0FE0E6D18D8B4CCEF02F0CEEF02F0F9
:1005980078EF05F089EF00F027507F0B4F6E040EBF
:1005A80012EC09F06D6E6D50D8B4DDEF02F0DFEF9C
:1005B80002F078EF05F09EEF00F00A0E79EC07F0F4
:1005C8006D6E6D28D8A4EBEF02F0EDEF02F0EFEFBF
:1005D80002F0A0EF01F0FE0E6D18D8B4F6EF02F0AD
:1005E800F8EF02F078EF05F06DC027F0B0EF00F0FB
:1005F800275080094F6E0A0E12EC09F06D6E6D508F
:10060800D8B409EF03F00BEF03F078EF05F0C2EF71
:1006180000F0000E4F6E010E12EC09F06D6E6D5079
:10062800D8B419EF03F01BEF03F078EF05F0D4EF1F
:1006380000F001C04FF0090E12EC09F06D6E6D501C
:10064800D8B429EF03F02BEF03F078EF05F0F1EFC2
:1006580000F002C04FF0090E12EC09F06D6E6D50FB
:10066800D8B439EF03F03BEF03F078EF05F005EF6E
:1006780001F00C0E4F6E010E12EC09F06D6E6D500C
:10068800D8B449EF03F04BEF03F078EF05F036EFFD
:1006980001F00D0E79EC07F06D6E6D28D8A457EFB8
:1006A80003F059EF03F05BEF03F0A0EF01F0FE0E4B
:1006B8006D18D8B462EF03F064EF03F078EF05F03B
:1006C8006DC027F059EF01F0275080094F6E0D0ECD
:1006D80012EC09F06D6E6D50D8B475EF03F077EF3A
:1006E80003F078EF05F02C686CEF01F0040E79EC5C
:1006F80007F06D6E6D28D8A484EF03F086EF03F041
:1007080088EF03F0A0EF01F0FE0E6D18D8B48FEF5C
:1007180003F091EF03F078EF05F06DC02DF02DB0E8
:1007280098EF03F09AEF03F09CEF01F02D502E1490
:100738000009D8A4A2EF03F0A4EF03F09CEF01F0A6
:100748002C2E78EF05F09CEF01F00D0E79EC07F0F8
:100758006D6E6D28D8A4B3EF03F0B5EF03F0B7EFD3
:1007680003F0A0EF01F0FE0E6D18D8B4BEEF03F051
:10077800C0EF03F078EF05F06DC027F0BDEF01F092
:1007880027507F0B4F6E0D0E12EC09F06D6E6D50F9
:10079800D8B4D1EF03F0D3EF03F078EF05F0DBEF37
:1007A80001F0060E79EC07F06D6E6D28D8A4DFEF26
:1007B80003F0E1EF03F0E3EF03F0A0EF01F0FE0E2A
:1007C8006D18D8B4EAEF03F0ECEF03F078EF05F01A
:1007D8006DC027F02C50D8B4F4EF03F0F6EF03F017
:1007E800A0EF01F027C062F01B0E6216D8A4FFEF3D
:1007F80003F001EF04F0A0EF01F0120E306E78EF75
:1008080005F0090E79EC07F06D6E6D28D8A40FEF8E
:1008180004F011EF04F013EF04F0A0EF01F0FE0E66
:100828006D18D8B41AEF04F01CEF04F078EF05F057
:100838006DC001F0130E306E78EF05F0090E79ECFB
:1008480007F06D6E6D28D8A42CEF04F02EEF04F09D
:1008580030EF04F0A0EF01F0FE0E6D18D8B437EFBA
:1008680004F039EF04F078EF05F06DC002F0140ED3
:10087800306E78EF05F0090E79EC07F06D6E6D2893
:10088800D8A449EF04F04BEF04F04DEF04F0A0EFCB
:1008980001F0FE0E6D18D8B454EF04F056EF04F0D2
:1008A80078EF05F06DC003F0150E306E78EF05F0A7
:1008B800090E79EC07F06D6E6D28D8A466EF04F088
:1008C80068EF04F06AEF04F0A0EF01F0FE0E6D1877
:1008D800D8B471EF04F073EF04F078EF05F06DC051
:1008E80004F0160E306E78EF05F0090E79EC07F07B
:1008F8006D6E6D28D8A483EF04F085EF04F087EFC0
:1009080004F0A0EF01F0FE0E6D18D8B48EEF04F0DD
:1009180090EF04F078EF05F06DC005F0066A170E49
:10092800306E78EF05F00250031804180118296E8C
:10093800010E286E180E306E78EF05F00250031085
:10094800041001100009D8B4ACEF04F0AFEF04F0C4
:10095800010EB0EF04F0000E286E1A0E306E78EF1C
:1009680005F029500518D8A4BCEF04F0BEEF04F038
:10097800A0EF01F02850D8B4C4EF04F0C6EF04F09B
:10098800C8EF04F0A0EF01F01B0E306E78EF05F011
:10099800010E646E650E4D6ED6EC0AF001506518B6
:1009A800D8B4D9EF04F0DBEF04F0E6EF04F002C0AE
:1009B8005DF003C05EF004C05FF005C060F0015058
:1009C800FEEC0CF01C0E306E78EF05F0000E4F6E4A
:1009D8000D0E12EC09F06D6E6D50D8B4F6EF04F000
:1009E800F8EF04F078EF05F0A0EF01F03050000ABE
:1009F800D8B461EF02F0010AD8B477EF02F0030A25
:100A0800D8B492EF02F0010AD8B4A3EF02F0070AB3
:100A1800D8B4B7EF02F0010AD8B4D0EF02F0030A55
:100A2800D8B4E1EF02F0010AD8B4FCEF02F00F0AE3
:100A3800D8B40DEF03F0010AD8B41DEF03F0030A90
:100A4800D8B42DEF03F0010AD8B43DEF03F0070A3C
:100A5800D8B44DEF03F0010AD8B468EF03F0030AE5
:100A6800D8B47AEF03F0010AD8B4A9EF03F01F0A4B
:100A7800D8B4C4EF03F0010AD8B4D5EF03F0030AE1
:100A8800D8B405EF04F0010AD8B422EF04F0070A3D
:100A9800D8B43FEF04F0010AD8B45CEF04F0030ABD
:100AA800D8B479EF04F0010AD8B497EF04F00F0A2C
:100AB800D8B4A2EF04F0020AD8B4B5EF04F0010AE2
:100AC800D8B4CCEF04F0070AD8B4EAEF04F078EF12
:100AD80005F03150000AD8B414EF02F0010AD8B476
:100AE800FAEF04F078EF05F012001D50D8B47FEF4C
:100AF80005F081EF05F039EF07F0F1EC0BF0E806AF
:100B0800D8A489EF05F08BEF05F078EF07F01D6AA0
:100B180039EF07F0E8EC0EF01B0AD8A496EF05F0C1
:100B280098EF05F0A2EF05F0B50E516E1F0E526E4C
:100B380053EC0EF0010E1D6E0A0E1E6E1F04D8A493
:100B4800A8EF05F0AAEF05F078EF07F0B50E516EA3
:100B58001F0E526E53EC0EF0010E1D6E0A0E1E6E25
:100B68001F6A78EF07F01D50D8A4BDEF05F0BFEF5E
:100B780005F078EF07F0C70E516E1F0E526E53EC5A
:100B88000EF0010E1D6E0B0E1E6E78EF07F01D5055
:100B9800D8A4D1EF05F0D3EF05F078EF07F0B50E44
:100BA800516E1F0E526E53EC0EF0010E1D6E0C0EA0
:100BB8001E6E78EF07F01D50D8A4E5EF05F0E7EFBB
:100BC80005F078EF07F0A20E516E1F0E526E53EC2F
:100BD8000EF0010E1D6E0D0E1E6E78EF07F01D5003
:100BE800D8A4F9EF05F0FBEF05F078EF07F0710EE8
:100BF800516E1F0E526E53EC0EF0010E1D6E0E0E4E
:100C08001E6E78EF07F01D50D8A40DEF06F00FEF19
:100C180006F078EF07F0540E516E1F0E526E53EC2B
:100C28000EF0010E1D6E0F0E1E6E78EF07F01D50B0
:100C3800D8A421EF06F023EF06F078EF07F0F10EC5
:100C4800516E1E0E526E53EC0EF0010E1D6E100EFC
:100C58001E6E78EF07F01D50D8A435EF06F037EF79
:100C680006F078EF07F0E30E516E1F0E526E53EC4C
:100C78000EF0010E1D6E010E1E6E78EF07F0A3EC4C
:100C88000EF0E806D8A44BEF06F04DEF06F078EF2B
:100C980007F0E8EC0EF0310AD8A455EF06F057EF4C
:100CA80006F063EF06F0C40E516E1F0E526E53EC41
:100CB8000EF0010E1D6E140E1E6E78EF07F0E8ECB4
:100CC8000EF0320AD8A46BEF06F06DEF06F079EF5C
:100CD80006F0C40E516E1F0E526E53EC0EF0010E4C
:100CE8001D6E1E0E1E6E78EF07F0E8EC0EF0330A4C
:100CF800D8A481EF06F083EF06F08FEF06F0C40E5C
:100D0800516E1F0E526E53EC0EF0010E1D6E280E22
:100D18001E6E78EF07F0D00E516E1E0E526E53EC19
:100D28000EF0010E1D6E1E6A78EF07F01D50D8A454
:100D3800A0EF06F0A2EF06F078EF07F05D0E4D6E1B
:100D4800D6EC0AF05D50D8B4ACEF06F0AEEF06F082
:100D5800BAEF06F0F20E516E1F0E526E53EC0EF003
:100D6800010E1D6E150E1E6E78EF07F0AF0E516E58
:100D78001E0E526E53EC0EF0010E1D6E190E1E6EF5
:100D880078EF07F01D50D8A4CCEF06F0CEEF06F0B0
:100D980078EF07F0620E4D6ED6EC0AF0620E536ED5
:100DA8009AEC08F0C2EF06F01D50D8A4DEEF06F06A
:100DB800E0EF06F078EF07F0C40E516E1F0E526E8A
:100DC80053EC0EF095EF06F01D50D8A4EEEF06F0A8
:100DD800F0EF06F078EF07F086EC0AF097EF06F0F0
:100DE8001D50D8A4FAEF06F0FCEF06F078EF07F0F4
:100DF800330E516E1F0E526E53EC0EF0010E1D6E27
:100E0800020E1E6E78EF07F0A3EC0EF0E806D8A4E9
:100E180010EF07F012EF07F078EF07F01C50720F91
:100E2800D96EDA6AE8EC0EF0DF6E1C50720FD96EDC
:100E3800DA6ADF5064EC0EF01C2A040E1C18D8A4E1
:100E480028EF07F02AEF07F078EF07F0720E4D6EE3
:100E580082EC0DF0120E516E1F0E526E53EC0EF016
:100E6800010E1D6E1C6A97EF06F01E50000AD8B4DA
:100E78008EEF05F0010AD8B443EF06F0030AD8B4A0
:100E880008EF07F0080AD8B4B7EF05F0010AD8B49C
:100E9800CBEF05F0070AD8B4DFEF05F0010AD8B4A4
:100EA800F3EF05F0030AD8B407EF06F0010AD8B447
:100EB8001BEF06F01F0AD8B42FEF06F0040AD8B4C7
:100EC8009AEF06F0010AD8B4C6EF06F00C0AD8B4B7
:100ED800D8EF06F0070AD8B4E8EF06F0360AD8B417
:100EE800F4EF06F078EF07F01200506E134A142A58
:100EF800E90E135C030E1458D8A085EF07F087EFAE
:100F080007F00EEF08F08B848B86396A000E146E9A
:100F1800000E136EFF0E1DEF08F0000E146E000E8B
:100F2800136E8B948B96505050247E0B8009336E31
:100F3800326A346A010E396EFE0E1DEF08F033BEB8
:100F4800A8EF07F0ACEF07F04F6A4F2AADEF07F0B4
:100F58004F6A4F468B504F18FD0B4F188B6E8B8482
:100F6800050E2FEC0EF0D89033368B94050E2FEC2F
:100F78000EF0342A070E3464C4EF07F0C6EF07F00A
:100F8800A0EF07F0346A020E396EA0EF07F08B84E9
:100F9800050E2FEC0EF082B0D4EF07F0D8EF07F073
:100FA8004F6A4F2AD9EF07F04F6A325032244F1058
:100FB800326E8B94050E2FEC0EF0342A070E346433
:100FC800E8EF07F0EAEF07F0A0EF07F08B848B86D5
:100FD800396A000E146E000E136EFE0E3218D8B465
:100FE800F8EF07F0FAEF07F007EF08F03228D8B467
:100FF80000EF08F002EF08F007EF08F032C051F0F8
:10100800526A0BEF08F0000E526EFD0E516E5150F1
:101018001DEF08F03950000AD8B491EF07F0010A23
:10102800D8B4A3EF07F0030AD8B4CBEF07F0A0EFCA
:1010380007F01200636E4A0E4D6E87EC0CF063C029
:1010480024F062C023F0216A226A939293949396C3
:10105800000E656E000E646E4AC05AF05B6A000EA0
:101068005D6E640E5C6E45EC0DF0030E22EC0BF029
:101078004AC05AF05B6A000E5D6E040E5C6E45EC69
:101088000DF0030E22EC0BF04AC05AF05B6A000E1A
:101098005D6E010E5C6E45EC0DF0030E22EC0BF05C
:1010A8004AC05AF05B6A000E5D6E010E5C6E45EC3C
:1010B8000DF0020E22EC0BF04AC05AF05B6A000EEB
:1010C8005D6E010E5C6E45EC0DF0280EECEC0DF03B
:1010D800ADEC0EF0080EECEC0DF0ADEC0EF0010EE0
:1010E800ECEC0DF04AC05AF05B6A000E5D6E020E21
:1010F8005C6E45EC0DF0ADEC0EF0060EECEC0DF070
:10110800ADEC0EF00F0EECEC0DF0644A652A65BEEE
:1011180097EF08F0655009E1020E645CD8A097EFDC
:1011280008F099EF08F030EF08F01200F20E516E57
:101138001F0E526E9DEC0DF0000E5C6E000E5B6E85
:1011480053505B24D96EDA6ADF50546E54380F0B53
:101158000F0B596E090E5964B4EF08F0B6EF08F09A
:10116800BEEF08F0370E5924556E566A000E562207
:10117800C4EF08F0300E5924556E566A000E5622F8
:10118800555064EC0EF053505B24D96EDA6ADF5088
:101198000F0B5A6E090E5A64D4EF08F0D6EF08F018
:1011A800DEEF08F0370E5A24576E586A000E5822A0
:1011B800E4EF08F0300E5A24576E586A000E582291
:1011C800575064EC0EF05CBEF5EF08F05C5007E198
:1011D800040E5B5CD8B0F3EF08F0F5EF08F0FBEF16
:1011E80008F0FC0E516E1F0E526E9DEC0DF05B4A1E
:1011F8005C2A5CBE09EF09F05C5009E1050E5B5CF6
:10120800D8A009EF09F00BEF09F0A4EF08F0C40E1D
:10121800516E1F0E526E9DEC0DF01200516E75EF5F
:1012280009F08B948B96515051247E0B366E4FC02B
:1012380035F0376A010E386E84EF09F036BE27EFB5
:1012480009F02BEF09F0506A502A2CEF09F0506A88
:1012580050468B505018FD0B50188B6E8B84D890CD
:101268003636050E2FEC0EF08B94050E2FEC0EF093
:10127800372A080E3718D8A444EF09F046EF09F0CA
:1012880084EF09F0376A020E386E84EF09F035BE34
:1012980050EF09F054EF09F0506A502A55EF09F061
:1012A800506A50468B505018FD0B50188B6E8B842B
:1012B800D8903536050E2FEC0EF08B94050E2FECDA
:1012C8000EF0372A080E3718D8A46DEF09F06FEF23
:1012D80009F084EF09F08B868B84386A010E85EF5C
:1012E80009F03850000AD8B415EF09F0010AD8B44B
:1012F80022EF09F0030AD8B44BEF09F084EF09F0A4
:10130800000E1200000E586E000E576E4C0E64EC64
:101318000EF05750300F64EC0EF0E90E516E1F0EB0
:10132800526E9DEC0DF053505724D96EDA6ADF5097
:10133800566E090E5664A3EF09F0A5EF09F0ADEF5C
:1013480009F0370E5624546E556A000E5522B3EF35
:1013580009F0300E5624546E556A000E552254502A
:1013680064EC0EF058BEC4EF09F0585007E1050EC2
:10137800575CD8B0C2EF09F0C4EF09F0CAEF09F022
:10138800F80E516E1F0E526E9DEC0DF0574A582AFA
:1013980058BED8EF09F0585009E1060E575CD8A09E
:1013A800D8EF09F0DAEF09F08AEF09F0C40E516EB0
:1013B8001F0E526E9DEC0DF01200516E51505124CB
:1013C8007E0B526E8B948B96080E536E52BEEFEFC7
:1013D80009F0F3EF09F0506A502AF4EF09F0506A67
:1013E80050468B505018FD0B50188B6E8B84D8903C
:1013F8005236050E2FEC0EF08B94050E2FEC0EF0E6
:1014080053065350D8A40BEF0AF00DEF0AF0EAEF99
:1014180009F0080E536E4FBE14EF0AF018EF0AF0E9
:10142800506A502A19EF0AF0506A50468B505018EB
:10143800FD0B50188B6E8B84D8904F36050E2FEC11
:101448000EF08B94050E2FEC0EF053065350D8A4D3
:1014580030EF0AF032EF0AF00FEF0AF08B868B8438
:101468001200506E505050247E0B8009516E526A03
:101478008B948B96080E536E51BE45EF0AF049EFD8
:101488000AF04F6A4F2A4AEF0AF04F6A4F468B50CC
:101498004F18FD0B4F188B6E8B84D8905136050E64
:1014A8002FEC0EF08B94050E2FEC0EF053065350D4
:1014B800D8A461EF0AF063EF0AF040EF0AF0080ED3
:1014C800536E8B84050E2FEC0EF0D890523682B0F6
:1014D80070EF0AF073EF0AF0010E74EF0AF0000ED5
:1014E80052128B94050E2FEC0EF053065350D8A4CD
:1014F80080EF0AF082EF0AF065EF0AF08B868B84A2
:1015080052501200000E566E000E556EEC0E516EC3
:101518001F0E526E9DEC0DF05550310F64EC0EF01D
:10152800D90E516E1F0E526E9DEC0DF0000E546ECA
:10153800000E536E5550060DF350C00F5324D96E4C
:10154800DA6ADF50300F64EC0EF0FA0E516E1F0E9F
:10155800526E9DEC0DF0534A542A54BEBDEF0AF06A
:10156800545009E1060E535CD8A0BDEF0AF0BFEF56
:101578000AF09EEF0AF0C40E516E1F0E526E9DECDB
:101588000DF0554A562A56BED3EF0AF0565009E1D7
:10159800040E555CD8A0D3EF0AF0D5EF0AF08AEF15
:1015A8000AF012004450D8A4DCEF0AF0DEEF0AF08B
:1015B80000EF0BF04550D8A4E4EF0AF0E6EF0AF08C
:1015C80000EF0BF04650D8A4ECEF0AF0EEEF0AF06B
:1015D80000EF0BF04750D8A4F4EF0AF0F6EF0AF04A
:1015E80000EF0BF04850D8A4FCEF0AF0FEEF0AF029
:1015F80000EF0BF021EF0BF04D50D96EDA6A44C0C2
:10160800DFFF4D50D96EDA6A010ED92645C0DFFFDB
:101618004D50D96EDA6A020ED92646C0DFFF4D500A
:10162800D96EDA6A030ED92647C0DFFF4D50D96E4E
:10163800DA6A040ED92648C0DFFF12004E6E969073
:101648009692939A93988A968A948A828A824EB6B8
:1016580030EF0BF034EF0BF04D6A4D2A35EF0BF0FD
:101668004D6A8D504D18FE0B4D188D6E4EB43FEFE0
:101678000BF043EF0BF04D6A4D2A44EF0BF04D6A27
:101688004D468D504D18FD0B4D188D6E4EB24FEFD7
:101698000BF053EF0BF04D6A4D2A54EF0BF04D6AE7
:1016A8004D3A4D468A504D18DF0B4D188A6E4EB094
:1016B80060EF0BF064EF0BF04D6A4D2A65EF0BF00D
:1016C8004D6A4D3A8A504D18EF0B4D188A6E8A9222
:1016D80012004E6E4EB673EF0BF077EF0BF04D6ABB
:1016E8004D2A78EF0BF04D6A8D504D18FE0B4D18B2
:1016F8008D6E4EB482EF0BF086EF0BF04D6A4D2ADB
:1017080087EF0BF04D6A4D468D504D18FD0B4D1867
:101718008D6E4EB292EF0BF096EF0BF04D6A4D2A9C
:1017280097EF0BF04D6A4D3A4D468A504D18DF0B36
:101738004D188A6E4EB0A3EF0BF0A7EF0BF04D6A71
:101748004D2AA8EF0BF04D6A4D3A8A504D18EF0B11
:101758004D188A6E12004E6E4EBEB5EF0BF0B9EF03
:101768000BF04D6A4D2ABAEF0BF04D6A8D504D18AB
:10177800FE0B4D188D6E4EBCC4EF0BF0C8EF0BF08E
:101788004D6A4D2AC9EF0BF04D6A4D468D504D18E4
:10179800FD0B4D188D6E4EBAD4EF0BF0D8EF0BF051
:1017A8004D6A4D2AD9EF0BF04D6A4D3A4D468A5095
:1017B8004D18DF0B4D188A6E4EB8E5EF0BF0E9EFC8
:1017C8000BF04D6A4D2AEAEF0BF04D6A4D3A8A50FC
:1017D8004D18EF0B4D188A6E12001CEF0CF0010E1D
:1017E80027EF0CF00FC0F6FF10C0F7FF0800F55008
:1017F8000009D8A402EF0CF004EF0CF007EF0CF08E
:10180800206AF3EF0BF00FC0F6FF10C0F7FF0800D7
:10181800F5501CEC0EF00009D8B415EF0CF017EFDA
:101828000CF019EF0CF00F4A102A000E27EF0CF0FD
:101838002050000AD8B4F3EF0BF0010AD8B4F6EF41
:101848000BF019EF0CF01200B60EF66E180EF76ECC
:10185800000EF86E00EE80F010EE58F00900F5CF9B
:10186800EEFFE550E150FAE1B80EF66E1D0EF76E88
:10187800000EF86E00EE6EF010EE08F00900F5CFDD
:10188800EEFFE550E150FAE100EED8F0140EEE6AF2
:10189800E806FDE100EE01F04B0EEE6AE806FDE118
:1018A80076907692000EF86E000164EF0DF065DC1C
:1018B800F903430000000000000000000000DC0DF8
:1018C800F9032B0000000000000000000000DF8B7F
:1018D800DFC44F00000000000000000000002132BB
:1018E800A989330000000000000000000000010189
:1018F80001010101010101010101010101010101D0
:101908000101010101014F6A96EF0CF04F2A040E04
:101918004F18D8A492EF0CF094EF0CF096EF0CF05F
:10192800B1EF0CF04F50050DF350DC0FD96EDA6AA9
:10193800DE04D8B4A2EF0CF0A4EF0CF08AEF0CF0A0
:101948004F50050DF350DC0FD96EDA6A010EDF6EC9
:101958004D50D96EDA6A4FC0DFFF12008B868B8834
:1019680005EC0EF08D0E4F6E2A0EE1EC09F03E0EDE
:101978004F6E2B0EE1EC09F01E0E4F6E2D0EE1ECB2
:1019880009F0000E4F6E2C0EE1EC09F0400E4F6E80
:10199800150EE1EC09F03D0E4F6E110EE1EC09F069
:1019A800010EB8EC0DF01200596EF29E07C055F00A
:1019B80008C056F009C057F00AC058F0F28E5950C6
:1019C800050DF350D80FD96EDA6ADECF51F0DECFAD
:1019D80052F0DECF53F0DECF54F05150555C4D6ECF
:1019E800525056584E6E535057584F6E5450585880
:1019F800506E1200616E61C044F05DC045F05EC07B
:101A080046F05FC047F060C048F0010E1A6E8C0EB9
:101A1800516E1F0E526E9DEC0DF0440E536E9AECF3
:101A280008F0A00E516E1F0E526E9DEC0DF00D5079
:101A3800060DF350C00F536E86EC09F01200596E74
:101A4800595035EC0AF05A6E5550D8A42EEF0DF0C7
:101A580030EF0DF039EF0DF05450FF0A5A14566E5E
:101A68005650576E586A3FEF0DF05A505410566E44
:101A78005650576E586A57C04FF05950E1EC09F06C
:101A880012005A5041EC0EF05CC05EF05DC05FF091
:101A9800000E5FBEFF0E606E616E5A50D8EC0CF0FF
:101AA8005E504D5C5F504E5860504F5861505058D2
:101AB800D8A061EF0DF063EF0DF048EF0DF01200C4
:101AC800D2EC0DF08DEC0EF0D2EC0EF0B7EC0EF07F
:101AD800E4EC0EF0BFEC0EF0100E626E020E1EEC7F
:101AE80008F0CCEC0EF0F28EF29C79EC05F015ECD7
:101AF80000F08D7479EF0DF013EF00F04D50D96EB2
:101B0800DA6ADF506E6E4D50D96EDA6A010ED92648
:101B1800DF506F6E4D50D96EDA6A020ED926DF504B
:101B2800706E4D50D96EDA6A030ED926DF50716E89
:101B38001200A9EF0DF051C0F6FF52C0F7FF0800E0
:101B4800F55064EC0EF0514A522A51C0F6FF52C0CB
:101B5800F7FF0800F5500009D8A4B5EF0DF0B7EF6E
:101B68000DF09FEF0DF012005B6E5B50D8B4BFEF25
:101B78000DF0C1EF0DF0CAEF0DF0030E546E010E1B
:101B8800556E140E23EC0DF0D1EF0DF0030E546ECC
:101B9800000E556E140E23EC0DF012004D6A4D50D8
:101BA800050DF350DC0FD96EDA6ADF6A4D2A030E91
:101BB8004D64E1EF0DF0E3EF0DF0D3EF0DF0820E81
:101BC800D56EF60ED76E3C0ED66EF294F28A1200DF
:101BD8004F6E96909692939A93988A968A948A8250
:101BE8004F50AFEC0BF08A828A928A928A824F50C9
:101BF8006DEC0BF08A828A9296809682938A9388FB
:101C08001200D7EC0EF08B88010E2FEC0EF08B989B
:101C1800010E2FEC0EF08B88010E2FEC0EF00F0E3C
:101C28004F6E010EE1EC09F0010E2FEC0EF01200E0
:101C3800506E73EC0EF04D504E10D8A426EF0EF0F7
:101C480028EF0EF02BEF0EF0000E2EEF0EF050C026
:101C5800ADFF010E12004D6E4D50080DF3CF4EF042
:101C680037EF0EF000004E064E28D8A43EEF0EF0D7
:101C780040EF0EF036EF0EF012004D6EF29E4D5012
:101C8800050DF350D80FD96EDA6A07C0DEFF08C019
:101C9800DEFF09C0DEFF0AC0DEFFF28E1200F1ECA3
:101CA8000BF0E806D8A45BEF0EF05DEF0EF063EFE3
:101CB8000EF051C00FF052C010F0010E206E12004D
:101CC800506E73EC0EF04D504E10D8B46EEF0EF00F
:101CD80070EF0EF065EF0EF050C0ADFF12009EB829
:101CE80078EF0EF07CEF0EF04F6A4F2A7DEF0EF082
:101CF8004F6A4F504D6E4E6A1200F60ED76E3C0E6C
:101D0800D66EF294010E0726000E082209220A2236
:101D18001200E0EC0EF03D6A3C6A3B6A3A6A4B0EF0
:101D28004D6E87EC0CF01200F2A49DEF0EF09FEFC1
:101D38000EF0A1EF0EF081EC0EF0769211009EBA33
:101D4800A8EF0EF0ABEF0EF0010EACEF0EF0000EA8
:101D580012004AC05AF05B6A000E5D6E020E5C6E9D
:101D680045EC0DF01200240EAC6E900EAB6EAF6811
:101D7800B86A1F6A1200926A966A490E4D6E87EC1D
:101D88000CF0120094809492949494969498120073
:101D9800446A456A466A476A486A1200C6EC0EF009
:101DA800B2EC0CF01200386A396A8B848B86120008
:101DB80030303030303030300F0E956E8C6A120073
:0C1DC8000F0EC16E96941200AE50120077
:101EA200000102030405060708090A000B4E6F2011
:101EB2006869206861206361702075737561726959
:101EC2002061206C612073616C612E0D0A00455205
:101ED200524F522E2056616C6F7220696E74726F6F
:101EE20064756974206572726F6E692E0D0A00093D
:101EF200332E204D6F6469666963617220686F7268
:101F0200612064656C2073697374656D610D0A00EC
:101F12000D0A486F726120696E74726F647569642C
:101F22006120636F7272656374616D656E740D0A10
:101F320000496E74726F64756365206C6120686F0E
:101F420072612061637475616C2848484D4D293A6D
:101F5200200009322E204D6F737472617220636FFC
:101F62006E66696775726163696F6E730D0A000947
:101F7200312E205175692068692068612061206CCA
:101F8200612073616C613F0D0A0054617267657470
:101F92006120646574656374616461210D0A0900DE
:101FA2005472696120756E61206F706369C3B33AC0
:101FB2000D0A002D2D2D2D2D2D2D2D2D2D2D2D2DBF
:101FC2002D2D0D0A004D656EC3BA207072696E63C5
:101FD2006970616C0D0A0020436F6E6669673A2072
:101FE200004F706369C3B33A2000557365722000D5
:0D1FF2005549443A2000202D20002D00000C
:020000040020DA
:08000000FFFFFFFFFFFFFFFF00
:020000040030CA
:0E000000FF06191EFF8181FF03C003E00340CD
:00000001FF
