:020000040000FA
:0400000013EF00F00A
:060008006C8242EF0EF0D5
:100018006C80E0CF46F046C0E0FF6C9010005CEFCB
:100028000BF05EEF04F0070E4C6E0D0EFBEC07F0C4
:10003800636E6350D8B423EF00F025EF00F069EF4A
:1000480004F0260E246E010E2A6E69EF04F0770E76
:10005800296E300E286EF70E4C6E020EFBEC07F080
:10006800636E6350D8B43BEF00F03DEF00F069EFEA
:1000780004F0020E2A6E69EF04F0040E6FEC08F02B
:10008800636E6350D8B44BEF00F04DEF00F069EFAA
:1000980004F063C021F0030E2A6E69EF04F02150CA
:1000A8007F0B4C6E020EFBEC07F0636E6350D8B406
:1000B80060EF00F062EF00F069EF04F0040E2A6EC2
:1000C80069EF04F00A0EECEC09F0216E050E2A6EB9
:1000D80069EF04F0215080094C6E0A0EFBEC07F022
:1000E800636E6350D8B47BEF00F07DEF00F069EFEA
:1000F80004F0060E2A6E69EF04F0000E4C6E010E35
:10010800FBEC07F0636E6350D8B48DEF00F08FEF0F
:1001180000F069EF04F0070E2A6E69EF04F024C0BE
:100128004CF0090EFBEC07F0636E6350D8B49FEFF8
:1001380000F0A1EF00F069EF04F0080E2A6E69EFF5
:1001480004F00C0E4C6E010EFBEC07F0636E63506E
:10015800D8B4B1EF00F0B3EF00F069EF04F0090E86
:100168002A6E69EF04F00D0E6FEC08F0636E6350B1
:10017800D8B4C1EF00F0C3EF00F069EF04F063C03A
:1001880021F00A0E2A6E69EF04F0215080094C6EA6
:100198000D0EFBEC07F0636E6350D8B4D6EF00F099
:1001A800D8EF00F069EF04F026680B0E2A6E69EFAD
:1001B80004F0040E6FEC08F0636E6350D8B4E7EFF8
:1001C80000F0E9EF00F069EF04F063C027F027B012
:1001D800F0EF00F0F2EF00F0FFEF00F027502814E6
:1001E8000009D8A4FAEF00F0FCEF00F0FFEF00F0F0
:1001F800262ED3EF01F00C0E2A6E69EF04F00D0ED7
:100208006FEC08F0636E6350D8B40DEF01F00FEF98
:1002180001F069EF04F063C021F00D0E2A6E69EF5A
:1002280004F021507F0B4C6E0D0EFBEC07F0636E53
:100238006350D8B422EF01F024EF01F069EF04F025
:100248000E0E2A6E69EF04F0060EECEC09F0216E32
:100258002650D8B432EF01F034EF01F043EF01F04B
:1002680021C05CF01B0E5C16D8A43DEF01F03FEFF7
:1002780001F043EF01F00F0E2A6E69EF04F02A6ACD
:100288002B6A69EF04F00A0EECEC09F01F6E100EF1
:100298002A6E69EF04F00C0E6FEC08F0636E635081
:1002A800D8B459EF01F05BEF01F069EF04F0635047
:1002B800070B206E110E2A6E69EF04F02050D8B497
:1002C80068EF01F06AEF01F072EF01F01F50080DBE
:1002D800F3502024F80F5F6E76EF01F01F50080DE1
:1002E800F3CF5FF0100E5F18D8A47DEF01F07FEF19
:1002F80001F084EF01F0010E2B6E2A6A69EF04F019
:100308002B6A2A6A69EF04F02A50000AD8B417EF5A
:1003180000F0010AD8B42BEF00F0030AD8B441EF7B
:1003280000F0010AD8B453EF00F0070AD8B466EF1A
:1003380000F0010AD8B46EEF00F0030AD8B481EFD8
:1003480000F0010AD8B493EF00F00F0AD8B4A5EF73
:1003580000F0010AD8B4B7EF00F0030AD8B4C9EF27
:1003680000F0010AD8B4DDEF00F0070AD8B403EFB3
:1003780001F0010AD8B415EF01F0030AD8B428EF48
:1003880001F0010AD8B447EF01F01F0AD8B44FEFC3
:1003980001F0010AD8B462EF01F069EF04F069EFE7
:1003A80004F0000E4C6E0D0EFBEC07F0636E63500C
:1003B800D8B4E1EF01F0E3EF01F069EF04F0930E38
:1003C800016E200E026E010E2A6E69EF04F0080E0F
:1003D8006FEC08F0636E6350D8B4F5EF01F0F7EFF7
:1003E80001F069EF04F063C021F03DEF00F0215007
:1003F800F70B4C6E080EFBEC07F0636E6350D8B435
:1004080008EF02F00AEF02F069EF04F04FEF00F096
:10041800770E296E300E286EF70E4C6E020EFBEC2E
:1004280007F0636E6350D8B41CEF02F01EEF02F0C1
:1004380069EF04F062EF00F0040E6FEC08F0636EF1
:100448006350D8B42AEF02F02CEF02F069EF04F001
:1004580063C021F06AEF00F021507F0B4C6E040E50
:10046800FBEC07F0636E6350D8B43DEF02F03FEF4A
:1004780002F069EF04F07DEF00F00A0E6FEC08F06F
:10048800636E6350D8B44BEF02F04DEF02F069EFA2
:1004980004F063C021F08FEF00F0215080094C6E0A
:1004A8000A0EFBEC07F0636E6350D8B45EEF02F0FF
:1004B80060EF02F069EF04F0A1EF00F0000E4C6E5F
:1004C800010EFBEC07F0636E6350D8B46EEF02F0D8
:1004D80070EF02F069EF04F0B3EF00F001C04CF0E8
:1004E800090EFBEC07F0636E6350D8B47EEF02F0A0
:1004F80080EF02F069EF04F0C5EF00F002C04CF0A5
:10050800090EFBEC07F0636E6350D8B48EEF02F06F
:1005180090EF02F069EF04F0D9EF00F00C0E4C6E8A
:10052800010EFBEC07F0636E6350D8B49EEF02F047
:10053800A0EF02F069EF04F0FFEF00F00D0EECEC15
:1005480009F0216E11EF01F0215080094C6E0D0E5B
:10055800FBEC07F0636E6350D8B4B5EF02F0B7EF69
:1005680002F069EF04F0266824EF01F0040EECECC9
:1005780009F0276E27B0C3EF02F0C5EF02F03FEF96
:1005880001F0275028140009D8A4CDEF02F0CFEFCE
:1005980002F03FEF01F0262E69EF04F03FEF01F083
:1005A8000D0EECEC09F0216E4BEF01F021507F0BA2
:1005B8004C6E0D0EFBEC07F0636E6350D8B4E7EF9A
:1005C80002F0E9EF02F069EF04F05EEF01F0060EC9
:1005D800ECEC09F0216E2650D8B4F5EF02F0F7EFF5
:1005E80002F084EF01F021C05CF01B0E5C16D8A469
:1005F80000EF03F002EF03F084EF01F0120E2A6E11
:1006080069EF04F0090E6FEC08F0636E6350D8B41C
:1006180010EF03F012EF03F069EF04F063C001F08C
:10062800130E2A6E69EF04F0090EECEC09F0026E65
:10063800140E2A6E69EF04F0090EECEC09F0036E53
:10064800150E2A6E69EF04F0090E6FEC08F0636E60
:100658006350D8B432EF03F034EF03F069EF04F0DD
:1006680063C004F0160E2A6E69EF04F0090EECEC74
:1006780009F0056E066A170E2A6E69EF04F002503B
:10068800031804180118236E010E226E180E2A6E24
:1006980069EF04F00150D8A454EF03F056EF03F0CB
:1006A8005EEF03F00250D8B45CEF03F05EEF03F0A6
:1006B8005FEF03F0226A190E2A6E69EF04F0035007
:1006C800D8A469EF03F06BEF03F073EF03F0045065
:1006D800D8B471EF03F073EF03F074EF03F0226AFC
:1006E8001A0E2A6E69EF04F023500518D8A47FEF7C
:1006F80003F081EF03F084EF01F02250D8B487EFC4
:1007080003F089EF03F08BEF03F084EF01F01B0E89
:100718002A6E69EF04F0010E606EC0EC0BF05E6E9D
:10072800000E626E000E616E62BEA4EF03F06250AE
:1007380009E1050E615CD8A0A4EF03F0A6EF03F071
:10074800A8EF03F0C0EF03F06150010FD96EDA6A29
:100758005E506124E16EE26ADE50E618D8B4B7EF65
:1007680003F0B9EF03F0BCEF03F0606AC0EF03F0E9
:10077800614A622A98EF03F06050D8A4C6EF03F0EC
:10078800C8EF03F0D3EF03F002C057F003C058F0EE
:1007980004C059F005C05AF0015091EC0CF01C0E41
:1007A8002A6E69EF04F0000E4C6E0D0EFBEC07F09C
:1007B800636E6350D8B4E3EF03F0E5EF03F069EF3D
:1007C80004F084EF01F02A50000AD8B4D5EF01F004
:1007D800010AD8B4EBEF01F0030AD8B4FBEF01F03B
:1007E800010AD8B40CEF02F0070AD8B420EF02F0DF
:1007F800010AD8B430EF02F0030AD8B441EF02F08E
:10080800010AD8B451EF02F00F0AD8B462EF02F02F
:10081800010AD8B472EF02F0030AD8B482EF02F0EA
:10082800010AD8B492EF02F0070AD8B4A2EF02F096
:10083800010AD8B4A8EF02F0030AD8B4BAEF02F05C
:10084800010AD8B4D4EF02F01F0AD8B4DAEF02F0E4
:10085800010AD8B4EBEF02F0030AD8B406EF03F0AC
:10086800010AD8B418EF03F0070AD8B420EF03F050
:10087800010AD8B428EF03F0030AD8B43AEF03F01A
:10088800010AD8B443EF03F00F0AD8B44EEF03F0CF
:10089800010AD8B463EF03F0030AD8B478EF03F081
:1008A800010AD8B48FEF03F0070AD8B4D7EF03F0E2
:1008B80069EF04F02B50000AD8B488EF01F0010A60
:1008C800D8B4E7EF03F069EF04F0120069EF05F020
:1008D800A0EC0EF0376E3750D8A475EF04F077EF20
:1008E80004F07FEF04F0010E366EB6EC0CF0010E4A
:1008F800346E84EF05F03750D8B485EF04F087EFF5
:1009080004F084EF05F04550EFEC0DF0030E346E63
:1009180084EF05F0A0EC0EF0376E3750D8A497EFAF
:1009280004F099EF04F0A1EF04F0020E366EB6EC75
:100938000CF0020E346E84EF05F03750D8B4A7EFF0
:1009480004F0A9EF04F084EF05F04550EFEC0DF04A
:100958008AEF04F0A0EC0EF0376E3750D8B4B7EF3A
:1009680004F0B9EF04F0BEEF04F04550EFEC0DF0E1
:100978008AEF04F03750D8A4C4EF04F0C6EF04F0AF
:1009880084EF05F0040E366EB6EC0CF0346A84EF92
:1009980005F0DBEC08F0356EA0EC0EF0376E375042
:1009A800D8A4D9EF04F0DBEF04F0DDEF04F0C6EFD4
:1009B80004F03750D8B4E3EF04F0E5EF04F005EFA6
:1009C80005F045506BEC0CF04A504910481009E10D
:1009D800050E475CD8A0F3EF04F0F5EF04F005EF3F
:1009E80005F00B0E3518D8B4FCEF04F0FEEF04F058
:1009F80005EF05F0355039EC0DF0050E346E84EF37
:100A080005F03750D8B40BEF05F00DEF05F084EF83
:100A180005F045506BEC0CF04A504910481009E1BC
:100A2800050E475CD8A01BEF05F01DEF05F084EF1D
:100A380005F00B0E3518D8A424EF05F026EF05F0C5
:100A480084EF05F04550EFEC0DF0040E346E84EFA2
:100A580005F0A0EC0EF0376E3750D8A436EF05F04D
:100A680038EF05F03AEF05F0CAEF04F03750D8B484
:100A780040EF05F042EF05F084EF05F045506BECD0
:100A88000CF04A5049100BE1F50E475C010E48582E
:100A9800D8A051EF05F053EF05F084EF05F09DEC79
:100AA8000EF001EF05F0A0EC0EF0376E3750D8A429
:100AB80060EF05F062EF05F084EF05F0346A040E8C
:100AC800366EB6EC0CF084EF05F03450000AD8B45A
:100AD8006CEF04F0010AD8B48EEF04F0030AD8B41E
:100AE800AEEF04F0010AD8B4CDEF04F0070AD8B489
:100AF8002DEF05F0010AD8B457EF05F084EF05F0A3
:100B08001200000180513E18D8A48DEF05F08FEF38
:100B180005F0B6EF05F081513F18D8A496EF05F01F
:100B280098EF05F0B6EF05F082514018D8A49FEF72
:100B380005F0A1EF05F0B6EF05F083514118D8A4F0
:100B4800A8EF05F0AAEF05F0B6EF05F084514218BA
:100B5800D8A4B1EF05F0B3EF05F0B6EF05F0000E3D
:100B680048EF06F03E509019D8A4BDEF05F0BFEF4E
:100B780005F0E6EF05F091513F18D8A4C6EF05F04F
:100B8800C8EF05F0E6EF05F092514018D8A4CFEF72
:100B980005F0D1EF05F0E6EF05F093514118D8A420
:100BA800D8EF05F0DAEF05F0E6EF05F094514218BA
:100BB800D8A4E1EF05F0E3EF05F0E6EF05F0010E4C
:100BC80048EF06F03E50A019D8A4EDEF05F0EFEF7E
:100BD80005F016EF06F0A1513F18D8A4F6EF05F07E
:100BE800F8EF05F016EF06F0A2514018D8A4FFEF71
:100BF80005F001EF06F016EF06F0A3514118D8A44E
:100C080008EF06F00AEF06F016EF06F0A4514218B6
:100C1800D8A411EF06F013EF06F016EF06F0020E57
:100C280048EF06F03E50B019D8A41DEF06F01FEFAC
:100C380006F046EF06F0B1513F18D8A426EF06F0AB
:100C480028EF06F046EF06F0B2514018D8A42FEF6F
:100C580006F031EF06F046EF06F0B3514118D8A47C
:100C680038EF06F03AEF06F046EF06F0B4514218B6
:100C7800D8A441EF06F043EF06F046EF06F0030E66
:100C880048EF06F0B3EF05F01200F7EF06F0A3EC1B
:100C98000EF01B0AD8A453EF06F055EF06F059EFF3
:100CA80006F08FEC0BF0010E196E1A04D8A45FEF52
:100CB80006F061EF06F006EF07F08FEC0BF0010E7F
:100CC800196E1A6A06EF07F04DEC0EF0E806D8A484
:100CD80070EF06F072EF06F006EF07F0A3EC0EF0E7
:100CE800310AD8A47AEF06F07CEF06F092EF06F00E
:100CF800C50E4B6E1F0E4C6E71EC0DF0C0EC0BF078
:100D0800576E57C04DF083EC07F0C50E4B6E1F0EA3
:100D18004C6E71EC0DF0196A06EF07F0A3EC0EF0BB
:100D2800320AD8A49AEF06F09CEF06F0A6EF06F078
:100D3800C50E4B6E1F0E4C6E71EC0DF03DEC0AF0BB
:100D48008FEF06F0A3EC0EF0330AD8A4AEEF06F04E
:100D5800B0EF06F0C0EF06F0C50E4B6E1F0E4C6EDE
:100D680071EC0DF0340E4B6E1F0E4C6E71EC0DF0E5
:100D7800020E196E06EF07F0D10E4B6E1E0E4C6E6A
:100D880071EC0DF08FEF06F04DEC0EF0E806D8A4EC
:100D9800D0EF06F0D2EF06F006EF07F01850680F14
:100DA800D96EDA6AA3EC0EF0DF6E1850680FD96EB0
:100DB800DA6ADF5001EC0EF0182A040E1818D8A4CD
:100DC800E8EF06F0EAEF06F006EF07F0680E476E68
:100DD80056EC0DF0130E4B6E1F0E4C6E71EC0DF0B1
:100DE800186A8FEF06F01950000AD8B44BEF06F0D6
:100DF800010AD8B468EF06F0030AD8B4C8EF06F0C1
:100E080006EF07F012005D6E440E476E19EC0CF009
:100E18005DC01EF05CC01DF01B6A1C6A939293941F
:100E28009396000E5F6E000E5E6E44C054F0556AD5
:100E3800000E576E640E566EFCEC0CF0030E8DEC33
:100E48000AF044C054F0556A000E576E040E566EF0
:100E5800FCEC0CF0030E8DEC0AF044C054F0556A1B
:100E6800000E576E010E566EFCEC0CF0030E8DEC66
:100E78000AF044C054F0556A000E576E010E566EC3
:100E8800FCEC0CF0020E8DEC0AF044C054F0556AEC
:100E9800000E576E010E566EFCEC0CF0280EC1ECDD
:100EA8000DF061EC0EF0080EC1EC0DF061EC0EF0E7
:100EB800010EC1EC0DF044C054F0556A000E576E97
:100EC800020E566EFCEC0CF061EC0EF0060EC1EC56
:100ED8000DF061EC0EF00F0EC1EC0DF05E4A5F2ACA
:100EE8005FBE80EF07F05F5009E1020E5E5CD8A09C
:100EF80080EF07F082EF07F019EF07F01200F30E0A
:100F08004B6E1F0E4C6E71EC0DF0000E566E000EFF
:100F1800556E4D505524D96EDA6ADF504E6E4E38F4
:100F28000F0B0F0B536E090E53649DEF07F09FEFE5
:100F380007F0A7EF07F0370E53244F6E506A000EE4
:100F48005022ADEF07F0300E53244F6E506A000E5A
:100F580050224F5001EC0EF04D505524D96EDA6AEC
:100F6800DF500F0B546E090E5464BDEF07F0BFEF4E
:100F780007F0C7EF07F0370E5424516E526A000E7F
:100F88005222CDEF07F0300E5424516E526A000EF3
:100F98005222515001EC0EF056BEDEEF07F05650CB
:100FA80007E1040E555CD8B0DCEF07F0DEEF07F080
:100FB800E4EF07F0FD0E4B6E1F0E4C6E71EC0DF05A
:100FC800554A562A56BEF2EF07F0565009E1050E6B
:100FD800555CD8A0F2EF07F0F4EF07F08DEF07F0BB
:100FE800C50E4B6E1F0E4C6E71EC0DF012004E6E5E
:100FF8005EEF08F08B948B964E504E247E0B326E2B
:101008004CC031F0306A010E336E6DEF08F032BE1D
:1010180010EF08F014EF08F04D6A4D2A15EF08F0AC
:101028004D6A4D468B504D18FD0B4D188B6E8B84B9
:10103800D8903236050E8CEC0DF08B94050E8CECA6
:101048000DF0302A080E3018D8A42DEF08F02FEF35
:1010580008F06DEF08F0306A020E336E6DEF08F09D
:1010680031BE39EF08F03DEF08F04D6A4D2A3EEFEA
:1010780008F04D6A4D468B504D18FD0B4D188B6E80
:101088008B84D8903136050E8CEC0DF08B94050EC0
:101098008CEC0DF0302A080E3018D8A456EF08F062
:1010A80058EF08F06DEF08F08B868B84336A010ED9
:1010B8006EEF08F03350000AD8B4FEEF07F0010ACB
:1010C800D8B40BEF08F0030AD8B434EF08F06DEF8A
:1010D80008F0000E12004D6ECAEF08F08B948B9644
:1010E8004D504D247E0B80092D6E2C6A2E6A010E00
:1010F8002F6ED9EF08F02DBE84EF08F088EF08F0C6
:101108004C6A4C2A89EF08F04C6A4C468B504C18B4
:10111800FD0B4C188B6E8B84050E8CEC0DF0D89063
:101128002D368B94050E8CEC0DF02E2A070E2E64AE
:10113800A0EF08F0A2EF08F0D9EF08F02E6A020E2F
:101148002F6ED9EF08F08B84050E8CEC0DF0D8903B
:101158002C3682B0B2EF08F0B5EF08F0010EB6EF0A
:1011680008F0000E2C128B94050E8CEC0DF02E2A34
:10117800070E2E64C2EF08F0C4EF08F0D9EF08F0AC
:101188008B868B842F6A2C50DAEF08F02F50000AD8
:10119800D8B472EF08F0010AD8B47FEF08F0030A58
:1011A800D8B4A7EF08F0D9EF08F0000E1200556A7E
:1011B800F0EF08F0566A0EEF09F0010E566E0EEFCA
:1011C80009F0020E566E0EEF09F0030E566E0EEF82
:1011D80009F0FF0E3CEF09F03750010AD8B4DEEFF2
:1011E80008F0030AD8B4E1EF08F0060AD8B4E5EF2E
:1011F80008F00C0AD8B4E9EF08F0EDEF08F0556AEA
:1012080028EF09F0010E556E28EF09F0020E556E11
:1012180028EF09F03650070B476E486A4850000A15
:10122800D8B419EF09F0EDEF08F04750010AD8B427
:1012380003EF09F0030AD8B406EF09F0060AD8B498
:101248000AEF09F0EDEF08F0C50EF66E1E0EF76E08
:1012580020EE49F00B0E0900F5CFDEFFE806FBE2B1
:101268005650030DF350490F5524D96EDA6ADF50F2
:101278001200000E526E000E516E4C0E01EC0EF074
:101288005150300F01EC0EF0EA0E4B6E1F0E4C6EF3
:1012980071EC0DF04D505124D96EDA6ADF50506E62
:1012A800090E50645AEF09F05CEF09F064EF09F099
:1012B800370E50244E6E4F6A000E4F226AEF09F027
:1012C800300E50244E6E4F6A000E4F224E5001ECE5
:1012D8000EF052BE7BEF09F0525007E1050E515C4B
:1012E800D8B079EF09F07BEF09F081EF09F0F90E3A
:1012F8004B6E1F0E4C6E71EC0DF0514A522A52BEC5
:101308008FEF09F0525009E1060E515CD8A08FEF1B
:1013180009F091EF09F041EF09F0C50E4B6E1F0E71
:101328004C6E71EC0DF01200536E535053247E0B2B
:10133800546E8B948B96080E556E54BEA6EF09F02A
:10134800AAEF09F0526A522AABEF09F0526A5246E4
:101358008B505218FD0B52188B6E8B84D8905436D4
:10136800050E8CEC0DF08B94050E8CEC0DF05506EB
:101378005550D8A4C2EF09F0C4EF09F0A1EF09F065
:10138800080E556E51BECBEF09F0CFEF09F0526A47
:10139800522AD0EF09F0526A52468B505218FD0B70
:1013A80052188B6E8B84D8905136050E8CEC0DF04C
:1013B8008B94050E8CEC0DF055065550D8A4E7EF2C
:1013C80009F0E9EF09F0C6EF09F08B868B8412006B
:1013D8004D6E4D504D247E0B80094E6E4F6A8B9496
:1013E8008B96080E506E4EBEFCEF09F000EF0AF027
:1013F8004C6A4C2A01EF0AF04C6A4C468B504C1848
:10140800FD0B4C188B6E8B84050E8CEC0DF0D89070
:101418004E368B94050E8CEC0DF050065050D8A427
:1014280018EF0AF01AEF0AF0F7EF09F0080E506EFD
:101438008B84050E8CEC0DF0D8904F3682B027EFD8
:101448000AF02AEF0AF0010E2BEF0AF0000E4F12F5
:101458008B94050E8CEC0DF050065050D8A437EF45
:101468000AF039EF0AF01CEF0AF08B868B844F5094
:101478001200000E506E000E4F6EED0E4B6E1F0EDA
:101488004C6E71EC0DF04F50310F01EC0EF0DA0E8E
:101498004B6E1F0E4C6E71EC0DF0000E4E6E000E72
:1014A8004D6E4F50060DF350C00F4D24D96EDA6AB9
:1014B800DF50300F01EC0EF0FB0E4B6E1F0E4C6E22
:1014C80071EC0DF04D4A4E2A4EBE74EF0AF04E50A4
:1014D80009E1060E4D5CD8A074EF0AF076EF0AF029
:1014E80055EF0AF0C50E4B6E1F0E4C6E71EC0DF0E9
:1014F8004F4A502A50BE8AEF0AF0505009E1040EB4
:101508004F5CD8A08AEF0AF08CEF0AF041EF0AF09E
:101518001200486E96909692939A93988A968A9417
:101528008A828A8248B69BEF0AF09FEF0AF0476AE0
:10153800472AA0EF0AF0476A8D504718FE0B471854
:101548008D6E48B4AAEF0AF0AEEF0AF0476A472A50
:10155800AFEF0AF0476A47468D504718FD0B47180A
:101568008D6E48B2BAEF0AF0BEEF0AF0476A472A12
:10157800BFEF0AF0476A473A47468A504718DF0BD9
:1015880047188A6E48B0CBEF0AF0CFEF0AF0476AE7
:10159800472AD0EF0AF0476A473A8A504718EF0BB4
:1015A80047188A6E8A921200486E48B6DEEF0AF033
:1015B800E2EF0AF0476A472AE3EF0AF0476A8D50DC
:1015C8004718FE0B47188D6E48B4EDEF0AF0F1EF9F
:1015D8000AF0476A472AF2EF0AF0476A47468D50F1
:1015E8004718FD0B47188D6E48B2FDEF0AF001EF62
:1015F8000BF0476A472A02EF0BF0476A473A47461B
:101608008A504718DF0B47188A6E48B00EEF0BF068
:1016180012EF0BF0476A472A13EF0BF0476A473A75
:101628008A504718EF0B47188A6E1200486E48BE5A
:1016380020EF0BF024EF0BF0476A472A25EF0BF059
:10164800476A8D504718FE0B47188D6E48BC2FEF20
:101658000BF033EF0BF0476A472A34EF0BF0476A79
:1016680047468D504718FD0B47188D6E48BA3FEF17
:101678000BF043EF0BF0476A472A44EF0BF0476A39
:10168800473A47468A504718DF0B47188A6E48B8CA
:1016980050EF0BF054EF0BF0476A472A55EF0BF069
:1016A800476A473A8A504718EF0B47188A6E120064
:1016B800DA0EF66E170EF76E000EF86E00EE80F07A
:1016C80010EE58F00900F5CFEEFFE550E150FAE1D1
:1016D800220EF66E1D0EF76E000EF86E00EE64F028
:1016E80010EE08F00900F5CFEEFFE550E150FAE101
:1016F80000EED8F0140EEE6AE806FDE100EE01F007
:10170800450EEE6AE806FDE16C906C92000EF86EEC
:1017180000011BEF0DF0B60E4B6E1F0E4C6E71ECF8
:101728000DF0C80E4B6E1F0E4C6E71EC0DF0B60E20
:101738004B6E1F0E4C6E71EC0DF0A30E4B6E1F0E10
:101748004C6E71EC0DF0720E4B6E1F0E4C6E71EC00
:101758000DF0550E4B6E1F0E4C6E71EC0DF0F20E27
:101768004B6E1E0E4C6E71EC0DF0E40E4B6E1F0EA0
:101778004C6E71EC0DF012003E50D8A4C6EF0BF081
:10178800C8EF0BF0EBEF0BF03F50D8A4CEEF0BF007
:10179800D0EF0BF0EBEF0BF04050D8A4D6EF0BF0E6
:1017A800D8EF0BF0EBEF0BF04150D8A4DEEF0BF0C5
:1017B800E0EF0BF0EBEF0BF04250D8A4E6EF0BF0A4
:1017C800E8EF0BF0EBEF0BF0000EECEF0BF03E0E3A
:1017D800120065DCF903430000000000000000006F
:1017E8000000DC0DF9032B000000000000000000E1
:1017F8000000DF8BDFC44F00000000000000000085
:1018080000002132A9893300000000000000000018
:1018180000000101010101010101010101010101B2
:1018280001010101010101010101496A28EF0CF0E0
:10183800492A040E4918D8A424EF0CF026EF0CF01E
:1018480028EF0CF043EF0CF04950050DF350DC0F76
:10185800D96EDA6ADE04D8B434EF0CF036EF0CF047
:101868001CEF0CF04950050DF350DC0FD96EDA6A05
:10187800010EDF6E4750D96EDA6A49C0DFFF1200E9
:101888008B868B88DAEC0DF08D0E516E2A0E98EC53
:1018980009F03E0E516E2B0E98EC09F01E0E516E9B
:1018A8002D0E98EC09F0000E516E2C0E98EC09F0F4
:1018B800400E516E150E98EC09F03D0E516E110E4A
:1018C80098EC09F080EC0EF07AEC0EF01200536EF2
:1018D800F29E07C04FF008C050F009C051F00AC08E
:1018E80052F0F28E5350050DF350D80FD96EDA6AC4
:1018F800DECF4BF0DECF4CF0DECF4DF0DECF4EF03A
:101908004B504F5C476E4C505058486E4D50515894
:10191800496E4E5052584A6E12005B6E5BC03EF0E4
:1019280057C03FF058C040F059C041F05AC042F08B
:10193800010E166E8D0E4B6E1F0E4C6E71EC0DF077
:101948003E0E4D6E83EC07F0A10E4B6E1F0E4C6ED3
:1019580071EC0DF00D50060DF350C00F4D6E3DECBF
:1019680009F012008C6A3604D8A4BDEF0CF0BFEF62
:101978000CF0C2EF0CF08C8AD8EF0CF0020E36187F
:10198800D8A4C9EF0CF0CBEF0CF0CEEF0CF08C8C98
:10199800D8EF0CF0040E3618D8A4D5EF0CF0D7EF1A
:1019A8000CF0D8EF0CF08C881200496E040E4960D8
:1019B800E0EF0CF0E2EF0CF0FBEF0CF0060E4760E6
:1019C800E8EF0CF0EAEF0CF0FBEF0CF00B0E4860C0
:1019D800F0EF0CF0F2EF0CF0FBEF0CF04950060DB5
:1019E800F350C00F4724D96EDA6A48C0DFFF1200EF
:1019F8005450EFEC0DF056C058F057C059F0000E97
:101A080059BEFF0E5A6E5B6E54506BEC0CF058507A
:101A1800475C595048585A5049585B504A58D8A0C2
:101A280018EF0DF01AEF0DF0FFEF0CF01200A7EC15
:101A38000DF037EC0EF08CEC0EF06BEC0EF099EC30
:101A48000EF073EC0EF0100E5C6E020E07EC07F051
:101A5800F28EF29C6AEC04F049EC06F015EC00F00A
:101A68008D742EEF0DF013EF00F04A6E1350D8A4CA
:101A780040EF0DF042EF0DF048EF0DF04A04126E02
:101A8800010E136E55EF0DF085EC05F0116E12C0C6
:101A980047F04AC048F01150D9EC0CF0010E176E0F
:101AA800136A12004750D96EDA6ADF50646E4750E5
:101AB800D96EDA6A010ED926DF50656E4750D96EA5
:101AC800DA6A020ED926DF50666E4750D96EDA6A96
:101AD800030ED926DF50676E12007DEF0DF04BC064
:101AE800F6FF4CC0F7FF0800F55001EC0EF04B4A2A
:101AF8004C2A4BC0F6FF4CC0F7FF0800F550000910
:101B0800D8A489EF0DF08BEF0DF073EF0DF01200F4
:101B18004A6E4B6A92EF0DF000004B2A4A50100DA6
:101B28004B50476E486AF350475C4850800A496EEC
:101B3800F450800A4958D8A0A4EF0DF0A6EF0DF094
:101B480090EF0DF01200476A4750050DF350DC0F77
:101B5800D96EDA6ADF6A472A030E4764B6EF0DF0DA
:101B6800B8EF0DF0A8EF0DF0820ED56EF60ED76E19
:101B78003C0ED66EF294F28A1200496E96909692B6
:101B8800939A93988A968A948A8249501AEC0BF011
:101B98008A828A928A928A824950D8EC0AF08A828A
:101BA8008A9296809682938A938812008B88010E77
:101BB8008CEC0DF08B98010E8CEC0DF08B88010EDF
:101BC8008CEC0DF00F0E516E010E98EC09F0010E21
:101BD8008CEC0DF01200476EF29E4750050DF35045
:101BE800D80FD96EDA6A07C0DEFF08C0DEFF09C069
:101BF800DEFF0AC0DEFFF28E12004A6E10EC0EF015
:101C080047504810D8B40BEF0EF00DEF0EF002EF6E
:101C18000EF04AC0ADFF12009EB815EF0EF019EF96
:101C28000EF0496A492A1AEF0EF0496A4950476E80
:101C3800486A1200586E5650FF0A576E5850ECEC1E
:101C480009F05714516E585098EC09F01200F60E2E
:101C5800D76E3C0ED66EF294010E0726000E0822AF
:101C680009220A22120095EC0EF0376A366A356AA4
:101C7800346A450E476E19EC0CF01200F2A447EFD7
:101C88000EF049EF0EF04BEF0EF02BEC0EF06C92CD
:101C980011009EBA52EF0EF055EF0EF0010E56EFFE
:101CA8000EF0000E1200576E5750ECEC09F056106B
:101CB800516E575098EC09F0120044C054F0556A20
:101CC800000E576E020E566EFCEC0CF01200240E3D
:101CD800AC6E900EAB6EAF68B86A1A6A1200926A60
:101CE800966A430E476E19EC0CF01200030E566EFE
:101CF800140E57EC0EF01200030E566E140E1EEC66
:101D08000EF01200948094929494949694981200F1
:101D180086EC0EF044EC0CF01200303030303030ED
:101D280030300F0E956E8C6A12000F0EC16E9694AD
:101D38001200010E1A6E120083500F0B1200AE50E3
:021D4800120087
:101EC400000102030405060708090A000B455252E3
:101ED4004F522E2056616C6F7220696E74726F645B
:101EE400756974206572726F6E692E0D0A0009336C
:101EF4002E204D6F6469666963617220686F726138
:101F04002064656C2073697374656D610D0A000D3E
:101F14000A486F726120696E74726F6475696461D6
:101F240020636F7272656374616D656E740D0A006F
:101F3400496E74726F64756365206C6120686F729A
:101F4400612061637475616C2848484D4D293A20BD
:101F54000009322E204D6F737472617220636F6EAC
:101F640066696775726163696F6E730D0A00093182
:101F74002E205175692068692068612061206C6198
:101F84002073616C613F0D0A00546172676574616E
:101F940020646574656374616461210D0A090054E9
:101FA40072696120756E61206F706369C3B33A0D05
:101FB4000A002D2D2D2D2D2D2D2D2D2D2D2D2D2D9D
:101FC4002D0D0A004D656EC3BA207072696E636987
:101FD40070616C0D0A0020436F6E6669673A2000D9
:101FE4004F706369C3B33A2000557365722000557E
:0C1FF40049443A2000202D20002D000060
:020000040020DA
:08000000FFFFFFFFFFFFFFFF00
:020000040030CA
:0E000000FF06191EFF8181FF03C003E00340CD
:00000001FF
