:020000040000FA
:0400000013EF00F00A
:06000800558266EF08F0CE
:100018005580E0CF35F035C0E0FF5590100035EF42
:0200280008F0DE
:10020000000102030405060708090A000B455252C3
:100210004F522E2056616C6F7220696E74726F643B
:10022000756974206572726F6E692E0D0A0009334C
:100230002E204D6F6469666963617220686F726118
:100240002064656C2073697374656D610D0A000923
:10025000322E204D6F737472617220636F6E666907
:100260006775726163696F6E730D0A0009312E2024
:100270005175692068692068612061206C61207374
:10028000616C613F0D0A005472696120756E6120D6
:100290006F706369C3B33A0D0A002D2D2D2D2D2DDE
:1002A0002D2D2D2D2D2D2D2D2D0D0A004D656EC3BF
:1002B000BA207072696E636970616C0D0A004861E2
:1002C000732070756C7361646F2031004861732016
:1002D00070756C7361646F203200486173207075B3
:1002E0006C7361646F2033004F706369C3B33A204D
:1002F000005549443A20000074EF03F0070E406EA9
:100300000D0EF8EC05F0260E216E010E276E83EF20
:1003100003F0770E266E300E256EF70E406E020E3D
:10032000F8EC05F0020E276E83EF03F0800E456EA9
:10033000040E42EC08F0030E276E83EF03F0800EEC
:10034000456E0A0E7BEC08F0040E276E83EF03F077
:10035000000E406E010EF8EC05F0050E276E83EFDF
:1003600003F021C040F0090EF8EC05F0060E276EF0
:1003700083EF03F00C0E406E010EF8EC05F0070E53
:10038000276E83EF03F0800E456E0D0E7BEC08F0B8
:100390002368080E276E83EF03F0040E4CEC06F082
:1003A000246E24B0D6EF01F0D8EF01F0E5EF01F0B4
:1003B000245025140009D8A4E0EF01F0E2EF01F089
:1003C000E5EF01F0232E83EF03F0090E276E83EF94
:1003D00003F0800E456E0D0E42EC08F00A0E276EFB
:1003E00083EF03F02350D8B4F8EF01F0FAEF01F0F7
:1003F00044EF02F0060E4CEC06F04F6E1B0E4F164B
:10040000D8A405EF02F007EF02F044EF02F00A0E65
:100410004CEC06F0536E0C0E4CEC06F0070B546ED1
:100420005450D8B416EF02F018EF02F030EF02F09B
:10043000545053C04FF0506AD8904F365036D89031
:100440004F365036D8904F3650364F26000E502239
:10045000F80E4F24516EFF0E5020526E36EF02F010
:100460005350080DF3CF51F0F4CF52F0100E511845
:100470005210D8A43EEF02F040EF02F044EF02F039
:100480000B0E276E83EF03F00C0E276E83EF03F045
:10049000010E286E276A83EF03F0286A276A83EF2C
:1004A00003F02750000AD8B47EEF01F0010AD8B457
:1004B00089EF01F0030AD8B496EF01F0010AD8B42D
:1004C0009FEF01F0070AD8B4A8EF01F0010AD8B4F1
:1004D000B1EF01F0030AD8B4BAEF01F0010AD8B4C1
:1004E000C3EF01F00F0AD8B4CDEF01F0010AD8B480
:1004F000E9EF01F0030AD8B4F2EF01F0010AD8B431
:1005000048EF02F0070AD8B44DEF02F083EF03F092
:10051000000E406E0D0EF8EC05F0930E2D6E200EC1
:100520002E6E85EF01F0080E456E080E42EC08F0C5
:1005300092EF01F0770E266E300E256EF70E406EAC
:10054000020EF8EC05F09BEF01F0800E456E040EF4
:1005500042EC08F0A4EF01F0800E456E0A0E7BEC31
:1005600008F0ADEF01F0000E406E010EF8EC05F062
:10057000B6EF01F02DC040F0090EF8EC05F02EC0EA
:1005800040F0090EF8EC05F0BFEF01F00C0E406EE4
:10059000010EF8EC05F0C9EF01F0800E456E0D0E6E
:1005A0007BEC08F02368E5EF01F0040E4CEC06F05C
:1005B000246E24B0DEEF02F0E0EF02F0EEEF01F087
:1005C000245025140009D8A4E8EF02F0EAEF02F065
:1005D000EEEF01F0232E83EF03F0EEEF01F0800E3B
:1005E000456E0D0E42EC08F040EF02F02350D8B4F7
:1005F000FCEF02F0FEEF02F044EF02F0060E4CECCE
:1006000006F04F6E1B0E4F16D8A409EF03F00BEF48
:1006100003F044EF02F00A0E4CEC06F0236A23507C
:100620002D0FD96EDA6A090E4CEC06F0DF6E232A24
:10063000030E23641EEF03F020EF03F00FEF03F02F
:10064000316A44EF02F02D0E3B6E1AEC05F0020EFB
:10065000286E4AEF02F02750000AD8B488EF02F063
:10066000010AD8B493EF02F0030AD8B49AEF02F06B
:10067000010AD8B4A5EF02F0070AD8B4ACEF02F033
:10068000010AD8B4B3EF02F0030AD8B4BAEF02F00B
:10069000010AD8B4C6EF02F00F0AD8B4CDEF02F0C9
:1006A000010AD8B4D5EF02F0030AD8B4EFEF02F094
:1006B000010AD8B4F6EF02F0070AD8B423EF03F02A
:1006C00083EF03F0500E406E010EF8EC05F085EF5D
:1006D00001F02750000AD8B462EF03F0010AD8B441
:1006E0004DEF02F083EF03F02850000AD8B451EF29
:1006F00002F0010AD8B42BEF03F0030AD8B469EF73
:1007000003F083EF03F0120080EF04F0AFEC08F089
:100710002C6E2C50D8A48FEF03F091EF03F099EFDB
:1007200003F0010E2B6E90EC07F0010E296E9BEF8B
:1007300004F02C50D8B49FEF03F0A1EF03F09BEF2F
:1007400004F0345015EC08F0030E296E9BEF04F012
:10075000AFEC08F02C6E2C50D8A4B1EF03F0B3EF3F
:1007600003F0BBEF03F0020E2B6E90EC07F0020ECD
:10077000296E9BEF04F02C50D8B4C1EF03F0C3EF07
:1007800003F09BEF04F0345015EC08F0A4EF03F0F5
:10079000AFEC08F02C6E2C50D8B4D1EF03F0D3EFAF
:1007A00003F0D8EF03F0345015EC08F0A4EF03F099
:1007B0002C50D8A4DEEF03F0E0EF03F09BEF04F041
:1007C000040E2B6E90EC07F0296A9BEF04F096EC78
:1007D00005F02A6EAFEC08F02C6E2C50D8A4F3EF85
:1007E00003F0F5EF03F0F7EF03F0E0EF03F02C5028
:1007F000D8B4FDEF03F0FFEF03F01CEF04F034502A
:100800006AEC07F039503810371009E1090E365CF0
:10081000D8A00DEF04F00FEF04F01CEF04F00B0E66
:100820002A18D8B416EF04F018EF04F01CEF04F007
:10083000050E296E9BEF04F02C50D8B422EF04F083
:1008400024EF04F09BEF04F034506AEC07F03950C9
:100850003810371009E1090E365CD8A032EF04F0E9
:1008600034EF04F09BEF04F00B0E2A18D8A43BEFF2
:1008700004F03DEF04F09BEF04F0345015EC08F069
:10088000040E296E9BEF04F0AFEC08F02C6E2C5098
:10089000D8A44DEF04F04FEF04F051EF04F0E4EF73
:1008A00003F02C50D8B457EF04F059EF04F09BEF4D
:1008B00004F034506AEC07F0395038100BE1DD0ECB
:1008C000365C050E3758D8A068EF04F06AEF04F0E4
:1008D0009BEF04F0ACEC08F018EF04F0AFEC08F07C
:1008E0002C6E2C50D8A477EF04F079EF04F09BEF36
:1008F00004F0296A040E2B6E90EC07F09BEF04F0D5
:100900002950000AD8B486EF03F0010AD8B4A8EF42
:1009100003F0030AD8B4C8EF03F0010AD8B4E7EF34
:1009200003F0070AD8B444EF04F0010AD8B46EEF1C
:1009300004F09BEF04F012000EEF05F0B5EC08F0A8
:100940001B0AD8A4A6EF04F0A8EF04F0ACEF04F063
:100950009DEC06F0010E1B6E1C04D8A4B2EF04F04F
:10096000B4EF04F019EF05F09DEC06F0010E1B6EDC
:100970001C6A19EF05F071EC08F0E806D8A4C3EF83
:1009800004F0C5EF04F019EF05F05BEC08F0B5ECEE
:1009900008F0310AD8A4CFEF04F0D1EF04F0DCEF77
:1009A00004F0BE0E396E3950D8A4020E3A6EDEEC59
:1009B00006F01B6A19EF05F0B5EC08F0320AD8A46E
:1009C000E4EF04F0E6EF04F0F0EF04F0CC0E396E43
:1009D0003950D8A4020E3A6EDEEC06F0D9EF04F0DE
:1009E000B5EC08F0330AD8A4F8EF04F0FAEF04F0FD
:1009F00004EF05F0DA0E396E3950D8A4020E3A6EC3
:100A0000DEEC06F0D9EF04F00D0E396E3950D8A4A3
:100A1000020E3A6EDEEC06F0D9EF04F01B50000A2D
:100A2000D8B49EEF04F0010AD8B4BBEF04F019EF7C
:100A300005F01200000E4D6E000E4C6E3B504C2423
:100A4000D96EDA6ADF503C6E3C380F0B0F0B4E6EDE
:100A5000090E4E642EEF05F030EF05F038EF05F08B
:100A6000370E4E24486E496A000E49223EEF05F0CB
:100A7000300E4E24486E496A000E49224C50020D39
:100A8000F3503D0FD96EDA6A48C0DFFF3B504C246B
:100A9000D96EDA6ADF500F0B4E6E090E4E6453EFBB
:100AA00005F055EF05F05DEF05F0370E4E244A6E68
:100AB0004B6A000E4B2263EF05F0300E4E244A6E57
:100AC0004B6A000E4B224C50020DF3CF3CF0010E4E
:100AD0003C263C503D0FD96EDA6A4AC0DFFF4C4AD3
:100AE0004D2A4DBE7DEF05F04D5009E1050E4C5CE1
:100AF000D8A07DEF05F07FEF05F01EEF05F0476A07
:100B0000F10E396E3950D8A4020E3A6EDEEC06F0C2
:100B10003D0E396E3A6ADEEC06F0A90E396E395098
:100B2000D8A4020E3A6EDEEC06F01200446AABEF77
:100B300005F0456AC9EF05F0010E456EC9EF05F0F5
:100B4000020E456EC9EF05F0030E456EC9EF05F0C4
:100B5000FF0EF7EF05F02C50010AD8B499EF05F01D
:100B6000030AD8B49CEF05F0060AD8B4A0EF05F04C
:100B70000C0AD8B4A4EF05F0A8EF05F0446AE3EF3F
:100B800005F0010E446EE3EF05F0020E446EE3EF54
:100B900005F02B50070B366E376A3750000AD8B471
:100BA000D4EF05F0A8EF05F03650010AD8B4BEEF37
:100BB00005F0030AD8B4C1EF05F0060AD8B4C5EFB2
:100BC00005F0A8EF05F0010EF66E020EF76E20EEAE
:100BD00038F00B0E0900F5CFDEFFE806FBE24550CA
:100BE000030DF350380F4424D96EDA6ADF50120037
:100BF000426E425042247E0B436E8B948B96080EBD
:100C0000446E43BE06EF06F00AEF06F0416A412A41
:100C10000BEF06F0416A41468B504118FD0B41181D
:100C20008B6E8B84D8904336050EB3EC07F08B9413
:100C3000050EB3EC07F044064450D8A422EF06F0AA
:100C400024EF06F001EF06F0080E446E40BE2BEFD5
:100C500006F02FEF06F0416A412A30EF06F0416AB4
:100C600041468B504118FD0B41188B6E8B84D890F8
:100C70004036050EB3EC07F08B94050EB3EC07F08D
:100C800044064450D8A447EF06F049EF06F026EF9B
:100C900006F08B868B8412003C6E3C503C247E0B0D
:100CA00080093D6E3E6A8B948B96080E3F6E3DBE6A
:100CB0005CEF06F060EF06F03B6A3B2A61EF06F05E
:100CC0003B6A3B468B503B18FD0B3B188B6E8B846D
:100CD000050EB3EC07F0D8903D368B94050EB3ECBF
:100CE00007F03F063F50D8A478EF06F07AEF06F001
:100CF00057EF06F0080E3F6E8B84050EB3EC07F03D
:100D0000D8903E3682B087EF06F08AEF06F0010EEB
:100D10008BEF06F0000E3E128B94050EB3EC07F03D
:100D20003F063F50D8A497EF06F099EF06F07CEF0E
:100D300006F08B868B843E5012009A0E396E395025
:100D4000D8A4020E3A6EDEEC06F0AC0E396E3950C5
:100D5000D8A4020E3A6EDEEC06F09A0E396E3950C7
:100D6000D8A4020E3A6EDEEC06F0870E396E3950CA
:100D7000D8A4020E3A6EDEEC06F06C0E396E3950D5
:100D8000D8A4020E3A6EDEEC06F04F0E396E3950E2
:100D9000D8A4020E3A6EDEEC06F02E0E396E3950F3
:100DA000D8A4020E3A6EDEEC06F0E80E396E395029
:100DB000D8A4020E3A6EDEEC06F01200FFEF06F049
:100DC00027EC08F036503710D8B4E9EF06F0EBEF17
:100DD00006F0E0EF06F039C0F6FF3AC0F7FFF86A18
:100DE000010EF76403D00800F55005D0F6CFE9FFF7
:100DF000F7CFEAFFEF50A4EC08F0394A3A2A39C09D
:100E0000F6FF3AC0F7FFF86A010EF76403D0080056
:100E1000F55005D0F6CFE9FFF7CFEAFFEF50000914
:100E2000D8A415EF07F017EF07F0E0EF06F0120077
:100E3000386A27EF07F0382A040E3818D8A423EFB1
:100E400007F025EF07F027EF07F042EF07F03850E3
:100E5000050DF350050FD96EDA6ADE04D8B433EF0E
:100E600007F035EF07F01BEF07F03850050DF35092
:100E7000050FD96EDA6A010EDF6E3650D96EDA6A66
:100E800038C0DFFF12008B868B8800EC08F08D0ED7
:100E9000406E2A0EF8EC05F03E0E406E2B0EF8EC7C
:100EA00005F01E0E406E2D0EF8EC05F0000E406EA3
:100EB0002C0EF8EC05F0400E406E150EF8EC05F027
:100EC0003D0E406E110EF8EC05F093EC08F08DEC41
:100ED00008F01200426EF29E15C03EF016C03FF0C0
:100EE00017C040F018C041F0F28E4250050DF3508B
:100EF000010FD96EDA6ADECF3AF0DECF3BF0DECFFB
:100F00003CF0DECF3DF03A503E5C366E3B503F58F1
:100F1000376E3C504058386E3D504158396E120083
:100F20008C6A2B04D8A497EF07F099EF07F09CEF99
:100F300007F08C8AB2EF07F0020E2B18D8A4A3EFAB
:100F400007F0A5EF07F0A8EF07F08C8CB2EF07F0E1
:100F5000040E2B18D8A4AFEF07F0B1EF07F0B2EFF3
:100F600007F08C881200396E3A6AB9EF07F000007A
:100F70003A2A3950100D3A50366E376AF350365CC3
:100F80003750800A386EF450800A3858D8A0CBEF1A
:100F900007F0CDEF07F0B7EF07F01200366A3650D2
:100FA000050DF350050FD96EDA6ADF6A362A030E93
:100FB0003664DDEF07F0DFEF07F0CFEF07F0820ECA
:100FC000D56EF60ED76E3C0ED66EF294F28A1200F3
:100FD000CEEC07F05BEC08F09FEC08F085EC08F035
:100FE000B2EC08F0F28EF28C896A84EC03F09CEC8F
:100FF00004F07CEC01F08968F4EF07F013EF00F0E7
:101000008B88010EB3EC07F08B98010EB3EC07F060
:101010008B88010EB3EC07F00F0E406E010EF8EC5A
:1010200005F0010EB3EC07F01200366EF29E36505A
:10103000050DF350010FD96EDA6A15C0DEFF16C038
:10104000DEFF17C0DEFF18C0DEFFF28E12009EB872
:101050002CEF08F030EF08F0386A382A31EF08F04A
:10106000386A3850366E376A120000EE01F0340EDE
:10107000EE6AE806FDE155905592000EF86E00010B
:10108000E8EF07F0476E4550FF0A466E47504CECBC
:1010900006F04614406E4750F8EC05F01200F60ECC
:1010A000D76E3C0ED66EF294010E1526000E162257
:1010B000172218221200A8EC08F02C6A2B6A2A6A60
:1010C000296A340E366E18EC07F01200F2A46BEFAA
:1010D00008F06DEF08F06FEF08F04FEC08F0559254
:1010E00011009EBA76EF08F079EF08F0010E7AEF62
:1010F00008F0000E1200466E46504CEC06F045100B
:10110000406E4650F8EC05F01200240EAC6E900EC6
:10111000AB6EAF68B86A1C6A1200030E456E140EFF
:101120007BEC08F01200030E456E140E42EC08F042
:10113000120094809492949494969498120099EC4E
:1011400008F043EC07F01200366E36C0ADFF120017
:101150000F0E956E8C6A1200010E1C6E12008350E9
:0E1160000F0B1200C168926A1200AE5012000E
:020000040020DA
:08000000FFFFFFFFFFFFFFFF00
:020000040030CA
:0E000000FF06191EFF0181FF03C003E003404D
:00000001FF
