:020000040000FA
:0400000013EF00F00A
:0600080030822EEF03F030
:100018003080E0CF1EF01EC0E0FF3090100008EFE7
:0200280003F0E3
:10020000000102030405060708090A000B0044EC7C
:1002100003F01C6EF6EF01F01C50D8A412EF01F0B1
:1002200014EF01F01CEF01F0010E1B6E1BC08AFFE2
:10023000010E196E11EF02F01C50D8B422EF01F03C
:1002400024EF01F011EF02F01D50E8EC02F0030E74
:10025000196E11EF02F01C50D8A431EF01F033EF0A
:1002600001F03BEF01F0020E1B6E1BC08AFF020E75
:10027000196E11EF02F01C50D8B441EF01F043EFBA
:1002800001F011EF02F01D50E8EC02F027EF01F051
:100290001C50D8B44EEF01F050EF01F055EF01F0D3
:1002A0001D50E8EC02F027EF01F01C50D8A45BEFE2
:1002B00001F05DEF01F011EF02F0040E1B6E1BC0A8
:1002C0008AFF196A11EF02F01BEC02F01A6E1C5043
:1002D000D8A46DEF01F06FEF01F071EF01F05DEF69
:1002E00001F01C50D8B477EF01F079EF01F09AEFEC
:1002F00001F01D50A8EC02F022502110201009E15D
:10030000090E1F5CD8A087EF01F089EF01F09AEF8A
:1003100001F00B0E1A18D8B490EF01F092EF01F033
:100320009AEF01F01AC08CFF41EC03F0050E196E34
:1003300011EF02F01C50D8B4A0EF01F0A2EF01F0D1
:1003400011EF02F01D50A8EC02F0225021102010F5
:1003500009E1090E1F5CD8A0B0EF01F0B2EF01F087
:1003600011EF02F00B0E1A18D8A4B9EF01F0BBEF91
:1003700001F011EF02F01D50E8EC02F0040E196ECE
:1003800011EF02F01C50D8A4C8EF01F0CAEF01F041
:10039000CCEF01F061EF01F01C50D8B4D2EF01F0C6
:1003A000D4EF01F011EF02F01D50A8EC02F0225042
:1003B00021100BE1DD0E1F5C050E2058D8A0E3EFE5
:1003C00001F0E5EF01F011EF02F096EF01F01C50A3
:1003D000D8A4EDEF01F0EFEF01F011EF02F0196A90
:1003E000040E1B6E1BC08AFF11EF02F01950000AA9
:1003F000D8B40CEF01F0010AD8B42BEF01F0030AD6
:10040000D8B448EF01F0010AD8B464EF01F0070A4C
:10041000D8B4C2EF01F0010AD8B4E7EF01F011EF50
:1004200002F019C02FF02F3AF00E2F168C500F0B40
:100430002F108C6E12002D6A30EF02F02E6A4EEFF4
:1004400002F0010E2E6E4EEF02F0020E2E6E4EEFF7
:1004500002F0030E2E6E4EEF02F0FF0E7CEF02F064
:100460001C50010AD8B41EEF02F0030AD8B421EFE1
:1004700002F0060AD8B425EF02F00C0AD8B429EF2E
:1004800002F02DEF02F02D6A68EF02F0010E2D6EE2
:1004900068EF02F0020E2D6E68EF02F01B50070BA2
:1004A0001F6E206A2050000AD8B459EF02F02DEFD9
:1004B00002F01F50010AD8B443EF02F0030AD8B487
:1004C00046EF02F0060AD8B44AEF02F02DEF02F030
:1004D000010EF66E020EF76E20EE21F00B0E0900F3
:1004E000F5CFDEFFE806FBE22E50030DF350210F9F
:1004F0002D24D96EDA6ADF501200216A8CEF02F0E7
:10050000212A040E2118D8A488EF02F08AEF02F005
:100510008CEF02F0A7EF02F02150050DF350050F0C
:10052000D96EDA6ADE04D8B498EF02F09AEF02F0DE
:1005300080EF02F02150050DF350050FD96EDA6AF5
:10054000010EDF6E1F50D96EDA6A21C0DFFF120084
:100550002B6EF29E15C027F016C028F017C029F0A8
:1005600018C02AF0F28E2B50050DF350010FD96EF2
:10057000DA6ADECF23F0DECF24F0DECF25F0DECF47
:1005800026F02350275C1F6E24502858206E2550DB
:100590002958216E26502A58226E12001F6A1F50B9
:1005A000050DF350050FD96EDA6ADF6A1F2A030EB4
:1005B0001F64DDEF02F0DFEF02F0CFEF02F0820EFA
:1005C000D56EFD0ED76E8F0ED66EF294F28A1200A3
:1005D0001F6EF29E1F50050DF350010FD96EDA6A9F
:1005E00015C0DEFF16C0DEFF17C0DEFF18C0DEFF3D
:1005F000F28E120015EC03F0CEEC02F039EC03F0B1
:10060000F28EF28C07EC01F002EF03F013EF00F032
:1006100000EE01F01D0EEE6AE806FDE1309030922A
:10062000000EF86E0001FAEF02F00F0EC16E0F0E11
:10063000921292988988F19EF80E93168A50956AC4
:100640008C6A1200FD0ED76E8F0ED66EF294010EDC
:100650001526000E1622172218221200F2A433EFDC
:1006600003F035EF03F037EF03F022EC03F03092A4
:1006700011001C6A1B6A1A6A1D0E1F6E7DEC02F0C7
:0E06800012001AC08CFF120080500F0B1200E7
:020000040020DA
:08000000FFFFFFFFFFFFFFFF00
:020000040030CA
:0E000000FF02191EFF0181FF03C003E0034051
:00000001FF
