:020000040000FA
:0400000013EF00F00A
:060008007D82EEEF0EF018
:100018007D80E0CF4DF04DC0E0FF7D90100070EF87
:100028000CF02A04D8A41BEF00F01DEF00F02FEF0E
:1000380000F0295066EC07F0696EFE0E6918D8B416
:1000480028EF00F02AEF00F03CEF04F069C02EF032
:100058002A6A3CEF04F0020E2A18D8A436EF00F002
:1000680038EF00F031EF04F028C055F02950C1EC0A
:100078000AF0696E6950D8B444EF00F046EF00F01A
:100088003CEF04F02A6A3CEF04F00D0E296E070ECF
:10009800286E020E2A6E010E376E3CEF04F0260E13
:1000A800316E770E366E300E356E020E296E365072
:1000B8008009286E020E2A6E020E376E3CEF04F09D
:1000C800040E296E010E2A6E030E376E3CEF04F003
:1000D8002E28D8A472EF00F074EF00F077EF00F04C
:1000E800376A3CEF04F0020E296E2E507F0B286E03
:1000F800020E2A6E040E376E3CEF04F00A0E296ECB
:10010800010E2A6E050E376E3CEF04F02E28D8A497
:1001180090EF00F092EF00F094EF00F074EF00F031
:100128000A0E296E2E508009286E020E2A6E060EBF
:10013800376E3CEF04F0010E296E286A020E2A6E13
:10014800070E376E3CEF04F0090E296E31C028F017
:10015800020E2A6E080E376E3CEF04F0010E296E6F
:100168000C0E286E020E2A6E090E376E3CEF04F054
:100178000D0E296E010E2A6E0A0E376E3CEF04F042
:100188002E28D8A4CAEF00F0CCEF00F0CEEF00F094
:1001980074EF00F00D0E296E2E508009286E020EA5
:1001A8002A6E0B0E376E3CEF04F03368040E296E8E
:1001B800010E2A6E0C0E376E3CEF04F02E28D8A4E0
:1001C800E8EF00F0EAEF00F0ECEF00F074EF00F079
:1001D8002EC034F034B0F3EF00F0F5EF00F002EF8A
:1001E80001F0345035140009D8A4FDEF00F0FFEFFA
:1001F80000F002EF01F0332E0AEF01F00D0E296E28
:10020800010E2A6E0D0E376E3CEF04F0040E296EB7
:10021800010E2A6E3CEF04F02E28D8A416EF01F048
:1002280018EF01F01AEF01F074EF00F02E50D8B477
:1002380020EF01F022EF01F02DEF01F00D0E296EF5
:100248002E507F0B286E020E2A6E0E0E376E3CEF74
:1002580004F00D0E296E010E2A6E3CEF04F0060E16
:10026800296E010E2A6E0F0E376E3CEF04F02E2811
:10027800D8A441EF01F043EF01F045EF01F074EF2E
:1002880000F03350D8B44BEF01F04DEF01F060EFC0
:1002980001F02EC05FF01B0E5F16D8A456EF01F0D8
:1002A80058EF01F060EF01F00A0E296E010E2A6E78
:1002B800100E376E3CEF04F0376A386A3CEF04F0F2
:1002C8002E28D8A46AEF01F06CEF01F06EEF01F070
:1002D80074EF00F02EC02CF00C0E296E010E2A6E61
:1002E800110E376E3CEF04F02E28D8A47EEF01F0F3
:1002F80080EF01F082EF01F074EF00F02E50070B51
:100308002D6E2D50D8A48BEF01F08DEF01F095EFF5
:1003180001F02C50080DF3CF67F0F4CF68F0ABEF85
:1003280001F02D502CC05FF0606AD8905F366036BF
:10033800D8905F366036D8905F3660365F26000EFC
:100348006022F80E5F24676EFF0E6020686E67C03B
:100358002BF0100E2B18D8A4B4EF01F0B6EF01F073
:1003680060EF01F0010E386E74EF00F03750000AAC
:10037800D8B449EF00F0010AD8B453EF00F0030AEB
:10038800D8B464EF00F0010AD8B46CEF00F0070AA3
:10039800D8B482EF00F0010AD8B48AEF00F0030A5B
:1003A800D8B49FEF00F0010AD8B4A8EF00F00F0A04
:1003B800D8B4B2EF00F0010AD8B4BCEF00F0030AD9
:1003C800D8B4C4EF00F0010AD8B4D9EF00F0070A96
:1003D800D8B4E2EF00F0010AD8B410EF01F0030A34
:1003E800D8B433EF01F0010AD8B43BEF01F01F0A8B
:1003F800D8B464EF01F0010AD8B478EF01F03CEF0B
:1004080004F00D0E296E286A020E2A6E010E376E50
:100418003CEF04F0930E016E200E026E080E296E5A
:10042800010E2A6E020E376E3CEF04F02E28D8A477
:1004380020EF02F022EF02F024EF02F060EF01F06B
:10044800080E296E2E50F70B286E020E2A6E030E28
:10045800376E3CEF04F0770E366E300E356E020EB6
:10046800296E36508009286E7CEF00F0040E296E44
:10047800010E2A6E050E376E3CEF04F02E28D8A424
:1004880048EF02F04AEF02F04CEF02F060EF01F0A3
:10049800040E296E2E507F0B286E99EF00F00A0E7D
:1004A800296E010E2A6E070E376E3CEF04F02E28D7
:1004B800D8A461EF02F063EF02F065EF02F060EF9D
:1004C80001F00A0E296E2E508009286E020E2A6E3F
:1004D800080E376E3CEF04F0010E296E286A020EF2
:1004E8002A6E090E376E3CEF04F0090E296E01C022
:1004F80028F0020E2A6E0A0E376E3CEF04F0090E41
:10050800296E02C028F0020E2A6E0B0E376E3CEFE1
:1005180004F0010E296E0C0E286E020E2A6E0C0EC7
:10052800376E3CEF04F02E28D8A49DEF02F09FEF21
:1005380002F0A1EF02F060EF01F00D0E296E2E50CF
:100548008009286E27EF01F03368040E296E010E2A
:100558002A6E0F0E376E3CEF04F02E28D8A4B7EFA2
:1005680002F0B9EF02F0BBEF02F060EF01F02EC02D
:1005780034F034B0C2EF02F0C4EF02F0D1EF02F071
:10058800345035140009D8A4CCEF02F0CEEF02F0B5
:10059800D1EF02F0332E0AEF01F00D0E296E010E95
:1005A8002A6E100E376E3CEF04F02E28D8A4DFEF29
:1005B80002F0E1EF02F0E3EF02F060EF01F00D0E60
:1005C800296E2E507F0B286E020E2A6E110E376E82
:1005D8003CEF04F0060E296E010E2A6E120E376EDD
:1005E8003CEF04F02E28D8A4FCEF02F0FEEF02F056
:1005F80000EF03F060EF01F03350D8B406EF03F0DA
:1006080008EF03F060EF01F02EC05FF01B0E5F16DD
:10061800D8A411EF03F013EF03F060EF01F0090E17
:10062800296E010E2A6E130E376E3CEF04F02E2849
:10063800D8A421EF03F023EF03F025EF03F060EFD8
:1006480001F02EC001F0090E296E010E2A6E140E5B
:10065800376E3CEF04F02E28D8A435EF03F037EFBF
:1006680003F039EF03F060EF01F02EC002F0090E3D
:10067800296E010E2A6E150E376E3CEF04F02E28F7
:10068800D8A449EF03F04BEF03F04DEF03F060EF10
:1006980001F02EC003F0090E296E010E2A6E160E07
:1006A800376E3CEF04F02E28D8A45DEF03F05FEF1F
:1006B80003F061EF03F060EF01F02EC004F0090EC3
:1006C800296E010E2A6E170E376E3CEF04F02E28A5
:1006D800D8A471EF03F073EF03F075EF03F060EF48
:1006E80001F02EC005F0066A02500318041801181C
:1006F800306E02500310041001100009D8B487EFBF
:1007080003F08AEF03F0010E8BEF03F0000E2F6E5B
:10071800180E376E3CEF04F030500518D8A497EF48
:1007280003F099EF03F060EF01F02F50D8B49FEF7A
:1007380003F0A1EF03F0A3EF03F060EF01F0010E67
:10074800616E620E4E6E7CEC0AF001506218D8B4ED
:10075800B0EF03F0B2EF03F0BDEF03F002C05AF0C0
:1007680003C05BF004C05CF005C05DF0015023ECF1
:100778000DF00D0E296E286A020E2A6E190E376EBC
:100788003CEF04F03750000AD8B405EF02F0010A34
:10079800D8B40EEF02F0030AD8B41AEF02F0010A37
:1007A800D8B42FEF02F0070AD8B43AEF02F0010AE2
:1007B800D8B442EF02F0030AD8B453EF02F0010AAA
:1007C800D8B45BEF02F00F0AD8B470EF02F0010A58
:1007D800D8B479EF02F0030AD8B483EF02F0010A23
:1007E800D8B48DEF02F0070AD8B402EF01F0010A7D
:1007F800D8B497EF02F0030AD8B4A8EF02F0010AC0
:10080800D8B4B1EF02F01F0AD8B4D9EF02F0010A48
:10081800D8B4EEEF02F0030AD8B4F6EF02F0010AFA
:10082800D8B41BEF03F0070AD8B42FEF03F0010A7E
:10083800D8B443EF03F0030AD8B457EF03F0010A22
:10084800D8B46BEF03F00F0AD8B490EF03F0010AA5
:10085800D8B460EF01F03CEF04F03850000AD8B487
:10086800BAEF01F0010AD8B4C6EF03F03CEF04F088
:1008780012002050D8B443EF04F045EF04F055EFD0
:1008880005F002EC0CF0E806D8A44DEF04F04FEFA9
:1008980004F07CEF05F0206A55EF05F035EC0FF019
:1008A8001B0AD8B45AEF04F05CEF04F064EF04F0CC
:1008B8002250D8B462EF04F064EF04F07CEF05F046
:1008C800E10E526E1F0E536E98EC0EF0010E206E64
:1008D8000A0E216E226A7CEF05F02050D8A477EF2B
:1008E80004F079EF04F07CEF05F0120E526E1F0E43
:1008F800536E98EC0EF0010E206E0D0E216E7CEFFB
:1009080005F02050D8A48BEF04F08DEF04F07CEFB5
:1009180005F0B30E526E1E0E536E98EC0EF0010EDB
:10092800206E010E216E7CEF05F0F9EC0EF0000947
:10093800D8B4A1EF04F0A3EF04F07CEF05F035EC98
:100948000FF05F6E300E5F64ACEF04F0AEEF04F0B2
:10095800C5EF04F0340E5F60B4EF04F0B6EF04F0B6
:10096800C5EF04F0F00E526E1F0E536E98EC0EF0A9
:10097800010E206E5F500A0DF3502A0F216E7CEF96
:1009880005F0680E526E1F0E536E98EC0EF0010EB5
:10099800206E216A7CEF05F02050D8A4D6EF04F031
:1009A800D8EF04F07CEF05F05A0E4E6E7CEC0AF09E
:1009B8005A50D8B4E2EF04F0E4EF04F0EAEF04F0A0
:1009C8005A0E546E43EC09F0F2EF04F0470E526EE3
:1009D8001F0E536E98EC0EF0010E206E190E216E4C
:1009E8007CEF05F02050D8A4FCEF04F0FEEF04F0F3
:1009F8007CEF05F0F00E526E1F0E536E98EC0EF061
:100A0800CBEF04F02050D8A40CEF05F00EEF05F062
:100A18007CEF05F0C6EC0BF0CDEF04F02050D8A425
:100A280018EF05F01AEF05F07CEF05F0AA0E526EEC
:100A38001F0E536E98EC0EF0010E206E020E216E02
:100A48001F6A7CEF05F0F9EC0EF00009D8B42FEF1F
:100A580005F031EF05F07CEF05F01F50790FD96EE6
:100A6800DA6A35EC0FF0DF6E1F50790FD96EDA6A4B
:100A7800DF50B9EC0EF01F2A040E1F18D8A447EF58
:100A880005F049EF05F07CEF05F0790E4E6E8DEC20
:100A98000DF0890E526E1F0E536E98EC0EF0CBEFD0
:100AA80004F02150000AD8B452EF04F0010AD8B477
:100AB80099EF04F0030AD8B427EF05F0080AD8B470
:100AC80071EF04F0070AD8B485EF04F0190AD8B416
:100AD800D0EF04F00D0AD8B4F6EF04F0070AD8B442
:100AE80006EF05F0360AD8B412EF05F07CEF05F0F2
:100AF800120083500F0B3D6E23EF06F03D50D8B423
:100B080088EF05F08AEF05F091EF05F04C5086EC80
:100B18000EF0030E3A6E3EEF06F03C6A62EC0EF001
:100B2800010E3A6E3EEF06F03D50D8B49EEF05F048
:100B3800A0EF05F0A5EF05F04C5086EC0EF08DEF18
:100B480005F0010E3C6E62EC0EF0020E3A6E3EEFBE
:100B580006F03D50D8B4B3EF05F0B5EF05F0BAEFA5
:100B680005F04C5086EC0EF08DEF05F0020E3C6E51
:100B780062EC0EF03A6A3EEF06F089EC0BF03B6E41
:100B88003D50D8A4CAEF05F0CCEF05F0CEEF05F044
:100B9800BAEF05F04C50FDEC0CF0515050104F10CE
:100BA80009E1050E4E5CD8A0DCEF05F0DEEF05F09C
:100BB8003EEF06F00B0E3B18D8B4E5EF05F0E7EF73
:100BC80005F0EEEF05F03B50CBEC0DF0050E3A6E5C
:100BD8003EEF06F04C5086EC0EF0040E3A6E3EEFF7
:100BE80006F03D50D8A4FBEF05F0FDEF05F0FFEF50
:100BF80005F0BEEF05F04C50FDEC0CF051505010D4
:100C08000BE1DD0E4E5C050E4F58D8A00EEF06F036
:100C180010EF06F03EEF06F032EC0FF0EAEF05F0C9
:100C28003D50D8A41AEF06F01CEF06F03EEF06F090
:100C38003A6A020E3C6E62EC0EF03EEF06F03A5055
:100C4800000AD8B482EF05F0010AD8B498EF05F08D
:100C5800030AD8B4ADEF05F0010AD8B4C1EF05F026
:100C6800070AD8B4F5EF05F0010AD8B414EF06F076
:100C78003EEF06F01200C7EF06F01E50D8A447EF6B
:100C880006F049EF06F051EF06F01D50D8B44FEFCB
:100C980006F051EF06F0DAEF06F01D6A1E6A36EC30
:100CA8000AF06C6E6C500F6E106A010E1C6EDAEF53
:100CB80006F042C01AF0090E1A6465EF06F067EFF5
:100CC80006F06FEF06F0370E1A246D6E6E6A000E8E
:100CD8006E2275EF06F0300E1A246D6E6E6A000EE5
:100CE8006E226D50DFEC08F0200EDFEC08F0020EEB
:100CF8001C6EDAEF06F06F6A6F50700FD96EDA6A01
:100D0800DF50DFEC08F06F04D8A48DEF06F08FEF0A
:100D180006F092EF06F03A0EDFEC08F06F2A030EA9
:100D28006F6499EF06F09BEF06F080EF06F0200E57
:100D3800DFEC08F01B6A030E1C6EDAEF06F0060EF5
:100D48001B60A9EF06F0ABEF06F0C3EF06F01B50EF
:100D5800310FDFEC08F02D0EDFEC08F00F50060D18
:100D6800F350C60F1B24D96EDA6ADF50300FDFEC60
:100D780008F0200EDFEC08F01B2ADAEF06F01B6AF9
:100D88001C6ADAEF06F01C50000AD8B441EF06F0EE
:100D9800010AD8B45DEF06F0030AD8B47FEF06F075
:100DA800010AD8B4A3EF06F0DAEF06F0120023EC3C
:100DB8000FF029EC0FF08B88010E74EC0EF08B9875
:100DC800010E74EC0EF08B88010E74EC0EF00F0E11
:100DD800556E010EC1EC0AF00009D8B4F6EF06F022
:100DE800F8EF06F0EBEF06F0010E74EC0EF08D0E46
:100DF800556E2A0EC1EC0AF00009D8B406EF07F0C8
:100E080008EF07F0FBEF06F03E0E556E2B0EC1EC17
:100E18000AF00009D8B413EF07F015EF07F008EF50
:100E280007F01E0E556E2D0EC1EC0AF00009D8B45D
:100E380020EF07F022EF07F015EF07F0000E556ED0
:100E48002C0EC1EC0AF00009D8B42DEF07F02FEFF3
:100E580007F022EF07F0400E556E150EC1EC0AF0B0
:100E68000009D8B43AEF07F03CEF07F02FEF07F08E
:100E78003D0E556E110EC1EC0AF00009D8B447EFCB
:100E880007F049EF07F03CEF07F0140E66EC07F0A7
:100E9800596EFE0E5918D8B454EF07F056EF07F004
:100EA80049EF07F0030E591259C055F0140EC1EC62
:100EB8000AF00009D8B463EF07F065EF07F058EFC0
:100EC80007F01200566E154A162AE90E155C030E35
:100ED8001658D8A072EF07F074EF07F0DFEF07F0AD
:100EE8008B848B864B6A000E166E000E156EFF0EF5
:100EF800EEEF07F0000E166E000E156E8B948B96B3
:100F0800565056247E0B8009456E396A466A010E92
:100F18004B6EFE0EEEEF07F0450E506E460E516E0C
:100F28004B0E526E020E536E39EC0CF08DEF07F03B
:100F38008B84050E74EC0EF082B0A5EF07F0A9EFD4
:100F480007F0556A552AAAEF07F0556A395039242F
:100F58005510396E8B94050E74EC0EF0462A070E68
:100F68004664B9EF07F0BBEF07F08DEF07F08B840D
:100F78008B864B6A000E166E000E156EFE0E391823
:100F8800D8B4C9EF07F0CBEF07F0D8EF07F039284E
:100F9800D8B4D1EF07F0D3EF07F0D8EF07F039C096
:100FA80057F0586ADCEF07F0000E586EFD0E576ECA
:100FB8005750EEEF07F04B50000AD8B47EEF07F019
:100FC800010AD8B490EF07F0030AD8B49CEF07F0F1
:100FD8008DEF07F01200646E440E4E6ED2EC0CF0EA
:100FE80064C027F063C026F0246A256A939293941C
:100FF8009396000E666E000E656E44C05BF05C6AE8
:10100800000E5E6E640E5D6EACEC0DF0030EEBEC44
:1010180009F044C05BF05C6A000E5E6E040E5D6E03
:10102800ACEC0DF0030EEBEC09F044C05BF05C6A2D
:10103800000E5E6E010E5D6EACEC0DF0030EEBEC77
:1010480009F044C05BF05C6A000E5E6E010E5D6ED6
:10105800ACEC0DF0020EEBEC09F044C05BF05C6AFE
:10106800000E5E6E010E5D6EACEC0DF0280E36ECD7
:101078000EF003EC0FF0080E36EC0EF003EC0FF058
:10108800010E36EC0EF044C05BF05C6A000E5E6E3A
:10109800020E5D6EACEC0DF003EC0FF0060E36ECB4
:1010A8000EF003EC0FF00F0E36EC0EF0654A662AD0
:1010B80066BE68EF08F0665009E1020E655CD8A0CC
:1010C80068EF08F06AEF08F001EF08F012006A6EA6
:1010D800C5EF08F06350D8B474EF08F076EF08F065
:1010E8007CEF08F0000E676E400E666E80EF08F029
:1010F800000E676E000E666E6A506624686E000EFB
:101108006720696ED4EF08F06AC068F0696A630402
:10111800D8A491EF08F093EF08F099EF08F0400E8B
:101128006826000E6922D4EF08F0020E6318D8A4CE
:10113800A0EF08F0A2EF08F0A8EF08F02650682604
:10114800000E6922D4EF08F0030E6318D8A4AFEF9D
:1011580008F0B1EF08F0BEEF08F02650646E656A3B
:10116800400E6426000E6522645068266550692288
:10117800D4EF08F0D4EF08F06AC068F0696AD4EFD9
:1011880008F02750010AD8B4C0EF08F0030AD8B411
:101198006EEF08F0060AD8B488EF08F0C0EF08F040
:1011A80003EC0FF06850800936EC0EF063C025F0B0
:1011B8006AC024F012006B6E03EC0FF06B501DEC4C
:1011C8000EF0242A030E2718D8A4EDEF08F0EFEF4D
:1011D80008F009EF09F0130E2464F5EF08F0F7EFB3
:1011E80008F042EF09F0246A252A030E2564FFEF70
:1011F80008F001EF09F002EF09F0256A25C063F055
:1012080024506BEC08F042EF09F0020E2718D8A41E
:1012180010EF09F012EF09F02CEF09F0270E246403
:1012280018EF09F01AEF09F042EF09F0246A252AAD
:10123800010E256422EF09F024EF09F025EF09F0EB
:10124800256A25C063F024506BEC08F042EF09F0E2
:101258002504D8A432EF09F034EF09F042EF09F081
:10126800270E24643AEF09F03CEF09F03DEF09F04E
:10127800246A25C063F024506BEC08F01200F30ECA
:10128800526E1F0E536EE8EC0DF0000E596E000EF4
:10129800586E54505824D96EDA6ADF50556E553856
:1012A8000F0B566E576A860E5624F66E1E0E572082
:1012B800F76E0800F550B9EC0EF054505824D96E6A
:1012C800DA6ADF500F0B556E566A860E5524F66E95
:1012D8001E0E5620F76E0800F550B9EC0EF059BEF8
:1012E80081EF09F0595007E1040E585CD8B07FEF40
:1012F80009F081EF09F087EF09F0FD0E526E1F0E1D
:10130800536EE8EC0DF0584A592A59BE95EF09F08A
:10131800595009E1050E585CD8A095EF09F097EFF0
:1013280009F04DEF09F0F00E526E1F0E536EE8EC07
:101338000DF01200000E586E000E576E4C0EB9ECF0
:101348000EF05750300FB9EC0EF00F0E526E1F0E04
:10135800536EE8EC0DF054505724D96EDA6ADF501A
:10136800556E566A750E5524F66E1E0E5620F76E8B
:101378000800F550B9EC0EF058BECEEF09F0585001
:1013880007E1050E575CD8B0CCEF09F0CEEF09F0B5
:10139800D4EF09F0F90E526E1F0E536EE8EC0DF003
:1013A800574A582A58BEE2EF09F0585009E1060E8C
:1013B800575CD8A0E2EF09F0E4EF09F0A2EF09F0DA
:1013C800F00E526E1F0E536EE8EC0DF012004F6EC9
:1013D80096909692939A93988A968A948A828A8209
:1013E8004FB6F9EF09F0FDEF09F04E6A4E2AFEEF0D
:1013F80009F04E6A8D504E18FE0B4E188D6E4FB484
:1014080008EF0AF00CEF0AF04E6A4E2A0DEF0AF0C8
:101418004E6A4E468D504E18FD0B4E188D6E4FB2CB
:1014280018EF0AF01CEF0AF04E6A4E2A1DEF0AF078
:101438004E6A4E3A4E468A504E18DF0B4E188A6E48
:101448004FB029EF0AF02DEF0AF04E6A4E2A2EEF20
:101458000AF04E6A4E3A8A504E18EF0B4E188A6EB2
:101468008A9212003E50D8A43CEF0AF03EEF0AF0F0
:1014780041EF0AF0000E7BEF0AF0516A010E506E40
:10148800526A5150100DF350800F5224D96EDA6A07
:1014980052503E0FE16EE26ADE50E618D8B457EFBC
:1014A8000AF059EF0AF05CEF0AF0506A65EF0AF0AB
:1014B800522A040E526463EF0AF065EF0AF045EF12
:1014C8000AF05050D8B46BEF0AF06DEF0AF070EFE5
:1014D8000AF051507BEF0AF0512A030E516477EF5E
:1014E8000AF079EF0AF042EF0AF03EEF0AF0120034
:1014F8004E50D8A482EF0AF084EF0AF086EF0AF083
:10150800C0EF0AF03E50D8A48CEF0AF08EEF0AF034
:10151800ACEF0AF04E50D96EDA6ADF6A4E50D96ED7
:10152800DA6A010ED926DF6A4E50D96EDA6A020EDF
:10153800D926DF6A4E50D96EDA6A030ED926DF6AD9
:101548004E50D96EDA6A040ED926DF6AC0EF0AF067
:101558004F6A4F503E0FD96EDA6A4E504F24E16EF3
:10156800E26ADFCFE7FF4F2A040E4F64BEEF0AF0AE
:10157800C0EF0AF0ADEF0AF01200566EF4EF0AF071
:101588008B948B96565056247E0B486E55C047F068
:10159800496A010E4A6E03EF0BF0480E506E490E71
:1015A800516E4A0E526E020E536E39EC0CF003EF78
:1015B8000BF0470E506E490E516E4A0E526E000ED9
:1015C800536E39EC0CF04A50D8A4EDEF0AF0EFEF67
:1015D8000AF003EF0BF08B868B84010E04EF0BF0FF
:1015E8004A50000AD8B4C4EF0AF0010AD8B4D1EFBF
:1015F8000AF0030AD8B4DDEF0AF003EF0BF0000E8F
:1016080012004F6E4FB60BEF0BF00FEF0BF04E6A58
:101618004E2A10EF0BF04E6A8D504E18FE0B4E18E6
:101628008D6E4FB41AEF0BF01EEF0BF04E6A4E2A78
:101638001FEF0BF04E6A4E468D504E18FD0B4E189C
:101648008D6E4FB22AEF0BF02EEF0BF04E6A4E2A3A
:101658002FEF0BF04E6A4E3A4E468A504E18DF0B6B
:101668004E188A6E4FB03BEF0BF03FEF0BF04E6A0F
:101678004E2A40EF0BF04E6A4E3A8A504E18EF0B46
:101688004E188A6E12004F6E4FBE4DEF0BF051EFA1
:101698000BF04E6A4E2A52EF0BF04E6A8D504E18E0
:1016A800FE0B4E188D6E4FBC5CEF0BF060EF0BF02D
:1016B8004E6A4E2A61EF0BF04E6A4E468D504E1818
:1016C800FD0B4E188D6E4FBA6CEF0BF070EF0BF0F0
:1016D8004E6A4E2A71EF0BF04E6A4E3A4E468A50C9
:1016E8004E18DF0B4E188A6E4FB87DEF0BF081EF66
:1016F8000BF04E6A4E2A82EF0BF04E6A4E3A8A5031
:101708004E18EF0B4E188A6E1200506A9EEF0BF0BF
:10171800516AB1EF0BF0010E516EB1EF0BF0020EF2
:10172800516EB1EF0BF0030E516EB1EF0BF0FF0EDF
:10173800C5EF0BF03D50010AD8B48CEF0BF0030A4B
:10174800D8B48FEF0BF0060AD8B493EF0BF00C0A5D
:10175800D8B497EF0BF09BEF0BF03CC050F0515012
:10176800030D970EF3244E6E1E0EF4204F6E50504C
:101778004E26000E4F224EC0F6FF4FC0F7FF08005E
:10178800F5501200556AAD0E526E1E0E536EE8ECFF
:101798000DF05550310FB9EC0EF0A30E526E1E0E1F
:1017A800536EE8EC0DF0546A5550060DF350C60F11
:1017B8005424D96EDA6ADF50300FB9EC0EF0FB0E04
:1017C800526E1F0E536EE8EC0DF0542A050E546449
:1017D800F0EF0BF0F2EF0BF0D8EF0BF0F00E526ECB
:1017E8001F0E536EE8EC0DF0552A030E5564FFEFFB
:1017F8000BF001EF0CF0C7EF0BF012002DEF0CF01F
:10180800010E38EF0CF011C0F6FF12C0F7FF080008
:10181800F5500009D8A413EF0CF015EF0CF018EFF1
:101828000CF0236A04EF0CF011C0F6FF12C0F7FFAA
:101838000800F5504FEC0EF00009D8B426EF0CF074
:1018480028EF0CF02AEF0CF0114A122A000E38EF9C
:101858000CF02350000AD8B404EF0CF0010AD8B4F5
:1018680007EF0CF02AEF0CF012005050D96EDA6A2C
:10187800DFBE41EF0CF045EF0CF0546A542A46EFF6
:101888000CF0546A54468B505418FD0B54188B6E48
:101898008B845050D96EDA6AD890DF36050E74EC16
:1018A8000EF08B94050E74EC0EF05150D96EDA6A76
:1018B800DF2A080EDE18D8A464EF0CF066EF0CF0EF
:1018C8006FEF0CF05150D96EDA6ADF6A5250D96E58
:1018D800DA6A53C0DFFF1200460EF66E190EF76E75
:1018E800000EF86E00EE80F010EE5EF00900F5CF05
:1018F800EEFFE550E150FAE1380EF66E1E0EF76E77
:10190800000EF86E00EE70F010EE0DF00900F5CF45
:10191800EEFFE550E150FAE100EEDEF01A0EEE6A55
:10192800E806FDE100EE01F04C0EEE6AE806FDE186
:101938007D907D92000EF86E00016BEF0DF065DC76
:10194800F903430000000000000000000000DC0D67
:10195800F9032B0000000000000000000000DF8BEE
:10196800DFC44F000000000000000000000021322A
:10197800A9893300000000000000000000000102F7
:101988000408102001010101010101010101010107
:10199800010101010101010101010101506AE1EFA9
:1019A8000CF0502A040E5018D8A4DDEF0CF0DFEF2D
:1019B8000CF0E1EF0CF0FCEF0CF05050050DF3507B
:1019C800E20FD96EDA6ADE04D8B4EDEF0CF0EFEF6F
:1019D8000CF0D5EF0CF05050050DF350E20FD96E16
:1019E800DA6A010EDF6E4E50D96EDA6A50C0DFFF38
:1019F80012005A6EF29E0BC056F00CC057F00DC084
:101A080058F00EC059F0F28E5A50050DF350DE0F03
:101A1800D96EDA6ADECF52F0DECF53F0DECF54F063
:101A2800DECF55F05250565C4E6E535057584F6E9D
:101A380054505858506E55505958516E12005E6E99
:101A48005EC03EF05AC03FF05BC040F05CC041F061
:101A58005DC042F0010E1D6ECB0E526E1F0E536E0E
:101A6800E8EC0DF03E0E546E43EC09F0DF0E526EBA
:101A78001F0E536EE8EC0DF00F50060DF350C60F15
:101A8800546E9EEC09F01200506E040E50604FEF39
:101A98000DF051EF0DF06AEF0DF0060E4E6057EFA6
:101AA8000DF059EF0DF06AEF0DF00B0E4F605FEF80
:101AB8000DF061EF0DF06AEF0DF05050060DF35088
:101AC800C60F4E24D96EDA6A4FC0DFFF120003EC4E
:101AD8000EF0D6EC0EF0DBEC06F00DEC0FF02EEC71
:101AE8000FF015EC0FF0100E636E020EEFEC07F01E
:101AF800A9EC0EF0F28EF29C7DEC05F03DEC04F0C2
:101B080015EC00F03FEC06F08D7480EF0DF013EF4C
:101B180000F04E50D8A493EF0DF095EF0DF097EF2D
:101B28000DF0ABEF0DF04F6A4E504F24D96EDA6AC4
:101B38004F50700FE16EE26ADFCFE7FF4F2A030EC6
:101B48004F64A9EF0DF0ABEF0DF098EF0DF0120018
:101B58005B5086EC0EF05DC05FF05EC060F0000E7A
:101B680060BEFF0E616E626E5B50FDEC0CF05F5064
:101B78004E5C60504F586150505862505158D8A030
:101B8800C8EF0DF0CAEF0DF0AFEF0DF01200536E75
:101B98001950D8A4D2EF0DF0D4EF0DF0DAEF0DF014
:101BA8005304186E010E196EE7EF0DF036EC0AF0CB
:101BB800176E18C04EF053C04FF0175048EC0DF098
:101BC800010E1E6E196A1200F4EF0DF052C0F6FFF6
:101BD80053C0F7FF0800F550B9EC0EF0524A532AEB
:101BE80052C0F6FF53C0F7FF0800F5500009D8A40B
:101BF80000EF0EF002EF0EF0EAEF0DF012004E6A61
:101C08004E50050DF350E20FD96EDA6ADF6A4E2A9C
:101C1800030E4E6412EF0EF014EF0EF004EF0EF008
:101C2800820ED56EF60ED76E3C0ED66EF294F28A00
:101C38001200506E96909692939A93988A868A94F8
:101C48008A82505047EC0BF08A828A928A928A8262
:101C5800505005EC0BF08A828A9296809682938A7D
:101C680093881200506E96909692939A93988A96BB
:101C78008A948A82505047EC0BF08A828A928A9220
:101C88008A82505005EC0BF08A828A92968096825E
:101C9800938A93881200516EC8EC0EF04E504F1084
:101CA800D8A459EF0EF05BEF0EF05EEF0EF0000EC9
:101CB80061EF0EF051C0ADFF010E1200030E3C6043
:101CC80068EF0EF06AEF0EF072EF0EF03C50740FF2
:101CD800D96EDA6ADF508C6E73EF0EF08C6A1200E0
:101CE8004E6E4E50080DF3CF4FF07CEF0EF0000013
:101CF8004F064F28D8A483EF0EF085EF0EF07BEF48
:101D08000EF012004E6EF29E4E50050DF350DE0F8F
:101D1800D96EDA6A0BC0DEFF0CC0DEFF0DC0DEFF35
:101D28000EC0DEFFF28E120002EC0CF0E806D8A41A
:101D3800A0EF0EF0A2EF0EF0A8EF0EF052C011F0D7
:101D480053C012F0010E236E12004E6A4E503E0F21
:101D5800D96EDA6ADF6A4E2A040E4E64B6EF0EF0C8
:101D6800B8EF0EF0AAEF0EF01200516EC8EC0EF0AC
:101D78004E504F10D8B4C3EF0EF0C5EF0EF0BAEFC7
:101D88000EF051C0ADFF12009EB8CDEF0EF0D1EFAE
:101D98000EF0506A502AD2EF0EF0506A50504E6E34
:101DA8004F6A12000F0E956E8C6A3A6A3B6A3C6A5B
:101DB8003D6A4C0E4E6ED2EC0CF01200F60ED76E49
:101DC8003C0ED66EF294010E0B26000E0C220D224C
:101DD8000E221200F2A4F3EF0EF0F5EF0EF0F7EF7B
:101DE8000EF0E2EC0EF07D9211009EBAFEEF0EF0BE
:101DF80001EF0FF0010E02EF0FF0000E120044C0C9
:101E08005BF05C6A000E5E6E020E5D6EACEC0DF06F
:101E18001200240EAC6E900EAB6EAF68B86A226AE0
:101E28001200926A966A430E4E6ED2EC0CF01200C3
:0D1E380030303030204010E80330303030C2
:101E46009480949294949496949812004A6A4B6A59
:101E56008B848B8612000F0EC16E96941200010EB3
:081E6600226E1200AE501200C2
:101E74000030313233343536373839414243444502
:101E840046003031323334353637383941424344F1
:101E94004546000102030405060708090A000B2051
:101EA400436F6E6669673A200055736572200009B6
:101EB400312E205175692068692068612061206C89
:101EC400612073616C613F0D0A09322E204D6F73DE
:101ED4007472617220636F6E66696775726163699B
:101EE4006F6E730D0A09332E204D6F646966696342
:101EF400617220686F72612064656C207369737409
:101F0400656D610D0A4F706369C3B33A20004D6576
:101F14006EC3BA207072696E636970616C0D0A2DAC
:101F24002D2D2D2D2D2D2D2D2D2D2D2D2D2D0D0A20
:101F34005472696120756E61206F706369C3B33A2E
:101F44000D0A004E6F20686920686120636170206B
:101F54007573756172692061206C612073616C61B5
:101F64002E0D0A004552524F522E2056616C6F724C
:101F740020696E74726F64756974206572726F6E15
:101F8400692E0D0A000D0A486F726120696E747221
:101F94006F647569646120636F7272656374616DE7
:101FA400656E740D0A00496E74726F647563652002
:101FB4006C6120686F72612061637475616C28487C
:101FC400484D4D293A20005461726765746120645C
:101FD4006574656374616461210D0A09002D2D2DFA
:101FE4002D2D2D2D2D2D2D2D2D2D2D2D0D0A005565
:0C1FF40049443A2000202D20002D000060
:020000040020DA
:08000000FFFFFFFFFFFFFFFF00
:020000040030CA
:0E000000FF06191EFF8181FF03C003E00340CD
:00000001FF
