:020000040000FA
:0400000013EF00F00A
:060008006F8239EF0AF0DF
:100018006F80E0CF4FF04FC0E0FF6F90100099EF76
:1000280007F014EF01F08DEC0AF0406E4050D8A4B0
:1000380020EF00F022EF00F02AEF00F0010E3F6EF3
:1000480097EC08F0010E3D6E2FEF01F04050D8B448
:1000580030EF00F032EF00F02FEF01F04E50E6ECF9
:1000680009F0030E3D6E2FEF01F08DEC0AF0406EA3
:100078004050D8A442EF00F044EF00F04CEF00F0FD
:10008800020E3F6E97EC08F0020E3D6E2FEF01F066
:100098004050D8B452EF00F054EF00F02FEF01F0C9
:1000A8004E50E6EC09F035EF00F08DEC0AF0406EAA
:1000B8004050D8B462EF00F064EF00F069EF00F050
:1000C8004E50E6EC09F035EF00F04050D8A46FEF41
:1000D80000F071EF00F02FEF01F0040E3F6E97EC87
:1000E80008F03D6A2FEF01F090EC04F03E6E8DECC5
:1000F8000AF0406E4050D8A484EF00F086EF00F07C
:1001080088EF00F071EF00F04050D8B48EEF00F0A7
:1001180090EF00F0B0EF00F04E5071EC08F0535043
:100128005210511009E1050E505CD8A09EEF00F066
:10013800A0EF00F0B0EF00F00B0E3E18D8B4A7EF18
:1001480000F0A9EF00F0B0EF00F03E50FCEC08F032
:10015800050E3D6E2FEF01F04050D8B4B6EF00F019
:10016800B8EF00F02FEF01F04E5071EC08F053504B
:100178005210511009E1050E505CD8A0C6EF00F0EE
:10018800C8EF00F02FEF01F00B0E3E18D8A4CFEF08
:1001980000F0D1EF00F02FEF01F04E50E6EC09F03F
:1001A800040E3D6E2FEF01F08DEC0AF0406E4050CA
:1001B800D8A4E1EF00F0E3EF00F0E5EF00F075EF11
:1001C80000F04050D8B4EBEF00F0EDEF00F02FEF67
:1001D80001F04E5071EC08F0535052100BE1F50E3F
:1001E800505C010E5158D8A0FCEF00F0FEEF00F073
:1001F8002FEF01F08AEC0AF0ACEF00F08DEC0AF07A
:10020800406E4050D8A40BEF01F00DEF01F02FEF36
:1002180001F03D6A040E3F6E97EC08F02FEF01F0F5
:100228003D50000AD8B417EF00F0010AD8B439EFEE
:1002380000F0030AD8B459EF00F0010AD8B478EFF7
:1002480000F0070AD8B4D8EF00F0010AD8B402EFDA
:1002580001F02FEF01F01200000180514718D8A4D7
:1002680038EF01F03AEF01F061EF01F081514818E1
:10027800D8A441EF01F043EF01F061EF01F08251A2
:100288004918D8A44AEF01F04CEF01F061EF01F0F2
:1002980083514A18D8A453EF01F055EF01F061EFEC
:1002A80001F084514B18D8A45CEF01F05EEF01F027
:1002B80061EF01F0000EF3EF01F047509019D8A458
:1002C80068EF01F06AEF01F091EF01F091514818E1
:1002D800D8A471EF01F073EF01F091EF01F09251A2
:1002E8004918D8A47AEF01F07CEF01F091EF01F002
:1002F80093514A18D8A483EF01F085EF01F091EFEC
:1003080001F094514B18D8A48CEF01F08EEF01F056
:1003180091EF01F0010EF3EF01F04750A019D8A4B6
:1003280098EF01F09AEF01F0C1EF01F0A1514818E0
:10033800D8A4A1EF01F0A3EF01F0C1EF01F0A251A1
:100348004918D8A4AAEF01F0ACEF01F0C1EF01F011
:10035800A3514A18D8A4B3EF01F0B5EF01F0C1EFEB
:1003680001F0A4514B18D8A4BCEF01F0BEEF01F086
:10037800C1EF01F0020EF3EF01F04750B019D8A415
:10038800C8EF01F0CAEF01F0F1EF01F0B1514818E0
:10039800D8A4D1EF01F0D3EF01F0F1EF01F0B251A1
:1003A8004918D8A4DAEF01F0DCEF01F0F1EF01F021
:1003B800B3514A18D8A4E3EF01F0E5EF01F0F1EFEB
:1003C80001F0B4514B18D8A4ECEF01F0EEEF01F0B6
:1003D800F1EF01F0030EF3EF01F05EEF01F0120010
:1003E800A2EF02F090EC0AF01B0AD8A4FEEF01F08D
:1003F80000EF02F004EF02F038EC07F0010E2C6E6B
:100408002D04D8A40AEF02F00CEF02F0B1EF02F0CD
:1004180038EC07F0010E2C6E2D6AB1EF02F044ECB7
:100428000AF0E806D8A41BEF02F01DEF02F0B1EFC6
:1004380002F090EC0AF0310AD8A425EF02F027EF79
:1004480002F03DEF02F0C50E546E1F0E556E4FECD4
:1004580009F0C6EC07F0606E60C056F040EC03F09F
:10046800C50E546E1F0E556E4FEC09F02C6AB1EF95
:1004780002F090EC0AF0320AD8A445EF02F047EFF8
:1004880002F051EF02F0C50E546E1F0E556E4FEC80
:1004980009F0F2EC05F03AEF02F090EC0AF0330ABA
:1004A800D8A459EF02F05BEF02F06BEF02F0C50E33
:1004B800546E1F0E556E4FEC09F0340E546E1F0E1D
:1004C800556E4FEC09F0020E2C6EB1EF02F0D10E12
:1004D800546E1E0E556E4FEC09F03AEF02F044ECE4
:1004E8000AF0E806D8A47BEF02F07DEF02F0B1EF46
:1004F80002F02B506B0FD96EDA6A90EC0AF0DF6EBF
:100508002B506B0FD96EDA6ADF50F8EC09F02B2A02
:10051800040E2B18D8A493EF02F095EF02F0B1EF78
:1005280002F06B0E506E34EC09F0130E546E1F0E71
:10053800556E4FEC09F02B6A3AEF02F02C50000A86
:10054800D8B4F6EF01F0010AD8B413EF02F0030AA9
:10055800D8B473EF02F0B1EF02F012002CEF03F001
:100568002A04D8A4BAEF02F0BCEF02F0BFEF02F001
:100578002A6A020E286E2904D8A4C5EF02F0C7EF34
:1005880002F03FEF03F0296A020E286E3FEF03F0F6
:10059800200E2CEC04F0000E206E000E1F6E030ED1
:1005A800286E3FEF03F020BEE5EF02F0205007E190
:1005B800050E1F5CD8B0E3EF02F0E5EF02F0F0EFB4
:1005C80002F01F50670FD96EDA6ADF502CEC04F086
:1005D8001F4A202A3FEF03F0050E1F182010D8A449
:1005E800F8EF02F0FAEF02F03FEF03F0000E206E92
:1005F800000E1F6E200E2CEC04F0040E286E3FEF48
:1006080003F020BE13EF03F0205007E1060E1F5C35
:10061800D8B011EF03F013EF03F025EF03F01F2814
:100628002CEC04F02D0E2CEC04F01F50C00FD96EEA
:10063800DA6ADF502CEC04F0200E2CEC04F0ECEF1E
:1006480002F0000E206E000E1F6E286A3FEF03F0C6
:100658002850000AD8B4B4EF02F0020AD8B4CCEF9C
:1006680002F0010AD8B4D7EF02F0070AD8B405EFB0
:1006780003F03FEF03F01200F30E546E1F0E556E99
:100688004FEC09F0000E5F6E000E5E6E56505E2451
:10069800D96EDA6ADF50576E57380F0B0F0B5C6E46
:1006A800090E5C645AEF03F05CEF03F064EF03F0AB
:1006B800370E5C24586E596A000E59226AEF03F00F
:1006C800300E5C24586E596A000E59225850F8ECC6
:1006D80009F056505E24D96EDA6ADF500F0B5D6E52
:1006E800090E5D647AEF03F07CEF03F084EF03F00A
:1006F800370E5D245A6E5B6A000E5B228AEF03F0A8
:10070800300E5D245A6E5B6A000E5B225A50F8EC7C
:1007180009F05FBE9BEF03F05F5007E1040E5E5CDB
:10072800D8B099EF03F09BEF03F0A1EF03F0FD0EB3
:10073800546E1F0E556E4FEC09F05E4A5F2A5FBE7D
:10074800AFEF03F05F5009E1050E5E5CD8A0AFEF94
:1007580003F0B1EF03F04AEF03F0C50E546E1F0E1D
:10076800556E4FEC09F01200656E12EF04F05E5002
:10077800D8B4C1EF03F0C3EF03F0C9EF03F0000EE4
:10078800626E400E616ECDEF03F0000E626E000ED9
:10079800616E65506124636E000E6220646E21EF05
:1007A80004F065C063F0646A5E04D8A4DEEF03F069
:1007B800E0EF03F0E6EF03F0400E6326000E64223C
:1007C80021EF04F0020E5E18D8A4EDEF03F0EFEF6E
:1007D80003F0F5EF03F030506326000E642221EF9A
:1007E80004F0030E5E18D8A4FCEF03F0FEEF03F04C
:1007F8000BEF04F030505F6E606A400E5F26000E0B
:1008080060225F5063266050642221EF04F021EFDC
:1008180004F065C063F0646A21EF04F03150010A06
:10082800D8B40DEF04F0030AD8B4BBEF03F0060AFE
:10083800D8B4D5EF03F00DEF04F069EC07F063507E
:1008480080099FEC09F05EC02FF065C02EF0120001
:10085800666E69EC07F06650B8EC09F02E2A030EB4
:100868003118D8A43AEF04F03CEF04F056EF04F046
:10087800130E2E6442EF04F044EF04F08FEF04F0FF
:100888002E6A2F2A030E2F644CEF04F04EEF04F06B
:100898004FEF04F02F6A2FC05EF02E50B8EC03F033
:1008A8008FEF04F0020E3118D8A45DEF04F05FEF6B
:1008B80004F079EF04F0270E2E6465EF04F067EF7B
:1008C80004F08FEF04F02E6A2F2A010E2F646FEFC9
:1008D80004F071EF04F072EF04F02F6A2FC05EF09D
:1008E8002E50B8EC03F08FEF04F02F04D8A47FEF5C
:1008F80004F081EF04F08FEF04F0270E2E6487EFE9
:1009080004F089EF04F08AEF04F02E6A2FC05EF03D
:100918002E50B8EC03F012005E6AA5EF04F05F6A8F
:10092800C3EF04F0010E5F6EC3EF04F0020E5F6EBA
:10093800C3EF04F0030E5F6EC3EF04F0FF0EF1EF98
:1009480004F04050010AD8B493EF04F0030AD8B475
:1009580096EF04F0060AD8B49AEF04F00C0AD8B45B
:100968009EEF04F0A2EF04F05E6ADDEF04F0010EE2
:100978005E6EDDEF04F0020E5E6EDDEF04F03F50B8
:10098800070B506E516A5150000AD8B4CEEF04F0EC
:10099800A2EF04F05050010AD8B4B8EF04F0030AEB
:1009A800D8B4BBEF04F0060AD8B4BFEF04F0A2EF46
:1009B80004F0C50EF66E1E0EF76E20EE52F00B0E0A
:1009C8000900F5CFDEFFE806FBE25F50030DF350A8
:1009D800520F5E24D96EDA6ADF501200410E506E53
:1009E800DDEC08F04C5071EC08F0535052105110E7
:1009F80009E10A0E505CD8A004EF05F006EF05F0F7
:100A08000CEF05F04C50E6EC09F0FF0EFFEC06F099
:100A1800000E636E000E626E6250410FD96EDA6A84
:100A28000A0EDF601AEF05F01CEF05F03CEF05F049
:100A38006250410FD96EDA6ADF505D6E5DC05EF0BC
:100A48005F6A606A616A4C5071EC08F05E50505CF5
:100A58005F5051586050525861505358D8A037EFE2
:100A680005F039EF05F03CEF05F06250C6EC06F0F2
:100A7800624A632A63BE4AEF05F0635009E1060E35
:100A8800625CD8A04AEF05F04CEF05F010EF05F0D6
:100A980012005C6E5C505C247E0B5D6E8B948B96B2
:100AA800080E5E6E5DBE5BEF05F05FEF05F05B6AFA
:100AB8005B2A60EF05F05B6A5B468B505B18FD0BA9
:100AC8005B188B6E8B84D8905D36050E6AEC09F046
:100AD8008B94050E6AEC09F05E065E50D8A477EF99
:100AE80005F079EF05F056EF05F0080E5E6E5ABE78
:100AF80080EF05F084EF05F05B6A5B2A85EF05F06F
:100B08005B6A5B468B505B18FD0B5B188B6E8B84A6
:100B1800D8905A36050E6AEC09F08B94050E6AECEB
:100B280009F05E065E50D8A49CEF05F09EEF05F034
:100B38007BEF05F08B868B841200566E5650562438
:100B48007E0B8009576E586A8B948B96080E596EE7
:100B580057BEB1EF05F0B5EF05F0556A552AB6EF67
:100B680005F0556A55468B505518FD0B55188B6E78
:100B78008B84050E6AEC09F0D89057368B94050ED5
:100B88006AEC09F059065950D8A4CDEF05F0CFEF1B
:100B980005F0ACEF05F0080E596E8B84050E6AEC73
:100BA80009F0D890583682B0DCEF05F0DFEF05F099
:100BB800010EE0EF05F0000E58128B94050E6AEC5A
:100BC80009F059065950D8A4ECEF05F0EEEF05F0FE
:100BD800D1EF05F08B868B8458501200000E596EA9
:100BE800000E586EED0E546E1F0E556E4FEC09F048
:100BF8005850310FF8EC09F0DA0E546E1F0E556E8E
:100C08004FEC09F0000E576E000E566E5850060D48
:100C1800F350C00F5624D96EDA6ADF50300FF8EC63
:100C280009F0FB0E546E1F0E556E4FEC09F0564A34
:100C3800572A57BE29EF06F0575009E1060E565CB1
:100C4800D8A029EF06F02BEF06F00AEF06F0C50E44
:100C5800546E1F0E556E4FEC09F0584A592A59BE6A
:100C68003FEF06F0595009E1040E585CD8A03FEF59
:100C780006F041EF06F0F6EF05F01200516E51B69E
:100C880048EF06F04CEF06F0506A502A4DEF06F098
:100C9800506A8D505018FE0B50188D6E51B457EF96
:100CA80006F05BEF06F0506A502A5CEF06F0506AD7
:100CB80050468D505018FD0B50188D6E51B267EF8D
:100CC80006F06BEF06F0506A502A6CEF06F0506A97
:100CD800503A50468A505018DF0B50188A6E51B05F
:100CE80078EF06F07CEF06F0506A502A7DEF06F0A8
:100CF800506A503A8A505018EF0B50188A6E1200FA
:100D0800516E51BE8AEF06F08EEF06F0506A502AF7
:100D18008FEF06F0506A8D505018FE0B50188D6EEC
:100D280051BC99EF06F09DEF06F0506A502A9EEFED
:100D380006F0506A50468D505018FD0B50188D6EB5
:100D480051BAA9EF06F0ADEF06F0506A502AAEEF9F
:100D580006F0506A503A50468A505018DF0B501827
:100D68008A6E51B8BAEF06F0BEEF06F0506A502A04
:100D7800BFEF06F0506A503A8A505018EF0B5018DF
:100D88008A6E1200506EE3EF06F08990FEEF06F0CF
:100D98008992FEEF06F08994FEEF06F08996FEEF41
:100DA80006F08998FEEF06F0899AFEEF06F0899022
:100DB8008992899489968998899AFEEF06F050500D
:100DC800000AD8B4C9EF06F0010AD8B4CCEF06F08F
:100DD800030AD8B4CFEF06F0010AD8B4D2EF06F070
:100DE800070AD8B4D5EF06F0010AD8B4D8EF06F050
:100DF800DBEF06F01200506E1CEF07F0898037EF2A
:100E080007F0898237EF07F0898437EF07F0898682
:100E180037EF07F0898837EF07F0898A37EF07F04F
:100E280089808982898489868988898A37EF07F049
:100E38005050000AD8B402EF07F0010AD8B405EF01
:100E480007F0030AD8B408EF07F0010AD8B40BEF8B
:100E580007F0070AD8B40EEF07F0010AD8B411EF6B
:100E680007F014EF07F01200B60E546E1F0E556E01
:100E78004FEC09F0C80E546E1F0E556E4FEC09F07A
:100E8800B60E546E1F0E556E4FEC09F0A30E546E3D
:100E98001F0E556E4FEC09F0720E546E1F0E556EF4
:100EA8004FEC09F0550E546E1F0E556E4FEC09F0BD
:100EB800F20E546E1E0E556E4FEC09F0E40E546E91
:100EC8001F0E556E4FEC09F0120096809682938A99
:100ED80093888A968A844D50E6EC09F08A828A8241
:100EE800000E81BE010E5D6E8A928A928A828A8283
:100EF8008A928A924D5071EC08F05350521051105A
:100F080009E10B0E505CD8A08CEF07F08EEF07F0CC
:100F180090EF07F098EF07F05D50D8A496EF07F030
:100F280098EF07F072EF07F01200E60EF66E0F0E5C
:100F3800F76E000EF86E00EE80F010EE58F0090023
:100F4800F5CFEEFFE550E150FAE1FC0EF66E140E17
:100F5800F76E000EF86E00EE67F010EE08F009006C
:100F6800F5CFEEFFE550E150FAE100EE01F04E0E4C
:100F7800EE6AE806FDE16F906F92000EF86E0001D0
:100F880019EF09F04750D8A4CCEF07F0CEEF07F0DF
:100F9800F1EF07F04850D8A4D4EF07F0D6EF07F0E8
:100FA800F1EF07F04950D8A4DCEF07F0DEEF07F0C7
:100FB800F1EF07F04A50D8A4E4EF07F0E6EF07F0A6
:100FC800F1EF07F04B50D8A4ECEF07F0EEEF07F085
:100FD800F1EF07F0000EF2EF07F0470E120065DCA4
:100FE800F903430000000000000000000000DC0DD1
:100FF800F9032B0000000000000000000000DF8B58
:10100800DFC44F0000000000000000000000213293
:10101800A989330000000000000000000000010161
:1010280001010101010101010101010101010101A8
:10103800010101010101526A2EEF08F0522A040E43
:101048005218D8A42AEF08F02CEF08F02EEF08F079
:1010580049EF08F05250050DF350050FD96EDA6AC2
:10106800DE04D8B43AEF08F03CEF08F022EF08F0BD
:101078005250050DF350050FD96EDA6A010EDF6E76
:101088005050D96EDA6A52C0DFFF12008B868B8807
:10109800D1EC09F08D0E5A6E2A0E4DEC05F03E0E7D
:1010A8005A6E2B0E4DEC05F01E0E5A6E2D0E4DECA1
:1010B80005F0000E5A6E2C0E4DEC05F0400E5A6EDF
:1010C800150E4DEC05F03D0E5A6E110E4DEC05F067
:1010D8006DEC0AF067EC0AF012005C6EF29E1BC021
:1010E80058F01CC059F01DC05AF01EC05BF0F28EBB
:1010F8005C50050DF350010FD96EDA6ADECF54F05B
:10110800DECF55F0DECF56F0DECF57F05450585CA6
:10111800506E55505958516E56505A58526E575035
:101128005B58536E12008C6A3F04D8A49EEF08F0F7
:10113800A0EF08F0A3EF08F08C8AB9EF08F0020ED0
:101148003F18D8A4AAEF08F0ACEF08F0AFEF08F00A
:101158008C8CB9EF08F0040E3F18D8A4B6EF08F04D
:10116800B8EF08F0B9EF08F08C881200526E040E40
:101178005260C1EF08F0C3EF08F0DCEF08F0060E8C
:101188005060C9EF08F0CBEF08F0DCEF08F00B0E69
:101198005160D1EF08F0D3EF08F0DCEF08F05250BF
:1011A800060DF350C00F5024D96EDA6A51C0DFFF24
:1011B8001200000E526E000E516E5150C00FD96EC3
:1011C800DA6A50505124E16EE26ADFCFE7FF514AF4
:1011D800522A52BEF9EF08F0525009E1060E515C4E
:1011E800D8A0F9EF08F0FBEF08F0E1EF08F01200E3
:1011F800536E2750D8A403EF09F005EF09F00BEF61
:1012080009F05304266E010E276E18EF09F030EC32
:1012180001F0256E26C050F053C051F02550BAECAD
:1012280008F0010E2A6E276A120085EC09F02EECF0
:101238000AF079EC0AF058EC0AF086EC0AF060EC57
:101248000AF0F28EF29C15EC00F0F4EC01F0F2ECEE
:1012580004F0B2EC02F08D7427EF09F013EF00F000
:101268005050D96EDA6ADF50676E5050D96EDA6A1C
:10127800010ED926DF50686E5050D96EDA6A020E18
:10128800D926DF50696E5050D96EDA6A030ED92616
:10129800DF506A6E12005BEF09F054C0F6FF55C0CC
:1012A800F7FF0800F550F8EC09F0544A552A54C0E5
:1012B800F6FF55C0F7FF0800F5500009D8A467EFFE
:1012C80009F069EF09F051EF09F01200536E546A02
:1012D80070EF09F00000542A5350100D5450506E0E
:1012E800516AF350505C5150800A526EF450800A93
:1012F8005258D8A082EF09F084EF09F06EEF09F098
:101308001200506A5050050DF350050FD96EDA6A75
:10131800DF6A502A030E506494EF09F096EF09F043
:1013280086EF09F0820ED56EF60ED76E3C0ED66E9D
:10133800F294F28A1200526E96909692939A93982B
:101348008A968A948A82525084EC06F08A828A921B
:101358008A928A82525042EC06F08A828A92968059
:101368009682938A93881200526E96909692939AD8
:1013780093988A868A948A82525084EC06F08A82EC
:101388008A928A928A82525042EC06F08A828A9223
:1013980096809682938A938812008B88010E6AEC55
:1013A80009F08B98010E6AEC09F08B88010E6AEC43
:1013B80009F00F0E5A6E010E4DEC05F0010E6AECA5
:1013C80009F01200506EF29E5050050DF350010FB7
:1013D800D96EDA6A1BC0DEFF1CC0DEFF1DC0DEFF4F
:1013E8001EC0DEFFF28E1200536E07EC0AF050505A
:1013F8005110D8B402EF0AF004EF0AF0F9EF09F03F
:1014080053C0ADFF12009EB80CEF0AF010EF0AF0BF
:10141800526A522A11EF0AF0526A5250506E516ABB
:101428001200616E5F50FF0A606E6150A1EC05F01A
:1014380060145A6E61504DEC05F01200F60ED76E2E
:101448003C0ED66EF294010E1B26000E1C221D22A5
:101458001E22120082EC0AF0406A3F6A3E6A3D6A28
:101468004E0E506E1FEC08F01200F2A43EEF0AF088
:1014780040EF0AF042EF0AF022EC0AF06F921100F6
:101488009EBA49EF0AF04CEF0AF0010E4DEF0AF050
:10149800000E1200606E6050A1EC05F05F105A6EED
:1014A80060504DEC05F01200240EAC6E900EAB6E41
:1014B800AF68B86A2D6A1200926A966A4C0E506E2E
:1014C8001FEC08F01200030E5F6E140E4EEC0AF0CB
:1014D8001200030E5F6E140E15EC0AF012009480D1
:1014E8009492949494969498120073EC0AF04AECAF
:1014F80008F0120030303030303030300F0E956E3A
:101508008C6A12000F0EC16E96941200010E2D6E99
:0C151800120083500F0B1200AE501200A6
:101EC400000102030405060708090A000B455252E3
:101ED4004F522E2056616C6F7220696E74726F645B
:101EE400756974206572726F6E692E0D0A0009336C
:101EF4002E204D6F6469666963617220686F726138
:101F04002064656C2073697374656D610D0A000D3E
:101F14000A486F726120696E74726F6475696461D6
:101F240020636F7272656374616D656E740D0A006F
:101F3400496E74726F64756365206C6120686F729A
:101F4400612061637475616C2848484D4D293A20BD
:101F54000009322E204D6F737472617220636F6EAC
:101F640066696775726163696F6E730D0A00093182
:101F74002E205175692068692068612061206C6198
:101F84002073616C613F0D0A00546172676574616E
:101F940020646574656374616461210D0A090054E9
:101FA40072696120756E61206F706369C3B33A0D05
:101FB4000A002D2D2D2D2D2D2D2D2D2D2D2D2D2D9D
:101FC4002D0D0A004D656EC3BA207072696E636987
:101FD40070616C0D0A0020436F6E6669673A2000D9
:101FE4004F706369C3B33A2000557365722000557E
:0C1FF40049443A2000202D20002D000060
:020000040020DA
:08000000FFFFFFFFFFFFFFFF00
:020000040030CA
:0E000000FF06191EFF0181FF03C003E003404D
:00000001FF
