:020000040000FA
:0400000013EF00F00A
:060008003582E9EF02F071
:100018003580E0CF21F021C0E0FF35901000BAEF25
:0200280002F0E4
:10020000000102030405060708090A000B00FEECC2
:1002100002F01F6EABEF01F01F50D8A412EF01F0F7
:1002200014EF01F01CEF01F0010E1E6E1EC08AFFDC
:10023000010E1D6EC2EF01F01F50D8B422EF01F085
:1002400024EF01F0C2EF01F020509AEC02F0040E0E
:100250001D6EC2EF01F01F50D8A431EF01F033EF53
:1002600001F03BEF01F0020E1E6E1EC08AFF020E6F
:100270001D6EC2EF01F01F50D8B441EF01F043EF03
:1002800001F0C2EF01F020509AEC02F027EF01F0EC
:100290001F50D8A44EEF01F050EF01F058EF01F0DD
:1002A000040E1E6E1EC08AFF030E1D6EC2EF01F00B
:1002B0001F50D8B45EEF01F060EF01F0C2EF01F023
:1002C00020509AEC02F027EF01F01F50D8B46BEFEA
:1002D00001F06DEF01F072EF01F020509AEC02F0A6
:1002E00027EF01F01F50D8A478EF01F07AEF01F06A
:1002F000C2EF01F01D6AC2EF01F01F50D8A483EFD6
:1003000001F085EF01F087EF01F07AEF01F01F5067
:10031000D8B48DEF01F08FEF01F0C2EF01F0205063
:100320005AEC02F0255024100BE1F50E225C010E70
:100330002358D8A09EEF01F0A0EF01F0C2EF01F02A
:100340001EC022F01F50CCEC01F01B6E1B50F4ECD1
:1003500002F07AEF01F01D50000AD8B40CEF01F062
:10036000010AD8B42BEF01F0030AD8B448EF01F02A
:10037000010AD8B465EF01F0070AD8B47DEF01F0A7
:10038000C2EF01F01DC034F0343AF00E34168C5038
:100390000F0B34108C6E1200316E326AE2EF01F0F6
:1003A000336A00EF02F0010E336E00EF02F0020E2E
:1003B000336E00EF02F0030E336E00EF02F0FF0E1B
:1003C0002EEF02F03150010AD8B4D0EF01F0030A49
:1003D000D8B4D3EF01F0060AD8B4D7EF01F00C0A75
:1003E000D8B4DBEF01F0DFEF01F0326A1AEF02F070
:1003F000010E326E1AEF02F0020E326E1AEF02F0A8
:100400002250070B236E246A2450000AD8B40BEF45
:1004100002F0DFEF01F02350010AD8B4F5EF01F04C
:10042000030AD8B4F8EF01F0060AD8B4FCEF01F0E3
:10043000DFEF01F0010EF66E020EF76E20EE25F0F2
:100440000B0E0900F5CFDEFFE806FBE23350030D8B
:10045000F350250F3224D96EDA6ADF501200246A75
:100460003EEF02F0242A040E2418D8A43AEF02F03A
:100470003CEF02F03EEF02F059EF02F02450050D80
:10048000F350050FD96EDA6ADE04D8B44AEF02F0F1
:100490004CEF02F032EF02F02450050DF350050F3F
:1004A000D96EDA6A010EDF6E2250D96EDA6A24C084
:1004B000DFFF12002E6EF29E15C02AF016C02BF040
:1004C00017C02CF018C02DF0F28E2E50050DF350F1
:1004D000010FD96EDA6ADECF26F0DECF27F0DECF4D
:1004E00028F0DECF29F026502A5C226E27502B58A8
:1004F000236E28502C58246E29502D58256E12003A
:10050000226A2250050DF350050FD96EDA6ADF6AB0
:10051000222A030E22648FEF02F091EF02F081EFA6
:1005200002F0820ED56EFD0ED76E8F0ED66EF2944F
:10053000F28A1200226EF29E2250050DF350010F36
:10054000D96EDA6A15C0DEFF16C0DEFF17C0DEFF07
:1005500018C0DEFFF28E1200DEEC02F080EC02F03A
:10056000D3EC02F0F28EF28C07EC01F0B4EF02F063
:1005700013EF00F000EE01F0200EEE6AE806FDE158
:1005800035903592000EF86E0001ACEF02F0FD0ED2
:10059000D76E8F0ED66EF294010E1526000E16221F
:1005A0001722182212001F6A1E6A010E1D6E1C6A95
:1005B0001B6A200E226E2FEC02F012000F0EC16E8D
:1005C0000F0E9212F19EF80E93168A50956A8C6A5D
:1005D0001200F2A4EEEF02F0F0EF02F0F2EF02F000
:1005E000C7EC02F035921100236E23C022F00F0EEB
:1005F00022168C50F00B22108C6E120080500F0BC4
:020600001200E6
:020000040020DA
:08000000FFFFFFFFFFFFFFFF00
:020000040030CA
:0E000000FF06191EFF0181FF03C003E003404D
:00000001FF
