:020000040000FA
:0400000013EF00F00A
:060008007A8283EF0EF086
:100018007A80E0CF50F050C0E0FF7A90100013EFE4
:100028000CF06DEF05F0070E586E0D0EDDEC0AF0C2
:10003800716E7150D8B423EF00F025EF00F078EF1F
:1000480005F0260E2E6E010E346E78EF05F0770E51
:10005800336E300E326EF70E586E020EDDEC0AF07B
:10006800716E7150D8B43BEF00F03DEF00F078EFBF
:1000780005F0020E346E78EF05F0040E79EC07F007
:10008800716E7128D8A44BEF00F04DEF00F050EFDF
:1000980000F0346A78EF05F0FE0E7118D8B457EF07
:1000A80000F059EF00F05FEF02F071C02BF0030E83
:1000B800346E78EF05F02B507F0B586E020EDDEC96
:1000C8000AF0716E7150D8B46CEF00F06EEF00F06A
:1000D80078EF05F0040E346E78EF05F00A0E79EC2F
:1000E80007F0716E7128D8A47CEF00F07EEF00F065
:1000F80080EF00F04DEF00F0FE0E7118D8B487EFD6
:1001080000F089EF00F05FEF02F071C02BF0050EF0
:10011800346E78EF05F02B508009586E0A0EDDEC2E
:100128000AF0716E7150D8B49CEF00F09EEF00F0A9
:1001380078EF05F0060E346E78EF05F0000E586E75
:10014800010EDDEC0AF0716E7150D8B4AEEF00F01C
:10015800B0EF00F078EF05F0070E346E78EF05F099
:100168002EC058F0090EDDEC0AF0716E7150D8B44B
:10017800C0EF00F0C2EF00F078EF05F0080E346E23
:1001880078EF05F00C0E586E010EDDEC0AF0716E7A
:100198007150D8B4D2EF00F0D4EF00F078EF05F04A
:1001A800090E346E78EF05F00D0E79EC07F0716EDC
:1001B8007128D8A4E2EF00F0E4EF00F0E6EF00F0D9
:1001C8004DEF00F0FE0E7118D8B4EDEF00F0EFEF30
:1001D80000F05FEF02F071C02BF00A0E346E78EF7A
:1001E80005F02B508009586E0D0EDDEC0AF0716E8B
:1001F8007150D8B402EF01F004EF01F078EF05F088
:1002080030680B0E346E78EF05F0040E79EC07F0C9
:10021800716E7128D8A413EF01F015EF01F017EFF4
:1002280001F04DEF00F0FE0E7118D8B41EEF01F08A
:1002380020EF01F078EF05F071C031F031B027EF11
:1002480001F029EF01F036EF01F0315032140009C6
:10025800D8A431EF01F033EF01F036EF01F0302E82
:1002680078EF05F00C0E346E78EF05F00D0E79EC92
:1002780007F0716E7128D8A444EF01F046EF01F041
:1002880048EF01F04DEF00F0FE0E7118D8B44FEFB3
:1002980001F051EF01F05FEF02F07150D8B457EF61
:1002A80001F059EF01F05FEF02F00D0E346E78EFB8
:1002B80005F02B507F0B586E0D0EDDEC0AF0716EB9
:1002C8007150D8B46AEF01F06CEF01F078EF05F0E7
:1002D8000E0E346E78EF05F0060E79EC07F0716EAD
:1002E8007128D8A47AEF01F07CEF01F07EEF01F0DD
:1002F8004DEF00F0FE0E7118D8B485EF01F087EFCE
:1003080001F078EF05F071C02BF03050D8B48FEFC2
:1003180001F091EF01F0A0EF01F02BC066F01B0E89
:100328006616D8A49AEF01F09CEF01F0A0EF01F057
:100338000F0E346E78EF05F0346A356A78EF05F001
:100348000A0E79EC07F0716E7128D8A4AEEF01F0AF
:10035800B0EF01F0B2EF01F04DEF00F0FE0E7118B2
:10036800D8B4B9EF01F0BBEF01F05FEF02F071C054
:1003780029F0100E346E78EF05F00C0E79EC07F0CA
:10038800716E7128D8A4CBEF01F0CDEF01F0CFEF5B
:1003980001F04DEF00F0FE0E7118D8B4D6EF01F061
:1003A800D8EF01F05FEF02F07150070B2A6E110EC3
:1003B800346E78EF05F02A50D8A4E5EF01F0E7EFA6
:1003C80001F0EFEF01F02950080DF3CF6EF0F4CFF4
:1003D8006FF005EF02F02A5029C066F0676AD890DE
:1003E80066366736D89066366736D890663667368A
:1003F8006626000E6722F80E66246E6EFF0E6720D2
:100408006F6E6EC070F0100E7018D8A40EEF02F068
:1004180010EF02F0A0EF01F0010E356E4DEF00F085
:100428003450000AD8B417EF00F0010AD8B42BEF03
:1004380000F0030AD8B441EF00F0010AD8B45FEF26
:1004480000F0070AD8B472EF00F0010AD8B48FEFB1
:1004580000F0030AD8B4A2EF00F0010AD8B4B4EF50
:1004680000F00F0AD8B4C6EF00F0010AD8B4D8EFEC
:1004780000F0030AD8B4F5EF00F0010AD8B409EF88
:1004880001F0070AD8B43AEF01F0010AD8B45DEFD9
:1004980001F0030AD8B470EF01F0010AD8B4A4EF50
:1004A80001F01F0AD8B4C1EF01F0010AD8B4DFEF98
:1004B80001F078EF05F078EF05F0000E586E0D0E9C
:1004C800DDEC0AF0716E7150D8B46DEF02F06FEF89
:1004D80002F078EF05F0930E016E200E026E010E09
:1004E800346E78EF05F0080E79EC07F0716E71281C
:1004F800D8A481EF02F083EF02F085EF02F0A0EFBD
:1005080001F0FE0E7118D8B48CEF02F08EEF02F0F5
:1005180078EF05F071C02BF03DEF00F02B50F70B92
:10052800586E080EDDEC0AF0716E7150D8B49FEF6A
:1005380002F0A1EF02F078EF05F05BEF00F0770E24
:10054800336E300E326EF70E586E020EDDEC0AF086
:10055800716E7150D8B4B3EF02F0B5EF02F078EFD6
:1005680005F06EEF00F0040E79EC07F0716E71285B
:10057800D8A4C1EF02F0C3EF02F0C5EF02F0A0EF7C
:1005880001F0FE0E7118D8B4CCEF02F0CEEF02F0F5
:1005980078EF05F089EF00F02B507F0B586E040EB2
:1005A800DDEC0AF0716E7150D8B4DDEF02F0DFEFC8
:1005B80002F078EF05F09EEF00F00A0E79EC07F0F4
:1005C800716E7128D8A4EBEF02F0EDEF02F0EFEFB7
:1005D80002F0A0EF01F0FE0E7118D8B4F6EF02F0A9
:1005E800F8EF02F078EF05F071C02BF0B0EF00F0F3
:1005F8002B508009586E0A0EDDEC0AF0716E7150AE
:10060800D8B409EF03F00BEF03F078EF05F0C2EF71
:1006180000F0000E586E010EDDEC0AF0716E71509C
:10062800D8B419EF03F01BEF03F078EF05F0D4EF1F
:1006380000F001C058F0090EDDEC0AF0716E71503F
:10064800D8B429EF03F02BEF03F078EF05F0F1EFC2
:1006580000F002C058F0090EDDEC0AF0716E71501E
:10066800D8B439EF03F03BEF03F078EF05F005EF6E
:1006780001F00C0E586E010EDDEC0AF0716E71502F
:10068800D8B449EF03F04BEF03F078EF05F036EFFD
:1006980001F00D0E79EC07F0716E7128D8A457EFB0
:1006A80003F059EF03F05BEF03F0A0EF01F0FE0E4B
:1006B8007118D8B462EF03F064EF03F078EF05F037
:1006C80071C02BF059EF01F02B508009586E0D0EB8
:1006D800DDEC0AF0716E7150D8B475EF03F077EF66
:1006E80003F078EF05F030686CEF01F0040E79EC58
:1006F80007F0716E7128D8A484EF03F086EF03F039
:1007080088EF03F0A0EF01F0FE0E7118D8B48FEF58
:1007180003F091EF03F078EF05F071C031F031B0DC
:1007280098EF03F09AEF03F09CEF01F03150321488
:100738000009D8A4A2EF03F0A4EF03F09CEF01F0A6
:10074800302E78EF05F09CEF01F00D0E79EC07F0F4
:10075800716E7128D8A4B3EF03F0B5EF03F0B7EFCB
:1007680003F0A0EF01F0FE0E7118D8B4BEEF03F04D
:10077800C0EF03F078EF05F071C02BF0BDEF01F08A
:100788002B507F0B586E0D0EDDEC0AF0716E715018
:10079800D8B4D1EF03F0D3EF03F078EF05F0DBEF37
:1007A80001F0060E79EC07F0716E7128D8A4DFEF1E
:1007B80003F0E1EF03F0E3EF03F0A0EF01F0FE0E2A
:1007C8007118D8B4EAEF03F0ECEF03F078EF05F016
:1007D80071C02BF03050D8B4F4EF03F0F6EF03F00B
:1007E800A0EF01F02BC066F01B0E6616D8A4FFEF31
:1007F80003F001EF04F0A0EF01F0120E346E78EF71
:1008080005F0090E79EC07F0716E7128D8A40FEF86
:1008180004F011EF04F013EF04F0A0EF01F0FE0E66
:100828007118D8B41AEF04F01CEF04F078EF05F053
:1008380071C001F0130E346E78EF05F0090E79ECF3
:1008480007F0716E7128D8A42CEF04F02EEF04F095
:1008580030EF04F0A0EF01F0FE0E7118D8B437EFB6
:1008680004F039EF04F078EF05F071C002F0140ECF
:10087800346E78EF05F0090E79EC07F0716E712887
:10088800D8A449EF04F04BEF04F04DEF04F0A0EFCB
:1008980001F0FE0E7118D8B454EF04F056EF04F0CE
:1008A80078EF05F071C003F0150E346E78EF05F09F
:1008B800090E79EC07F0716E7128D8A466EF04F080
:1008C80068EF04F06AEF04F0A0EF01F0FE0E711873
:1008D800D8B471EF04F073EF04F078EF05F071C04D
:1008E80004F0160E346E78EF05F0090E79EC07F077
:1008F800716E7128D8A483EF04F085EF04F087EFB8
:1009080004F0A0EF01F0FE0E7118D8B48EEF04F0D9
:1009180090EF04F078EF05F071C005F0066A170E45
:10092800346E78EF05F002500318041801182D6E84
:10093800010E2C6E180E346E78EF05F0025003107D
:10094800041001100009D8B4ACEF04F0AFEF04F0C4
:10095800010EB0EF04F0000E2C6E1A0E346E78EF14
:1009680005F02D500518D8A4BCEF04F0BEEF04F034
:10097800A0EF01F02C50D8B4C4EF04F0C6EF04F097
:10098800C8EF04F0A0EF01F01B0E346E78EF05F00D
:10099800010E686E690E516E46EC0AF00150691836
:1009A800D8B4D9EF04F0DBEF04F0E6EF04F002C0AE
:1009B80061F003C062F004C063F005C064F0015048
:1009C800E9EC0CF01C0E346E78EF05F0000E586E52
:1009D8000D0EDDEC0AF0716E7150D8B4F6EF04F02C
:1009E800F8EF04F078EF05F0A0EF01F03450000ABA
:1009F800D8B461EF02F0010AD8B477EF02F0030A25
:100A0800D8B492EF02F0010AD8B4A3EF02F0070AB3
:100A1800D8B4B7EF02F0010AD8B4D0EF02F0030A55
:100A2800D8B4E1EF02F0010AD8B4FCEF02F00F0AE3
:100A3800D8B40DEF03F0010AD8B41DEF03F0030A90
:100A4800D8B42DEF03F0010AD8B43DEF03F0070A3C
:100A5800D8B44DEF03F0010AD8B468EF03F0030AE5
:100A6800D8B47AEF03F0010AD8B4A9EF03F01F0A4B
:100A7800D8B4C4EF03F0010AD8B4D5EF03F0030AE1
:100A8800D8B405EF04F0010AD8B422EF04F0070A3D
:100A9800D8B43FEF04F0010AD8B45CEF04F0030ABD
:100AA800D8B479EF04F0010AD8B497EF04F00F0A2C
:100AB800D8B4A2EF04F0020AD8B4B5EF04F0010AE2
:100AC800D8B4CCEF04F0070AD8B4EAEF04F078EF12
:100AD80005F03550000AD8B414EF02F0010AD8B472
:100AE800FAEF04F078EF05F012002150D8B47FEF48
:100AF80005F081EF05F039EF07F0DCEC0BF0E806C4
:100B0800D8A489EF05F08BEF05F078EF07F0216A9C
:100B180039EF07F0D3EC0EF01B0AD8A496EF05F0D6
:100B280098EF05F0A2EF05F0B50E556E1F0E566E44
:100B38003EEC0EF0010E216E0A0E226E2304D8A49C
:100B4800A8EF05F0AAEF05F078EF07F0B50E556E9F
:100B58001F0E566E3EEC0EF0010E216E0A0E226E2E
:100B6800236A78EF07F02150D8A4BDEF05F0BFEF56
:100B780005F078EF07F0C70E556E1F0E566E3EEC67
:100B88000EF0010E216E0B0E226E78EF07F0215049
:100B9800D8A4D1EF05F0D3EF05F078EF07F0B50E44
:100BA800556E1F0E566E3EEC0EF0010E216E0C0EA9
:100BB800226E78EF07F02150D8A4E5EF05F0E7EFB3
:100BC80005F078EF07F0A20E556E1F0E566E3EEC3C
:100BD8000EF0010E216E0D0E226E78EF07F02150F7
:100BE800D8A4F9EF05F0FBEF05F078EF07F0710EE8
:100BF800556E1F0E566E3EEC0EF0010E216E0E0E57
:100C0800226E78EF07F02150D8A40DEF06F00FEF11
:100C180006F078EF07F0540E556E1F0E566E3EEC38
:100C28000EF0010E216E0F0E226E78EF07F02150A4
:100C3800D8A421EF06F023EF06F078EF07F0F10EC5
:100C4800556E1E0E566E3EEC0EF0010E216E100E05
:100C5800226E78EF07F02150D8A435EF06F037EF71
:100C680006F078EF07F0E30E556E1F0E566E3EEC59
:100C78000EF0010E216E010E226E78EF07F08EEC59
:100C88000EF0E806D8A44BEF06F04DEF06F078EF2B
:100C980007F0D3EC0EF0310AD8A455EF06F057EF61
:100CA80006F063EF06F0C40E556E1F0E566E3EEC4E
:100CB8000EF0010E216E140E226E78EF07F0D3ECC1
:100CC8000EF0320AD8A46BEF06F06DEF06F079EF5C
:100CD80006F0C40E556E1F0E566E3EEC0EF0010E59
:100CE800216E1E0E226E78EF07F0D3EC0EF0330A59
:100CF800D8A481EF06F083EF06F08FEF06F0C40E5C
:100D0800556E1F0E566E3EEC0EF0010E216E280E2B
:100D1800226E78EF07F0D00E556E1E0E566E3EEC22
:100D28000EF0010E216E226A78EF07F02150D8A448
:100D3800A0EF06F0A2EF06F078EF07F0610E516E13
:100D480046EC0AF06150D8B4ACEF06F0AEEF06F00E
:100D5800BAEF06F0F20E556E1F0E566E3EEC0EF010
:100D6800010E216E150E226E78EF07F0AF0E556E4C
:100D78001E0E566E3EEC0EF0010E216E190E226EFE
:100D880078EF07F02150D8A4CCEF06F0CEEF06F0AC
:100D980078EF07F0660E516E46EC0AF0660E576E55
:100DA8007EEC08F0C2EF06F02150D8A4DEEF06F082
:100DB800E0EF06F078EF07F0C40E556E1F0E566E82
:100DC8003EEC0EF095EF06F02150D8A4EEEF06F0B9
:100DD800F0EF06F078EF07F0F6EC09F097EF06F081
:100DE8002150D8A4FAEF06F0FCEF06F078EF07F0F0
:100DF800330E556E1F0E566E3EEC0EF0010E216E30
:100E0800020E226E78EF07F08EEC0EF0E806D8A4FA
:100E180010EF07F012EF07F078EF07F02050760F89
:100E2800D96EDA6AD3EC0EF0DF6E2050760FD96EE9
:100E3800DA6ADF504FEC0EF0202A040E2018D8A4EE
:100E480028EF07F02AEF07F078EF07F0760E516EDB
:100E58006DEC0DF0120E556E1F0E566E3EEC0EF038
:100E6800010E216E206A97EF06F02250000AD8B4CE
:100E78008EEF05F0010AD8B443EF06F0030AD8B4A0
:100E880008EF07F0080AD8B4B7EF05F0010AD8B49C
:100E9800CBEF05F0070AD8B4DFEF05F0010AD8B4A4
:100EA800F3EF05F0030AD8B407EF06F0010AD8B447
:100EB8001BEF06F01F0AD8B42FEF06F0040AD8B4C7
:100EC8009AEF06F0010AD8B4C6EF06F00C0AD8B4B7
:100ED800D8EF06F0070AD8B4E8EF06F0360AD8B417
:100EE800F4EF06F078EF07F01200596E174A182A47
:100EF800E90E175C030E1858D8A085EF07F087EFA6
:100F080007F0F2EF07F08B848B864E6A000E186E9E
:100F1800000E176EFF0E01EF08F0000E186E000E9F
:100F2800176E8B948B96595059247E0B8009486E06
:100F3800366A496A010E4E6EFE0E01EF08F0480E41
:100F4800536E490E546E4E0E556E020E566EA5EC3B
:100F58000BF0A0EF07F08B84050E1AEC0EF082B0B0
:100F6800B8EF07F0BCEF07F0586A582ABDEF07F052
:100F7800586A365036245810366E8B94050E1AEC83
:100F88000EF0492A070E4964CCEF07F0CEEF07F0C0
:100F9800A0EF07F08B848B864E6A000E186E000E49
:100FA800176EFE0E3618D8B4DCEF07F0DEEF07F048
:100FB800EBEF07F03628D8B4E4EF07F0E6EF07F0D8
:100FC800EBEF07F036C05AF05B6AEFEF07F0000E60
:100FD8005B6EFD0E5A6E5A5001EF08F04E50000A33
:100FE800D8B491EF07F0010AD8B4A3EF07F0030AC9
:100FF800D8B4AFEF07F0A0EF07F01200676E470E06
:10100800516E72EC0CF067C028F066C027F0256AB4
:10101800266A939293949396000E696E000E686EFA
:1010280047C05EF05F6A000E616E640E606E30EC61
:101038000DF0030E92EC0AF047C05EF05F6A000EF6
:10104800616E040E606E30EC0DF0030E92EC0AF047
:1010580047C05EF05F6A000E616E010E606E30EC94
:101068000DF0030E92EC0AF047C05EF05F6A000EC6
:10107800616E010E606E30EC0DF0020E92EC0AF01B
:1010880047C05EF05F6A000E616E010E606E30EC64
:101098000DF0280ED7EC0DF098EC0EF0080ED7ECFA
:1010A8000DF098EC0EF0010ED7EC0DF047C05EF095
:1010B8005F6A000E616E020E606E30EC0DF098EC07
:1010C8000EF0060ED7EC0DF098EC0EF00F0ED7ECE4
:1010D8000DF0684A692A69BE7BEF08F0695009E19A
:1010E800020E685CD8A07BEF08F07DEF08F014EFE3
:1010F80008F01200F20E556E1F0E566E88EC0DF0B9
:10110800000E606E000E5F6E57505F24D96EDA6A6B
:10111800DF50586E58380F0B0F0B5D6E090E5D646B
:1011280098EF08F09AEF08F0A2EF08F0370E5D2468
:10113800596E5A6A000E5A22A8EF08F0300E5D2444
:10114800596E5A6A000E5A2259504FEC0EF05750F9
:101158005F24D96EDA6ADF500F0B5E6E090E5E648B
:10116800B8EF08F0BAEF08F0C2EF08F0370E5E24C7
:101178005B6E5C6A000E5C22C8EF08F0300E5E24DD
:101188005B6E5C6A000E5C225B504FEC0EF060BE3A
:10119800D9EF08F0605007E1040E5F5CD8B0D7EFD4
:1011A80008F0D9EF08F0DFEF08F0FC0E556E1F0EBF
:1011B800566E88EC0DF05F4A602A60BEEDEF08F0CD
:1011C800605009E1050E5F5CD8A0EDEF08F0EFEF85
:1011D80008F088EF08F0C40E556E1F0E566E88ECA6
:1011E8000DF01200000E5C6E000E5B6E4C0E4FECA4
:1011F8000EF05B50300F4FEC0EF0E90E556E1F0EDF
:10120800566E88EC0DF057505B24D96EDA6ADF50C1
:101218005A6E090E5A6413EF09F015EF09F01DEF25
:1012280009F0370E5A24586E596A000E592223EFD6
:1012380009F0300E5A24586E596A000E5922585037
:101248004FEC0EF05CBE34EF09F05C5007E1050E80
:101258005B5CD8B032EF09F034EF09F03AEF09F0EF
:10126800F80E556E1F0E566E88EC0DF05B4A5C2A20
:101278005CBE48EF09F05C5009E1060E5B5CD8A043
:1012880048EF09F04AEF09F0FAEF08F0C40E556E7E
:101298001F0E566E88EC0DF01200556E55505524F1
:1012A8007E0B566E8B948B96080E576E56BE5FEF6C
:1012B80009F063EF09F0546A542A64EF09F0546A9C
:1012C80054468B505418FD0B54188B6E8B84D89051
:1012D8005636050E1AEC0EF08B94050E1AEC0EF02D
:1012E80057065750D8A47BEF09F07DEF09F05AEF65
:1012F80009F0080E576E53BE84EF09F088EF09F025
:10130800546A542A89EF09F0546A54468B50541889
:10131800FD0B54188B6E8B84D8905336050E1AEC3F
:101328000EF08B94050E1AEC0EF057065750D8A401
:10133800A0EF09F0A2EF09F07FEF09F08B868B840C
:101348001200546E545054247E0B8009556E566A10
:101358008B948B96080E576E55BEB5EF09F0B9EF12
:1013680009F0536A532ABAEF09F0536A53468B506F
:101378005318FD0B53188B6E8B84D8905536050E79
:101388001AEC0EF08B94050E1AEC0EF05706575017
:10139800D8A4D1EF09F0D3EF09F0B0EF09F0080EA7
:1013A800576E8B84050E1AEC0EF0D890563682B024
:1013B800E0EF09F0E3EF09F0010EE4EF09F0000EA9
:1013C80056128B94050E1AEC0EF057065750D8A4F7
:1013D800F0EF09F0F2EF09F0D5EF09F08B868B8476
:1013E80056501200000E5A6E000E596EEC0E556ED5
:1013F8001F0E566E88EC0DF05950310F4FEC0EF061
:10140800D90E556E1F0E566E88EC0DF0000E586EF4
:10141800000E576E5950060DF350C00F5724D96E61
:10142800DA6ADF50300F4FEC0EF0FA0E556E1F0ED1
:10143800566E88EC0DF0574A582A58BE2DEF0AF020
:10144800585009E1060E575CD8A02DEF0AF02FEF8F
:101458000AF00EEF0AF0C40E556E1F0E566E88EC99
:101468000DF0594A5A2A5ABE43EF0AF05A5009E178
:10147800040E595CD8A043EF0AF045EF0AF0FAEFE2
:1014880009F012004150D8A44CEF0AF04EEF0AF0D0
:1014980070EF0AF04250D8A454EF0AF056EF0AF061
:1014A80070EF0AF04350D8A45CEF0AF05EEF0AF040
:1014B80070EF0AF04450D8A464EF0AF066EF0AF01F
:1014C80070EF0AF04550D8A46CEF0AF06EEF0AF0FE
:1014D80070EF0AF091EF0AF05150D96EDA6A41C004
:1014E800DFFF5150D96EDA6A010ED92642C0DFFFFC
:1014F8005150D96EDA6A020ED92643C0DFFF515027
:10150800D96EDA6A030ED92644C0DFFF5150D96E6E
:10151800DA6A040ED92645C0DFFF1200526E969093
:101528009692939A93988A968A948A828A8252B6D5
:10153800A0EF0AF0A4EF0AF0516A512AA5EF0AF0C9
:10154800516A8D505118FE0B51188D6E52B4AFEF81
:101558000AF0B3EF0AF0516A512AB4EF0AF0516A5F
:1015680051468D505118FD0B51188D6E52B2BFEF78
:101578000AF0C3EF0AF0516A512AC4EF0AF0516A1F
:10158800513A51468A505118DF0B51188A6E52B0A1
:10159800D0EF0AF0D4EF0AF0516A512AD5EF0AF0D9
:1015A800516A513A8A505118EF0B51188A6E8A9233
:1015B8001200596E10EF0BF08B948B9659505924EA
:1015C8007E0B4B6E58C04AF04C6A010E4D6E1FEFF1
:1015D8000BF04B0E536E4C0E546E4D0E556E020EA4
:1015E800566EA5EC0BF01FEF0BF04A0E536E4C0E27
:1015F800546E4D0E556E000E566EA5EC0BF04D5008
:10160800D8A409EF0BF00BEF0BF01FEF0BF08B8654
:101618008B84010E20EF0BF04D50000AD8B4E0EF98
:101628000AF0010AD8B4EDEF0AF0030AD8B4F9EFCA
:101638000AF01FEF0BF0000E1200526E52B627EFA1
:101648000BF02BEF0BF0516A512A2CEF0BF0516A7B
:101658008D505118FE0B51188D6E52B436EF0BF0A9
:101668003AEF0BF0516A512A3BEF0BF0516A5146A1
:101678008D505118FD0B51188D6E52B246EF0BF07C
:101688004AEF0BF0516A512A4BEF0BF0516A513A6D
:1016980051468A505118DF0B51188A6E52B057EFD5
:1016A8000BF05BEF0BF0516A512A5CEF0BF0516ABB
:1016B800513A8A505118EF0B51188A6E1200526E27
:1016C80052BE69EF0BF06DEF0BF0516A512A6EEFC5
:1016D8000BF0516A8D505118FE0B51188D6E52BC8B
:1016E80078EF0BF07CEF0BF0516A512A7DEF0BF08D
:1016F800516A51468D505118FD0B51188D6E52BAD2
:1017080088EF0BF08CEF0BF0516A512A8DEF0BF03C
:10171800516A513A51468A505118DF0B51188A6E56
:1017280052B899EF0BF09DEF0BF0516A512A9EEFDA
:101738000BF0516A513A8A505118EF0B51188A6EC2
:1017480012005350D96EDA6ADFBEADEF0BF0B1EF7D
:101758000BF0576A572AB2EF0BF0576A57468B506F
:101768005718FD0B57188B6E8B845350D96EDA6A55
:10177800D890DF36050E1AEC0EF08B94050E1AEC95
:101788000EF05450D96EDA6ADF2A080EDE18D8A493
:10179800D0EF0BF0D2EF0BF0DBEF0BF05450D96E1B
:1017A800DA6ADF6A5550D96EDA6A56C0DFFF12006E
:1017B80007EF0CF0010E12EF0CF013C0F6FF14C087
:1017C800F7FF0800F5500009D8A4EDEF0BF0EFEF94
:1017D8000BF0F2EF0BF0246ADEEF0BF013C0F6FF0C
:1017E80014C0F7FF0800F55007EC0EF00009D8B454
:1017F80000EF0CF002EF0CF004EF0CF0134A142A7F
:10180800000E12EF0CF02450000AD8B4DEEF0BF0F3
:10181800010AD8B4E1EF0BF004EF0CF012008C0EC3
:10182800F66E180EF76E000EF86E00EE80F010EEF1
:1018380058F00900F5CFEEFFE550E150FAE18E0EC1
:10184800F66E1D0EF76E000EF86E00EE72F010EEDA
:1018580008F00900F5CFEEFFE550E150FAE100EE9F
:10186800D8F0140EEE6AE806FDE100EE01F04F0E26
:10187800EE6AE806FDE17A907A92000EF86E0001B1
:101888004FEF0DF065DCF903430000000000000095
:1018980000000000DC0DF9032B0000000000000030
:1018A80000000000DF8BDFC44F00000000000000D4
:1018B800000000002132A989330000000000000068
:1018C8000000000001010101010101010101010104
:1018D800010101010101010101010101536A81EFC7
:1018E8000CF0532A040E5318D8A47DEF0CF07FEFA8
:1018F8000CF081EF0CF09CEF0CF05350050DF350F9
:10190800DC0FD96EDA6ADE04D8B48DEF0CF08FEFF5
:101918000CF075EF0CF05350050DF350DC0FD96E39
:10192800DA6A010EDF6E5150D96EDA6A53C0DFFFF2
:1019380012008B868B88F0EC0DF08D0E536E2A0EFC
:1019480051EC09F03E0E536E2B0E51EC09F01E0EB1
:10195800536E2D0E51EC09F0000E536E2C0E51EC07
:1019680009F0400E536E150E51EC09F03D0E536E02
:10197800110E51EC09F0010EA3EC0DF012005D6E92
:10198800F29E0BC059F00CC05AF00DC05BF00EC0AF
:101998005CF0F28E5D50050DF350D80FD96EDA6AFF
:1019A800DECF55F0DECF56F0DECF57F0DECF58F061
:1019B8005550595C516E56505A58526E57505B5894
:1019C800536E58505C58546E1200656E65C041F0F5
:1019D80061C042F062C043F063C044F064C045F0A7
:1019E800010E1E6E8C0E556E1F0E566E88EC0DF095
:1019F800410E576E7EEC08F0A00E556E1F0E566E07
:101A080088EC0DF01150060DF350C00F576EF6EC30
:101A180008F012005D6E5D50A5EC09F05E6E59503D
:101A2800D8A419EF0DF01BEF0DF024EF0DF058506E
:101A3800FF0A5E145A6E5A505B6E5C6A2AEF0DF00C
:101A48005E5058105A6E5A505B6E5C6A5BC053F019
:101A58005D5051EC09F012005E502CEC0EF060C0A5
:101A680062F061C063F0000E63BEFF0E646E656EC7
:101A78005E50C3EC0CF06250515C63505258645095
:101A8800535865505458D8A04CEF0DF04EEF0DF058
:101A980033EF0DF01200BDEC0DF078EC0EF0BDEC5C
:101AA8000EF0A2EC0EF0CFEC0EF0AAEC0EF0100E39
:101AB800666E020E02EC08F0B7EC0EF0F28EF29CA5
:101AC80079EC05F015EC00F08D7464EF0DF013EF70
:101AD80000F05150D96EDA6ADF50726E5150D96EEB
:101AE800DA6A010ED926DF50736E5150D96EDA6A60
:101AF800020ED926DF50746E5150D96EDA6A030E81
:101B0800D926DF50756E120094EF0DF055C0F6FF20
:101B180056C0F7FF0800F5504FEC0EF0554A562A0C
:101B280055C0F6FF56C0F7FF0800F5500009D8A4C5
:101B3800A0EF0DF0A2EF0DF08AEF0DF012005F6E2E
:101B48005F50D8B4AAEF0DF0ACEF0DF0B5EF0DF083
:101B5800030E586E010E596E140E0EEC0DF0BCEF0C
:101B68000DF0030E586E000E596E140E0EEC0DF0AB
:101B78001200516A5150050DF350DC0FD96EDA6A24
:101B8800DF6A512A030E5164CCEF0DF0CEEF0DF051
:101B9800BEEF0DF0820ED56EF60ED76E3C0ED66EE9
:101BA800F294F28A1200536E96909692939A9398B2
:101BB8008A968A948A82535063EC0BF08A828A92BE
:101BC8008A928A82535021EC0BF08A828A929680FC
:101BD8009682938A93881200C2EC0EF08B88010ECD
:101BE8001AEC0EF08B98010E1AEC0EF08B88010E91
:101BF8001AEC0EF00F0E536E010E51EC09F0010EA7
:101C08001AEC0EF01200546E5EEC0EF051505210A9
:101C1800D8A411EF0EF013EF0EF016EF0EF0000E31
:101C280019EF0EF054C0ADFF010E1200516E515065
:101C3800080DF3CF52F022EF0EF0000052065228A2
:101C4800D8A429EF0EF02BEF0EF021EF0EF01200C2
:101C5800516EF29E5150050DF350D80FD96EDA6AC5
:101C68000BC0DEFF0CC0DEFF0DC0DEFF0EC0DEFFC6
:101C7800F28E1200DCEC0BF0E806D8A446EF0EF06A
:101C880048EF0EF04EEF0EF055C013F056C014F0AA
:101C9800010E246E1200546E5EEC0EF0515052107C
:101CA800D8B459EF0EF05BEF0EF050EF0EF054C0C1
:101CB800ADFF12009EB863EF0EF067EF0EF0536AA7
:101CC800532A68EF0EF0536A5350516E526A12004D
:101CD800F60ED76E3C0ED66EF294010E0B26000E51
:101CE8000C220D220E221200CBEC0EF03A6A396A51
:101CF800386A376A4F0E516E72EC0CF01200F2A47B
:101D080088EF0EF08AEF0EF08CEF0EF06CEC0EF010
:101D18007A9211009EBA93EF0EF096EF0EF0010E34
:101D280097EF0EF0000E120047C05EF05F6A000EDB
:101D3800616E020E606E30EC0DF01200240EAC6E77
:101D4800900EAB6EAF68B86A236A1200926A966A00
:101D5800460E516E72EC0CF012009480949294949A
:101D6800949694981200416A426A436A446A456AA2
:101D78001200B1EC0EF09DEC0CF012004D6A4E6AA8
:101D88008B848B86120030303030303030300F0E7C
:101D9800956E8C6A12000F0EC16E96941200AE50AA
:021DA800120027
:101E9C00000102030405060708090A000B010204ED
:101EAC000810204E6F2068692068612063617020E3
:101EBC007573756172692061206C612073616C614E
:101ECC002E0D0A004552524F522E2056616C6F72E5
:101EDC0020696E74726F64756974206572726F6EAE
:101EEC00692E0D0A0009332E204D6F6469666963F3
:101EFC00617220686F72612064656C207369737401
:101F0C00656D610D0A000D0A486F726120696E746F
:101F1C00726F647569646120636F7272656374615A
:101F2C006D656E740D0A00496E74726F647563652D
:101F3C00206C6120686F72612061637475616C281C
:101F4C0048484D4D293A200009322E204D6F7374AC
:101F5C0072617220636F6E66696775726163696F17
:101F6C006E730D0A0009312E2051756920686920A5
:101F7C0068612061206C612073616C613F0D0A0007
:101F8C00546172676574612064657465637461641F
:101F9C0061210D0A09005472696120756E61206F10
:101FAC00706369C3B33A0D0A002D2D2D2D2D2D2DE7
:101FBC002D2D2D2D2D2D2D2D0D0A004D656EC3BAF9
:101FCC00207072696E636970616C0D0A0020436F3A
:101FDC006E6669673A20004F706369C3B33A20009C
:101FEC005573657220005549443A2000202D20007D
:031FFC002D0000B5
:020000040020DA
:08000000FFFFFFFFFFFFFFFF00
:020000040030CA
:0E000000FF06191EFF8181FF03C003E00340CD
:00000001FF
