:020000040000FA
:0400000013EF00F00A
:060008005F82BCEF06F070
:100018005F80E0CF01F001C0E0FF5F9010004CEF7F
:1000280006F00EEC07F05C6E04EF01F05C50D8A40B
:1000380020EF00F022EF00F02AEF00F0010E5B6ED7
:1000480005EC05F0010E596E1FEF01F05C50D8B4B5
:1000580030EF00F032EF00F01FEF01F05E5071EC6E
:1000680006F0030E596E1FEF01F05C50D8A43FEF65
:1000780000F041EF00F049EF00F0020E5B6E05EC76
:1000880005F0020E596E1FEF01F05C50D8B44FEF27
:1000980000F051EF00F01FEF01F05E5071EC06F038
:1000A80035EF00F05C50D8B45CEF00F05EEF00F084
:1000B80063EF00F05E5071EC06F035EF00F05C5035
:1000C800D8A469EF00F06BEF00F01FEF01F0040E09
:1000D8005B6E05EC05F0596A1FEF01F092EC02F037
:1000E8005A6E5C50D8A47BEF00F07DEF00F07FEFF4
:1000F80000F06BEF00F05C50D8B485EF00F087EFAC
:1001080000F0A8EF00F05E5085EC05F005500410F3
:10011800031009E1090E025CD8A095EF00F097EFF3
:1001280000F0A8EF00F00B0E5A18D8B49EEF00F0BC
:10013800A0EF00F0A8EF00F05AC08CFF83EC06F0A7
:10014800050E596E1FEF01F05C50D8B4AEEF00F009
:10015800B0EF00F01FEF01F05E5085EC05F00550A0
:100168000410031009E1090E025CD8A0BEEF00F0EC
:10017800C0EF00F01FEF01F00B0E5A18D8A4C7EF1C
:1001880000F0C9EF00F01FEF01F05E5071EC06F0CF
:10019800040E596E1FEF01F05C50D8A4D6EF00F0A2
:1001A800D8EF00F0DAEF00F06FEF00F05C50D8B451
:1001B800E0EF00F0E2EF00F01FEF01F05E5085EC99
:1001C80005F0055004100BE1DD0E025C050E035826
:1001D800D8A0F1EF00F0F3EF00F01FEF01F0A4EF6B
:1001E80000F05C50D8A4FBEF00F0FDEF00F01FEF2B
:1001F80001F0596A040E5B6E05EC05F01FEF01F083
:100208005950000AD8B41AEF00F0010AD8B439EFEF
:1002180000F0030AD8B456EF00F0010AD8B472EF20
:1002280000F0070AD8B4D0EF00F0010AD8B4F5EF0F
:1002380000F01FEF01F0C00E1F6EF90E206E1E0EAB
:10024800216E59C022F0236A5CC024F0256A5BC085
:1002580026F0276A5AC028F0296ACCEC05F0C00EAF
:10026800056E066A9AEC04F012000D50D96EDA6A2F
:10027800DECFF6FFDDCFF7FF0800F550250AD8A43A
:1002880048EF01F04AEF01F012EF02F00D50D96E7D
:10029800DA6ADE2A000EDD22000E0001B96F000EB8
:1002A800B86FB8C0BCF0BA69BB690D50D96EDA6ACC
:1002B800DECF12F0DDCF13F012C0F6FF13C0F7FF48
:1002C8000800F550640AD8B46CEF01F06EEF01F045
:1002D8007CEF01F012C0F6FF13C0F7FF0800F550DD
:1002E800690AD8A47AEF01F07CEF01F00AEF02F076
:1002F8000E50D96EDA6A020EDF26DF5CD96EDA6A32
:10030800DECF14F0DECF15F0010E12240F6E000EB2
:100318001320106E0D50D96EDA6A0FC0DEFF10C0C0
:10032800DDFF200E186E15BE9CEF01F09FEF01F067
:10033800010EA0EF01F0000E116E18061850800F84
:10034800D96EDA6A14C002F015C003F0000E056E0B
:100358000A0E046E55EC03F002C008F003C009F061
:1003680003EC06F00850300FDF6E14C002F015C021
:1003780003F0000E056E0A0E046EF4EC02F002C0E3
:1003880014F003C015F014501510D8B4CEEF01F0D6
:10039800D0EF01F0D8EF01F01850D8A4D6EF01F053
:1003A800D8EF01F0A1EF01F01850D8B4DEEF01F05A
:1003B800E0EF01F0FFEF01F01150D8B4E6EF01F0E3
:1003C800E8EF01F0FFEF01F018061850800FD96E22
:1003D800DA6A2D0EDF6EFFEF01F01850800FD96E2C
:1003E800DA6ADF500F6E0F50026E036A0CC004F019
:1003F800ACEC03F0182A200E1818D8A406EF02F067
:1004080008EF02F0F1EF01F023EF02F00D50D96E82
:10041800DA6ADE2A000EDD2223EF02F00D50D96ED3
:10042800DA6ADECFF6FFDDCFF7FF0800F550026E7F
:10043800036A0CC004F0ACEC03F00AEF02F01200FF
:1004480085EF02F011EC07F01B0AD8A42EEF02F09A
:1004580030EF02F035EF02F0D4EC04F0010E0001A9
:10046800BD6F0001BE05D8A43CEF02F03EEF02F0DC
:1004780091EF02F0D4EC04F0010E0001BD6F91EF92
:1004880002F0D1EC06F0E806D8A44DEF02F04FEFE9
:1004980002F091EF02F0C7EC06F011EC07F0310A18
:1004A800D8A459EF02F05BEF02F065EF02F0D70E27
:1004B800056E1F0E066E9AEC04F00001BD6B91EFFD
:1004C80002F011EC07F0320AD8A46DEF02F06FEFDA
:1004D80002F071EF02F061EF02F011EC07F0330A5D
:1004E800D8A479EF02F07BEF02F07DEF02F061EF24
:1004F80002F0260E056E1F0E066E9AEC04F061EFF0
:1005080002F00001BD51000AD8B426EF02F0010A3A
:10051800D8B445EF02F091EF02F01200106AA7EF8D
:1005280002F0116AC5EF02F0010E116EC5EF02F07C
:10053800020E116EC5EF02F0030E116EC5EF02F048
:10054800FF0EF3EF02F05C50010AD8B495EF02F009
:10055800030AD8B498EF02F0060AD8B49CEF02F068
:100568000C0AD8B4A0EF02F0A4EF02F0106ADFEF93
:1005780002F0010E106EDFEF02F0020E106EDFEFD8
:1005880002F05B50070B026E036A0350000AD8B4EE
:10059800D0EF02F0A4EF02F00250010AD8B4BAEF8B
:1005A80002F0030AD8B4BDEF02F0060AD8B4C1EFCE
:1005B80002F0A4EF02F0ED0EF66E1E0EF76E20EEBE
:1005C80004F00B0E0900F5CFDEFFE806FBE2115040
:1005D800030DF350040F1024D96EDA6ADF501200AD
:1005E800076A05BEFCEF02F0FAEF02F002EF03F033
:1005F800046C051ED8B0052A010E076E03BE09EF6C
:1006080003F007EF03F00FEF03F0026C031ED8B0FE
:10061800032A010E071A000E096E000E086E045018
:100628000510D8B41AEF03F01CEF03F044EF03F001
:10063800010E066E24EF03F0D89004360536062A1C
:1006480005AE29EF03F02BEF03F020EF03F0D8906D
:10065800083609360450025C05500358D8A037EF15
:1006680003F039EF03F03EEF03F00450025E05504B
:10067800035A0880D89005320432062E2BEF03F077
:100688000750D8B44AEF03F04CEF03F050EF03F0F3
:10069800086C091ED8B0092A08C002F009C003F086
:1006A8001200076A03BE5DEF03F05BEF03F063EF30
:1006B80003F0026C031ED8B0032A010E076E05BEB4
:1006C8006AEF03F068EF03F06EEF03F0046C051EA9
:1006D800D8B0052A04500510D8B475EF03F077EFA9
:1006E80003F09BEF03F0010E066E7FEF03F0D89046
:1006F80004360536062A05AE84EF03F086EF03F0CC
:100708007BEF03F00450025C05500358D8A08FEF2C
:1007180003F091EF03F095EF03F00450025E0550EB
:10072800035AD89005320432062E86EF03F007509C
:10073800D8B4A1EF03F0A3EF03F0A7EF03F0026C26
:10074800031ED8B0032A02C002F003C003F012004F
:100758000450D8B4B2EF03F0B4EF03F0BCEF03F0E9
:100768000450D8A4BAEF03F0BCEF03F0C1EF03F0D4
:10077800025013EC07F000EF04F00450D96EDA6A67
:10078800090ED926DE50DE10D8B4CDEF03F0CFEF36
:1007980003F0E8EF03F00450D96EDA6A090ED9269F
:1007A8000450E16EE26A020EE126DE50E65CE65095
:1007B800800A096EDE50800A0958D8B0E6EF03F0C7
:1007C800E8EF03F000EF04F00450D96EDA6A020E85
:1007D800D926DF50056E0450D96EDA6ADF50052439
:1007E800D96EDA6A02C0DFFF0450D96EDA6A020EE7
:1007F800D926DE2A000EDD221200096E09500924CE
:100808007E0B0A6E8B948B96080E0B6E0ABE0FEF4A
:1008180004F013EF04F0086A082A14EF04F0086AD9
:1008280008468B500818FD0B08188B6E8B84D890DF
:100838000A36050EE8EC05F08B94050EE8EC05F099
:100848000B060B50D8A42BEF04F02DEF04F00AEFA1
:1008580004F0080E0B6E07BE34EF04F038EF04F016
:10086800086A082A39EF04F0086A08468B50081805
:10087800FD0B08188B6E8B84D8900736050EE8ECB4
:1008880005F08B94050EE8EC05F00B060B50D8A488
:1008980050EF04F052EF04F02FEF04F08B868B84B6
:1008A8001200036E035003247E0B8009046E056A50
:1008B8008B948B96080E066E04BE65EF04F069EF04
:1008C80004F0026A022A6AEF04F0026A02468B50B8
:1008D8000218FD0B02188B6E8B84D89004368B940B
:1008E80006060650D8A47BEF04F07DEF04F060EF15
:1008F80004F0080E066E8B84D890053682B087EF18
:1009080004F08AEF04F0010E8BEF04F0000E0512DC
:100918008B9406060650D8A494EF04F096EF04F0E2
:100928007FEF04F08B868B8405501200BBEF04F038
:1009380094EC06F002500310D8B4A5EF04F0A7EF2A
:1009480004F09CEF04F005C0F6FF06C0F7FFF86A54
:10095800010EF76403D00800F55005D0F6CFE9FF83
:10096800F7CFEAFFEF500AEC07F0054A062A05C060
:10097800F6FF06C0F7FFF86A010EF76403D0080017
:10098800F55005D0F6CFE9FFF7CFEAFFEF500009A1
:10099800D8A4D1EF04F0D3EF04F09CEF04F01200D8
:1009A800B30E056E1F0E066E9AEC04F0C50E056EAA
:1009B8001F0E066E9AEC04F0B30E056E1F0E066E3F
:1009C8009AEC04F0A00E056E1F0E066E9AEC04F069
:1009D800850E056E1F0E066E9AEC04F0680E056E05
:1009E8001F0E066E9AEC04F0470E056E1F0E066E7B
:1009F8009AEC04F0EF0E056E1F0E066E9AEC04F0EA
:100A08001200036A5B04D8A40CEF05F00EEF05F0A2
:100A180012EF05F0200E036E2AEF05F0020E5B18A8
:100A2800D8A419EF05F01BEF05F01FEF05F0400EF5
:100A3800036E2AEF05F0040E5B18D8A426EF05F024
:100A480028EF05F02AEF05F0100E036E03C002F040
:100A5800700E02168C508F0B02108C6E1200046AF6
:100A680042EF05F0042A040E0418D8A43EEF05F05E
:100A780040EF05F042EF05F05DEF05F00450050D7D
:100A8800F350A40FD96EDA6ADE04D8B44EEF05F03D
:100A980050EF05F036EF05F00450050DF350A40FA4
:100AA800D96EDA6A010EDF6E0250D96EDA6A04C0B6
:100AB800DFFF12008B868B8837EC06F08D0E076EF1
:100AC8002A0E01EC04F03E0E076E2B0E01EC04F02A
:100AD8001E0E076E2D0E01EC04F0000E076E2C0E94
:100AE80001EC04F0400E076E150E01EC04F03D0E0B
:100AF800076E110E01EC04F0F5EC06F0EFEC06F0D1
:100B080012000E6EF29EB4C00AF0B5C00BF0B6C06B
:100B18000CF0B7C00DF0F28E0E50050DF350A00F7B
:100B2800D96EDA6ADECF06F0DECF07F0DECF08F046
:100B3800DECF09F006500A5C026E07500B58036EB0
:100B480008500C58046E09500D58056E12001AC052
:100B58001DF01BC01EF0B9EF05F019C00CF01D0EFA
:100B68000D6E1CC00EF039EC01F01DC0F6FF1EC062
:100B7800F7FF0800F5500009D8A4C5EF05F0C7EF46
:100B880005F0B1EF05F0000E1A6E000E196E120096
:100B9800220E2A6E1FC02BF0000E2E6E000E2D6E38
:100BA800000E356E000E346E2B0E196E20C01AF032
:100BB80021C01BF02A0E1C6EABEC05F01F502D2433
:100BC800D96EDA6ADF6A1200056E066AEEEF05F082
:100BD8000000062A0550030D0650026E036AF35002
:100BE800025C0350800A046EF450800A0458D8A0AE
:100BF80000EF06F002EF06F0ECEF05F0120009BE78
:100C080008EF06F00AEF06F010EF06F008C008F04B
:100C180009C009F01CEF06F008C00AF009C00BF083
:100C28000A1E0B1E0A4A0B2A0AC008F00BC009F05C
:100C38001200026A0250050DF350A40FD96EDA6A49
:100C4800DF6A022A030E02642CEF06F02EEF06F08C
:100C58001EEF06F0820ED56EFD0ED76E8F0ED66E85
:100C6800F294F28A12008B88010EE8EC05F08B985A
:100C7800010EE8EC05F08B88010EE8EC05F00F0E8C
:100C8800076E010E01EC04F0010EE8EC05F012000D
:100C980000EE80F0400EEE6AE806FDE100EE56F048
:100CA800090EEE6AE806FDE15F905F92000EF86EAD
:100CB80000015FEF06F01DEC06F0C7EC06F001EC52
:100CC80007F0E5EC06F0F28EF28C15EC00F024EC5F
:100CD80002F069EF06F013EF00F0026EF29E025088
:100CE800050DF350A00FD96EDA6AB4C0DEFFB5C0A7
:100CF800DEFFB6C0DEFFB7C0DEFFF28E1200360E92
:100D08001F6EE50E206E1F0E216E5AC022F0236A58
:100D1800CCEC05F0360E056E066A9AEC04F012006B
:100D28009EB899EF06F09DEF06F0046A042A9EEF3C
:100D380006F0046A0450026E036A12000E6E0C502C
:100D4800FF0A0D6E0E5055EC04F00D14076E0E5090
:100D580001EC04F01200FD0ED76E8F0ED66EF294E1
:100D6800010E0001B427000EB523B623B7231200E5
:100D7800F2A4C1EF06F0C3EF06F0C5EF06F0AFEC42
:100D880006F05F92110006EC07F05C6A5B6A5A6A2B
:100D98005E0E026E33EC05F012009EBAD6EF06F036
:100DA800D9EF06F0010EDAEF06F0000E12000D6E14
:100DB8000D5055EC04F00C10076E0D5001EC04F0CA
:100DC8001200240EAC6E900EAB6E400EAF6EB86A79
:100DD8000001BE6B1200030E0C6E140EDBEC06F065
:100DE8001200030E0C6E140EA2EC06F01200948092
:100DF80094929494949694981200FBEC06F05EEC0E
:100E080005F012000F0E956E8C6A1200026E02C079
:100E1800ADFF120083500F0B1200AE5012001200EB
:101EEC00000102030405060708090A000B5374617C
:101EFC0074653A2025640946696C61733A2025643F
:101F0C0009436F6C756D6E61733A202564095465D5
:101F1C00636C613A2025640D0A004552524F522ED3
:101F2C002056616C6F7220696E74726F647569747F
:101F3C00206572726F6E692E0D0A0009332E204DCA
:101F4C006F6469666963617220686F726120646591
:101F5C006C2073697374656D610D0A0009322E2053
:101F6C004D6F737472617220636F6E666967757200
:101F7C006163696F6E730D0A0009312E205175690A
:101F8C002068692068612061206C612073616C613C
:101F9C003F0D0A005472696120756E61206F706389
:101FAC0069C3B33A0D0A002D2D2D2D2D2D2D2D2D60
:101FBC002D2D2D2D2D2D0D0A004D656EC3BA2070C3
:101FCC0072696E636970616C0D0A004861732070F0
:101FDC00756C7361646F2031005465636C613A20D9
:101FEC002564004F706369C3B33A20005549443AE5
:031FFC00200000C2
:020000040020DA
:08000000FFFFFFFFFFFFFFFF00
:020000040030CA
:0E000000FF02191EFF0181FF03C003E0034051
:00000001FF
