:020000040000FA
:0400000013EF00F00A
:0600080077825CEF0DF0B1
:100018007780E0CF4FF04FC0E0FF7790100076EF89
:100028000AF01FEF03F0070E5A6E0D0E51EC08F0A0
:10003800260E356E010E3B6E2AEF03F0770E3A6EF0
:10004800300E396EF70E5A6E020E51EC08F0020EA1
:100058003B6E2AEF03F0040EA5EC08F0326E030E97
:100068003B6E2AEF03F032507F0B5A6E040E51ECB0
:1000780008F0040E3B6E2AEF03F00A0EA5EC08F018
:10008800326E050E3B6E2AEF03F0325080095A6E2D
:100098000A0E51EC08F0060E3B6E2AEF03F0000E34
:1000A8005A6E010E51EC08F0070E3B6E2AEF03F072
:1000B80035C05AF0090E51EC08F0080E3B6E2AEFD5
:1000C80003F00C0E5A6E010E51EC08F0090E3B6E4F
:1000D8002AEF03F00D0EA5EC08F0326E0A0E3B6E07
:1000E8002AEF03F0325080095A6E0D0E51EC08F0D9
:1000F80037680B0E3B6E2AEF03F0040EA5EC08F0F0
:10010800386E38B08AEF00F08CEF00F099EF00F00D
:10011800385039140009D8A494EF00F096EF00F095
:1001280099EF00F0372E2AEF03F00C0E3B6E2AEF02
:1001380003F00D0EA5EC08F0326E0D0E3B6E2AEFA3
:1001480003F032507F0B5A6E0D0E51EC08F00E0E74
:100158003B6E2AEF03F03750D8B4B5EF00F0B7EF95
:1001680000F001EF01F0060EA5EC08F0656E1B0E1D
:100178006516D8A4C2EF00F0C4EF00F001EF01F05B
:100188000A0EA5EC08F06B6E0C0EA5EC08F0070B38
:100198006C6E6C50D8B4D3EF00F0D5EF00F0EDEFF3
:1001A80000F06C506BC065F0666AD89065366636AC
:1001B800D89065366636D890653666366526000E60
:1001C8006622F80E6524676EFF0E6620686EF3EFF0
:1001D80000F06B50080DF3CF67F0F4CF68F0100E05
:1001E80067186810D8A4FBEF00F0FDEF00F001EFEE
:1001F80001F00F0E3B6E2AEF03F0100E3B6E2AEF54
:1002080003F0010E3C6E3B6A2AEF03F03C6A3B6A3E
:100218002AEF03F03B50000AD8B417EF00F0010AA8
:10022800D8B422EF00F0030AD8B42FEF00F0010A87
:10023800D8B437EF00F0070AD8B441EF00F0010A4C
:10024800D8B449EF00F0030AD8B453EF00F0010A1C
:10025800D8B45CEF00F00F0AD8B465EF00F0010ADB
:10026800D8B46EEF00F0030AD8B476EF00F0010AB4
:10027800D8B481EF00F0070AD8B49DEF00F0010A66
:10028800D8B4A5EF00F0030AD8B4AFEF00F0010A24
:10029800D8B405EF01F01F0AD8B40AEF01F02AEF2D
:1002A80003F0000E5A6E0D0E51EC08F0930E156E09
:1002B800200E166E1EEF00F0080EA5EC08F0326E48
:1002C8002BEF00F03250F70B5A6E080E51EC08F085
:1002D80033EF00F0770E3A6E300E396EF70E5A6E25
:1002E800020E51EC08F03DEF00F0040EA5EC08F00A
:1002F800326E45EF00F032507F0B5A6E040E51EC0F
:1003080008F04FEF00F00A0EA5EC08F0326E58EF37
:1003180000F0325080095A6E0A0E51EC08F061EF75
:1003280000F0000E5A6E010E51EC08F06AEF00F072
:1003380015C05AF0090E51EC08F016C05AF0090E13
:1003480051EC08F072EF00F00C0E5A6E010E51ECF1
:1003580008F07DEF00F00D0EA5EC08F0326E99EF75
:1003680000F0325080095A6E0D0E51EC08F03768D3
:10037800A1EF00F0040EA5EC08F0386E38B0C7EF16
:1003880001F0C9EF01F0ABEF00F038503914000963
:10039800D8A4D1EF01F0D3EF01F0ABEF00F0372E86
:1003A8002AEF03F0ABEF00F00D0EA5EC08F0326E6B
:1003B800FDEF00F032507F0B5A6E0D0E51EC08F035
:1003C80001EF01F03750D8B4ECEF01F0EEEF01F097
:1003D8000AEF01F0060EA5EC08F0656E1B0E651617
:1003E800D8A4F9EF01F0FBEF01F00AEF01F0090ED4
:1003F800A5EC08F0156E090EA5EC08F0166E110EA6
:100408003B6E2AEF03F0090EA5EC08F0176E090EF3
:10041800A5EC08F0186E120E3B6E2AEF03F0090ED9
:10042800A5EC08F0196E1A6A130E3B6E2AEF03F05A
:100438001650171818181518346E010E336E140E4E
:100448003B6E2AEF03F01550D8A42DEF02F02FEFE2
:1004580002F037EF02F01650D8B435EF02F037EF5C
:1004680002F038EF02F0336A150E3B6E2AEF03F004
:100478001750D8A442EF02F044EF02F04CEF02F01C
:100488001850D8B44AEF02F04CEF02F04DEF02F0EA
:10049800336A160E3B6E2AEF03F034501918D8A4AD
:1004A80058EF02F05AEF02F00AEF01F03350D8B4D7
:1004B80060EF02F062EF02F064EF02F00AEF01F081
:1004C800170E3B6E2AEF03F0010E6A6EA3EC0AF0DA
:1004D800696E000E6E6E000E6D6E6EBE7DEF02F0E0
:1004E8006E5009E1050E6D5CD8A07DEF02F07FEF3C
:1004F80002F081EF02F099EF02F06D50150FD96EFE
:10050800DA6A69506D24E16EE26ADE50E618D8B402
:1005180090EF02F092EF02F095EF02F06A6A99EF1D
:1005280002F06D4A6E2A71EF02F06A50D8A49FEF6C
:1005380002F0A1EF02F0ACEF02F016C060F017C0B5
:1005480061F018C062F019C063F01550DEEC0BF0D2
:10055800180E3B6E2AEF03F0000E5A6E0D0E51EC8A
:1005680008F03C6A07EF01F03B50000AD8B455EF99
:1005780001F0010AD8B460EF01F0030AD8B466EFBD
:1005880001F0010AD8B46EEF01F0070AD8B479EF88
:1005980001F0010AD8B47FEF01F0030AD8B487EF5D
:1005A80001F0010AD8B48DEF01F00F0AD8B495EF25
:1005B80001F0010AD8B49CEF01F0030AD8B4A8EFFF
:1005C80001F0010AD8B4AFEF01F0070AD8B4B5EFCB
:1005D80001F0010AD8B4BEEF01F0030AD8B4D8EF8D
:1005E80001F0010AD8B4DEEF01F01F0AD8B4E6EF33
:1005F80001F0010AD8B407EF02F0030AD8B413EFE8
:1006080002F0010AD8B41CEF02F0070AD8B427EFA9
:1006180002F0010AD8B43CEF02F0030AD8B451EF53
:1006280002F0010AD8B468EF02F00F0AD8B4B0EFAC
:1006380002F02AEF03F03C50000AD8B40EEF01F0A4
:10064800010AD8B4B8EF02F02AEF03F012002AEF3B
:1006580004F0B0EC0DF0406E4050D8A436EF03F033
:1006680038EF03F040EF03F0010E3F6E98EC0BF00B
:10067800010E3D6E45EF04F04050D8B446EF03F04C
:1006880048EF03F045EF04F04E5009EC0DF0030E6F
:100698003D6E45EF04F0B0EC0DF0406E4050D8A42C
:1006A80058EF03F05AEF03F062EF03F0020E3F6ECB
:1006B80098EC0BF0020E3D6E45EF04F04050D8B4B4
:1006C80068EF03F06AEF03F045EF04F04E5009ECD1
:1006D8000DF04BEF03F0B0EC0DF0406E4050D8B485
:1006E80078EF03F07AEF03F07FEF03F04E5009EC58
:1006F8000DF04BEF03F04050D8A485EF03F087EFDF
:1007080003F045EF04F0040E3F6E98EC0BF03D6AE1
:1007180045EF04F094EC07F03E6EB0EC0DF0406E3F
:100728004050D8A49AEF03F09CEF03F09EEF03F03B
:1007380087EF03F04050D8B4A4EF03F0A6EF03F01E
:10074800C6EF03F04E504EEC0BF0535052105110C0
:1007580009E1050E505CD8A0B4EF03F0B6EF03F042
:10076800C6EF03F00B0E3E18D8B4BDEF03F0BFEF91
:1007780003F0C6EF03F03E501FEC0CF0050E3D6E83
:1007880045EF04F04050D8B4CCEF03F0CEEF03F0BF
:1007980045EF04F04E504EEC0BF0535052105110F0
:1007A80009E1050E505CD8A0DCEF03F0DEEF03F0A2
:1007B80045EF04F00B0E3E18D8A4E5EF03F0E7EF81
:1007C80003F045EF04F04E5009EC0DF0040E3D6EB9
:1007D80045EF04F0B0EC0DF0406E4050D8A4F7EFB0
:1007E80003F0F9EF03F0FBEF03F08BEF03F0405059
:1007F800D8B401EF04F003EF04F045EF04F04E50D5
:100808004EEC0BF0535052100BE1F50E505C010EFC
:100818005158D8A012EF04F014EF04F045EF04F09B
:10082800ADEC0DF0C2EF03F0B0EC0DF0406E4050AF
:10083800D8A421EF04F023EF04F045EF04F03D6A5B
:10084800040E3F6E98EC0BF045EF04F03D50000AA3
:10085800D8B42DEF03F0010AD8B44FEF03F0030A20
:10086800D8B46FEF03F0010AD8B48EEF03F0070A8B
:10087800D8B4EEEF03F0010AD8B418EF04F045EF4E
:1008880004F01200000180514718D8A44EEF04F07C
:1008980050EF04F077EF04F081514818D8A457EFCF
:1008A80004F059EF04F077EF04F082514918D8A406
:1008B80060EF04F062EF04F077EF04F083514A1818
:1008C800D8A469EF04F06BEF04F077EF04F08451DB
:1008D8004B18D8A472EF04F074EF04F077EF04F02B
:1008E800000E09EF05F047509019D8A47EEF04F0E8
:1008F80080EF04F0A7EF04F091514818D8A487EFCF
:1009080004F089EF04F0A7EF04F092514918D8A435
:1009180090EF04F092EF04F0A7EF04F093514A1817
:10092800D8A499EF04F09BEF04F0A7EF04F09451DA
:100938004B18D8A4A2EF04F0A4EF04F0A7EF04F03A
:10094800010E09EF05F04750A019D8A4AEEF04F046
:10095800B0EF04F0D7EF04F0A1514818D8A4B7EFCE
:1009680004F0B9EF04F0D7EF04F0A2514918D8A465
:10097800C0EF04F0C2EF04F0D7EF04F0A3514A1817
:10098800D8A4C9EF04F0CBEF04F0D7EF04F0A451DA
:100998004B18D8A4D2EF04F0D4EF04F0D7EF04F04A
:1009A800020E09EF05F04750B019D8A4DEEF04F0A5
:1009B800E0EF04F007EF05F0B1514818D8A4E7EFCD
:1009C80004F0E9EF04F007EF05F0B2514918D8A494
:1009D800F0EF04F0F2EF04F007EF05F0B3514A1816
:1009E800D8A4F9EF04F0FBEF04F007EF05F0B451D9
:1009F8004B18D8A402EF05F004EF05F007EF05F057
:100A0800030E09EF05F074EF04F01200B8EF05F0DB
:100A1800B3EC0DF01B0AD8A414EF05F016EF05F09F
:100A28001AEF05F015EC0AF0010E2C6E2D04D8A46F
:100A380020EF05F022EF05F0C7EF05F015EC0AF0FE
:100A4800010E2C6E2D6AC7EF05F067EC0DF0E80675
:100A5800D8A431EF05F033EF05F0C7EF05F0B3EC9C
:100A68000DF0310AD8A43BEF05F03DEF05F053EF48
:100A780005F0BF0E546E1F0E556E57EC0CF0A3EC2C
:100A88000AF0606E60C056F044EC06F0BF0E546E7B
:100A98001F0E556E57EC0CF02C6AC7EF05F0B3EC3F
:100AA8000DF0320AD8A45BEF05F05DEF05F067EFB3
:100AB80005F0BF0E546E1F0E556E57EC0CF0F6EC99
:100AC80008F050EF05F0B3EC0DF0330AD8A46FEF3F
:100AD80005F071EF05F081EF05F0BF0E546E1F0EA3
:100AE800556E57EC0CF02E0E546E1F0E556E57ECCB
:100AF8000CF0020E2C6EC7EF05F0CB0E546E1E0ED6
:100B0800556E57EC0CF050EF05F067EC0DF0E80669
:100B1800D8A491EF05F093EF05F0C7EF05F02B503F
:100B2800730FD96EDA6AB3EC0DF0DF6E2B50730FCA
:100B3800D96EDA6ADF501BEC0DF02B2A040E2B1845
:100B4800D8A4A9EF05F0ABEF05F0C7EF05F0730ED9
:100B5800506E3CEC0CF00D0E546E1F0E556E57EC9B
:100B68000CF02B6A50EF05F02C50000AD8B40CEFAB
:100B780005F0010AD8B429EF05F0030AD8B489EFC3
:100B880005F0C7EF05F01200666E4D0E506EFCECD6
:100B98000AF066C031F065C030F02E6A2F6A939271
:100BA80093949396000E686E000E676E4DC05DF0CC
:100BB8005E6A000E606E330E5F6E00EC0CF0030E82
:100BC80046EC09F04DC05DF05E6A000E606E020EE4
:100BD8005F6E00EC0CF0030E46EC09F04DC05DF0C2
:100BE8005E6A000E606E010E5F6E00EC0CF0030E84
:100BF80046EC09F04DC05DF05E6A000E606E010EB5
:100C08005F6E00EC0CF0020E46EC09F04DC05DF092
:100C18005E6A000E606E010E5F6E00EC0CF0280E2E
:100C2800DBEC0CF046EC0AF0080EDBEC0CF046ECC2
:100C38000AF0010EDBEC0CF04DC05DF05E6A000EB0
:100C4800606E020E5F6E00EC0CF046EC0AF0060EC9
:100C5800DBEC0CF046EC0AF00F0EDBEC0CF0674A0C
:100C6800682A68BE41EF06F0685009E1020E675C29
:100C7800D8A041EF06F043EF06F0DAEF05F01200D6
:100C8800ED0E546E1F0E556E57EC0CF0000E5F6E95
:100C9800000E5E6E56505E24D96EDA6ADF50576ECB
:100CA80057380F0B0F0B5C6E090E5C645EEF06F095
:100CB80060EF06F068EF06F0370E5C24586E596A4C
:100CC800000E59226EEF06F0300E5C24586E596AF9
:100CD800000E592258501BEC0DF056505E24D96E68
:100CE800DA6ADF500F0B5D6E090E5D647EEF06F069
:100CF80080EF06F088EF06F0370E5D245A6E5B6AC7
:100D0800000E5B228EEF06F0300E5D245A6E5B6A91
:100D1800000E5B225A501BEC0DF05FBE9FEF06F0F1
:100D28005F5007E1040E5E5CD8B09DEF06F09FEFC0
:100D380006F0A5EF06F0FC0E546E1F0E556E57EC2C
:100D48000CF05E4A5F2A5FBEB3EF06F05F5009E120
:100D5800050E5E5CD8A0B3EF06F0B5EF06F04EEFD7
:100D680006F0BF0E546E1F0E556E57EC0CF01200B5
:100D7800656E16EF07F05E50D8B4C5EF06F0C7EF02
:100D880006F0CDEF06F0000E626E400E616ED1EFF8
:100D980006F0000E626E000E616E65506124636E8F
:100DA800000E6220646E25EF07F065C063F0646A88
:100DB8005E04D8A4E2EF06F0E4EF06F0EAEF06F0EE
:100DC800400E6326000E642225EF07F0020E5E181F
:100DD800D8A4F1EF06F0F3EF06F0F9EF06F0305083
:100DE8006326000E642225EF07F0030E5E18D8A4D0
:100DF80000EF07F002EF07F00FEF07F030505F6EDB
:100E0800606A400E5F26000E60225F5063266050C5
:100E1800642225EF07F025EF07F065C063F0646AE8
:100E280025EF07F03150010AD8B411EF07F0030A93
:100E3800D8B4BFEF06F0060AD8B4D9EF06F011EF20
:100E480007F046EC0AF063508009DBEC0CF05EC05A
:100E58002FF065C02EF01200666E46EC0AF0665060
:100E6800C2EC0CF02E2A030E3118D8A43EEF07F07E
:100E780040EF07F05AEF07F0130E2E6446EF07F025
:100E880048EF07F093EF07F02E6A2F2A030E2F641E
:100E980050EF07F052EF07F053EF07F02F6A2FC01B
:100EA8005EF02E50BCEC06F093EF07F0020E3118FE
:100EB800D8A461EF07F063EF07F07DEF07F0270E86
:100EC8002E6469EF07F06BEF07F093EF07F02E6AD7
:100ED8002F2A010E2F6473EF07F075EF07F076EFF6
:100EE80007F02F6A2FC05EF02E50BCEC06F093EF8F
:100EF80007F02F04D8A483EF07F085EF07F093EFEE
:100F080007F0270E2E648BEF07F08DEF07F08EEFBA
:100F180007F02E6A2FC05EF02E50BCEC06F01200CF
:100F28005E6AA9EF07F05F6AC7EF07F0010E5F6E10
:100F3800C7EF07F0020E5F6EC7EF07F0030E5F6E94
:100F4800C7EF07F0FF0EF5EF07F04050010AD8B4DD
:100F580097EF07F0030AD8B49AEF07F0060AD8B457
:100F68009EEF07F00C0AD8B4A2EF07F0A6EF07F03F
:100F78005E6AE1EF07F0010E5E6EE1EF07F0020E28
:100F88005E6EE1EF07F03F50070B506E516A51500B
:100F9800000AD8B4D2EF07F0A6EF07F05050010AC4
:100FA800D8B4BCEF07F0030AD8B4BFEF07F0060ABD
:100FB800D8B4C3EF07F0A6EF07F0BF0EF66E1E0E0B
:100FC800F76E20EE52F00B0E0900F5CFDEFFE806B3
:100FD800FBE25F50030DF350520F5E24D96EDA6ABC
:100FE800DF501200000E5B6E000E5A6E4C0E1BECAA
:100FF8000DF05A50300F1BEC0DF0E40E546E1F0E1E
:10100800556E57EC0CF056505A24D96EDA6ADF50F8
:10101800596E090E596413EF08F015EF08F01DEF2B
:1010280008F0370E5924576E586A000E582223EFDD
:1010380008F0300E5924576E586A000E582257503F
:101048001BEC0DF05BBE34EF08F05B5007E1050EBA
:101058005A5CD8B032EF08F034EF08F03AEF08F0F5
:10106800F80E546E1F0E556E57EC0CF05A4A5B2A58
:101078005BBE48EF08F05B5009E1060E5A5CD8A049
:1010880048EF08F04AEF08F0FAEF07F0BF0E546E89
:101098001F0E556E57EC0CF012005C6E5C505C2411
:1010A8007E0B5D6E8B948B96080E5E6E5DBE5FEF59
:1010B80008F063EF08F05B6A5B2A64EF08F05B6A8C
:1010C8005B468B505B18FD0B5B188B6E8B84D8903E
:1010D8005D36050E72EC0CF08B94050E72EC0CF07C
:1010E8005E065E50D8A47BEF08F07DEF08F05AEF5B
:1010F80008F0080E5E6E5ABE84EF08F088EF08F01C
:101108005B6A5B2A89EF08F05B6A5B468B505B1869
:10111800FD0B5B188B6E8B84D8905A36050E72ECDB
:101128000CF08B94050E72EC0CF05E065E50D8A4A1
:10113800A0EF08F0A2EF08F07FEF08F08B868B8411
:101148001200566E565056247E0B8009576E586A08
:101158008B948B96080E596E57BEB5EF08F0B9EF11
:1011680008F0556A552ABAEF08F0556A55468B506B
:101178005518FD0B55188B6E8B84050E72EC0CF010
:10118800D89057368B94050E72EC0CF059065950CE
:10119800D8A4D1EF08F0D3EF08F0B0EF08F0080EAC
:1011A800596E8B84050E72EC0CF0D890583682B0CC
:1011B800E0EF08F0E3EF08F0010EE4EF08F0000EAE
:1011C80058128B94050E72EC0CF059065950D8A49D
:1011D800F0EF08F0F2EF08F0D5EF08F08B868B847B
:1011E80058501200000E596E000E586EE70E546EDD
:1011F8001F0E556E57EC0CF05850310F1BEC0DF0CC
:10120800D40E546E1F0E556E57EC0CF0000E576E30
:10121800000E566E5850060DF350C00F5624D96E66
:10122800DA6ADF50300F1BEC0DF0FA0E546E1F0E09
:10123800556E57EC0CF0564A572A57BE2DEF09F059
:10124800575009E1060E565CD8A02DEF09F02FEF94
:1012580009F00EEF09F0BF0E546E1F0E556E57ECD5
:101268000CF0584A592A59BE43EF09F0595009E180
:10127800040E585CD8A043EF09F045EF09F0FAEFE7
:1012880008F01200516E96909692939A93988A96C7
:101298008A948A828A8251B654EF09F058EF09F08D
:1012A800506A502A59EF09F0506A8D505018FE0BB9
:1012B80050188D6E51B463EF09F067EF09F0506A6A
:1012C800502A68EF09F0506A50468D505018FD0BAF
:1012D80050188D6E51B273EF09F077EF09F0506A2C
:1012E800502A78EF09F0506A503A50468A50501800
:1012F800DF0B50188A6E51B084EF09F088EF09F0BF
:10130800506A502A89EF09F0506A503A8A505018AA
:10131800EF0B50188A6E8A921200516E51B697EFF1
:1013280009F09BEF09F0506A502A9CEF09F0506AC7
:101338008D505018FE0B50188D6E51B4A6EF09F061
:10134800AAEF09F0506A502AABEF09F0506A5046EC
:101358008D505018FD0B50188D6E51B2B6EF09F034
:10136800BAEF09F0506A502ABBEF09F0506A503AB8
:1013780050468A505018DF0B50188A6E51B0C7EF8C
:1013880009F0CBEF09F0506A502ACCEF09F0506A07
:10139800503A8A505018EF0B50188A6E1200516E4E
:1013A80051BED9EF09F0DDEF09F0506A502ADEEF9F
:1013B80009F0506A8D505018FE0B50188D6E51BCB4
:1013C800E8EF09F0ECEF09F0506A502AEDEF09F068
:1013D800506A50468D505018FD0B50188D6E51BAFA
:1013E800F8EF09F0FCEF09F0506A502AFDEF09F018
:1013F800506A503A50468A505018DF0B50188A6E7F
:1014080051B809EF0AF00DEF0AF0506A502A0EEFB2
:101418000AF0506A503A8A505018EF0B50188A6EEA
:101428001200B00E546E1F0E556E57EC0CF0C20E23
:10143800546E1F0E556E57EC0CF0B00E546E1F0E06
:10144800556E57EC0CF09D0E546E1F0E556E57ECF2
:101458000CF06C0E546E1F0E556E57EC0CF04F0EC0
:10146800546E1F0E556E57EC0CF0EC0E546E1E0E9B
:10147800556E57EC0CF0DE0E546E1F0E556E57EC81
:101488000CF0120096809682938A93888A968A84B2
:101498004D5009EC0DF08A828A82000E81BE010E41
:1014A8005D6E8A928A928A828A828A928A924D5044
:1014B8004EEC0BF053505210511009E10B0E505CDA
:1014C800D8A069EF0AF06BEF0AF06DEF0AF075EF3C
:1014D8000AF05D50D8A473EF0AF075EF0AF04FEFE9
:1014E8000AF01200A00EF66E150EF76E000EF86EDA
:1014F80000EE80F010EE58F00900F5CFEEFFE55051
:10150800E150FAE1420EF66E1B0EF76E000EF86E11
:1015180000EE6FF010EE08F00900F5CFEEFFE55091
:10152800E150FAE100EE01F04E0EEE6AE806FDE148
:1015380077907792000EF86E000174EF0BF0475029
:10154800D8A4A9EF0AF0ABEF0AF0CEEF0AF04850A2
:10155800D8A4B1EF0AF0B3EF0AF0CEEF0AF0495081
:10156800D8A4B9EF0AF0BBEF0AF0CEEF0AF04A5060
:10157800D8A4C1EF0AF0C3EF0AF0CEEF0AF04B503F
:10158800D8A4C9EF0AF0CBEF0AF0CEEF0AF0000EAC
:10159800CFEF0AF0470E120065DCF90343000000A4
:1015A8000000000000000000DC0DF9032B00000023
:1015B8000000000000000000DF8BDFC44F000000C7
:1015C80000000000000000002132A989330000005B
:1015D80000000000000000000101010101010101FB
:1015E80001010101010101010101010101010101E3
:1015F800526A0BEF0BF0522A040E5218D8A407EFC8
:101608000BF009EF0BF00BEF0BF026EF0BF052503D
:10161800050DF350050FD96EDA6ADE04D8B417EF5A
:101628000BF019EF0BF0FFEF0AF05250050DF350D5
:10163800050FD96EDA6A010EDF6E5050D96EDA6A7C
:1016480052C0DFFF12008B868B88F4EC0CF08D0EF5
:101658005A6E2A0E51EC08F03E0E5A6E2B0E51ECC3
:1016680008F01E0E5A6E2D0E51EC08F0000E5A6E40
:101678002C0E51EC08F0400E5A6E150E51EC08F085
:101688003D0E5A6E110E51EC08F090EC0DF08AECFC
:101698000DF012005C6EF29E1BC058F01CC059F091
:1016A8001DC05AF01EC05BF0F28E5C50050DF35061
:1016B800010FD96EDA6ADECF54F0DECF55F0DECFF7
:1016C80056F0DECF57F05450585C506E555059586C
:1016D800516E56505A58526E57505B58536E1200FE
:1016E800A8EC0CF051EC0DF09CEC0DF07BEC0DF03F
:1016F800A9EC0DF083EC0DF0100E656E020EC8EC2F
:1017080005F0F28EF29CF30E676E1F0E686E8DEC7C
:101718000CF02BEC03F00AEC05F015EC00F08D74DE
:101728008DEF0BF013EF00F08C6A3F04D8A49FEF05
:101738000BF0A1EF0BF0A4EF0BF08C8ABAEF0BF0D3
:10174800020E3F18D8A4ABEF0BF0ADEF0BF0B0EFE3
:101758000BF08C8CBAEF0BF0040E3F18D8A4B7EF3F
:101768000BF0B9EF0BF0BAEF0BF08C881200526E49
:10177800040E5260C2EF0BF0C4EF0BF0DDEF0BF07C
:10178800060E5060CAEF0BF0CCEF0BF0DDEF0BF05C
:101798000B0E5160D2EF0BF0D4EF0BF0DDEF0BF036
:1017A8005250060DF350C00F5024D96EDA6A51C05A
:1017B800DFFF1200646E64C047F060C048F061C08B
:1017C80049F062C04AF063C04BF0010E296E870EE3
:1017D800546E1F0E556E57EC0CF0470E566E44ECC7
:1017E80006F09B0E546E1F0E556E57EC0CF0C00E93
:1017F800566EF6EC07F012005D5009EC0DF05FC074
:1018080061F060C062F0000E62BEFF0E636E646E2F
:101818005D504EEC0BF06150505C62505158635073
:10182800525864505358D8A01CEF0CF01EEF0CF01F
:1018380003EF0CF01200536E2750D8A426EF0CF0DB
:1018480028EF0CF02EEF0CF05304266E010E276ED5
:101858003BEF0CF046EC04F0256E26C050F053C068
:1018680051F02550BBEC0BF0010E2A6E276A1200CE
:101878005050D96EDA6ADF506F6E5050D96EDA6AFE
:10188800010ED926DF50706E5050D96EDA6A020EFA
:10189800D926DF50716E5050D96EDA6A030ED926F8
:1018A800DF50726E120063EF0CF054C0F6FF55C0A3
:1018B800F7FF0800F5501BEC0DF0544A552A54C0A8
:1018C800F6FF55C0F7FF0800F5500009D8A46FEFE0
:1018D8000CF071EF0CF059EF0CF01200536E546AD3
:1018E80078EF0CF00000542A5350100D5450506EED
:1018F800516AF350505C5150800A526EF450800A7D
:101908005258D8A08AEF0CF08CEF0CF076EF0CF060
:10191800120099EF0CF067C0F6FF68C0F7FF0800E7
:10192800F55030EC07F0674A682A67C0F6FF68C0D0
:10193800F7FF0800F5500009D8A4A5EF0CF0A7EFB1
:101948000CF08FEF0CF01200506A5050050DF35058
:10195800050FD96EDA6ADF6A502A030E5064B7EFB2
:101968000CF0B9EF0CF0A9EF0CF0820ED56EF60E64
:10197800D76E3C0ED66EF294F28A1200526E969092
:101988009692939A93988A868A948A825250D3EC34
:1019980009F08A828A928A928A82525091EC09F0DE
:1019A8008A828A9296809682938A93881200526ECF
:1019B80096909692939A93988A968A948A8252508D
:1019C800D3EC09F08A828A928A928A82525091ECE8
:1019D80009F08A828A9296809682938A9388120066
:1019E8008B88010E72EC0CF08B98010E72EC0CF0E7
:1019F8008B88010E72EC0CF00F0E5A6E010E51EC32
:101A080008F0010E72EC0CF01200506EF29E50506D
:101A1800050DF350010FD96EDA6A1BC0DEFF1CC03A
:101A2800DEFF1DC0DEFF1EC0DEFFF28E1200536E09
:101A38002AEC0DF050505110D8B425EF0DF027EFD7
:101A48000DF01CEF0DF053C0ADFF12009EB82FEF44
:101A58000DF033EF0DF0526A522A34EF0DF0526A4E
:101A68005250506E516A1200616E5F50FF0A606EEC
:101A78006150A5EC08F060145A6E615051EC08F002
:101A88001200F60ED76E3C0ED66EF294010E1B268F
:101A9800000E1C221D221E221200A5EC0DF0406A29
:101AA8003F6A3E6A3D6A4E0E506EFCEC0AF0120028
:101AB800F2A461EF0DF063EF0DF065EF0DF045EC6A
:101AC8000DF0779211009EBA6CEF0DF06FEF0DF0EC
:101AD800010E70EF0DF0000E1200606E6050A5EC64
:101AE80008F05F105A6E605051EC08F01200240E96
:101AF800AC6E900EAB6EAF68B86A2D6A1200926A2F
:101B0800966A4C0E506EFCEC0AF01200030E5F6EE3
:101B1800140E71EC0DF01200030E5F6E140E38EC0B
:101B28000DF01200948094929494949694981200D4
:101B380096EC0DF027EC0BF01200303030303030DE
:101B480030300F0E956E8C6A12000F0EC16E96948F
:101B58001200010E2D6E120083500F0B1200AE50B2
:021B6800120069
:101EBE00000102030405060708090A000B455252E9
:101ECE004F522E2056616C6F7220696E74726F6461
:101EDE00756974206572726F6E692E0D0A00093372
:101EEE002E204D6F6469666963617220686F72613E
:101EFE002064656C2073697374656D610D0A000D45
:101F0E000A486F726120696E74726F6475696461DC
:101F1E0020636F7272656374616D656E740D0A0075
:101F2E00496E74726F64756365206C6120686F72A0
:101F3E00612061637475616C2848484D4D293A20C3
:101F4E000009322E204D6F737472617220636F6EB2
:101F5E0066696775726163696F6E730D0A00093188
:101F6E002E205175692068692068612061206C619E
:101F7E002073616C613F0D0A005461726765746174
:101F8E0020646574656374616461210D0A090054EF
:101F9E0072696120756E61206F706369C3B33A0D0B
:101FAE000A002D2D2D2D2D2D2D2D2D2D2D2D2D2DA3
:101FBE002D0D0A004D656EC3BA207072696E63698D
:101FCE0070616C0D0A0020436F6E6669673A2000DF
:101FDE004F706369C3B33A20005573657220005584
:101FEE0049443A2000486F6C6100202D20002D00DE
:011FFE0000E2
:020000040020DA
:08000000FFFFFFFFFFFFFFFF00
:020000040030CA
:0E000000FF06191EFF8181FF03C003E00340CD
:00000001FF
