:020000040000FA
:0400000013EF00F00A
:060008007782BCEF08F056
:100018007780E0CF40F040C0E0FF7790100036EFE7
:1000280008F0000E756E010E766E75C060F076C031
:1000380061F0E40E626E1F0E636E33C064F0656A91
:100048004FEC07F060507526615076225CEF01F0A6
:10005800070E4B6E0D0EEBEC05F0260E2A6E010E08
:10006800326E6BEF01F0770E306E300E2F6EF70E9A
:100078004B6E020EEBEC05F0800E506E040E98EC01
:1000880008F0800E506E0A0ED1EC08F0000E4B6E90
:10009800010EEBEC05F02AC04BF0090EEBEC05F075
:1000A8000C0E4B6E010EEBEC05F0800E506E0D0E33
:1000B800D1EC08F02C68020E326E6BEF01F0040EE2
:1000C8003FEC06F02D6E2DB06CEF00F06EEF00F0F7
:1000D8007BEF00F02D502F140009D8A476EF00F024
:1000E80078EF00F07BEF00F02C2E6BEF01F0800E24
:1000F800506E0D0E98EC08F02C50D8B486EF00F036
:1001080088EF00F0A1EF00F0060E3FEC06F0746EE9
:100118001B0E7416D8A493EF00F095EF00F0A1EF32
:1001280000F02D503014746E74B09DEF00F09FEF06
:1001380000F0A1EF00F0010E336E326A6BEF01F0B0
:100148003250000AD8B42CEF00F0010AD8B437EFC7
:1001580000F0030AD8B463EF00F06BEF01F0000E73
:100168004B6E0D0EEBEC05F0930E386E200E396ECB
:10017800080E506E080E98EC08F033EF00F0770E7A
:10018800306E300E2F6EF70E4B6E020EEBEC05F054
:10019800800E506E040E98EC08F0800E506E0A0E19
:1001A800D1EC08F0000E4B6E010EEBEC05F038C0F8
:1001B8004BF0090EEBEC05F039C04BF0090EEBECF7
:1001C80005F00C0E4B6E010EEBEC05F0800E506E38
:1001D8000D0ED1EC08F02C68020E326E6BEF01F0B8
:1001E800040E3FEC06F02D6E2DB0FDEF00F0FFEF92
:1001F80000F00CEF01F02D502F140009D8A407EFE0
:1002080001F009EF01F00CEF01F02C2E6BEF01F07B
:10021800800E506E0D0E98EC08F02C50D8B417EFE5
:1002280001F019EF01F0A1EF00F0060E3FEC06F027
:10023800746E1B0E7416D8A424EF01F026EF01F09B
:10024800A1EF00F00A0E3FEC06F02D6E2C6A2C5040
:10025800380FD96EDA6A090E3FEC06F0DF6E2C2AE9
:10026800030E2C643AEF01F03CEF01F02BEF01F0A4
:100278003C6A380E466E86EC03F0020E336EA1EF30
:1002880000F03250000AD8B4B3EF00F0010AD8B435
:10029800C3EF00F0030AD8B4F4EF00F06BEF01F0FD
:1002A800500E4B6E010EEBEC05F0336A6BEF01F06C
:1002B8003350000AD8B4A4EF00F0010AD8B445EFCF
:1002C80001F0030AD8B454EF01F06BEF01F012000B
:1002D80068EF02F006EC09F0376E3750D8A477EFD4
:1002E80001F079EF01F081EF01F0010E366EC4ECF8
:1002F80007F0010E346E83EF02F03750D8B487EF61
:1003080001F089EF01F083EF02F03F5078EC08F03C
:10031800030E346E83EF02F006EC09F0376E3750A7
:10032800D8A499EF01F09BEF01F0A3EF01F0020EC2
:10033800366EC4EC07F0020E346E83EF02F03750CD
:10034800D8B4A9EF01F0ABEF01F083EF02F03F5012
:1003580078EC08F08CEF01F006EC09F0376E3750B6
:10036800D8B4B9EF01F0BBEF01F0C0EF01F03F5096
:1003780078EC08F08CEF01F03750D8A4C6EF01F004
:10038800C8EF01F083EF02F0040E366EC4EC07F0FC
:10039800346A83EF02F074EC04F0356E06EC09F071
:1003A800376E3750D8A4DBEF01F0DDEF01F0DFEF57
:1003B80001F0C8EF01F03750D8B4E5EF01F0E7EFEE
:1003C80001F004EF02F03F509EEC07F04450431058
:1003D800421009E1090E415CD8A0F5EF01F0F7EFF2
:1003E80001F004EF02F00B0E3518D8B4FEEF01F05F
:1003F80000EF02F004EF02F0050E346E83EF02F016
:100408003750D8B40AEF02F00CEF02F083EF02F095
:100418003F509EEC07F044504310421009E1090E8A
:10042800415CD8A01AEF02F01CEF02F083EF02F053
:100438000B0E3518D8A423EF02F025EF02F083EF56
:1004480002F03F5078EC08F0040E346E83EF02F0AF
:1004580006EC09F0376E3750D8A435EF02F037EFC5
:1004680002F039EF02F0CCEF01F03750D8B43FEF8B
:1004780002F041EF02F083EF02F03F509EEC07F0EC
:10048800445043100BE1DD0E415C050E4258D8A0E4
:1004980050EF02F052EF02F083EF02F003EC09F0A4
:1004A80000EF02F006EC09F0376E3750D8A45FEF82
:1004B80002F061EF02F083EF02F0346A040E366E48
:1004C800C4EC07F083EF02F03450000AD8B46EEFA2
:1004D80001F0010AD8B490EF01F0030AD8B4B0EFE4
:1004E80001F0010AD8B4CFEF01F0070AD8B42CEF15
:1004F80002F0010AD8B456EF02F083EF02F01200BE
:10050800000E526E000E516E4C50D96EDA6ADECF74
:10051800F6FFDDCFF7FF0800F550250AD8A497EFBE
:1005280002F099EF02F06CEF03F04C50D96EDA6AE2
:10053800DE2A000EDD22000E1C6E000E1B6E1BC094
:1005480023F01D681E684C50D96EDA6ADECF53F06E
:10055800DDCF54F053C0F6FF54C0F7FF0800F55044
:10056800640AD8B4BAEF02F0BCEF02F0CAEF02F0A6
:1005780053C0F6FF54C0F7FF0800F550690AD8A425
:10058800C8EF02F0CAEF02F060EF03F04D50D96EE9
:10059800DA6A020EDF26DF5CD96EDA6ADECF55F042
:1005A800DECF56F0010E53244E6E000E54204F6ECF
:1005B8004C50D96EDA6A4EC0DEFF4FC0DDFF200E08
:1005C800596E56BEEAEF02F0EDEF02F0010EEEEFC3
:1005D80002F0000E506E59065950800FD96EDA6A33
:1005E80055C041F056C042F0000E446E0A0E436EEC
:1005F80094EC05F041C047F042C048F002EC08F026
:100608004750300FDF6E55C041F056C042F0000E23
:10061800446E0A0E436ED6EC04F041C055F042C059
:1006280056F0514A522A55505610D8B41EEF03F0CE
:1006380020EF03F028EF03F05950D8A426EF03F079
:1006480028EF03F0EFEF02F05950D8B42EEF03F083
:1006580030EF03F051EF03F05050D8B436EF03F009
:1006680038EF03F051EF03F059065950800FD96E57
:10067800DA6A2D0EDF6E514A522A51EF03F05950B3
:10068800800FD96EDA6ADF504E6E4E50416E426A64
:100698004BC043F037EC05F0592A200E5918D8A45E
:1006A80058EF03F05AEF03F043EF03F051C04BF05B
:1006B80052C04CF085EF03F04C50D96EDA6ADE2A4E
:1006C800000EDD22000E4C6E000E4B6E85EF03F01F
:1006D8004C50D96EDA6ADECFF6FFDDCFF7FF08009F
:1006E800F550416E426A4BC043F037EC05F04C5070
:1006F800D96EDA6ADE2A000EDD22000E4C6E010E7B
:100708004B6E1200000E586E000E576E465057245E
:10071800D96EDA6ADF50476E47380F0B0F0B596EE8
:10072800090E59649AEF03F09CEF03F0A4EF03F06D
:10073800370E5924536E546A000E5422AAEF03F060
:10074800300E5924536E546A000E54225750020D2D
:10075800F350480FD96EDA6A53C0DFFF465057246A
:10076800D96EDA6ADF500F0B596E090E5964BFEF64
:1007780003F0C1EF03F0C9EF03F0370E5924556EAB
:10078800566A000E5622CFEF03F0300E5924556EEC
:10079800566A000E56225750020DF3CF47F0010E4D
:1007A80047264750480FD96EDA6A55C0DFFF574AC7
:1007B800582A58BEE9EF03F0585009E1050E575C76
:1007C800D8A0E9EF03F0EBEF03F08AEF03F0526AE9
:1007D800F90E446E1F0E456E90EC06F0480E446EFE
:1007E800456A90EC06F0A60E446E1F0E456E90EC1E
:1007F80006F0120068EF04F009EC09F01B0AD8A40F
:1008080008EF04F00AEF04F00EEF04F0CAEC06F06B
:10081800010E246E2504D8A414EF04F016EF04F09A
:1008280073EF04F0CAEC06F0010E246E256A73EF2C
:1008380004F0C7EC08F0E806D8A425EF04F027EF89
:1008480004F073EF04F0B1EC08F009EC09F0310A98
:10085800D8A431EF04F033EF04F03CEF04F0BA0E03
:10086800446E1F0E456E90EC06F0246A73EF04F098
:1008780009EC09F0320AD8A444EF04F046EF04F07A
:100888004EEF04F0C80E446E1F0E456E90EC06F055
:1008980039EF04F009EC09F0330AD8A456EF04F054
:1008A80058EF04F060EF04F0D60E446E1F0E456E4C
:1008B80090EC06F039EF04F0090E446E1F0E456EF9
:1008C80090EC06F039EF04F02450000AD8B400EF99
:1008D80004F0010AD8B41DEF04F073EF04F012001D
:1008E8004F6A89EF04F0506AA7EF04F0010E506ECA
:1008F800A7EF04F0020E506EA7EF04F0030E506E3F
:10090800A7EF04F0FF0ED5EF04F03750010AD8B472
:1009180077EF04F0030AD8B47AEF04F0060AD8B4E3
:100928007EEF04F00C0AD8B482EF04F086EF04F0EE
:100938004F6AC1EF04F0010E4F6EC1EF04F0020ED2
:100948004F6EC1EF04F03650070B416E426A4250B9
:10095800000AD8B4B2EF04F086EF04F04150010A5F
:10096800D8B49CEF04F0030AD8B49FEF04F0060A49
:10097800D8B4A3EF04F086EF04F0FD0EF66E1E0E59
:10098800F76E20EE43F00B0E0900F5CFDEFFE80608
:10099800FBE25050030DF350430F4F24D96EDA6A2F
:1009A800DF501200466A44BEDEEF04F0DCEF04F0CC
:1009B800E4EF04F0436C441ED8B0442A010E466E9E
:1009C80042BEEBEF04F0E9EF04F0F1EF04F0416C04
:1009D800421ED8B0422A010E461A000E486E000E7A
:1009E800476E43504410D8B4FCEF04F0FEEF04F017
:1009F80026EF05F0010E456E06EF05F0D890433658
:100A08004436452A44AE0BEF05F00DEF05F002EF32
:100A180005F0D890473648364350415C4450425818
:100A2800D8A019EF05F01BEF05F020EF05F04350B3
:100A3800415E4450425A4780D89044324332452E52
:100A48000DEF05F04650D8B42CEF05F02EEF05F069
:100A580032EF05F0476C481ED8B0482A47C041F02D
:100A680048C042F012004350D8B43DEF05F03FEFC4
:100A780005F047EF05F04350D8A445EF05F047EFE0
:100A880005F04CEF05F041500BEC09F093EF05F041
:100A98004350D96EDA6A090ED926DE50DE10D8B472
:100AA80058EF05F05AEF05F073EF05F04350D96E93
:100AB800DA6A090ED9264350E16EE26A020EE1268F
:100AC800DE50E65CE650800A486EDE50800A4858E0
:100AD800D8B071EF05F073EF05F093EF05F04350D0
:100AE800D96EDA6A020ED926DECF44F0DDCF45F0A2
:100AF8004350D96EDA6ADECF46F0DDCF47F0445076
:100B08004624D96E45504720DA6E41C0DFFF435076
:100B1800D96EDA6A020ED926DE2A000EDD2212000C
:100B2800466A42BE9CEF05F09AEF05F0A2EF05F089
:100B3800416C421ED8B0422A010E466E44BEA9EF4F
:100B480005F0A7EF05F0ADEF05F0436C441ED8B0F3
:100B5800442A43504410D8B4B4EF05F0B6EF05F07A
:100B6800DAEF05F0010E456EBEEF05F0D89043367A
:100B78004436452A44AEC3EF05F0C5EF05F0BAEF99
:100B880005F04350415C44504258D8A0CEEF05F0E0
:100B9800D0EF05F0D4EF05F04350415E4450425A7F
:100BA800D89044324332452EC5EF05F04650D8B4AC
:100BB800E0EF05F0E2EF05F0E6EF05F0416C421ECC
:100BC800D8B0422A41C041F042C042F012004D6EF6
:100BD8004D504D247E0B4E6E8B948B96080E4F6EA7
:100BE8004EBEF9EF05F0FDEF05F04C6A4C2AFEEF1A
:100BF80005F04C6A4C468B504C18FD0B4C188B6E0C
:100C08008B84D8904E36050EE7EC07F08B94050ED2
:100C1800E7EC07F04F064F50D8A415EF06F017EF92
:100C280006F0F4EF05F0080E4F6E4BBE1EEF06F00F
:100C380022EF06F04C6A4C2A23EF06F04C6A4C4629
:100C48008B504C18FD0B4C188B6E8B84D8904B3600
:100C5800050EE7EC07F08B94050EE7EC07F04F065E
:100C68004F50D8A43AEF06F03CEF06F019EF06F023
:100C78008B868B841200476E475047247E0B800971
:100C8800486E496A8B948B96080E4A6E48BE4FEFA1
:100C980006F053EF06F0466A462A54EF06F0466A15
:100CA80046468B504618FD0B46188B6E8B84050EF6
:100CB800E7EC07F0D89048368B94050EE7EC07F080
:100CC8004A064A50D8A46BEF06F06DEF06F04AEFDB
:100CD80006F0080E4A6E8B84050EE7EC07F0D890F4
:100CE800493682B07AEF06F07DEF06F0010E7EEF0E
:100CF80006F0000E49128B94050EE7EC07F04A0641
:100D08004A50D8A48AEF06F08CEF06F06FEF06F091
:100D18008B868B8449501200B1EF06F08AEC08F0FC
:100D280041504210D8B49BEF06F09DEF06F092EFC9
:100D380006F044C0F6FF45C0F7FFF86A010EF764F5
:100D480003D00800F55005D0F6CFE9FFF7CFEAFF4A
:100D5800EF50FBEC08F0444A452A44C0F6FF45C072
:100D6800F7FFF86A010EF76403D00800F55005D0C4
:100D7800F6CFE9FFF7CFEAFFEF500009D8A4C7EF95
:100D880006F0C9EF06F092EF06F01200960E446ED8
:100D98001F0E456E90EC06F0A80E446E1F0E456EB1
:100DA80090EC06F0960E446E1F0E456E90EC06F021
:100DB800830E446E1F0E456E90EC06F0680E446E6E
:100DC8001F0E456E90EC06F04B0E446E1F0E456EDE
:100DD80090EC06F02A0E446E1F0E456E90EC06F05D
:100DE800F00E446E1F0E456E90EC06F01200436A3A
:100DF8000AEF07F0432A040E4318D8A406EF07F0B9
:100E080008EF07F00AEF07F025EF07F04350050D4C
:100E1800F350050FD96EDA6ADE04D8B416EF07F07E
:100E280018EF07F0FEEF06F04350050DF350050FDD
:100E3800D96EDA6A010EDF6E4150D96EDA6A43C0A4
:100E4800DFFF12005BC05EF05CC05FF0000E1A6E40
:100E5800000E196E3CEF07F05AC04BF05E0E4C6E58
:100E68005DC04DF084EC02F04B5019264C501A220C
:100E78005EC0F6FF5FC0F7FF0800F5500009D8A470
:100E880048EF07F04AEF07F030EF07F019C05AF0C3
:100E98001AC05BF01200640E686E60C069F061C031
:100EA8006AF0000E6C6E000E6B6E000E736E000E14
:100EB800726E690E5A6E62C05BF063C05CF0680EB9
:100EC8005D6E26EC07F05AC066F05BC067F06B50A9
:100ED8006024D96E6C506120DA6EDF6A66C060F0FB
:100EE80067C061F012008B868B884FEC08F08D0E7E
:100EF8004B6E2A0EEBEC05F03E0E4B6E2B0EEBEC18
:100F080005F01E0E4B6E2D0EEBEC05F0000E4B6E31
:100F18002C0EEBEC05F0400E4B6E150EEBEC05F0CD
:100F28003D0E4B6E110EEBEC05F0EAEC08F0E4EC2C
:100F380008F012004D6EF29E15C049F016C04AF036
:100F480017C04BF018C04CF0F28E4D50050DF35001
:100F5800010FD96EDA6ADECF45F0DECF46F0DECF7C
:100F680047F0DECF48F04550495C416E46504A583C
:100F7800426E47504B58436E48504C58446E1200CE
:100F88008C6A3604D8A4CBEF07F0CDEF07F0D0EF8A
:100F980007F08C8AE6EF07F0020E3618D8A4D7EFD0
:100FA80007F0D9EF07F0DCEF07F08C8CE6EF07F0DD
:100FB800040E3618D8A4E3EF07F0E5EF07F0E6EFE4
:100FC80007F08C881200446E456AEDEF07F00000C8
:100FD800452A4450030D4550416E426AF350415C26
:100FE8004250800A436EF450800A4358D8A0FFEF5D
:100FF80007F001EF08F0EBEF07F0120048BE07EF2B
:1010080008F009EF08F00FEF08F047C047F048C0B4
:1010180048F01BEF08F047C049F048C04AF0491EA5
:101028004A1E494A4A2A49C047F04AC048F01200B5
:10103800416A4150050DF350050FD96EDA6ADF6A2F
:10104800412A030E41642BEF08F02DEF08F01DEF45
:1010580008F0820ED56EFD0ED76E8F0ED66EF29406
:10106800F28A120001EE00F0640EEE6AE806FDE175
:1010780000EE80F0200EEE6AE806FDE100EE01F0D9
:101088003F0EEE6AE806FDE177907792000EF86E63
:10109800000164EF08F08B88010EE7EC07F08B98ED
:1010A800010EE7EC07F08B88010EE7EC07F00F0E56
:1010B8004B6E010EEBEC05F0010EE7EC07F01200A9
:1010C8001CEC08F0B1EC08F0F6EC08F0DBEC08F0EA
:1010D800F28EF28C6CEC01F0FEEC03F015EC00F0F3
:1010E8006EEF08F013EF00F0416EF29E4150050DCF
:1010F800F350010FD96EDA6A15C0DEFF16C0DEFFA5
:1011080017C0DEFF18C0DEFFF28E12009EB88FEF08
:1011180008F093EF08F0436A432A94EF08F0436A13
:101128004350416E426A1200526E5050FF0A516E8F
:1011380052503FEC06F051144B6E5250EBEC05F058
:101148001200FD0ED76E8F0ED66EF294010E152684
:10115800000E1622172218221200FFEC08F0376A38
:10116800366A356A346A3F0E416EFBEC06F01200AF
:10117800F2A4C1EF08F0C3EF08F0C5EF08F0A5EC42
:1011880008F0779211009EBACCEF08F0CFEF08F084
:10119800010ED0EF08F0000E1200516E51503FECD6
:1011A80006F050104B6E5150EBEC05F01200240E77
:1011B800AC6E900EAB6E400EAF6EB86A256A120028
:1011C800030E506E140ED1EC08F01200030E506E90
:1011D800140E98EC08F012009480949294949496CB
:1011E80094981200F0EC08F077EC07F01200416ECA
:1011F80041C0ADFF12000F0E956E8C6A1200010EF1
:10120800256E120083500F0B1200AE501200120010
:101EFC00000102030405060708090A000B455252AB
:101F0C004F522E2056616C6F7220696E74726F6422
:101F1C00756974206572726F6E692E0D0A00093333
:101F2C002E204D6F6469666963617220686F7261FF
:101F3C002064656C2073697374656D610D0A00090A
:101F4C00322E204D6F737472617220636F6E6669EE
:101F5C006775726163696F6E730D0A0009312E200B
:101F6C005175692068692068612061206C6120735B
:101F7C00616C613F0D0A005472696120756E6120BD
:101F8C006F706369C3B33A0D0A002D2D2D2D2D2DC5
:101F9C002D2D2D2D2D2D2D2D2D0D0A004D656EC3A6
:101FAC00BA207072696E636970616C0D0A004861C9
:101FBC00732070756C7361646F20310048617320FD
:101FCC0070756C7361646F2032004861732070759A
:101FDC006C7361646F20330073746174653A2025EF
:101FEC00640D0A004F706369C3B33A20005549442D
:041FFC003A20000087
:020000040020DA
:08000000FFFFFFFFFFFFFFFF00
:020000040030CA
:0E000000FF02191EFF0181FF03C003E0034051
:00000001FF
