:020000040000FA
:0400000013EF00F00A
:060008007A8251EF0BF0BB
:100018007A80E0CF01F001C0E0FF7A901000FAEF9B
:100028000AF08AEF02F0070E0C6E0D0E40EC07F096
:10003800260E6C6E010E726E95EF02F0770E716EE1
:10004800300E706EF70E0C6E020E40EC07F0020ECA
:10005800726E95EF02F0800E116E040E2DEC0BF00F
:10006800030E726E95EF02F0800E116E0A0E66ECAA
:100078000BF0040E726E95EF02F0000E0C6E010E7E
:1000880040EC07F0050E726E95EF02F06CC00CF0B4
:10009800090E40EC07F0060E726E95EF02F00C0E9A
:1000A8000C6E010E40EC07F0070E726E95EF02F031
:1000B800800E116E0D0E66EC0BF06E68080E726EF7
:1000C80095EF02F0040E94EC07F06F6E6FB06FEFCF
:1000D80000F071EF00F07EEF00F06F50701400092F
:1000E800D8A479EF00F07BEF00F07EEF00F06E2EE1
:1000F80095EF02F0090E726E95EF02F0800E116E08
:100108000D0E2DEC0BF00A0E726E95EF02F06E508C
:10011800D8B491EF00F093EF00F0DDEF00F0060E99
:1001280094EC07F04D6E1B0E4D16D8A49EEF00F010
:10013800A0EF00F0DDEF00F00A0E94EC07F0516E2E
:100148000C0E94EC07F0070B526E5250D8B4AFEF78
:1001580000F0B1EF00F0C9EF00F0525051C04DF07F
:100168004E6AD8904D364E36D8904D364E36D89089
:100178004D364E364D26000E4E22F80E4D244F6E4B
:10018800FF0E4E20506ECFEF00F05150080DF3CF08
:100198004FF0F4CF50F0100E4F185010D8A4D7EFEE
:1001A80000F0D9EF00F0DDEF00F00B0E726E95EF66
:1001B80002F00C0E726E95EF02F0010E736E726A09
:1001C80095EF02F0736A726A95EF02F07250000AB6
:1001D800D8B417EF00F0010AD8B422EF00F0030AF0
:1001E800D8B42FEF00F0010AD8B438EF00F0070AAE
:1001F800D8B441EF00F0010AD8B44AEF00F0030A7E
:10020800D8B453EF00F0010AD8B45CEF00F00F0A3D
:10021800D8B466EF00F0010AD8B482EF00F0030A00
:10022800D8B48BEF00F0010AD8B4E1EF00F0070A68
:10023800D8B4E6EF00F095EF02F0000E0C6E0D0E4C
:1002480040EC07F0930E536E200E546E1EEF00F034
:10025800080E116E080E2DEC0BF02BEF00F0770E48
:10026800716E300E706EF70E0C6E020E40EC07F0D9
:1002780034EF00F0800E116E040E2DEC0BF03DEF04
:1002880000F0800E116E0A0E66EC0BF046EF00F0DF
:10029800000E0C6E010E40EC07F04FEF00F053C05B
:1002A8000CF0090E40EC07F054C00CF0090E40ECBD
:1002B80007F058EF00F00C0E0C6E010E40EC07F042
:1002C80062EF00F0800E116E0D0E66EC0BF06E689A
:1002D8007EEF00F0040E94EC07F06F6E6FB077EFCE
:1002E80001F079EF01F087EF00F06F50701400090A
:1002F800D8A481EF01F083EF01F087EF00F06E2EB4
:1003080095EF02F087EF00F0800E116E0D0E2DECC8
:100318000BF0D9EF00F06E50D8B495EF01F097EFDD
:1003280001F0E6EF00F0060E94EC07F04D6E1B0EA0
:100338004D16D8A4A2EF01F0A4EF01F0E6EF00F00B
:10034800090E94EC07F0536E090E94EC07F0546E06
:10035800DDEF00F0090E94EC07F0556E090E94ECF1
:1003680007F0566E0D0E726E95EF02F0090E94ECC2
:1003780007F0576E586A0E0E726E95EF02F05450E1
:100388005518561853186B6E010E6A6E0F0E726E62
:1003980095EF02F05350D8A4D4EF01F0D6EF01F056
:1003A800DEEF01F05450D8B4DCEF01F0DEEF01F0DD
:1003B800DFEF01F06A6A100E726E95EF02F0555089
:1003C800D8A4E9EF01F0EBEF01F0F3EF01F056509C
:1003D800D8B4F1EF01F0F3EF01F0F4EF01F06A6A3D
:1003E800110E726E95EF02F06B505718D8A4FFEFFC
:1003F80001F001EF02F0E6EF00F06A50D8B407EF21
:1004080002F009EF02F00BEF02F0E6EF00F0120E37
:10041800726E95EF02F0940E346E480E356E1F0E14
:10042800366E53C037F0386A54C039F03A6A55C04E
:100438003BF03C6A56C03DF03E6A57C03FF0406A08
:1004480047EC0AF0940E056E066AB6EC08F0130E37
:10045800726E95EF02F0000E0C6E0D0E40EC07F078
:10046800736AE3EF00F07250000AD8B421EF01F08C
:10047800010AD8B42CEF01F0030AD8B433EF01F025
:10048800010AD8B43EEF01F0070AD8B445EF01F0ED
:10049800010AD8B44CEF01F0030AD8B453EF01F0C5
:1004A800010AD8B45FEF01F00F0AD8B466EF01F083
:1004B800010AD8B46EEF01F0030AD8B488EF01F04E
:1004C800010AD8B48FEF01F0070AD8B4AEEF01F0F3
:1004D800010AD8B4BAEF01F0030AD8B4C3EF01F0A7
:1004E800010AD8B4CEEF01F01F0AD8B4E3EF01F047
:1004F800010AD8B4F8EF01F0030AD8B40FEF02F0FC
:10050800010AD8B42FEF02F095EF02F07350000AF9
:10051800D8B4EAEF00F0010AD8B437EF02F095EF4B
:1005280002F0120092EF03F09EEC0BF0776E77501A
:10053800D8A4A1EF02F0A3EF02F0ABEF02F0010E96
:10054800766EC7EC09F0010E746EADEF03F07750CC
:10055800D8B4B1EF02F0B3EF02F0ADEF03F0795089
:100568000DEC0BF0030E746EADEF03F09EEC0BF088
:10057800776E7750D8A4C3EF02F0C5EF02F0CDEF45
:1005880002F0020E766EC7EC09F0020E746EADEF43
:1005980003F07750D8B4D3EF02F0D5EF02F0ADEF07
:1005A80003F079500DEC0BF0B6EF02F09EEC0BF077
:1005B800776E7750D8B4E3EF02F0E5EF02F0EAEF98
:1005C80002F079500DEC0BF0B6EF02F07750D8A49A
:1005D800F0EF02F0F2EF02F0ADEF03F0040E766EEA
:1005E800C7EC09F0746AADEF03F033EC06F0756EF2
:1005F8009EEC0BF0776E7750D8A405EF03F007EF69
:1006080003F009EF03F0F2EF02F07750D8B40FEFE0
:1006180003F011EF03F02EEF03F07950A1EC09F08D
:1006280005500410031009E1090E025CD8A01FEF61
:1006380003F021EF03F02EEF03F00B0E7518D8B47A
:1006480028EF03F02AEF03F02EEF03F0050E746E87
:10065800ADEF03F07750D8B434EF03F036EF03F082
:10066800ADEF03F07950A1EC09F005500410031028
:1006780009E1090E025CD8A044EF03F046EF03F04D
:10068800ADEF03F00B0E7518D8A44DEF03F04FEF44
:1006980003F0ADEF03F079500DEC0BF0040E746E1F
:1006A800ADEF03F09EEC0BF0776E7750D8A45FEFB8
:1006B80003F061EF03F063EF03F0F6EF02F0775019
:1006C800D8B469EF03F06BEF03F0ADEF03F07950A6
:1006D800A1EC09F0055004100BE1DD0E025C050EDB
:1006E8000358D8A07AEF03F07CEF03F0ADEF03F0E6
:1006F8009BEC0BF02AEF03F09EEC0BF0776E775033
:10070800D8A489EF03F08BEF03F0ADEF03F0746A20
:10071800040E766EC7EC09F0ADEF03F07450000AD2
:10072800D8B498EF02F0010AD8B4BAEF02F0030A7D
:10073800D8B4DAEF02F0010AD8B4F9EF02F0070AE8
:10074800D8B456EF03F0010AD8B480EF03F0ADEF48
:1007580003F012002350D96EDA6ADECFF6FFDDCF40
:10076800F7FF0800F550250AD8A4BDEF03F0BFEF46
:1007780003F058EF04F02350D96EDA6ADE2A000E2F
:10078800DD22000E5E6E000E5D6E5DC063F05F6878
:1007980060682B6AECEF03F063822350D96EDA6A43
:1007A800DE2A000EDD22ECEF03F0010E2B6EECEFDB
:1007B80003F02350D96EDA6ADECFF6FFDDCFF7FFFC
:1007C8000800F550300AD8B4D0EF03F0D9EF03F0A1
:1007D8002B50D8B4F2EF03F0F4EF03F0DDEF03F0A1
:1007E80023C002F024C003F095EC06F002C05DF0CF
:1007F80003C05EF05EBE05EF04F003EF04F00AEFFD
:1008080004F063805D6C5E1ED8B05E2A2350D96EFA
:10081800DA6ADECF2CF0DDCF2DF02CC0F6FF2DC02C
:10082800F7FF0800F550580AD8A41DEF04F01FEF91
:1008380004F050EF04F02450D96EDA6A020EDF2675
:10084800DF5CD96EDA6ADECF27F0DECF28F0010E42
:100858002C24256E000E2D20266E2350D96EDA6AC0
:1008680025C0DEFF26C0DDFF44EF04F022C016F0ED
:1008780027C017F028C018F06AEC04F069EF04F0FC
:100888002CC0F6FF2DC0F7FF0800F550580AD8B461
:100898003AEF04F050EF04F02350D96EDA6ADE2AFA
:1008A800000EDD2269EF04F02350D96EDA6ADECF3C
:1008B800F6FFDDCFF7FF0800F550026E036A22C08D
:1008C80004F0EBEC06F050EF04F01200010E1C6E81
:1008D8005DC01DF05EC01EF0000E216E1F0E206E62
:1008E8000001E56BA6EF04F02006D8A021061750FA
:1008F8000F0B1F6E0A0E1F6084EF04F086EF04F0E2
:100908008AEF04F0300E1F268CEF04F0370E1F26F6
:100918002050C60FD96EDA6A1FC0DFFF1C6A1D0699
:10092800D8A01E0617C019F018C01AF0040E1B6EC6
:10093800D8901A3219321B2E9CEF04F019C017F008
:100948001AC018F021BEB2EF04F0215009E1020EDE
:10095800205CD8A0B2EF04F0B4EF04F0D9EF04F0B3
:1009680017501810D8A4BBEF04F0BDEF04F078EFCF
:1009780004F01C50D8A4C3EF04F0C5EF04F078EFDE
:1009880004F01EBED0EF04F01E5008E11D04D8A0EC
:10099800D0EF04F0D2EF04F0D9EF04F063B2D7EF50
:1009A80004F0D9EF04F078EF04F016C00FF02050EF
:1009B800C60F106E1DC011F01EC012F071EC08F0C9
:1009C80012004FEF05F0A1EC0BF01B0AD8A4EFEFD3
:1009D80004F0F1EF04F0F5EF04F0F0EC08F0010E8C
:1009E800646E6504D8A4FBEF04F0FDEF04F05AEF41
:1009F80005F0F0EC08F0010E646E656A5AEF05F038
:100A08005CEC0BF0E806D8A40CEF05F00EEF05F04F
:100A18005AEF05F046EC0BF0A1EC0BF0310AD8A424
:100A280018EF05F01AEF05F023EF05F0B60E056E86
:100A38001F0E066EB6EC08F0646A5AEF05F0A1ECDA
:100A48000BF0320AD8A42BEF05F02DEF05F035EFA7
:100A580005F0C60E056E1F0E066EB6EC08F020EF08
:100A680005F0A1EC0BF0330AD8A43DEF05F03FEFF9
:100A780005F047EF05F0D60E056E1F0E066EB6ECB4
:100A880008F020EF05F0E90E056E1E0E066EB6ECB6
:100A980008F020EF05F06450000AD8B4E7EF04F03E
:100AA800010AD8B404EF05F05AEF05F01200176EEA
:100AB800B5EF05F01050D8B464EF05F066EF05F017
:100AC8006CEF05F0000E146E400E136E70EF05F01B
:100AD800000E146E000E136E17501324156E000EC0
:100AE8001420166EC4EF05F017C015F0166A10042E
:100AF800D8A481EF05F083EF05F089EF05F0400EEB
:100B08001526000E1622C4EF05F0020E1018D8A400
:100B180090EF05F092EF05F098EF05F06850152674
:100B2800000E1622C4EF05F0030E1018D8A49FEF8C
:100B380005F0A1EF05F0AEEF05F06850116E126AEE
:100B4800400E1126000E12221150152612501622A0
:100B5800C4EF05F0C4EF05F017C015F0166AC4EF2E
:100B680005F06950010AD8B4B0EF05F0030AD8B40B
:100B78005EEF05F0060AD8B478EF05F0B0EF05F09F
:100B880021EC09F015508009B3EC0AF010C067F0A9
:100B980017C066F01200186E21EC09F01850CCEC62
:100BA8000AF0662A030E6918D8A4DDEF05F0DFEF16
:100BB80005F0F9EF05F0130E6664E5EF05F0E7EFD1
:100BC80005F032EF06F0666A672A030E6764EFEFF6
:100BD80005F0F1EF05F0F2EF05F0676A67C010F075
:100BE80066505BEC05F032EF06F0020E6918D8A4E7
:100BF80000EF06F002EF06F01CEF06F0270E666421
:100C080008EF06F00AEF06F032EF06F0666A672A88
:100C1800010E676412EF06F014EF06F015EF06F008
:100C2800676A67C010F066505BEC05F032EF06F0BB
:100C38006704D8A422EF06F024EF06F032EF06F09E
:100C4800270E66642AEF06F02CEF06F02DEF06F06B
:100C5800666A67C010F066505BEC05F01200106A17
:100C680048EF06F0116A66EF06F0010E116E66EFA6
:100C780006F0020E116E66EF06F0030E116E66EFB7
:100C880006F0FF0E94EF06F07750010AD8B436EF5D
:100C980006F0030AD8B439EF06F0060AD8B43DEFD7
:100CA80006F00C0AD8B441EF06F045EF06F0106ADA
:100CB80080EF06F0010E106E80EF06F0020E106E47
:100CC80080EF06F07650070B026E036A0350000AA5
:100CD800D8B471EF06F045EF06F00250010AD8B417
:100CE8005BEF06F0030AD8B45EEF06F0060AD8B444
:100CF80062EF06F045EF06F0DD0EF66E1E0EF76E9B
:100D080020EE04F00B0E0900F5CFDEFFE806FBE24B
:100D18001150030DF350040F1024D96EDA6ADF5016
:100D28001200000E086E000E076E0250D96EDA6AC5
:100D3800DECFF6FFDDCFF7FF0800F5502A0AD8A46A
:100D4800A8EF06F0AAEF06F0D3EF06F00250D96E2E
:100D5800DA6ADE2A000EDD220350D96EDA6A020E44
:100D6800DF26DF5CD96EDA6ADECF07F0DECF08F067
:100D7800E6EF06F00A0E0702F3CF04F0F4CF05F011
:100D88000802F350052606500424076E000E0520BD
:100D9800086E0250D96EDA6ADE2A000EDD22025091
:100DA800D96EDA6ADECFF6FFDDCFF7FF0800F5501F
:100DB800D00F066E090E0664E4EF06F0E6EF06F0C3
:100DC800BEEF06F007C002F008C003F0120004509E
:100DD800D8B4F1EF06F0F3EF06F0FBEF06F004509D
:100DE800D8A4F9EF06F0FBEF06F000EF07F0025089
:100DF800A3EC0BF03FEF07F00450D96EDA6A090E46
:100E0800D926DE50DE10D8B40CEF07F00EEF07F04D
:100E180027EF07F00450D96EDA6A090ED926045074
:100E2800E16EE26A020EE126DE50E65CE650800AD8
:100E3800096EDE50800A0958D8B025EF07F027EF71
:100E480007F03FEF07F00450D96EDA6A020ED92690
:100E5800DF50056E0450D96EDA6ADF500524D96E6A
:100E6800DA6A02C0DFFF0450D96EDA6A020ED926A8
:100E7800DE2A000EDD2212000E6E0E500E247E0BAE
:100E88000F6E8B948B96080E106E0FBE4EEF07F008
:100E980052EF07F00D6A0D2A53EF07F00D6A0D4661
:100EA8008B500D18FD0B0D188B6E8B84D8900F3658
:100EB800050E63EC0AF08B94050E63EC0AF010063D
:100EC8001050D8A46AEF07F06CEF07F049EF07F06D
:100ED800080E106E0CBE73EF07F077EF07F00D6A7F
:100EE8000D2A78EF07F00D6A0D468B500D18FD0B93
:100EF8000D188B6E8B84D8900C36050E63EC0AF0B7
:100F08008B94050E63EC0AF010061050D8A48FEFEE
:100F180007F091EF07F06EEF07F08B868B841200D5
:100F2800086E085008247E0B8009096E0A6A8B94A3
:100F38008B96080E0B6E09BEA4EF07F0A8EF07F01A
:100F4800076A072AA9EF07F0076A07468B500718B0
:100F5800FD0B07188B6E8B84050E63EC0AF0D89096
:100F680009368B94050E63EC0AF00B060B50D8A4D7
:100F7800C0EF07F0C2EF07F09FEF07F0080E0B6E07
:100F88008B84050E63EC0AF0D8900A3682B0CFEF56
:100F980007F0D2EF07F0010ED3EF07F0000E0A12A8
:100FA8008B94050E63EC0AF00B060B50D8A4DFEF08
:100FB80007F0E1EF07F0C4EF07F08B868B840A5047
:100FC8001200036E03B6EBEF07F0EFEF07F0026ACB
:100FD800022AF0EF07F0026A023202328A5002183F
:100FE8007F0B02188A6E03B4FCEF07F000EF08F0DD
:100FF800026A022A01EF08F0026A023A0246024631
:101008008A500218BF0B02188A6E03B20EEF08F05E
:1010180012EF08F0026A022A13EF08F0026A023A95
:1010280002468A500218DF0B02188A6E03B01FEFBF
:1010380008F023EF08F0026A022A24EF08F0026A97
:10104800023A8A500218EF0B02188A6E1200036ED9
:1010580003BE31EF08F035EF08F0026A022A36EFD6
:1010680008F0026A023202328A5002187F0B021814
:101078008A6E03BC42EF08F046EF08F0026A022AC3
:1010880047EF08F0026A023A024602468A500218FE
:10109800BF0B02188A6E03BA54EF08F058EF08F035
:1010A800026A022A59EF08F0026A023A02468A5096
:1010B8000218DF0B02188A6E03B865EF08F069EFB3
:1010C80008F0026A022A6AEF08F0026A023A8A50B5
:1010D8000218EF0B02188A6E120063A076EF08F070
:1010E80078EF08F07EEF08F010C00AF00FC00BF0A0
:1010F80029EC0AF012BE85EF08F083EF08F089EFBB
:1011080008F0000E126E000E116E000E156E000E25
:10111800146E99EF08F0000E036E200E026E0FC0D9
:1011280004F0EBEC06F0144A152A1150145C155023
:10113800800A136E1250800A1358D8A0A6EF08F040
:10114800A8EF08F08FEF08F063B0ADEF08F0AFEF4D
:1011580008F0B5EF08F010C00AF00FC00BF029EC4A
:101168000AF01200D7EF08F01FEC0BF00250031042
:10117800D8B4C1EF08F0C3EF08F0B8EF08F005C025
:10118800F6FF06C0F7FFF86A010EF76403D00800FF
:10119800F55005D0F6CFE9FFF7CFEAFFEF508FEC17
:1011A8000BF0054A062A05C0F6FF06C0F7FFF86AE5
:1011B800010EF76403D00800F55005D0F6CFE9FF1B
:1011C800F7CFEAFFEF500009D8A4EDEF08F0EFEFF2
:1011D80008F0B8EF08F01200920E056E1F0E066EAA
:1011E800B6EC08F0A40E056E1F0E066EB6EC08F0FD
:1011F800920E056E1F0E066EB6EC08F07F0E056E99
:101208001F0E066EB6EC08F0640E056E1F0E066E15
:10121800B6EC08F02B0E056E1F0E066EB6EC08F045
:101228000A0E056E1F0E066EB6EC08F0E60E056E89
:101238001F0E066EB6EC08F01200938E938C938AFC
:1012480093888A948A8478500DEC0BF08A8A8A8A6B
:10125800000E81BE010E0F6E8A9A8A9A8A8A8A8A3D
:101268008A9A8A9A7850A1EC09F002500310041067
:101278000510D8B442EF09F044EF09F046EF09F041
:101288004EEF09F00F50D8A44CEF09F04EEF09F0DB
:101298002AEF09F01200046A5EEF09F0042A040E2E
:1012A8000418D8A45AEF09F05CEF09F05EEF09F0D2
:1012B80079EF09F00450050DF350840FD96EDA6AFE
:1012C800DE04D8B46AEF09F06CEF09F052EF09F0C8
:1012D8000450050DF350840FD96EDA6A010EDF6EE3
:1012E8000250D96EDA6A04C0DFFF12008B868B8841
:1012F800E5EC0AF08D0E0C6E2A0E40EC07F03E0E5F
:101308000C6E2B0E40EC07F01E0E0C6E2D0E40ECF2
:1013180007F0000E0C6E2C0E40EC07F0400E0C6E21
:10132800150E40EC07F03D0E0C6E110E40EC07F068
:101338007EEC0BF078EC0BF012000E6EF29E59C0AA
:101348000AF05AC00BF05BC00CF05CC00DF0F28ED6
:101358000E50050DF350800FD96EDA6ADECF06F015
:10136800DECF07F0DECF08F0DECF09F006500A5CCA
:10137800026E07500B58036E08500C58046E095043
:101388000D58056E12008C6A7604D8A4CEEF09F0C9
:10139800D0EF09F0D3EF09F08C8AE9EF09F0020EDB
:1013A8007618D8A4DAEF09F0DCEF09F0DFEF09F0DE
:1013B8008C8CE9EF09F0040E7618D8A4E6EF09F052
:1013C800E8EF09F0E9EF09F08C8812002FC032F03D
:1013D80030C033F0F8EF09F02EC022F0320E236E41
:1013E80031C024F0AEEC03F032C0F6FF33C0F7FF93
:1013F8000800F5500009D8A404EF0AF006EF0AF037
:10140800F0EF09F0000E2F6E000E2E6E120099EC10
:101418000AF046EC0BF08AEC0BF070EC0BF097EC52
:101428000BF0F28EF28C896A96EC02F0E5EC04F08F
:10143800FA0E196E1F0E1A6E7EEC0AF015EC00F00B
:10144800896817EF0AF013EF00F0000E0E6E000E19
:101458000D6E38EF0AF00CC002F0036A0BC004F0FE
:10146800EBEC06F00D4A0E2A0A500D24D96EDA6A02
:10147800DF500C6E0C50D8A444EF0AF046EF0AF087
:101488002FEF0AF01200370E416E34C042F0000E02
:10149800456E000E446E000E4C6E000E4B6E420EF2
:1014A8002E6E35C02FF036C030F0410E316EEAECAA
:1014B80009F034504424D96EDA6ADF6A1200056EE6
:1014C800066A69EF0AF00000062A0550100D06505A
:1014D800026E036AF350025C0350800A046EF450F3
:1014E800800A0458D8A07BEF0AF07DEF0AF067EF76
:1014F8000AF012008AEF0AF019C0F6FF1AC0F7FFC7
:101508000800F550CFEC05F0194A1A2A19C0F6FF61
:101518001AC0F7FF0800F5500009D8A496EF0AF0A2
:1015280098EF0AF080EF0AF01200026A0250050DE7
:10153800F350840FD96EDA6ADF6A022A030E026456
:10154800A8EF0AF0AAEF0AF09AEF0AF0820ED56E19
:10155800F60ED76E3C0ED66EF294F28A1200046E26
:10156800939E939C939A93988A948A948A8A045017
:101578002BEC08F08A8A8A9A8A9A8A8A0450E5ECBF
:1015880007F08A8A8A9A938E938C938A938812009A
:10159800046E939E939C939A93988A868A948A8AD7
:1015A80004502BEC08F08A8A8A9A8A9A8A8A04500C
:1015B800E5EC07F08A8A8A9A938E938C938A9388AB
:1015C80012008B88010E63EC0AF08B98010E63EC15
:1015D8000AF08B88010E63EC0AF00F0E0C6E010EF8
:1015E80040EC07F0010E63EC0AF0120000EE80F008
:1015F800660EEE6AE806FDE100EE53F0270EEE6A8D
:10160800E806FDE17A907A92000EF86E00010BEF81
:101618000AF0026EF29E0250050DF350800FD96E4B
:10162800DA6A59C0DEFF5AC0DEFF5BC0DEFF5CC06D
:10163800DEFFF28E12009EB824EF0BF028EF0BF0BD
:10164800046A042A29EF0BF0046A0450026E036A44
:101658001200136E1150FF0A126E135094EC07F02B
:1016680012140C6E135040EC07F01200F60ED76EF1
:101678003C0ED66EF294010E5926000E5A225B22B9
:101688005C22120093EC0BF0776A766A756A746ACA
:10169800790E026E4FEC09F01200F2A456EF0BF02F
:1016A80058EF0BF05AEF0BF03AEC0BF07A9211006E
:1016B8009EBA61EF0BF064EF0BF0010E65EF0BF0D3
:1016C800000E1200126E125094EC07F011100C6EFE
:1016D800125040EC07F01200240EAC6E900EAB6E68
:1016E800AF68B86A656A1200030E116E140E66ECD4
:1016F8000BF01200030E116E140E2DEC0BF01200FD
:1017080094809492949494969498120084EC0BF09C
:101718007AEC09F01200026E02C0ADFF12000F0E43
:10172800956E8C6A12000F0EC16E926A1200010E3D
:10173800656E120083500F0B1200AE50120012009B
:101EDC00000102030405060708090A000B455252CB
:101EEC004F522E2056616C6F7220696E74726F6443
:101EFC00756974206572726F6E692E0D0A00093354
:101F0C002E204D6F6469666963617220686F72611F
:101F1C002064656C2073697374656D610D0A00092A
:101F2C00322E204D6F737472617220636F6E66690E
:101F3C006775726163696F6E730D0A005549443A97
:101F4C002025303258253032582530325825303241
:101F5C0058253032580D0A0009312E205175692050
:101F6C0068692068612061206C612073616C613F3D
:101F7C000D0A005472696120756E61206F7063697F
:101F8C00C3B33A0D0A002D2D2D2D2D2D2D2D2D2DBC
:101F9C002D2D2D2D2D0D0A004D656EC3BA2070729E
:101FAC00696E636970616C0D0A004861732070750D
:101FBC006C7361646F20310D0A0048617320707579
:101FCC006C7361646F20320D0A0048617320707568
:101FDC006C7361646F20330D0A004F706369C3B377
:101FEC003A20005549443A20002530325800686F99
:041FFC006C61000014
:020000040020DA
:08000000FFFFFFFFFFFFFFFF00
:020000040030CA
:0E000000FF06191EFF0181FF03C003E003404D
:00000001FF
