:020000040000FA
:0400000013EF00F00A
:060008007482F8EF07F01E
:100018007480E0CF01F001C0E0FF749010008BEF16
:0200280007F0DF
:10020000000102030405060708090A000B455252C3
:100210004F522E2056616C6F7220696E74726F643B
:10022000756974206572726F6E692E0D0A0009334C
:100230002E204D6F6469666963617220686F726118
:100240002064656C2073697374656D610D0A000923
:10025000322E204D6F737472617220636F6E666907
:100260006775726163696F6E730D0A0009312E2024
:100270005175692068692068612061206C61207374
:10028000616C613F0D0A005472696120756E6120D6
:100290006F706369C3B33A0D0A002D2D2D2D2D2DDE
:1002A0002D2D2D2D2D2D2D2D2D0D0A004D656EC3BF
:1002B000BA207072696E636970616C0D0A004861E2
:1002C000732070756C7361646F2031005465636CCA
:1002D000613A202564004F706369C3B33A2000552A
:1002E00049443A20000049EC08F0716E62EF02F0D8
:1002F0007150D8A47EEF01F080EF01F088EF01F09B
:10030000010E706E48EC06F0010E6E6E7DEF02F08D
:100310007150D8B48EEF01F090EF01F07DEF02F054
:100320007350B0EC07F0030E6E6E7DEF02F071506B
:10033000D8A49DEF01F09FEF01F0A7EF01F0020EAE
:10034000706E48EC06F0020E6E6E7DEF02F071509A
:10035000D8B4ADEF01F0AFEF01F07DEF02F07350D4
:10036000B0EC07F093EF01F07150D8B4BAEF01F0A0
:10037000BCEF01F0C1EF01F07350B0EC07F093EF68
:1003800001F07150D8A4C7EF01F0C9EF01F07DEF83
:1003900002F0040E706E48EC06F06E6A7DEF02F01B
:1003A000C5EC03F06F6E7150D8A4D9EF01F0DBEF0C
:1003B00001F0DDEF01F0C9EF01F07150D8B4E3EFC7
:1003C00001F0E5EF01F006EF02F07350C8EC06F023
:1003D00005500410031009E1090E025CD8A0F3EFE8
:1003E00001F0F5EF01F006EF02F00B0E6F18D8B434
:1003F000FCEF01F0FEEF01F006EF02F06FC08CFFA2
:10040000C2EC07F0050E6E6E7DEF02F07150D8B4AD
:100410000CEF02F00EEF02F07DEF02F07350C8EC2B
:1004200006F005500410031009E1090E025CD8A083
:100430001CEF02F01EEF02F07DEF02F00B0E6F18C2
:10044000D8A425EF02F027EF02F07DEF02F0735001
:10045000B0EC07F0040E6E6E7DEF02F07150D8A480
:1004600034EF02F036EF02F038EF02F0CDEF01F09A
:100470007150D8B43EEF02F040EF02F07DEF02F091
:100480007350C8EC06F0055004100BE1DD0E025C61
:10049000050E0358D8A04FEF02F051EF02F07DEFA8
:1004A00002F002EF02F07150D8A459EF02F05BEFB6
:1004B00002F07DEF02F06E6A040E706E48EC06F0FA
:1004C0007DEF02F06E50000AD8B478EF01F0010A17
:1004D000D8B497EF01F0030AD8B4B4EF01F0010AE1
:1004E000D8B4D0EF01F0070AD8B42EEF02F0010A19
:1004F000D8B453EF02F07DEF02F012000D50D96E28
:10050000DA6ADFCFF6FF020EF76E0800F550250A13
:10051000D8A48DEF02F08FEF02F048EF03F00D50FA
:10052000D96EDA6ADF2A000E646E000E636E63C055
:1005300067F0656866680D50D96EDA6ADF50116E33
:1005400011C0F6FF020EF76E0800F550640AD8B429
:10055000ACEF02F0AEEF02F0BCEF02F011C0F6FF1C
:10056000020EF76E0800F550690AD8A4BAEF02F03F
:10057000BCEF02F042EF03F00E50D96EDA6A020EC1
:10058000DF26DF5CD96EDA6ADECF12F0DECF13F041
:100590000D50D96EDA6A1128DF6E200E166E13BE6A
:1005A000D4EF02F0D7EF02F0010ED8EF02F0000E08
:1005B000106E16061650800FD96EDA6A12C002F05D
:1005C00013C003F0000E056E0A0E046E88EC04F0F2
:1005D00002C008F003C009F042EC07F00850300FE9
:1005E000DF6E12C002F013C003F0000E056E0A0E9B
:1005F000046E27EC04F002C012F003C013F0125096
:100600001310D8B406EF03F008EF03F010EF03F077
:100610001650D8A40EEF03F010EF03F0D9EF02F05C
:100620001650D8B416EF03F018EF03F037EF03F0CD
:100630001050D8B41EEF03F020EF03F037EF03F0B3
:1006400016061650800FD96EDA6A2D0EDF6E37EF60
:1006500003F01650800FD96EDA6ADF500F6E0F501C
:10066000026E036A0CC004F0DFEC04F0162A200EC0
:100670001618D8A43EEF03F040EF03F029EF03F083
:1006800059EF03F00D50D96EDA6ADF2A59EF03F003
:100690000D50D96EDA6ADFCFF6FF020EF76E080052
:1006A000F550026E036A0CC004F0DFEC04F042EF78
:1006B00003F01200B9EF03F04CEC08F01B0AD8A4C9
:1006C00064EF03F066EF03F06AEF03F0CDEC05F0A2
:1006D000010E686E6904D8A470EF03F072EF03F0A6
:1006E000C4EF03F0CDEC05F0010E686EC4EF03F02B
:1006F00003EC08F0E806D8A480EF03F082EF03F0E3
:10070000C4EF03F04CEC08F0310AD8A48AEF03F0F0
:100710008CEF03F097EF03F0BE0E056E0550D8A4E2
:10072000020E066E0EEC06F0686AC4EF03F04CECA5
:1007300008F0320AD8A49FEF03F0A1EF03F0A3EF73
:1007400003F094EF03F04CEC08F0330AD8A4ABEFBD
:1007500003F0ADEF03F0AFEF03F094EF03F00D0EF5
:10076000056E0550D8A4020E066E0EEC06F094EF4E
:1007700003F06850000AD8B45CEF03F0010AD8B463
:1007800078EF03F0C4EF03F01200106ADAEF03F021
:10079000116AF8EF03F0010E116EF8EF03F0020E8C
:1007A000116EF8EF03F0030E116EF8EF03F0FF0E79
:1007B00026EF04F07150010AD8B4C8EF03F0030A21
:1007C000D8B4CBEF03F0060AD8B4CFEF03F00C0A8D
:1007D000D8B4D3EF03F0D7EF03F0106A12EF04F0B0
:1007E000010E106E12EF04F0020E106E12EF04F004
:1007F0007050070B026E036A0350000AD8B403EF6F
:1008000004F0D7EF03F00250010AD8B4EDEF03F083
:10081000030AD8B4F0EF03F0060AD8B4F4EF03F0FB
:10082000D7EF03F0010EF66E020EF76E20EE04F025
:100830000B0E0900F5CFDEFFE806FBE21150030DB9
:10084000F350040F1024D96EDA6ADF501200076AE1
:1008500005BE2FEF04F02DEF04F035EF04F0046C2B
:10086000051ED8B0052A010E076E03BE3CEF04F04A
:100870003AEF04F042EF04F0026C031ED8B0032AF2
:10088000010E071A000E096E000E086E04500510C6
:10089000D8B44DEF04F04FEF04F077EF04F0010E01
:1008A000066E57EF04F0D89004360536062A05AEDA
:1008B0005CEF04F05EEF04F053EF04F0D8900836DC
:1008C00009360450025C05500358D8A06AEF04F0C2
:1008D0006CEF04F071EF04F00450025E0550035A0F
:1008E0000880D89005320432062E5EEF04F00750DF
:1008F000D8B47DEF04F07FEF04F083EF04F0086CD0
:10090000091ED8B0092A08C002F009C003F012007D
:10091000076A03BE90EF04F08EEF04F096EF04F048
:10092000026C031ED8B0032A010E076E05BE9DEFB0
:1009300004F09BEF04F0A1EF04F0046C051ED8B0A6
:10094000052A04500510D8B4A8EF04F0AAEF04F06B
:10095000CEEF04F0010E066EB2EF04F0D89004362C
:100960000536062A05AEB7EF04F0B9EF04F0AEEF96
:1009700004F00450025C05500358D8A0C2EF04F004
:10098000C4EF04F0C8EF04F00450025E0550035AAF
:10099000D89005320432062EB9EF04F00750D8B4CF
:1009A000D4EF04F0D6EF04F0DAEF04F0026C031E8B
:1009B000D8B0032A02C002F003C003F012000450B2
:1009C000D8B4E5EF04F0E7EF04F0EFEF04F00450E3
:1009D000D8A4EDEF04F0EFEF04F0F4EF04F00250D0
:1009E0004EEC08F033EF05F00450D96EDA6A090EC8
:1009F000D926DE50DE10D8B400EF05F002EF05F086
:100A00001BEF05F00450D96EDA6A090ED92604509E
:100A1000E16EE26A020EE126DE50E65CE650800AF4
:100A2000096EDE50800A0958D8B019EF05F01BEFA7
:100A300005F033EF05F00450D96EDA6A020ED926BC
:100A4000DF50056E0450D96EDA6ADF500524D96E86
:100A5000DA6A02C0DFFF0450D96EDA6A020ED926C4
:100A6000DE2A000EDD221200096E095009247E0BD9
:100A70000A6E8B948B96080E0B6E0ABE42EF05F041
:100A800046EF05F0086A082A47EF05F0086A0846AD
:100A90008B500818FD0B08188B6E8B84D8900A3683
:100AA000050E0DEC07F08B94050E0DEC07F00B0610
:100AB0000B50D8A45EEF05F060EF05F03DEF05F0B8
:100AC000080E0B6E07BE67EF05F06BEF05F0086AC6
:100AD000082A6CEF05F0086A08468B500818FD0BD1
:100AE00008188B6E8B84D8900736050E0DEC07F036
:100AF0008B94050E0DEC07F00B060B50D8A483EF7A
:100B000005F085EF05F062EF05F08B868B8412000F
:100B1000036E035003247E0B8009046E056A8B94D8
:100B20008B96080E066E04BE98EF05F09CEF05F05C
:100B3000026A022A9DEF05F0026A02468B500218F3
:100B4000FD0B02188B6E8B84D89004368B940606AE
:100B50000650D8A4AEEF05F0B0EF05F093EF05F026
:100B6000080E066E8B84D890053682B0BAEF05F079
:100B7000BDEF05F0010EBEEF05F0000E05128B94DF
:100B800006060650D8A4C7EF05F0C9EF05F0B2EF8E
:100B900005F08B868B84055012009A0E056E055069
:100BA000D8A4020E066E0EEC06F0AC0E056E0550D3
:100BB000D8A4020E066E0EEC06F09A0E056E0550D5
:100BC000D8A4020E066E0EEC06F0870E056E0550D8
:100BD000D8A4020E066E0EEC06F06C0E056E0550E3
:100BE000D8A4020E066E0EEC06F04F0E056E0550F0
:100BF000D8A4020E066E0EEC06F02E0E056E055001
:100C0000D8A4020E066E0EEC06F0D60E056E055048
:100C1000D8A4020E066E0EEC06F012002FEF06F0BE
:100C2000D1EC07F002500310D8B419EF06F01BEF17
:100C300006F010EF06F005C0F6FF06C0F7FFF86AF1
:100C4000010EF76403D00800F55005D0F6CFE9FF98
:100C5000F7CFEAFFEF5041EC08F0054A062A05C03D
:100C6000F6FF06C0F7FFF86A010EF76403D008002C
:100C7000F55005D0F6CFE9FFF7CFEAFFEF500009B6
:100C8000D8A445EF06F047EF06F010EF06F012008B
:100C9000036A7004D8A44FEF06F051EF06F055EF49
:100CA00006F0200E036E6DEF06F0020E7018D8A449
:100CB0005CEF06F05EEF06F062EF06F0400E036EAA
:100CC0006DEF06F0040E7018D8A469EF06F06BEF14
:100CD00006F06DEF06F0100E036E03C002F0700E0A
:100CE00002168C508F0B02108C6E1200046A85EF76
:100CF00006F0042A040E0418D8A481EF06F083EF4E
:100D000006F085EF06F0A0EF06F00450050DF35055
:100D10004F0FD96EDA6ADE04D8B491EF06F093EF84
:100D200006F079EF06F00450050DF3504F0FD96E21
:100D3000DA6A010EDF6E0250D96EDA6A04C0DFFF94
:100D400012008B868B8876EC07F08D0E076E2A0ECC
:100D500034EC05F03E0E076E2B0E34EC05F01E0E43
:100D6000076E2D0E34EC05F0000E076E2C0E34ECE1
:100D700005F0400E076E150E34EC05F03D0E076EC3
:100D8000110E34EC05F030EC08F02AEC08F01200FB
:100D90000E6EF29E5FC00AF060C00BF061C00CF0F6
:100DA00062C00DF0F28E0E50050DF3504B0FD96E50
:100DB000DA6ADECF06F0DECF07F0DECF08F0DECF56
:100DC00009F006500A5C026E07500B58036E08507B
:100DD0000C58046E09500D58056E120018C01AF018
:100DE000FAEF06F017C00CF01A0E0D6E19C00EF0D7
:100DF0007EEC02F01AC0F6FF020EF76E0800F55006
:100E00000009D8A406EF07F008EF07F0F2EF06F0AC
:100E1000000E186E000E176E1200056E066A13EFB4
:100E200007F00000062A0550030D0650026E036A03
:100E3000F350025C0350800A046EF450800A045898
:100E4000D8A025EF07F027EF07F011EF07F0120009
:100E50001D0E1F6E1BC020F0000E236E000E226EB2
:100E6000000E2A6E000E296E200E176E1CC018F0A0
:100E70001F0E196EEEEC06F01B502224D96EDA6AB2
:100E8000DF6A120009BE47EF07F049EF07F04FEFA6
:100E900007F008C008F009C009F05BEF07F008C0D0
:100EA0000AF009C00BF00A1E0B1E0A4A0B2A0AC0E0
:100EB00008F00BC009F01200026A0250050DF35051
:100EC0004F0FD96EDA6ADF6A022A030E02646BEFF3
:100ED00007F06DEF07F05DEF07F0820ED56EFD0EA7
:100EE000D76E8F0ED66EF294F28A12008B88010EA6
:100EF0000DEC07F08B98010E0DEC07F08B88010EBE
:100F00000DEC07F00F0E076E010E34EC05F0010E2C
:100F10000DEC07F0120000EE80F0200EEE6AE806FD
:100F2000FDE100EE4BF0290EEE6AE806FDE174905B
:100F30007492000EF86E00019EEF07F05CEC07F073
:100F40000DEC08F03CEC08F021EC08F0F28EF28C8D
:100F500073EC01F05AEC03F0A8EF07F013EF00F088
:100F6000026EF29E0250050DF3504B0FD96EDA6AF5
:100F70005FC0DEFF60C0DEFF61C0DEFF62C0DEFF7B
:100F8000F28E12002B0E1B6ECC0E1C6E6FC01DF06D
:100F90001E6A28EC07F02B0E056E066A0EEC06F0B2
:100FA00012009EB8D6EF07F0DAEF07F0046A042AC1
:100FB000DBEF07F0046A0450026E036A12000E6E43
:100FC0000C50FF0A0D6E0E5088EC05F00D14076EE4
:100FD0000E5034EC05F01200FD0ED76E8F0ED66E5B
:100FE000F294010E5F26000E60226122622212003E
:100FF000F2A4FDEF07F0FFEF07F001EF08F0ECECD3
:1010000007F0749211009EBA08EF08F00BEF08F099
:10101000010E0CEF08F0000E120045EC08F0716AAA
:10102000706A6F6A730E026E76EC06F012000D6E37
:101030000D5088EC05F00C10076E0D5034EC05F0E7
:101040001200240EAC6E900EAB6E400EAF6EB86AFE
:10105000696A1200030E0C6E140E17EC08F01200F1
:10106000030E0C6E140EDFEC07F0120094809492C5
:10107000949494969498120036EC08F0A1EC06F043
:101080001200026E02C0ADFF12000F0E956E8C6A48
:0E109000120083500F0B1200AE50120012001F
:020000040020DA
:08000000FFFFFFFFFFFFFFFF00
:020000040030CA
:0E000000FF02191EFF0181FF03C003E0034051
:00000001FF
