:020000040000FA
:0400000013EF00F00A
:060008005F8206EF06F026
:100018005F80E0CF01F001C0E0FF5F9010009FEF2C
:1000280005F046EC06F05C6EA00E1F6E030E206E07
:100038001F0E216E59C022F0236A5CC024F0256A85
:100048005BC026F0276A5AC028F0296A1FEC05F021
:10005800A00E056E066A29EC04F01BEF01F05C5057
:10006800D8A439EF00F03BEF00F043EF00F0010EA9
:100078005B6EDBEC04F0010E596E36EF01F05C505C
:10008800D8B449EF00F04BEF00F036EF01F05E50C6
:10009800B2EC05F0030E596E36EF01F05C50D8A4AF
:1000A80058EF00F05AEF00F062EF00F0020E5B6EBE
:1000B800DBEC04F0020E596E36EF01F05C50D8B458
:1000C80068EF00F06AEF00F036EF01F05E50B2EC36
:1000D80005F04EEF00F05C50D8B475EF00F077EF04
:1000E80000F07CEF00F05E50B2EC05F04EEF00F04F
:1000F8005C50D8A482EF00F084EF00F036EF01F0F6
:10010800040E5B6EDBEC04F0596A36EF01F021EC6B
:1001180002F05A6E5C50D8A494EF00F096EF00F00D
:1001280098EF00F084EF00F05C50D8B49EEF00F038
:10013800A0EF00F0BDEF00F05E50B5EC04F0055004
:100148000410031009E1090E025CD8A0AEEF00F01C
:10015800B0EF00F0BDEF00F00B0E5A18D8B4B7EFAF
:1001680000F0B9EF00F0BDEF00F0050E596E36EF64
:1001780001F05C50D8B4C3EF00F0C5EF00F036EFE3
:1001880001F05E50B5EC04F005500410031009E1CD
:10019800090E025CD8A0D3EF00F0D5EF00F036EFDF
:1001A80001F00B0E5A18D8A4DCEF00F0DEEF00F0D7
:1001B80036EF01F05E50B2EC05F0040E596E36EFE2
:1001C80001F05C50D8A4EBEF00F0EDEF00F0EFEF9A
:1001D80000F088EF00F05C50D8B4F5EF00F0F7EFCE
:1001E80000F036EF01F05E50B5EC04F00550041055
:1001F8000BE1DD0E025C050E0358D8A006EF01F0F6
:1002080008EF01F036EF01F043EC06F0B9EF00F02B
:100218005C50D8A412EF01F014EF01F036EF01F0B2
:10022800596A040E5B6EDBEC04F036EF01F05950AE
:10023800000AD8B433EF00F0010AD8B452EF00F046
:10024800030AD8B46FEF00F0010AD8B48BEF00F0BE
:10025800070AD8B4E5EF00F0010AD8B40CEF01F0B2
:1002680036EF01F012000D50D96EDA6ADECFF6FFD4
:10027800DDCFF7FF0800F550250AD8A446EF01F0B6
:1002880048EF01F00FEF02F00D50D96EDA6ADE2A5E
:10029800000EDD22000E4F6E000E4E6E4EC052F064
:1002A800506851680D50D96EDA6ADECF12F0DDCF92
:1002B80013F012C0F6FF13C0F7FF0800F550640AE8
:1002C800D8B469EF01F06BEF01F079EF01F012C0DB
:1002D800F6FF13C0F7FF0800F550690AD8A477EFB6
:1002E80001F079EF01F007EF02F00E50D96EDA6AEB
:1002F800020EDF26DF5CD96EDA6ADECF14F0DECFBD
:1003080015F0010E12240F6E000E1320106E0D5002
:10031800D96EDA6A0FC0DEFF10C0DDFF200E186E3E
:1003280015BE99EF01F09CEF01F0010E9DEF01F071
:10033800000E116E18061850800FD96EDA6A14C0B4
:1003480002F015C003F0000E056E0A0E046EE4EC10
:1003580002F002C008F003C009F056EC05F008509E
:10036800300FDF6E14C002F015C003F0000E056EEA
:100378000A0E046E83EC02F002C014F003C015F0FC
:1003880014501510D8B4CBEF01F0CDEF01F0D5EF34
:1003980001F01850D8A4D3EF01F0D5EF01F09EEF8B
:1003A80001F01850D8B4DBEF01F0DDEF01F0FCEFFD
:1003B80001F01150D8B4E3EF01F0E5EF01F0FCEFE4
:1003C80001F018061850800FD96EDA6A2D0EDF6E0C
:1003D800FCEF01F01850800FD96EDA6ADF500F6E0B
:1003E8000F50026E036A0CC004F03BEC03F0182AAD
:1003F800200E1818D8A403EF02F005EF02F0EEEF74
:1004080001F020EF02F00D50D96EDA6ADE2A000EF4
:10041800DD2220EF02F00D50D96EDA6ADECFF6FF4A
:10042800DDCFF7FF0800F550026E036A0CC004F038
:100438003BEC03F007EF02F01200106A36EF02F00F
:10044800116A54EF02F0010E116E54EF02F0020E21
:10045800116E54EF02F0030E116E54EF02F0FF0E0E
:1004680082EF02F05C50010AD8B424EF02F0030ACC
:10047800D8B427EF02F0060AD8B42BEF02F00C0A22
:10048800D8B42FEF02F033EF02F0106A6EEF02F0EB
:10049800010E106E6EEF02F0020E106E6EEF02F09B
:1004A8005B50070B026E036A0350000AD8B45FEF73
:1004B80002F033EF02F00250010AD8B449EF02F01B
:1004C800030AD8B44CEF02F0060AD8B450EF02F091
:1004D80033EF02F0F70EF66E1E0EF76E20EE04F004
:1004E8000B0E0900F5CFDEFFE806FBE21150030D05
:1004F800F350040F1024D96EDA6ADF501200076A2D
:1005080005BE8BEF02F089EF02F091EF02F0046C68
:10051800051ED8B0052A010E076E03BE98EF02F03B
:1005280096EF02F09EEF02F0026C031ED8B0032A89
:10053800010E071A000E096E000E086E0450051011
:10054800D8B4A9EF02F0ABEF02F0D3EF02F0010E3E
:10055800066EB3EF02F0D89004360536062A05AECB
:10056800B8EF02F0BAEF02F0AFEF02F0D890083619
:1005780009360450025C05500358D8A0C6EF02F0B3
:10058800C8EF02F0CDEF02F00450025E0550035AA6
:100598000880D89005320432062EBAEF02F00750D0
:1005A800D8B4D9EF02F0DBEF02F0DFEF02F0086C0D
:1005B800091ED8B0092A08C002F009C003F01200C9
:1005C800076A03BEECEF02F0EAEF02F0F2EF02F086
:1005D800026C031ED8B0032A010E076E05BEF9EFA0
:1005E80002F0F7EF02F0FDEF02F0046C051ED8B040
:1005F800052A04500510D8B404EF03F006EF03F001
:100608002AEF03F0010E066E0EEF03F0D8900436C1
:100618000536062A05AE13EF03F015EF03F00AEFCF
:1006280003F00450025C05500358D8A01EEF03F0F5
:1006380020EF03F024EF03F00450025E0550035A44
:10064800D89005320432062E15EF03F00750D8B4BF
:1006580030EF03F032EF03F036EF03F0026C031EC5
:10066800D8B0032A02C002F003C003F012000450FD
:10067800D8B441EF03F043EF03F04BEF03F004501D
:10068800D8A449EF03F04BEF03F050EF03F002500A
:1006980049EC06F08FEF03F00450D96EDA6A090EC0
:1006A800D926DE50DE10D8B45CEF03F05EEF03F01D
:1006B80077EF03F00450D96EDA6A090ED926045090
:1006C800E16EE26A020EE126DE50E65CE650800A40
:1006D800096EDE50800A0958D8B075EF03F077EF3D
:1006E80003F08FEF03F00450D96EDA6A020ED926B0
:1006F800DF50056E0450D96EDA6ADF500524D96ED2
:10070800DA6A02C0DFFF0450D96EDA6A020ED9260F
:10071800DE2A000EDD221200096E095009247E0B24
:100728000A6E8B948B96080E0B6E0ABE9EEF03F032
:10073800A2EF03F0086A082AA3EF03F0086A084644
:100748008B500818FD0B08188B6E8B84D8900A36CE
:10075800050E3BEC05F08B94050E3BEC05F00B0603
:100768000B50D8A4BAEF03F0BCEF03F099EF03F0F5
:10077800080E0B6E07BEC3EF03F0C7EF03F0086A5D
:10078800082AC8EF03F0086A08468B500818FD0BC2
:1007980008188B6E8B84D8900736050E3BEC05F055
:1007A8008B94050E3BEC05F00B060B50D8A4DFEF3D
:1007B80003F0E1EF03F0BEEF03F08B868B841200A9
:1007C800036E035003247E0B8009046E056A8B9424
:1007D8008B96080E066E04BEF4EF03F0F8EF03F0F4
:1007E800026A022AF9EF03F0026A02468B500218E5
:1007F800FD0B02188B6E8B84D89004368B940606FA
:100808000650D8A40AEF04F00CEF04F0EFEF03F061
:10081800080E066E8B84D890053682B016EF04F069
:1008280019EF04F0010E1AEF04F0000E05128B9474
:1008380006060650D8A423EF04F025EF04F00EEFC7
:1008480004F08B868B84055012004AEF04F0D4EC38
:1008580005F002500310D8B434EF04F036EF04F07A
:100868002BEF04F005C0F6FF06C0F7FFF86A010E8B
:10087800F76403D00800F55005D0F6CFE9FFF7CFAD
:10088800EAFFEF503BEC06F0054A062A05C0F6FFE2
:1008980006C0F7FFF86A010EF76403D00800F550A8
:1008A80005D0F6CFE9FFF7CFEAFFEF500009D8A44B
:1008B80060EF04F062EF04F02BEF04F01200046A1A
:1008C80072EF04F0042A040E0418D8A46EEF04F0A2
:1008D80070EF04F072EF04F08DEF04F00450050D92
:1008E800F3503A0FD96EDA6ADE04D8B47EEF04F01A
:1008F80080EF04F066EF04F00450050DF3503A0F52
:10090800D96EDA6A010EDF6E0250D96EDA6A04C057
:10091800DFFF12008B868B888AEC05F08D0E076E40
:100928002A0E90EC03F03E0E076E2B0E90EC03F0AF
:100938001E0E076E2D0E90EC03F0000E076E2C0EA7
:1009480090EC03F0400E076E150E90EC03F03D0E90
:10095800076E110E90EC03F02AEC06F024EC06F07A
:1009680012000E6EF29E4AC00AF04BC00BF04CC04B
:100978000CF04DC00DF0F28E0E50050DF350360FF1
:10098800D96EDA6ADECF06F0DECF07F0DECF08F0E8
:10099800DECF09F006500A5C026E07500B58036E52
:1009A80008500C58046E09500D58056E12008C6AD8
:1009B8005B04D8A4E2EF04F0E4EF04F0E7EF04F0FE
:1009C8008C8AFDEF04F0020E5B18D8A4EEEF04F059
:1009D800F0EF04F0F3EF04F08C8CFDEF04F0040E5C
:1009E8005B18D8A4FAEF04F0FCEF04F0FDEF04F074
:1009F8008C8812001AC01DF01BC01EF00CEF05F009
:100A080019C00CF01D0E0D6E1CC00EF037EC01F075
:100A18001DC0F6FF1EC0F7FF0800F5500009D8A456
:100A280018EF05F01AEF05F004EF05F0000E1A6E46
:100A3800000E196E1200220E2A6E1FC02BF0000E37
:100A48002E6E000E2D6E000E356E000E346E2B0EBF
:100A5800196E20C01AF021C01BF02A0E1C6EFEEC85
:100A680004F01F502D24D96EDA6ADF6A1200056E71
:100A7800066A41EF05F00000062A0550030D0650EE
:100A8800026E036AF350025C0350800A046EF4504D
:100A9800800A0458D8A053EF05F055EF05F03FEF52
:100AA80005F0120009BE5BEF05F05DEF05F063EF9E
:100AB80005F008C008F009C009F06FEF05F008C09C
:100AC8000AF009C00BF00A1E0B1E0A4A0B2A0AC0BC
:100AD80008F00BC009F01200026A0250050DF3502D
:100AE8003A0FD96EDA6ADF6A022A030E02647FEFD0
:100AF80005F081EF05F071EF05F0820ED56EFD0E61
:100B0800D76E8F0ED66EF294F28A12008B88010E81
:100B18003BEC05F08B98010E3BEC05F08B88010E41
:100B28003BEC05F00F0E076E010E90EC03F0010E82
:100B38003BEC05F0120000EE80F0200EEE6AE806AD
:100B4800FDE100EE36F0290EEE6AE806FDE15F9061
:100B58005F92000EF86E0001C4EF05F0026EF29E7F
:100B68000250050DF350360FD96EDA6A4AC0DEFF1F
:100B78004BC0DEFF4CC0DEFF4DC0DEFFF28E120020
:100B880070EC05F0FBEC05F036EC06F01BEC06F01B
:100B9800F28EF28C15EC00F0CEEF05F013EF00F0BA
:100BA8009EB8D9EF05F0DDEF05F0046A042ADEEF00
:100BB80005F0046A0450026E036A12000E6E0C50AF
:100BC800FF0A0D6E0E50E4EC03F00D14076E0E5084
:100BD80090EC03F01200FD0ED76E8F0ED66EF294D5
:100BE800010E4A26000E4B224C224D2212003FECE9
:100BF80006F05C6A5B6A5A6A596A5E0E026E63ECBA
:100C080004F01200F2A40BEF06F00DEF06F00FEF60
:100C180006F0EFEC05F05F9211000D6E0D50E4EC5C
:100C280003F00C10076E0D5090EC03F01200240E28
:100C3800AC6E900EAB6E400EAF6EB86A546A12007E
:100C4800030E0C6E140E11EC06F01200030E0C6E5F
:100C5800140EE2EC05F01200948094929494949609
:100C68009498120030EC06F08EEC04F01200026E3C
:100C780002C0ADFF12000F0E956E8C6A1200010EB5
:0C0C8800546E120083500F0B120012007B
:101EF600000102030405060708090A000B53746172
:101F060074653A2025640946696C61733A20256434
:101F160009436F6C756D6E61733A202564095465CB
:101F2600636C613A2025640D0A004552524F522EC9
:101F36002056616C6F7220696E74726F6475697475
:101F4600206572726F6E692E0D0A0009332E204DC0
:101F56006F6469666963617220686F726120646587
:101F66006C2073697374656D610D0A0009322E2049
:101F76004D6F737472617220636F6E6669677572F6
:101F86006163696F6E730D0A0009312E2051756900
:101F96002068692068612061206C612073616C6132
:101FA6003F0D0A005472696120756E61206F70637F
:101FB60069C3B33A0D0A002D2D2D2D2D2D2D2D2D56
:101FC6002D2D2D2D2D2D0D0A004D656EC3BA2070B9
:101FD60072696E636970616C0D0A004861732070E6
:101FE600756C7361646F2031004F706369C3B33AD7
:091FF60020005549443A20000086
:020000040020DA
:08000000FFFFFFFFFFFFFFFF00
:020000040030CA
:0E000000FF02191EFF0181FF03C003E0034051
:00000001FF
