:020000040000FA
:0400000013EF00F00A
:060008007B820AEF07F005
:100018007B80E0CF01F001C0E0FF7B90100096EFFD
:1000280006F0000E3A6E010E3B6E3AC021F03BC05E
:1000380022F0750E236E1F0E246E6EC025F0266A00
:100048006DC027F0286AF8EC05F021503A262250B6
:100058003B2226EF02F0070E0C6E0D0EC5EC04F0E5
:10006800260E676E010E6D6E35EF02F0770E6C6E20
:10007800300E6B6EF70E0C6E020EC5EC04F0020E1D
:100088006D6E35EF02F0800E116E040EE6EC06F090
:10009800030E6D6E35EF02F0800E116E0A0E15EC30
:1000A80007F0040E6D6E35EF02F0000E0C6E010EB7
:1000B800C5EC04F0050E6D6E35EF02F067C00CF06C
:1000C800090EC5EC04F0060E6D6E35EF02F00C0E4D
:1000D8000C6E010EC5EC04F0070E6D6E35EF02F0E4
:1000E800800E116E0D0E15EC07F06968080E6D6E26
:1000F80035EF02F0040E19EC05F06A6E6AB087EF6E
:1001080000F089EF00F096EF00F06A506B140009D8
:10011800D8A491EF00F093EF00F096EF00F0692E6D
:1001280035EF02F0090E6D6E35EF02F0800E116E9C
:100138000D0EE6EC06F00A0E6D6E35EF02F0695012
:10014800D8B4A9EF00F0ABEF00F0F5EF00F0060E21
:1001580019EC05F0376E1B0E3716D8A4B6EF00F071
:10016800B8EF00F0F5EF00F00A0E19EC05F03E6E5E
:100178000C0E19EC05F0070B3F6E3F50D8B4C7EFD3
:1001880000F0C9EF00F0E1EF00F03F503EC037F05B
:10019800386AD89037363836D89037363836D890C7
:1001A800373638363726000E3822F80E37243C6E9C
:1001B800FF0E38203D6EE7EF00F03E50080DF3CFFC
:1001C8003CF0F4CF3DF0100E3C183D10D8A4EFEFF2
:1001D80000F0F1EF00F0F5EF00F00B0E6D6E35EF6B
:1001E80002F00C0E6D6E35EF02F0010E6E6E6D6A48
:1001F80035EF02F06E6A6D6A35EF02F06D50000A55
:10020800D8B42FEF00F0010AD8B43AEF00F0030A8F
:10021800D8B447EF00F0010AD8B450EF00F0070A4D
:10022800D8B459EF00F0010AD8B462EF00F0030A1D
:10023800D8B46BEF00F0010AD8B474EF00F00F0ADD
:10024800D8B47EEF00F0010AD8B49AEF00F0030AA0
:10025800D8B4A3EF00F0010AD8B4F9EF00F0070A08
:10026800D8B4FEEF00F035EF02F0000E0C6E0D0E64
:10027800C5EC04F0930E736E200E746E36EF00F02A
:10028800080E116E080EE6EC06F043EF00F0770E4C
:100298006C6E300E6B6EF70E0C6E020EC5EC04F031
:1002A8004CEF00F0800E116E040EE6EC06F055EFF0
:1002B80000F0800E116E0A0E15EC07F05EEF00F0EC
:1002C800000E0C6E010EC5EC04F067EF00F073C071
:1002D8000CF0090EC5EC04F074C00CF0090EC5EC66
:1002E80004F070EF00F00C0E0C6E010EC5EC04F07B
:1002F8007AEF00F0800E116E0D0E15EC07F06968AC
:1003080096EF00F0040E19EC05F06A6E6AB08FEFF4
:1003180001F091EF01F09FEF00F06A506B140009B3
:10032800D8A499EF01F09BEF01F09FEF00F0692E40
:1003380035EF02F09FEF00F0800E116E0D0EE6EC27
:1003480006F0F1EF00F06950D8B4ADEF01F0AFEF6F
:1003580001F0F5EF00F0060E19EC05F0376E1B0EF4
:100368003716D8A4BAEF01F0BCEF01F0F5EF00F0B2
:100378000A0E19EC05F0396E696A6950730FD96E67
:10038800DA6A090E19EC05F0DF6E692A030E696452
:10039800D0EF01F0D2EF01F0C1EF01F0776AF5EF8D
:1003A80000F0730E076E38EC03F0020E6E6EFBEF72
:1003B80000F06D50000AD8B439EF01F0010AD8B442
:1003C80044EF01F0030AD8B44BEF01F0010AD8B4A6
:1003D80056EF01F0070AD8B45DEF01F0010AD8B46E
:1003E80064EF01F0030AD8B46BEF01F0010AD8B446
:1003F80077EF01F00F0AD8B47EEF01F0010AD8B404
:1004080086EF01F0030AD8B4A0EF01F0010AD8B4CE
:10041800A7EF01F0070AD8B4D5EF01F035EF02F0E5
:10042800500E0C6E010EC5EC04F036EF00F06D5066
:10043800000AD8B414EF02F0010AD8B4FEEF00F0B5
:1004480035EF02F06E50000AD8B402EF01F0010A4D
:10045800D8B4DDEF01F0030AD8B41BEF02F035EF92
:1004680002F01200000E136E000E126E0D50D96EBF
:10047800DA6ADECFF6FFDDCFF7FF0800F550250A70
:10048800D8A449EF02F04BEF02F01EEF03F00D5035
:10049800D96EDA6ADE2A000EDD22000E5B6E000ECF
:1004A8005A6E5AC060F05C685D680D50D96EDA6AA1
:1004B800DECF14F0DDCF15F014C0F6FF15C0F7FF3E
:1004C8000800F550640AD8B46CEF02F06EEF02F041
:1004D8007CEF02F014C0F6FF15C0F7FF0800F550D6
:1004E800690AD8A47AEF02F07CEF02F012EF03F069
:1004F8000E50D96EDA6A020EDF26DF5CD96EDA6A30
:10050800DECF16F0DECF17F0010E14240F6E000EAA
:100518001520106E0D50D96EDA6A0FC0DEFF10C0BC
:10052800DDFF200E1A6E17BE9CEF02F09FEF02F05F
:10053800010EA0EF02F0000E116E1A061A50800F7D
:10054800D96EDA6A16C002F017C003F0000E056E05
:100558000A0E046E6EEC04F002C008F003C009F045
:1005680062EC06F00850300FDF6E16C002F017C0BC
:1005780003F0000E056E0A0E046EB0EC03F002C024
:1005880016F003C017F0124A132A16501710D8B4E1
:10059800D0EF02F0D2EF02F0DAEF02F01A50D8A44E
:1005A800D8EF02F0DAEF02F0A1EF02F01A50D8B457
:1005B800E0EF02F0E2EF02F003EF03F01150D8B4DD
:1005C800E8EF02F0EAEF02F003EF03F01A061A5020
:1005D800800FD96EDA6A2D0EDF6E124A132A03EFE6
:1005E80003F01A50800FD96EDA6ADF500F6E0F5081
:1005F800026E036A0CC004F011EC04F01A2A200EF3
:100608001A18D8A40AEF03F00CEF03F0F5EF02F084
:1006180012C00CF013C00DF037EF03F00D50D96E77
:10062800DA6ADE2A000EDD22000E0D6E000E0C6E58
:1006380037EF03F00D50D96EDA6ADECFF6FFDDCF63
:10064800F7FF0800F550026E036A0CC004F011ECC5
:1006580004F00D50D96EDA6ADE2A000EDD22000E93
:100668000D6E010E0C6E1200000E196E000E186E43
:1006780007501824D96EDA6ADF50086E08380F0B55
:100688000F0B1A6E090E1A644CEF03F04EEF03F0CD
:1006980056EF03F0370E1A24146E156A000E152251
:1006A8005CEF03F0300E1A24146E156A000E152242
:1006B8001850020DF350090FD96EDA6A14C0DFFF23
:1006C80007501824D96EDA6ADF500F0B1A6E090E1C
:1006D8001A6471EF03F073EF03F07BEF03F0370E4A
:1006E8001A24166E176A000E172281EF03F0300ED7
:1006F8001A24166E176A000E17221850020DF3CF2F
:1007080008F0010E08260850090FD96EDA6A16C0DB
:10071800DFFF184A192A19BE9BEF03F0195009E1A7
:10072800050E185CD8A09BEF03F09DEF03F03CEF9B
:1007380003F0136AF90E056E1F0E066E6AEC05F0DB
:10074800090E056E066A6AEC05F0B20E056E1F0EFC
:10075800066E6AEC05F01200076A05BEB8EF03F0F2
:10076800B6EF03F0BEEF03F0046C051ED8B0052AFF
:10077800010E076E03BEC5EF03F0C3EF03F0CBEF26
:1007880003F0026C031ED8B0032A010E071A000EEC
:10079800096E000E086E04500510D8B4D6EF03F0A9
:1007A800D8EF03F000EF04F0010E066EE0EF03F05F
:1007B800D89004360536062A05AEE5EF03F0E7EFD4
:1007C80003F0DCEF03F0D890083609360450025CD9
:1007D80005500358D8A0F3EF03F0F5EF03F0FAEF54
:1007E80003F00450025E0550035A0880D890053281
:1007F8000432062EE7EF03F00750D8B406EF04F0F2
:1008080008EF04F00CEF04F0086C091ED8B0092AB0
:1008180008C002F009C003F012000450D8B417EF62
:1008280004F019EF04F021EF04F00450D8A41FEFEE
:1008380004F021EF04F026EF04F002504AEC07F030
:100848006DEF04F00450D96EDA6A090ED926DE502D
:10085800DE10D8B432EF04F034EF04F04DEF04F0BA
:100868000450D96EDA6A090ED9260450E16EE26A9C
:10087800020EE126DE50E65CE650800A096EDE5084
:10088800800A0958D8B04BEF04F04DEF04F06DEF33
:1008980004F00450D96EDA6A020ED926DECF05F0CC
:1008A800DDCF06F00450D96EDA6ADECF07F0DDCF6F
:1008B80008F005500724D96E06500820DA6E02C0E9
:1008C800DFFF0450D96EDA6A020ED926DE2A000E3E
:1008D800DD221200076A03BE76EF04F074EF04F01D
:1008E8007CEF04F0026C031ED8B0032A010E076ED9
:1008F80005BE83EF04F081EF04F087EF04F0046C89
:10090800051ED8B0052A04500510D8B48EEF04F09F
:1009180090EF04F0B4EF04F0010E066E98EF04F0C7
:10092800D89004360536062A05AE9DEF04F09FEFF1
:1009380004F094EF04F00450025C05500358D8A06A
:10094800A8EF04F0AAEF04F0AEEF04F00450025E42
:100958000550035AD89005320432062E9FEF04F052
:100968000750D8B4BAEF04F0BCEF04F0C0EF04F0BD
:10097800026C031ED8B0032A02C002F003C003F0C1
:1009880012000E6E0E500E247E0B0F6E8B948B96FB
:10099800080E106E0FBED3EF04F0D7EF04F00D6A07
:1009A8000D2AD8EF04F00D6A0D468B500D18FD0B7B
:1009B8000D188B6E8B84D8900F36050E47EC06F019
:1009C8008B94050E47EC06F010061050D8A4EFEFF4
:1009D80004F0F1EF04F0CEEF04F0080E106E0CBE38
:1009E800F8EF04F0FCEF04F00D6A0D2AFDEF04F0B7
:1009F8000D6A0D468B500D18FD0B0D188B6E8B84F0
:100A0800D8900C36050E47EC06F08B94050E47EC93
:100A180006F010061050D8A414EF05F016EF05F0F4
:100A2800F3EF04F08B868B841200086E08500824BC
:100A38007E0B8009096E0A6A8B948B96080E0B6EE2
:100A480009BE29EF05F02DEF05F0076A072A2EEFFA
:100A580005F0076A07468B500718FD0B07188B6EC1
:100A68008B84050E47EC06F0D89009368B94050E5A
:100A780047EC06F00B060B50D8A445EF05F047EFFE
:100A880005F024EF05F0080E0B6E8B84050E47EC7D
:100A980006F0D8900A3682B054EF05F057EF05F00B
:100AA800010E58EF05F0000E0A128B94050E47EC64
:100AB80006F00B060B50D8A464EF05F066EF05F0BE
:100AC80049EF05F08B868B840A5012008BEF05F0F6
:100AD800D8EC06F002500310D8B475EF05F077EFA4
:100AE80005F06CEF05F005C0F6FF06C0F7FFF86AE1
:100AF800010EF76403D00800F55005D0F6CFE9FFE2
:100B0800F7CFEAFFEF503FEC07F0054A062A05C089
:100B1800F6FF06C0F7FFF86A010EF76403D0080075
:100B2800F55005D0F6CFE9FFF7CFEAFFEF500009FF
:100B3800D8A4A1EF05F0A3EF05F06CEF05F01200C3
:100B4800046AB3EF05F0042A040E0418D8A4AFEF22
:100B580005F0B1EF05F0B3EF05F0CEEF05F0045066
:100B6800050DF350440FD96EDA6ADE04D8B4BFEF2E
:100B780005F0C1EF05F0A7EF05F00450050DF3509F
:100B8800440FD96EDA6A010EDF6E0250D96EDA6A46
:100B980004C0DFFF12001CC01FF01DC020F0000EB3
:100BA800596E000E586EE5EF05F01BC00CF01F0ED5
:100BB8000D6E1EC00EF036EC02F00C5058260D508B
:100BC80059221FC0F6FF20C0F7FF0800F5500009A2
:100BD800D8A4F1EF05F0F3EF05F0D9EF05F058C010
:100BE8001BF059C01CF01200250E2B6E21C02CF0F2
:100BF80022C02DF0000E2F6E000E2E6E000E366EE7
:100C0800000E356E2C0E1B6E23C01CF024C01DF088
:100C18002B0E1E6ECFEC05F01BC029F01CC02AF06D
:100C28002E502124D96E2F502220DA6EDF6A29C077
:100C380021F02AC022F012008B868B88AFEC06F0D8
:100C48008D0E0C6E2A0EC5EC04F03E0E0C6E2B0EAB
:100C5800C5EC04F01E0E0C6E2D0EC5EC04F0000E53
:100C68000C6E2C0EC5EC04F0400E0C6E150EC5EC87
:100C780004F03D0E0C6E110EC5EC04F02EEC07F0DE
:100C880028EC07F01200056E066A4DEF06F000002A
:100C9800062A0550030D0650026E036AF350025CE3
:100CA8000350800A046EF450800A0458D8A05FEFFD
:100CB80006F061EF06F04BEF06F0120009BE67EF91
:100CC80006F069EF06F06FEF06F008C008F009C0FB
:100CD80009F07BEF06F008C00AF009C00BF00A1E05
:100CE8000B1E0A4A0B2A0AC008F00BC009F01200B2
:100CF800026A0250050DF350440FD96EDA6ADF6AB2
:100D0800022A030E02648BEF06F08DEF06F07DEFEA
:100D180006F0820ED56EFD0ED76E8F0ED66EF2944B
:100D2800F28A120001EE00F0640EEE6AE806FDE1B8
:100D380000EE80F0200EEE6AE806FDE100EE40F0DD
:100D48003B0EEE6AE806FDE17B907B92000EF86EA2
:100D58000001C4EF06F08B88010E47EC06F08B9873
:100D6800010E47EC06F08B88010E47EC06F00F0EDB
:100D78000C6E010EC5EC04F0010E47EC06F01200F3
:100D88007CEC06F0FFEC06F03AEC07F01FEC07F0FD
:100D980047EC07F0F28EF28C896A15EC00F089684E
:100DA800D0EF06F013EF00F09EB8DDEF06F0E1EFAC
:100DB80006F0046A042AE2EF06F0046A0450026EA0
:100DC800036A1200136E1150FF0A126E135019ECC9
:100DD80005F012140C6E1350C5EC04F01200FD0E51
:100DE800D76E8F0ED66EF294010E5426000E552241
:100DF80056225722120043EC07F0726A716A706A31
:100E08006F6A7A0E026EA4EC05F01200F2A40FEFDE
:100E180007F011EF07F013EF07F0F3EC06F07B9201
:100E28001100126E125019EC05F011100C6E1250D0
:100E3800C5EC04F01200240EAC6E900EAB6E400EA2
:100E4800AF6EB86A626A1200030E116E140E15ECCA
:100E580007F01200030E116E140EE6EC06F01200F5
:100E680094809492949494969498120034EC07F099
:100E780020EC06F01200026E02C0ADFF12000F0E49
:0E0E8800956E8C6A1200C168926A1200120008
:101EEE00000102030405060708090A000B455252B9
:101EFE004F522E2056616C6F7220696E74726F6431
:101F0E00756974206572726F6E692E0D0A00093341
:101F1E002E204D6F6469666963617220686F72610D
:101F2E002064656C2073697374656D610D0A000918
:101F3E00322E204D6F737472617220636F6E6669FC
:101F4E006775726163696F6E730D0A0009312E2019
:101F5E005175692068692068612061206C61207369
:101F6E00616C613F0D0A0073746174653A202564DB
:101F7E002C2073756273746174653A2025640D0AA2
:101F8E00005472696120756E61206F706369C3B30E
:101F9E003A0D0A002D2D2D2D2D2D2D2D2D2D2D2DC6
:101FAE002D2D2D0D0A004D656EC3BA207072696E0F
:101FBE00636970616C0D0A004861732070756C73F3
:101FCE0061646F2031004861732070756C736164B9
:101FDE006F2032004861732070756C7361646F20DE
:101FEE0033004F706369C3B33A20005549443A2019
:021FFE000000E1
:020000040020DA
:08000000FFFFFFFFFFFFFFFF00
:020000040030CA
:0E000000FF02191EFF0181FF03C003E0034051
:00000001FF
