:020000040000FA
:0400000013EF00F00A
:060008006E8213EF0DF003
:100018006E80E0CF48F048C0E0FF6E90100090EF8F
:100028000AF0A2EF05F0070E4E6E0D0EFDEC07F07C
:10003800656E6550D8B423EF00F025EF00F0ADEF02
:1000480005F0260E266E010E2C6EADEF05F0770E2C
:100058002B6E300E2A6EF70E4E6E020EFDEC07F078
:10006800656E6550D8B43BEF00F03DEF00F0ADEFA2
:1000780005F0020E2C6EADEF05F0040E6CEC06F0E8
:10008800656E6528D8A44BEF00F04DEF00F050EFF7
:1000980000F02C6AADEF05F0FE0E6518D8B457EFE6
:1000A80000F059EF00F04FEF02F065C023F0030EA7
:1000B8002C6EADEF05F023507F0B4E6E020EFDEC5B
:1000C80007F0656E6550D8B46CEF00F06EEF00F085
:1000D800ADEF05F0040E2C6EADEF05F00A0E6CECDA
:1000E80006F0656E6528D8A47CEF00F07EEF00F07E
:1000F80080EF00F04DEF00F0FE0E6518D8B487EFE2
:1001080000F089EF00F04FEF02F065C023F0050E14
:100118002C6EADEF05F0235080094E6E0A0EFDECF3
:1001280007F0656E6550D8B49CEF00F09EEF00F0C4
:10013800ADEF05F0060E2C6EADEF05F0000E4E6E1D
:10014800010EFDEC07F0656E6550D8B4AEEF00F017
:10015800B0EF00F0ADEF05F0070E2C6EADEF05F037
:1001680026C04EF0090EFDEC07F0656E6550D8B458
:10017800C0EF00F0C2EF00F0ADEF05F0080E2C6EF6
:10018800ADEF05F00C0E4E6E010EFDEC07F0656E3E
:100198006550D8B4D2EF00F0D4EF00F0ADEF05F021
:1001A800090E2C6EADEF05F00D0E6CEC06F0656EC9
:1001B8006528D8A4E2EF00F0E4EF00F0E6EF00F0E5
:1001C8004DEF00F0FE0E6518D8B4EDEF00F0EFEF3C
:1001D80000F04FEF02F065C023F00A0E2C6EADEF71
:1001E80005F0235080094E6E0D0EFDEC07F0656E8C
:1001F8006550D8B402EF01F004EF01F0ADEF05F05F
:1002080028680B0E2C6EADEF05F0040E6CEC06F0B2
:10021800656E6528D8A413EF01F015EF01F017EF0C
:1002280001F04DEF00F0FE0E6518D8B41EEF01F096
:1002380020EF01F0ADEF05F065C029F029B027EFF8
:1002480001F029EF01F036EF01F029502A140009D6
:10025800D8A431EF01F033EF01F036EF01F0282E8A
:10026800ADEF05F00C0E2C6EADEF05F00D0E6CEC3D
:1002780006F0656E6528D8A444EF01F046EF01F05A
:1002880048EF01F04DEF00F0FE0E6518D8B44FEFBF
:1002980001F051EF01F04FEF02F06550D8B457EF7D
:1002A80001F059EF01F04FEF02F00D0E2C6EADEF9B
:1002B80005F023507F0B4E6E0D0EFDEC07F0656EBA
:1002C8006550D8B46AEF01F06CEF01F0ADEF05F0BE
:1002D8000E0E2C6EADEF05F0060E6CEC06F0656E9A
:1002E8006528D8A47AEF01F07CEF01F07EEF01F0E9
:1002F8004DEF00F0FE0E6518D8B485EF01F087EFDA
:1003080001F0ADEF05F065C023F02850D8B48FEFA9
:1003180001F091EF01F0A0EF01F023C05EF01B0E99
:100328005E16D8A49AEF01F09CEF01F0A0EF01F05F
:100338000F0E2C6EADEF05F02C6A2D6AADEF05F0AF
:100348000A0E6CEC06F0656E6528D8A4AEEF01F0D5
:10035800B0EF01F0B2EF01F04DEF00F0FE0E6518BE
:10036800D8B4B9EF01F0BBEF01F04FEF02F065C070
:1003780021F0100E2C6EADEF05F00C0E6CEC06F0B3
:10038800656E6528D8A4CBEF01F0CDEF01F0CFEF73
:1003980001F04DEF00F0FE0E6518D8B4D6EF01F06D
:1003A800D8EF01F04FEF02F06550070B226E110EE7
:1003B8002C6EADEF05F02250D8B4E5EF01F0E7EF71
:1003C80001F0EFEF01F02150080DF3502224F80F4F
:1003D800616EF3EF01F02150080DF3CF61F0100EBC
:1003E8006118D8A4FAEF01F0FCEF01F000EF02F079
:1003F800010E2D6E4DEF00F02D6A2C6AADEF05F061
:100408002C50000AD8B417EF00F0010AD8B42BEF2B
:1004180000F0030AD8B441EF00F0010AD8B45FEF46
:1004280000F0070AD8B472EF00F0010AD8B48FEFD1
:1004380000F0030AD8B4A2EF00F0010AD8B4B4EF70
:1004480000F00F0AD8B4C6EF00F0010AD8B4D8EF0C
:1004580000F0030AD8B4F5EF00F0010AD8B409EFA8
:1004680001F0070AD8B43AEF01F0010AD8B45DEFF9
:1004780001F0030AD8B470EF01F0010AD8B4A4EF70
:1004880001F01F0AD8B4C1EF01F0010AD8B4DFEFB8
:1004980001F0ADEF05F0ADEF05F0000E4E6E0D0E5C
:1004A800FDEC07F0656E6550D8B45DEF02F05FEFC4
:1004B80002F0ADEF05F0930E016E200E026E010EF4
:1004C8002C6EADEF05F0080E6CEC06F0656E652835
:1004D800D8A471EF02F073EF02F075EF02F000EFAD
:1004E80002F0FE0E6518D8B47CEF02F07EEF02F041
:1004F800ADEF05F065C023F03DEF00F02350F70B9A
:100508004E6E080EFDEC07F0656E6550D8B48FEF9F
:1005180002F091EF02F0ADEF05F05BEF00F0770E1F
:100528002B6E300E2A6EF70E4E6E020EFDEC07F0A3
:10053800656E6550D8B4A3EF02F0A5EF02F0ADEFF9
:1005480005F06EEF00F0040E6CEC06F0656E6528A1
:10055800D8A4B1EF02F0B3EF02F0B5EF02F000EF6C
:1005680002F0FE0E6518D8B4BCEF02F0BEEF02F040
:10057800ADEF05F089EF00F023507F0B4E6E040EAF
:10058800FDEC07F0656E6550D8B4CDEF02F0CFEF03
:1005980002F0ADEF05F09EEF00F00A0E6CEC06F0ED
:1005A800656E6528D8A4DBEF02F0DDEF02F0DFEF1F
:1005B80002F000EF02F0FE0E6518D8B4E6EF02F084
:1005C800E8EF02F0ADEF05F065C023F0B0EF00F002
:1005D800235080094E6E0A0EFDEC07F0656E6550DB
:1005E800D8B4F9EF02F0FBEF02F0ADEF05F0C2EF7F
:1005F80000F0000E4E6E010EFDEC07F0656E6550C2
:10060800D8B409EF03F00BEF03F0ADEF05F0D4EF2A
:1006180000F001C04EF0090EFDEC07F0656E655064
:10062800D8B419EF03F01BEF03F0ADEF05F0F1EFCD
:1006380000F002C04EF0090EFDEC07F0656E655043
:10064800D8B429EF03F02BEF03F0ADEF05F005EF79
:1006580001F00C0E4E6E010EFDEC07F0656E655054
:10066800D8B439EF03F03BEF03F0ADEF05F036EF08
:1006780001F00D0E6CEC06F0656E6528D8A447EF06
:1006880003F049EF03F04BEF03F000EF02F0FE0E2A
:100698006518D8B452EF03F054EF03F0ADEF05F04E
:1006A80065C023F059EF01F0235080094E6E0D0EFE
:1006B800FDEC07F0656E6550D8B465EF03F067EFA1
:1006C80003F0ADEF05F028686CEF01F0040E6CEC58
:1006D80006F0656E6528D8A474EF03F076EF03F092
:1006E80078EF03F000EF02F0FE0E6518D8B47FEF44
:1006F80003F081EF03F0ADEF05F065C029F029B0F4
:1007080088EF03F08AEF03F09CEF01F029502A14D8
:100718000009D8A492EF03F094EF03F09CEF01F0E6
:10072800282EADEF05F09CEF01F00D0E6CEC06F0F5
:10073800656E6528D8A4A3EF03F0A5EF03F0A7EF33
:1007480003F000EF02F0FE0E6518D8B4AEEF03F028
:10075800B0EF03F0ADEF05F065C023F0BDEF01F099
:1007680023507F0B4E6E0D0EFDEC07F0656E655045
:10077800D8B4C1EF03F0C3EF03F0ADEF05F0DBEF42
:1007880001F0060E6CEC06F0656E6528D8A4CFEF74
:1007980003F0D1EF03F0D3EF03F000EF02F0FE0E09
:1007A8006518D8B4DAEF03F0DCEF03F0ADEF05F02D
:1007B80065C023F02850D8B4E4EF03F0E6EF03F067
:1007C80000EF02F023C05EF01B0E5E16D8A4EFEF18
:1007D80003F0F1EF03F000EF02F0120E2C6EADEF14
:1007E80005F0090E6CEC06F0656E6528D8A4FFEFDD
:1007F80003F001EF04F003EF04F000EF02F0FE0E47
:100808006518D8B40AEF04F00CEF04F0ADEF05F06A
:1008180065C001F0130E2C6EADEF05F0090E6CECFF
:1008280006F0656E6528D8A41CEF04F01EEF04F0EE
:1008380020EF04F000EF02F0FE0E6518D8B427EFA1
:1008480004F029EF04F0ADEF05F065C002F0140ED6
:100858002C6EADEF05F0090E6CEC06F0656E6528A0
:10086800D8A439EF04F03BEF04F03DEF04F000EFBB
:1008780002F0FE0E6518D8B444EF04F046EF04F019
:10088800ADEF05F065C003F0150E2C6EADEF05F069
:10089800090E6CEC06F0656E6528D8A456EF04F0D6
:1008A80058EF04F05AEF04F000EF02F0FE0E65185E
:1008B800D8B461EF04F063EF04F0ADEF05F065C064
:1008C80004F0160E2C6EADEF05F0090E6CEC06F078
:1008D800656E6528D8A473EF04F075EF04F077EF20
:1008E80004F000EF02F0FE0E6518D8B47EEF04F0B5
:1008F80080EF04F0ADEF05F065C005F0066A170E4D
:100908002C6EADEF05F00250031804180118256E7F
:10091800010E246E180E2C6EADEF05F00150D8A410
:1009280098EF04F09AEF04F0A2EF04F00250D8B464
:10093800A0EF04F0A2EF04F0A3EF04F0246A190E6C
:100948002C6EADEF05F00350D8A4ADEF04F0AFEF77
:1009580004F0B7EF04F00450D8B4B5EF04F0B7EFE3
:1009680004F0B8EF04F0246A1A0E2C6EADEF05F00F
:1009780025500518D8A4C3EF04F0C5EF04F000EF24
:1009880002F02450D8B4CBEF04F0CDEF04F0CFEF51
:1009980004F000EF02F01B0E2C6EADEF05F0010E17
:1009A800626EF4EC0AF0606E000E646E000E636E08
:1009B80064BEE8EF04F0645009E1050E635CD8A05A
:1009C800E8EF04F0EAEF04F0ECEF04F004EF05F0D0
:1009D8006350010FD96EDA6A60506324E16EE26AEF
:1009E800DE50E618D8B4FBEF04F0FDEF04F000EF9A
:1009F80005F0626A04EF05F0634A642ADCEF04F04C
:100A08006250D8A40AEF05F00CEF05F017EF05F0D7
:100A180002C059F003C05AF004C05BF005C05CF096
:100A28000150C5EC0BF01C0E2C6EADEF05F0000E5E
:100A38004E6E0D0EFDEC07F0656E6550D8B427EFCD
:100A480005F029EF05F0ADEF05F000EF02F02C50AE
:100A5800000AD8B451EF02F0010AD8B467EF02F0E7
:100A6800030AD8B482EF02F0010AD8B493EF02F077
:100A7800070AD8B4A7EF02F0010AD8B4C0EF02F011
:100A8800030AD8B4D1EF02F0010AD8B4ECEF02F0AF
:100A98000F0AD8B4FDEF02F0010AD8B40DEF03F045
:100AA800030AD8B41DEF03F0010AD8B42DEF03F000
:100AB800070AD8B43DEF03F0010AD8B458EF03F0A1
:100AC800030AD8B46AEF03F0010AD8B499EF03F027
:100AD8001F0AD8B4B4EF03F0010AD8B4C5EF03F085
:100AE800030AD8B4F5EF03F0010AD8B412EF04F002
:100AF800070AD8B42FEF04F0010AD8B44CEF04F079
:100B0800030AD8B469EF04F0010AD8B487EF04F0F7
:100B18000F0AD8B492EF04F0010AD8B4A7EF04F092
:100B2800030AD8B4BCEF04F0010AD8B4D3EF04F038
:100B3800070AD8B41BEF05F0ADEF05F02D50000AF9
:100B4800D8B404EF02F0010AD8B42BEF05F0ADEFEA
:100B580005F012005CEF06F073EC0DF01B0AD8A448
:100B6800B8EF05F0BAEF05F0BEEF05F0C3EC0AF0F8
:100B7800010E1B6E1C04D8A4C4EF05F0C6EF05F0E7
:100B88006BEF06F0C3EC0AF0010E1B6E1C6A6BEFEC
:100B980006F01EEC0DF0E806D8A4D5EF05F0D7EF67
:100BA80005F06BEF06F073EC0DF0310AD8A4DFEF17
:100BB80005F0E1EF05F0F7EF05F0C50E4D6E1F0EDD
:100BC8004E6E40EC0CF0F4EC0AF0596E59C04FF040
:100BD80085EC07F0C50E4D6E1F0E4E6E40EC0CF006
:100BE8001B6A6BEF06F073EC0DF0320AD8A4FFEF26
:100BF80005F001EF06F00BEF06F0C50E4D6E1F0E67
:100C08004E6E40EC0CF071EC09F0F4EF05F073EC6B
:100C18000DF0330AD8A413EF06F015EF06F025EF10
:100C280006F0C50E4D6E1F0E4E6E40EC0CF0340EE5
:100C38004D6E1F0E4E6E40EC0CF0020E1B6E6BEFED
:100C480006F0D10E4D6E1E0E4E6E40EC0CF0F4EF19
:100C580005F01EEC0DF0E806D8A435EF06F037EFE6
:100C680006F06BEF06F01A506A0FD96EDA6A73EC69
:100C78000DF0DF6E1A506A0FD96EDA6ADF50D2ECC7
:100C88000CF01A2A040E1A18D8A44DEF06F04FEFEC
:100C980006F06BEF06F06A0E496E25EC0CF0130EA9
:100CA8004D6E1F0E4E6E40EC0CF01A6AF4EF05F014
:100CB8001B50000AD8B4B0EF05F0010AD8B4CDEF44
:100CC80005F0030AD8B42DEF06F06BEF06F012001A
:100CD8004F6E114A122AE90E115C030E1258D8A061
:100CE80078EF06F07AEF06F0F9EF06F08B868B8442
:100CF800356A000E126E000E116EFF0E08EF07F037
:100D0800000E126E000E116E8B948B964F504F246E
:100D18007E0B80092F6E2E6A306A010E356EFE0E2C
:100D280008EF07F02FBE9BEF06F09FEF06F04E6A24
:100D38004E2AA0EF06F04E6A4E468B504E18FD0B19
:100D48004E188B6E8B84050E5BEC0CF0D8902F360A
:100D58008B94050E5BEC0CF0302A070E3064B7EF6D
:100D680006F0B9EF06F093EF06F0306A020E356E22
:100D780093EF06F08B84050E5BEC0CF0D8902E36C2
:100D880082B0C9EF06F0CCEF06F0010ECDEF06F009
:100D9800000E2E128B94050E5BEC0CF0302A070E19
:100DA8003064D9EF06F0DBEF06F093EF06F08B86A0
:100DB8008B84356A000E126E000E116EFE0E2E1810
:100DC800D8B4E9EF06F0EBEF06F0F3EF06F02E28C3
:100DD800D8A4F1EF06F0F3EF06F0F6EF06F0FD0EFB
:100DE80008EF07F02E5008EF07F03550000AD8B486
:100DF80084EF06F0010AD8B496EF06F0030AD8B4D7
:100E0800BEEF06F093EF06F012005F6E460E496ED5
:100E18004DEC0BF05FC020F05EC01FF01D6A1E6A2B
:100E2800939293949396000E616E000E606E46C086
:100E380056F0576A000E596E640E586EEAEC0BF0C5
:100E4800030EC1EC09F046C056F0576A000E596E01
:100E5800040E586EEAEC0BF0030EC1EC09F046C024
:100E680056F0576A000E596E010E586EEAEC0BF0F8
:100E7800030EC1EC09F046C056F0576A000E596ED1
:100E8800010E586EEAEC0BF0020EC1EC09F046C0F8
:100E980056F0576A000E596E010E586EEAEC0BF0C8
:100EA800280E90EC0CF032EC0DF0080E90EC0CF0E3
:100EB80032EC0DF0010E90EC0CF046C056F0576A7B
:100EC800000E596E020E586EEAEC0BF032EC0DF083
:100ED800060E90EC0CF032EC0DF00F0E90EC0CF0CE
:100EE800604A612A61BE82EF07F0615009E1020E93
:100EF800605CD8A082EF07F084EF07F01BEF07F0E3
:100F08001200F30E4D6E1F0E4E6E40EC0CF0000EEC
:100F1800586E000E576E4F505724D96EDA6ADF505C
:100F2800506E50380F0B0F0B556E090E55649FEF1E
:100F380007F0A1EF07F0A9EF07F0370E5524516E1F
:100F4800526A000E5222AFEF07F0300E5524516E50
:100F5800526A000E52225150D2EC0CF04F505724D6
:100F6800D96EDA6ADF500F0B566E090E5664BFEF62
:100F780007F0C1EF07F0C9EF07F0370E5624536E9C
:100F8800546A000E5422CFEF07F0300E5624536EE9
:100F9800546A000E54225350D2EC0CF058BEE0EFC5
:100FA80007F0585007E1040E575CD8B0DEEF07F0A1
:100FB800E0EF07F0E6EF07F0FD0E4D6E1F0E4E6EE8
:100FC80040EC0CF0574A582A58BEF4EF07F0585036
:100FD80009E1050E575CD8A0F4EF07F0F6EF07F02B
:100FE8008FEF07F0C50E4D6E1F0E4E6E40EC0CF0E5
:100FF8001200506E60EF08F08B948B96505050247E
:101008007E0B326E4EC031F0336A010E346E6FEFD4
:1010180008F032BE12EF08F016EF08F04F6A4F2AB8
:1010280017EF08F04F6A4F468B504F18FD0B4F18BB
:101038008B6E8B84D8903236050E5BEC0CF08B945B
:10104800050E5BEC0CF0332A080E3318D8A42FEFEA
:1010580008F031EF08F06FEF08F0336A020E346ED3
:101068006FEF08F031BE3BEF08F03FEF08F04F6A32
:101078004F2A40EF08F04F6A4F468B504F18FD0B30
:101088004F188B6E8B84D8903136050E5BEC0CF0C4
:101098008B94050E5BEC0CF0332A080E3318D8A499
:1010A80058EF08F05AEF08F06FEF08F08B868B8442
:1010B800346A010E70EF08F03450000AD8B400EF1B
:1010C80008F0010AD8B40DEF08F0030AD8B436EFD7
:1010D80008F06FEF08F0000E1200000E546E000EBC
:1010E800536E4C0ED2EC0CF05350300FD2EC0CF087
:1010F800EA0E4D6E1F0E4E6E40EC0CF04F5053240E
:10110800D96EDA6ADF50526E090E52648EEF08F01B
:1011180090EF08F098EF08F0370E5224506E516A9D
:10112800000E51229EEF08F0300E5224506E516A84
:10113800000E51225050D2EC0CF054BEAFEF08F024
:10114800545007E1050E535CD8B0ADEF08F0AFEF8F
:1011580008F0B5EF08F0F90E4D6E1F0E4E6E40EC1C
:101168000CF0534A542A54BEC3EF08F0545009E116
:10117800060E535CD8A0C3EF08F0C5EF08F075EF72
:1011880008F0C50E4D6E1F0E4E6E40EC0CF01200AE
:10119800556E555055247E0B566E8B948B96080EC3
:1011A800576E56BEDAEF08F0DEEF08F0546A542A9C
:1011B800DFEF08F0546A54468B505418FD0B54184E
:1011C8008B6E8B84D8905636050E5BEC0CF08B94A6
:1011D800050E5BEC0CF057065750D8A4F6EF08F054
:1011E800F8EF08F0D5EF08F0080E576E53BEFFEF82
:1011F80008F003EF09F0546A542A04EF09F0546A1E
:1012080054468B505418FD0B54188B6E8B84D89011
:101218005336050E5BEC0CF08B94050E5BEC0CF072
:1012280057065750D8A41BEF09F01DEF09F0FAEF45
:1012380008F08B868B8412004F6E4F504F247E0B24
:101248008009506E516A8B948B96080E526E50BE70
:1012580030EF09F034EF09F04E6A4E2A35EF09F005
:101268004E6A4E468B504E18FD0B4E188B6E8B8473
:10127800050E5BEC0CF0D89050368B94050E5BECA9
:101288000CF052065250D8A44CEF09F04EEF09F07A
:101298002BEF09F0080E526E8B84050E5BEC0CF0F8
:1012A800D890513682B05BEF09F05EEF09F0010E7D
:1012B8005FEF09F0000E51128B94050E5BEC0CF0F9
:1012C80052065250D8A46BEF09F06DEF09F050EFB9
:1012D80009F08B868B8451501200000E526E000E5E
:1012E800516EED0E4D6E1F0E4E6E40EC0CF05150CF
:1012F800310FD2EC0CF0DA0E4D6E1F0E4E6E40EC34
:101308000CF0000E506E000E4F6E5150060DF3504B
:10131800C00F4F24D96EDA6ADF50300FD2EC0CF0D0
:10132800FB0E4D6E1F0E4E6E40EC0CF04F4A502ACD
:1013380050BEA8EF09F0505009E1060E4F5CD8A046
:10134800A8EF09F0AAEF09F089EF09F0C50E4D6E74
:101358001F0E4E6E40EC0CF0514A522A52BEBEEFA0
:1013680009F0525009E1040E515CD8A0BEEF09F013
:10137800C0EF09F075EF09F012004A6E9690969248
:10138800939A93988A968A948A828A824AB6CFEFE9
:1013980009F0D3EF09F0496A492AD4EF09F0496AFC
:1013A8008D504918FE0B49188D6E4AB4DEEF09F0CE
:1013B800E2EF09F0496A492AE3EF09F0496A494628
:1013C8008D504918FD0B49188D6E4AB2EEEF09F0A1
:1013D800F2EF09F0496A492AF3EF09F0496A493AF4
:1013E80049468A504918DF0B49188A6E4AB0FFEF00
:1013F80009F003EF0AF0496A492A04EF0AF0496A3A
:10140800493A8A504918EF0B49188A6E8A92120095
:101418004A6E4AB612EF0AF016EF0AF0496A492AEC
:1014280017EF0AF0496A8D504918FE0B49188D6E5E
:101438004AB421EF0AF025EF0AF0496A492A26EF53
:101448000AF0496A49468D504918FD0B49188D6EB6
:101458004AB231EF0AF035EF0AF0496A492A36EF05
:101468000AF0496A493A49468A504918DF0B49182F
:101478008A6E4AB042EF0AF046EF0AF0496A492AF2
:1014880047EF0AF0496A493A8A504918EF0B491858
:101498008A6E12004A6E4ABE54EF0AF058EF0AF0FC
:1014A800496A492A59EF0AF0496A8D504918FE0BD2
:1014B80049188D6E4ABC63EF0AF067EF0AF0496A73
:1014C800492A68EF0AF0496A49468D504918FD0BC8
:1014D80049188D6E4ABA73EF0AF077EF0AF0496A35
:1014E800492A78EF0AF0496A493A49468A50491820
:1014F800DF0B49188A6E4AB884EF0AF088EF0AF0C1
:10150800496A492A89EF0AF0496A493A8A504918CA
:10151800EF0B49188A6E1200420EF66E160EF76E21
:10152800000EF86E00EE80F010EE58F00900F5CFCE
:10153800EEFFE550E150FAE1CE0EF66E1A0EF76EA8
:10154800000EF86E00EE66F010EE08F00900F5CF18
:10155800EEFFE550E150FAE100EED8F0140EEE6A25
:10156800E806FDE100EE01F0470EEE6AE806FDE14F
:101578006E906E92000EF86E000109EF0CF0B60E38
:101588004D6E1F0E4E6E40EC0CF0C80E4D6E1F0EC9
:101598004E6E40EC0CF0B60E4D6E1F0E4E6E40ECCB
:1015A8000CF0A30E4D6E1F0E4E6E40EC0CF0720E3A
:1015B8004D6E1F0E4E6E40EC0CF0550E4D6E1F0E0C
:1015C8004E6E40EC0CF0F20E4D6E1E0E4E6E40EC60
:1015D8000CF0E40E4D6E1F0E4E6E40EC0CF0120037
:1015E8004050D8A4FAEF0AF0FCEF0AF01FEF0BF016
:1015F8004150D8A402EF0BF004EF0BF01FEF0BF0F3
:101608004250D8A40AEF0BF00CEF0BF01FEF0BF0D1
:101618004350D8A412EF0BF014EF0BF01FEF0BF0B0
:101628004450D8A41AEF0BF01CEF0BF01FEF0BF08F
:10163800000E20EF0BF0400E120065DCF9034300AA
:1016480000000000000000000000DC0DF9032B0082
:1016580000000000000000000000DF8BDFC44F0026
:10166800000000000000000000002132A9893300BA
:10167800000000000000000000000101010101015C
:101688000101010101010101010101010101010142
:1016980001014B6A5CEF0BF04B2A040E4B18D8A4DF
:1016A80058EF0BF05AEF0BF05CEF0BF077EF0BF005
:1016B8004B50050DF350DC0FD96EDA6ADE04D8B44E
:1016C80068EF0BF06AEF0BF050EF0BF04B50050D85
:1016D800F350DC0FD96EDA6A010EDF6E4950D96E0D
:1016E800DA6A4BC0DFFF12008B868B88A9EC0CF0FE
:1016F8008D0E536E2A0ECCEC08F03E0E536E2B0E58
:10170800CCEC08F01E0E536E2D0ECCEC08F0000E3B
:10171800536E2C0ECCEC08F0400E536E150ECCEC2C
:1017280008F03D0E536E110ECCEC08F051EC0DF0A4
:101738004BEC0DF01200556EF29E07C051F008C038
:1017480052F009C053F00AC054F0F28E5550050DFE
:10175800F350D80FD96EDA6ADECF4DF0DECF4EF0F7
:10176800DECF4FF0DECF50F04D50515C496E4E50F9
:1017780052584A6E4F5053584B6E505054584C6EF6
:1017880012005D6E5DC040F059C041F05AC042F091
:101798005BC043F05CC044F0010E186E8D0E4D6EB8
:1017A8001F0E4E6E40EC0CF0400E4F6E85EC07F0AD
:1017B800A10E4D6E1F0E4E6E40EC0CF00D50060D36
:1017C800F350C00F4F6E71EC08F012005650C0EC89
:1017D8000CF058C05AF059C05BF0000E5BBEFF0E0B
:1017E8005C6E5D6E56509FEC0BF05A50495C5B5036
:1017F8004A585C504B585D504C58D8A006EF0CF036
:1018080008EF0CF0EDEF0BF0120076EC0CF008ECA2
:101818000DF05DEC0DF03CEC0DF06FEC0DF044ECD0
:101828000DF0100E5E6E020E09EC07F0F28EF29CBF
:10183800AEEC05F015EC00F08D741CEF0CF013EF16
:1018480000F04950D96EDA6ADF50666E4950D96E99
:10185800DA6A010ED926DF50676E4950D96EDA6A06
:10186800020ED926DF50686E4950D96EDA6A030E27
:10187800D926DF50696E12004CEF0CF04DC0F6FF10
:101888004EC0F7FF0800F550D2EC0CF04D4A4E2A36
:101898004DC0F6FF4EC0F7FF0800F5500009D8A468
:1018A80058EF0CF05AEF0CF042EF0CF012004C6EAF
:1018B8004D6A61EF0CF000004D2A4C50100D4D5050
:1018C800496E4A6AF350495C4A50800A4B6EF4509C
:1018D800800A4B58D8A073EF0CF075EF0CF05FEF4F
:1018E8000CF01200496A4950050DF350DC0FD96E0F
:1018F800DA6ADF6A492A030E496485EF0CF087EF3C
:101908000CF077EF0CF0820ED56EF60ED76E3C0E0B
:10191800D66EF294F28A12004B6E96909692939A33
:1019280093988A968A948A824B504EEC0AF08A825F
:101938008A928A928A824B500CEC0AF08A828A92A6
:1019480096809682938A9388120062EC0DF08B88B9
:10195800010E5BEC0CF08B98010E5BEC0CF08B88A5
:10196800010E5BEC0CF00F0E536E010ECCEC08F080
:10197800010E5BEC0CF01200496EF29E4950050D09
:10198800F350D80FD96EDA6A07C0DEFF08C0DEFF51
:1019980009C0DEFF0AC0DEFFF28E12004C6EE1ECD9
:1019A8000CF049504A10D8B4DCEF0CF0DEEF0CF024
:1019B800D3EF0CF04CC0ADFF12009EB8E6EF0CF070
:1019C800EAEF0CF04B6A4B2AEBEF0CF04B6A4B50EA
:1019D800496E4A6A12005A6E5850FF0A596E5A5098
:1019E80020EC09F05914536E5A50CCEC08F0120050
:1019F800F60ED76E3C0ED66EF294010E0726000E38
:101A0800082209220A2212006BEC0DF0396A386AA2
:101A1800376A366A470E496E4DEC0BF01200F2A495
:101A280018EF0DF01AEF0DF01CEF0DF0FCEC0CF0B8
:101A38006E9211009EBA23EF0DF026EF0DF0010E05
:101A480027EF0DF0000E1200596E595020EC09F0E6
:101A58005810536E5950CCEC08F0120046C056F09E
:101A6800576A000E596E020E586EEAEC0BF012001F
:101A7800240EAC6E900EAB6EAF68B86A1C6A12008A
:101A8800926A966A450E496E4DEC0BF01200030EF1
:101A9800586E140E28EC0DF01200030E586E140E3A
:101AA800EFEC0CF01200948094929494949694988D
:101AB800120057EC0DF078EC0BF01200356A346A1E
:101AC8008B868B84120030303030303030300F0E3F
:101AD800956E8C6A12000F0EC16E96941200AE506D
:021AE8001200EA
:101EC400000102030405060708090A000B455252E3
:101ED4004F522E2056616C6F7220696E74726F645B
:101EE400756974206572726F6E692E0D0A0009336C
:101EF4002E204D6F6469666963617220686F726138
:101F04002064656C2073697374656D610D0A000D3E
:101F14000A486F726120696E74726F6475696461D6
:101F240020636F7272656374616D656E740D0A006F
:101F3400496E74726F64756365206C6120686F729A
:101F4400612061637475616C2848484D4D293A20BD
:101F54000009322E204D6F737472617220636F6EAC
:101F640066696775726163696F6E730D0A00093182
:101F74002E205175692068692068612061206C6198
:101F84002073616C613F0D0A00546172676574616E
:101F940020646574656374616461210D0A090054E9
:101FA40072696120756E61206F706369C3B33A0D05
:101FB4000A002D2D2D2D2D2D2D2D2D2D2D2D2D2D9D
:101FC4002D0D0A004D656EC3BA207072696E636987
:101FD40070616C0D0A0020436F6E6669673A2000D9
:101FE4004F706369C3B33A2000557365722000557E
:0C1FF40049443A2000202D20002D000060
:020000040020DA
:08000000FFFFFFFFFFFFFFFF00
:020000040030CA
:0E000000FF06191EFF8181FF03C003E00340CD
:00000001FF
