:020000040000FA
:0400000013EF00F00A
:060008007A826CEF09F0A2
:100018007A80E0CF01F001C0E0FF7A90100015EF80
:1000280009F08AEF02F0070E0C6E0D0E68EC06F070
:10003800260E6C6E010E726E95EF02F0770E716EE1
:10004800300E706EF70E0C6E020E68EC06F0020EA3
:10005800726E95EF02F0800E116E040E48EC09F0F6
:10006800030E726E95EF02F0800E116E0A0E81EC8F
:1000780009F0040E726E95EF02F0000E0C6E010E80
:1000880068EC06F0050E726E95EF02F06CC00CF08D
:10009800090E68EC06F0060E726E95EF02F00C0E73
:1000A8000C6E010E68EC06F0070E726E95EF02F00A
:1000B800800E116E0D0E81EC09F06E68080E726EDE
:1000C80095EF02F0040EBCEC06F06F6E6FB06FEFA8
:1000D80000F071EF00F07EEF00F06F50701400092F
:1000E800D8A479EF00F07BEF00F07EEF00F06E2EE1
:1000F80095EF02F0090E726E95EF02F0800E116E08
:100108000D0E48EC09F00A0E726E95EF02F06E5073
:10011800D8B491EF00F093EF00F0DDEF00F0060E99
:10012800BCEC06F04D6E1B0E4D16D8A49EEF00F0E9
:10013800A0EF00F0DDEF00F00A0EBCEC06F0516E07
:100148000C0EBCEC06F0070B526E5250D8B4AFEF51
:1001580000F0B1EF00F0C9EF00F0525051C04DF07F
:100168004E6AD8904D364E36D8904D364E36D89089
:100178004D364E364D26000E4E22F80E4D244F6E4B
:10018800FF0E4E20506ECFEF00F05150080DF3CF08
:100198004FF0F4CF50F0100E4F185010D8A4D7EFEE
:1001A80000F0D9EF00F0DDEF00F00B0E726E95EF66
:1001B80002F00C0E726E95EF02F0010E736E726A09
:1001C80095EF02F0736A726A95EF02F07250000AB6
:1001D800D8B417EF00F0010AD8B422EF00F0030AF0
:1001E800D8B42FEF00F0010AD8B438EF00F0070AAE
:1001F800D8B441EF00F0010AD8B44AEF00F0030A7E
:10020800D8B453EF00F0010AD8B45CEF00F00F0A3D
:10021800D8B466EF00F0010AD8B482EF00F0030A00
:10022800D8B48BEF00F0010AD8B4E1EF00F0070A68
:10023800D8B4E6EF00F095EF02F0000E0C6E0D0E4C
:1002480068EC06F0930E536E200E546E1EEF00F00D
:10025800080E116E080E48EC09F02BEF00F0770E2F
:10026800716E300E706EF70E0C6E020E68EC06F0B2
:1002780034EF00F0800E116E040E48EC09F03DEFEB
:1002880000F0800E116E0A0E81EC09F046EF00F0C6
:10029800000E0C6E010E68EC06F04FEF00F053C034
:1002A8000CF0090E68EC06F054C00CF0090E68EC6E
:1002B80006F058EF00F00C0E0C6E010E68EC06F01C
:1002C80062EF00F0800E116E0D0E81EC09F06E6881
:1002D8007EEF00F0040EBCEC06F06F6E6FB077EFA7
:1002E80001F079EF01F087EF00F06F50701400090A
:1002F800D8A481EF01F083EF01F087EF00F06E2EB4
:1003080095EF02F087EF00F0800E116E0D0E48ECAD
:1003180009F0D9EF00F06E50D8B495EF01F097EFDF
:1003280001F0E6EF00F0060EBCEC06F04D6E1B0E79
:100338004D16D8A4A2EF01F0A4EF01F0E6EF00F00B
:10034800090EBCEC06F0536E090EBCEC06F0546EB8
:10035800DDEF00F0090EBCEC06F0556E090EBCECA2
:1003680006F0566E0D0E726E95EF02F0090EBCEC9B
:1003780006F0576E586A0E0E726E95EF02F05450E2
:100388005518561853186B6E010E6A6E0F0E726E62
:1003980095EF02F05350D8A4D4EF01F0D6EF01F056
:1003A800DEEF01F05450D8B4DCEF01F0DEEF01F0DD
:1003B800DFEF01F06A6A100E726E95EF02F0555089
:1003C800D8A4E9EF01F0EBEF01F0F3EF01F056509C
:1003D800D8B4F1EF01F0F3EF01F0F4EF01F06A6A3D
:1003E800110E726E95EF02F06B505718D8A4FFEFFC
:1003F80001F001EF02F0E6EF00F06A50D8B407EF21
:1004080002F009EF02F00BEF02F0E6EF00F0120E37
:10041800726E95EF02F0940E346E4C0E356E1F0E10
:10042800366E53C037F0386A54C039F03A6A55C04E
:100438003BF03C6A56C03DF03E6A57C03FF0406A08
:1004480097EC08F0940E056E066A52EC07F0130E4E
:10045800726E95EF02F0000E0C6E0D0E68EC06F051
:10046800736AE3EF00F07250000AD8B421EF01F08C
:10047800010AD8B42CEF01F0030AD8B433EF01F025
:10048800010AD8B43EEF01F0070AD8B445EF01F0ED
:10049800010AD8B44CEF01F0030AD8B453EF01F0C5
:1004A800010AD8B45FEF01F00F0AD8B466EF01F083
:1004B800010AD8B46EEF01F0030AD8B488EF01F04E
:1004C800010AD8B48FEF01F0070AD8B4AEEF01F0F3
:1004D800010AD8B4BAEF01F0030AD8B4C3EF01F0A7
:1004E800010AD8B4CEEF01F01F0AD8B4E3EF01F047
:1004F800010AD8B4F8EF01F0030AD8B40FEF02F0FC
:10050800010AD8B42FEF02F095EF02F07350000AF9
:10051800D8B4EAEF00F0010AD8B437EF02F095EF4B
:1005280002F0120092EF03F0B9EC09F0776E775001
:10053800D8A4A1EF02F0A3EF02F0ABEF02F0010E96
:10054800766E35EC08F0010E746EADEF03F077505F
:10055800D8B4B1EF02F0B3EF02F0ADEF03F0795089
:1005680028EC09F0030E746EADEF03F0B9EC09F056
:10057800776E7750D8A4C3EF02F0C5EF02F0CDEF45
:1005880002F0020E766E35EC08F0020E746EADEFD6
:1005980003F07750D8B4D3EF02F0D5EF02F0ADEF07
:1005A80003F0795028EC09F0B6EF02F0B9EC09F045
:1005B800776E7750D8B4E3EF02F0E5EF02F0EAEF98
:1005C80002F0795028EC09F0B6EF02F07750D8A481
:1005D800F0EF02F0F2EF02F0ADEF03F0040E766EEA
:1005E80035EC08F0746AADEF03F05BEC05F0756E5E
:1005F800B9EC09F0776E7750D8A405EF03F007EF50
:1006080003F009EF03F0F2EF02F07750D8B40FEFE0
:1006180003F011EF03F02EEF03F079500FEC08F020
:1006280005500410031009E1090E025CD8A01FEF61
:1006380003F021EF03F02EEF03F00B0E7518D8B47A
:1006480028EF03F02AEF03F02EEF03F0050E746E87
:10065800ADEF03F07750D8B434EF03F036EF03F082
:10066800ADEF03F079500FEC08F0055004100310BB
:1006780009E1090E025CD8A044EF03F046EF03F04D
:10068800ADEF03F00B0E7518D8A44DEF03F04FEF44
:1006980003F0ADEF03F0795028EC09F0040E746E06
:1006A800ADEF03F0B9EC09F0776E7750D8A45FEF9F
:1006B80003F061EF03F063EF03F0F6EF02F0775019
:1006C800D8B469EF03F06BEF03F0ADEF03F07950A6
:1006D8000FEC08F0055004100BE1DD0E025C050E6E
:1006E8000358D8A07AEF03F07CEF03F0ADEF03F0E6
:1006F800B6EC09F02AEF03F0B9EC09F0776E775001
:10070800D8A489EF03F08BEF03F0ADEF03F0746A20
:10071800040E766E35EC08F0ADEF03F07450000A65
:10072800D8B498EF02F0010AD8B4BAEF02F0030A7D
:10073800D8B4DAEF02F0010AD8B4F9EF02F0070AE8
:10074800D8B456EF03F0010AD8B480EF03F0ADEF48
:1007580003F012002350D96EDA6ADECFF6FFDDCF40
:10076800F7FF0800F550250AD8A4BDEF03F0BFEF46
:1007780003F058EF04F02350D96EDA6ADE2A000E2F
:10078800DD22000E5E6E000E5D6E5DC063F05F6878
:1007980060682B6AECEF03F063822350D96EDA6A43
:1007A800DE2A000EDD22ECEF03F0010E2B6EECEFDB
:1007B80003F02350D96EDA6ADECFF6FFDDCFF7FFFC
:1007C8000800F550300AD8B4D0EF03F0D9EF03F0A1
:1007D8002B50D8B4F2EF03F0F4EF03F0DDEF03F0A1
:1007E80023C002F024C003F0BDEC05F002C05DF0A8
:1007F80003C05EF05EBE05EF04F003EF04F00AEFFD
:1008080004F063805D6C5E1ED8B05E2A2350D96EFA
:10081800DA6ADECF2CF0DDCF2DF02CC0F6FF2DC02C
:10082800F7FF0800F550580AD8A41DEF04F01FEF91
:1008380004F050EF04F02450D96EDA6A020EDF2675
:10084800DF5CD96EDA6ADECF27F0DECF28F0010E42
:100858002C24256E000E2D20266E2350D96EDA6AC0
:1008680025C0DEFF26C0DDFF44EF04F022C016F0ED
:1008780027C017F028C018F06AEC04F069EF04F0FC
:100888002CC0F6FF2DC0F7FF0800F550580AD8B461
:100898003AEF04F050EF04F02350D96EDA6ADE2AFA
:1008A800000EDD2269EF04F02350D96EDA6ADECF3C
:1008B800F6FFDDCFF7FF0800F550026E036A22C08D
:1008C80004F013EC06F050EF04F01200010E1C6E59
:1008D8005DC01DF05EC01EF0000E216E1F0E206E62
:1008E8000001E56BA6EF04F02006D8A021061750FA
:1008F8000F0B1F6E0A0E1F6084EF04F086EF04F0E2
:100908008AEF04F0300E1F268CEF04F0370E1F26F6
:100918002050C60FD96EDA6A1FC0DFFF1C6A1D0699
:10092800D8A01E0617C019F018C01AF0040E1B6EC6
:10093800D8901A3219321B2E9CEF04F019C017F008
:100948001AC018F021BEB2EF04F0215009E1020EDE
:10095800205CD8A0B2EF04F0B4EF04F0D9EF04F0B3
:1009680017501810D8A4BBEF04F0BDEF04F078EFCF
:1009780004F01C50D8A4C3EF04F0C5EF04F078EFDE
:1009880004F01EBED0EF04F01E5008E11D04D8A0EC
:10099800D0EF04F0D2EF04F0D9EF04F063B2D7EF50
:1009A80004F0D9EF04F078EF04F016C00FF02050EF
:1009B800C60F106E1DC011F01EC012F00DEC07F02E
:1009C80012004FEF05F0BCEC09F01B0AD8A4EFEFBA
:1009D80004F0F1EF04F0F5EF04F08CEC07F0010EF1
:1009E800646E6504D8A4FBEF04F0FDEF04F05AEF41
:1009F80005F08CEC07F0010E646E656A5AEF05F09D
:100A080077EC09F0E806D8A40CEF05F00EEF05F036
:100A18005AEF05F061EC09F0BCEC09F0310AD8A4F2
:100A280018EF05F01AEF05F023EF05F0BA0E056E82
:100A38001F0E066E52EC07F0646A5AEF05F0BCEC24
:100A480009F0320AD8A42BEF05F02DEF05F035EFA9
:100A580005F0CA0E056E1F0E066E52EC07F020EF69
:100A680005F0BCEC09F0330AD8A43DEF05F03FEFE0
:100A780005F047EF05F0DA0E056E1F0E066E52EC14
:100A880007F020EF05F0ED0E056E1E0E066E52EC17
:100A980007F020EF05F06450000AD8B4E7EF04F03F
:100AA800010AD8B404EF05F05AEF05F01200106AF5
:100AB80070EF05F0116A8EEF05F0010E116E8EEFE2
:100AC80005F0020E116E8EEF05F0030E116E8EEF1B
:100AD80005F0FF0EBCEF05F07750010AD8B45EEFC1
:100AE80005F0030AD8B461EF05F0060AD8B465EF3B
:100AF80005F00C0AD8B469EF05F06DEF05F0106A3F
:100B0800A8EF05F0010E106EA8EF05F0020E106EAA
:100B1800A8EF05F07650070B026E036A0350000A2F
:100B2800D8B499EF05F06DEF05F00250010AD8B47A
:100B380083EF05F0030AD8B486EF05F0060AD8B4A7
:100B48008AEF05F06DEF05F0E10EF66E1E0EF76EFA
:100B580020EE04F00B0E0900F5CFDEFFE806FBE2FD
:100B68001150030DF350040F1024D96EDA6ADF50C8
:100B78001200000E086E000E076E0250D96EDA6A77
:100B8800DECFF6FFDDCFF7FF0800F5502A0AD8A41C
:100B9800D0EF05F0D2EF05F0FBEF05F00250D96E6B
:100BA800DA6ADE2A000EDD220350D96EDA6A020EF6
:100BB800DF26DF5CD96EDA6ADECF07F0DECF08F019
:100BC8000EEF06F00A0E0702F3CF04F0F4CF05F09B
:100BD8000802F350052606500424076E000E05206F
:100BE800086E0250D96EDA6ADE2A000EDD22025043
:100BF800D96EDA6ADECFF6FFDDCFF7FF0800F550D1
:100C0800D00F066E090E06640CEF06F00EEF06F024
:100C1800E6EF05F007C002F008C003F01200045028
:100C2800D8B419EF06F01BEF06F023EF06F00450D6
:100C3800D8A421EF06F023EF06F028EF06F00250C3
:100C4800BEEC09F067EF06F00450D96EDA6A090EB7
:100C5800D926DE50DE10D8B434EF06F036EF06F0B1
:100C68004FEF06F00450D96EDA6A090ED9260450FF
:100C7800E16EE26A020EE126DE50E65CE650800A8A
:100C8800096EDE50800A0958D8B04DEF06F04FEFD4
:100C980006F067EF06F00450D96EDA6A020ED9261C
:100CA800DF50056E0450D96EDA6ADF500524D96E1C
:100CB800DA6A02C0DFFF0450D96EDA6A020ED9265A
:100CC800DE2A000EDD2212000E6E0E500E247E0B60
:100CD8000F6E8B948B96080E106E0FBE76EF06F093
:100CE8007AEF06F00D6A0D2A7BEF06F00D6A0D46C5
:100CF8008B500D18FD0B0D188B6E8B84D8900F360A
:100D0800050EB3EC08F08B94050EB3EC08F0100652
:100D18001050D8A492EF06F094EF06F071EF06F0A9
:100D2800080E106E0CBE9BEF06F09FEF06F00D6AE2
:100D38000D2AA0EF06F00D6A0D468B500D18FD0B1D
:100D48000D188B6E8B84D8900C36050EB3EC08F01A
:100D58008B94050EB3EC08F010061050D8A4B7EF2A
:100D680006F0B9EF06F096EF06F08B868B8412003A
:100D7800086E085008247E0B8009096E0A6A8B9455
:100D88008B96080E0B6E09BECCEF06F0D0EF06F07E
:100D9800076A072AD1EF06F0076A07468B5007183B
:100DA800FD0B07188B6E8B84050EB3EC08F0D890FA
:100DB80009368B94050EB3EC08F00B060B50D8A43B
:100DC800E8EF06F0EAEF06F0C7EF06F0080E0B6E44
:100DD8008B84050EB3EC08F0D8900A3682B0F7EF92
:100DE80006F0FAEF06F0010EFBEF06F0000E0A120D
:100DF8008B94050EB3EC08F00B060B50D8A407EF44
:100E080007F009EF07F0ECEF06F08B868B840A50A9
:100E1800120063A012EF07F014EF07F01AEF07F0C3
:100E280010C00AF00FC00BF079EC08F012BE21EFE9
:100E380007F01FEF07F025EF07F0000E126E000E07
:100E4800116E000E156E000E146E35EF07F0000ED1
:100E5800036E200E026E0FC004F013EC06F0144A65
:100E6800152A1150145C1550800A136E1250800A0E
:100E78001358D8A042EF07F044EF07F02BEF07F024
:100E880063B049EF07F04BEF07F051EF07F010C0E0
:100E98000AF00FC00BF079EC08F0120073EF07F0BE
:100EA8003AEC09F002500310D8B45DEF07F05FEF99
:100EB80007F054EF07F005C0F6FF06C0F7FFF86A21
:100EC800010EF76403D00800F55005D0F6CFE9FF0E
:100ED800F7CFEAFFEF50AAEC09F0054A062A05C049
:100EE800F6FF06C0F7FFF86A010EF76403D00800A2
:100EF800F55005D0F6CFE9FFF7CFEAFFEF5000092C
:100F0800D8A489EF07F08BEF07F054EF07F0120031
:100F1800960E056E1F0E066E52EC07F0A80E056EB3
:100F28001F0E066E52EC07F0960E056E1F0E066E2B
:100F380052EC07F0830E056E1F0E066E52EC07F09A
:100F4800680E056E1F0E066E52EC07F02F0E056E2A
:100F58001F0E066E52EC07F00E0E056E1F0E066E83
:100F680052EC07F0EA0E056E1F0E066E52EC07F003
:100F78001200046ACCEF07F0042A040E0418D8A45F
:100F8800C8EF07F0CAEF07F0CCEF07F0E7EF07F07C
:100F98000450050DF350840FD96EDA6ADE04D8B414
:100FA800D8EF07F0DAEF07F0C0EF07F00450050DAF
:100FB800F350840FD96EDA6A010EDF6E0250D96ED3
:100FC800DA6A04C0DFFF12008B868B8800EC09F018
:100FD8008D0E0C6E2A0E68EC06F03E0E0C6E2B0E73
:100FE80068EC06F01E0E0C6E2D0E68EC06F0000E76
:100FF8000C6E2C0E68EC06F0400E0C6E150E68ECAC
:1010080006F03D0E0C6E110E68EC06F099EC09F036
:1010180093EC09F012000E6EF29E59C00AF05AC005
:101028000BF05BC00CF05CC00DF0F28E0E50050D9D
:10103800F350800FD96EDA6ADECF06F0DECF07F004
:10104800DECF08F0DECF09F006500A5C026E0750CA
:101058000B58036E08500C58046E09500D58056E55
:1010680012008C6A7604D8A43CEF08F03EEF08F032
:1010780041EF08F08C8A57EF08F0020E7618D8A4D2
:1010880048EF08F04AEF08F04DEF08F08C8C57EF66
:1010980008F0040E7618D8A454EF08F056EF08F0BC
:1010A80057EF08F08C8812002FC032F030C033F0B0
:1010B80066EF08F02EC022F0320E236E31C024F005
:1010C800AEEC03F032C0F6FF33C0F7FF0800F5506E
:1010D8000009D8A472EF08F074EF08F05EEF08F08A
:1010E800000E2F6E000E2E6E1200000E0E6E000EF9
:1010F8000D6E88EF08F00CC002F0036A0BC004F014
:1011080013EC06F00D4A0E2A0A500D24D96EDA6A3D
:10111800DF500C6E0C50D8A494EF08F096EF08F04E
:101128007FEF08F01200370E416E34C042F0000E17
:10113800456E000E446E000E4C6E000E4B6E420E55
:101148002E6E35C02FF036C030F0410E316E58EC9F
:1011580008F034504424D96EDA6ADF6A1200056E4A
:10116800066AB9EF08F00000062A0550100D06506F
:10117800026E036AF350025C0350800A046EF45056
:10118800800A0458D8A0CBEF08F0CDEF08F0B7EFED
:1011980008F01200026A0250050DF350840FD96E50
:1011A800DA6ADF6A022A030E0264DDEF08F0DFEF75
:1011B80008F0CFEF08F0820ED56EF60ED76E3C0E13
:1011C800D66EF294F28A1200CEEC08F061EC09F0C7
:1011D800A5EC09F08BEC09F0B2EC09F0F28EF28C78
:1011E800896A96EC02F0E5EC04F015EC00F08968E9
:1011F800F4EF08F013EF00F08B88010EB3EC08F061
:101208008B98010EB3EC08F08B88010EB3EC08F054
:101218000F0E0C6E010E68EC06F0010EB3EC08F030
:10122800120000EE80F0660EEE6AE806FDE100EEC0
:1012380053F0270EEE6AE806FDE17A907A92000EE6
:10124800F86E0001E8EF08F0026EF29E0250050DFC
:10125800F350800FD96EDA6A59C0DEFF5AC0DEFF3C
:101268005BC0DEFF5CC0DEFFF28E12009EB83FEF6F
:1012780009F043EF09F0046A042A44EF09F0046A0C
:101288000450026E036A1200136E1150FF0A126EA8
:101298001350BCEC06F012140C6E135068EC06F0F8
:1012A8001200F60ED76E3C0ED66EF294010E592639
:1012B800000E5A225B225C221200AEEC09F0776A1B
:1012C800766A756A746A790E026EBDEC07F01200D0
:1012D800F2A471EF09F073EF09F075EF09F055EC1E
:1012E80009F07A9211009EBA7CEF09F07FEF09F0BD
:1012F800010E80EF09F0000E1200126E1250BCECC5
:1013080006F011100C6E125068EC06F01200240E54
:10131800AC6E900EAB6EAF68B86A656A1200030EC9
:10132800116E140E81EC09F01200030E116E140EEA
:1013380048EC09F0120094809492949494969498AE
:1013480012009FEC09F0E8EC07F01200026E02C0F0
:10135800ADFF12000F0E956E8C6A12000F0EC16E53
:10136800926A1200010E656E120083500F0B120074
:06137800AE50120012004D
:101EE000000102030405060708090A000B455252C7
:101EF0004F522E2056616C6F7220696E74726F643F
:101F0000756974206572726F6E692E0D0A0009334F
:101F10002E204D6F6469666963617220686F72611B
:101F20002064656C2073697374656D610D0A000926
:101F3000322E204D6F737472617220636F6E66690A
:101F40006775726163696F6E730D0A005549443A93
:101F5000202530325825303258253032582530323D
:101F600058253032580D0A0009312E20517569204C
:101F700068692068612061206C612073616C613F39
:101F80000D0A005472696120756E61206F7063697B
:101F9000C3B33A0D0A002D2D2D2D2D2D2D2D2D2DB8
:101FA0002D2D2D2D2D0D0A004D656EC3BA2070729A
:101FB000696E636970616C0D0A0048617320707509
:101FC0006C7361646F20310D0A0048617320707575
:101FD0006C7361646F20320D0A0048617320707564
:101FE0006C7361646F20330D0A004F706369C3B373
:0F1FF0003A20005549443A20002530325800006D
:020000040020DA
:08000000FFFFFFFFFFFFFFFF00
:020000040030CA
:0E000000FF06191EFF0181FF03C003E003404D
:00000001FF
