:020000040000FA
:0400000013EF00F00A
:060008007D8284EF0DF083
:100018007D80E0CF55F055C0E0FF7D901000C5EF22
:1000280009F02904D8A40CD0285035EC08F0756ED6
:10003800FE0E7518D8B4120075C030F0296A120087
:10004800020E2918D8A40BD027C05DF028506EECFA
:100058000AF0756E7550D8B41200296A12002A5039
:100068003A18D8B408D03AC02AF03A04D8A403D031
:10007800000EE5EC0CF03A50D8A4FBD2000EE4ECEC
:100088000BF05950581006E1F50E565C010E575802
:10009800D8A0EFD2010E2C6E000EE5EC0CF0E9D2E0
:1000A8000D0E286E070E276E020E296E010E396E90
:1000B8001200260E336E770E386E300E376E020E33
:1000C800286E38508009276E020E296E020E396E8E
:1000D8001200040E286E010E296E030E396E1200EE
:1000E8003028D8A402D0396A1200020E286E305087
:1000F8007F0B276E020E296E040E396E12000A0E4F
:10010800286E010E296E050E396E12003028D8B4FB
:10011800EAD70A0E286E30508009276E020E296E23
:10012800060E396E1200010E286E276A020E296E1D
:10013800070E396E1200090E286E33C027F0020E22
:10014800296E080E396E1200010E286E0C0E276EED
:10015800020E296E090E396E12000D0E286E010E60
:10016800296E0A0E396E12003028D8B4BCD70D0E8D
:10017800286E30508009276E020E296E0B0E396EDC
:1001880012003568040E286E010E296E0C0E396EA9
:1001980012003028D8B4A7D730C036F036B007D010
:1001A800365037140009D8A402D0352E07D00D0ECA
:1001B800286E010E296E0D0E396E1200040E286E7F
:1001C800010E296E12003028D8B48DD73050D8B41B
:1001D8000AD00D0E286E30507F0B276E020E296E46
:1001E8000E0E396E12000D0E286E010E296E1200C9
:1001F800060E286E010E296E0F0E396E1200302879
:10020800D8B471D73550D8B40DD030C071F01B0EAA
:100218007116D8A407D00A0E286E010E296E100E8A
:10022800396E1200396A3A6A12003028D8B45BD79E
:1002380030C02EF00C0E286E010E296E110E396E8C
:1002480012003028D8B44FD73050070B2F6E2F50DC
:10025800D8A407D02E50080DF3CF73F0F4CF74F064
:1002680016D02F502EC071F0726AD890713672363F
:10027800D89071367236D890713672367126000E63
:100288007222F80E7124736EFF0E7220746E73C0A2
:100298002DF0100E2D18D8A4C5D7010E3A6E23D70D
:1002A8003950000AD8B4FCD6010AD8B402D7030AD8
:1002B800D8B40FD7010AD8B413D7070AD8B41FD7B0
:1002C800010AD8B423D7030AD8B42DD7010AD8B461
:1002D80032D70F0AD8B438D7010AD8B43ED7030AA0
:1002E800D8B442D7010AD8B44CD7070AD8B451D7E2
:1002F800010AD8B468D7030AD8B47AD7010AD8B49F
:100308007ED71F0AD8B491D7010AD8A4120099D76A
:100318000D0E286E276A020E296E010E396E120024
:10032800930E016E200E026E080E286E010E296EC5
:10033800020E396E12003028D8B474D7080E286E11
:100348003050F70B276E020E296E030E396E12001D
:10035800770E386E300E376E020E286E38508009D0
:10036800C8D6040E286E010E296E050E396E1200CD
:100378003028D8B457D7040E286E30507F0BCDD60E
:100388000A0E286E010E296E070E396E12003028EB
:10039800D8B448D70A0E286E30508009276E020E4E
:1003A800296E080E396E1200010E286E276A020E99
:1003B800296E090E396E1200090E286E01C027F049
:1003C800020E296E0A0E396E1200090E286E02C03E
:1003D80027F0020E296E0B0E396E1200010E286EE0
:1003E8000C0E276E020E296E0C0E396E1200302884
:1003F800D8B418D70D0E286E30508009EED635685F
:10040800040E286E010E296E0F0E396E1200302868
:10041800D8B408D730C036F036B007D036503714C5
:100428000009D8A402D0352EC9D60D0E286E010EAB
:10043800296E100E396E12003028D8B4F3D60D0E7E
:10044800286E30507F0B276E020E296E110E396E02
:100458001200060E286E010E296E120E396E120059
:100468003028D8B4DFD63550D8B4DCD630C071F0D7
:100478001B0E7116D8A4D6D6090E286E010E296E49
:10048800130E396E12003028D8B4CCD630C001F023
:10049800090E286E010E296E140E396E12003028CE
:1004A800D8B4C0D630C002F0090E286E010E296EED
:1004B800150E396E12003028D8B4B4D630C003F007
:1004C800090E286E010E296E160E396E120030289C
:1004D800D8B4A8D630C004F0090E286E010E296ED3
:1004E800170E396E12003028D8B49CD630C005F0EB
:1004F800066A0250031804180118326E02500310DD
:10050800041001100009D8A402D0010E01D0000E79
:10051800316E180E396E120032500518D8A482D6E2
:100528003150D8A47FD6190E396E1200450E566E7A
:10053800FF0E576E37EC0AF097EC0DF0040AD8B4AA
:1005480003D01A0E396E12002C04D8A403D01B0E47
:10055800396E12001C0E396E120001504518D8A4CD
:10056800F6D702504618D8A4F2D703504718D8A493
:10057800EED704504818D8A4EAD705504918D8A48B
:10058800E6D72C04D8A4E6D7040E89EC0DF01C0E8F
:10059800396E2C6A120002C06CF003C06DF004C002
:1005A8006EF005C06FF00150D1EC05F0E806D8A454
:1005B8001200EDD70D0E286E276A020E296E32D66C
:1005C8003950000AD8B4A4D6010AD8B4A9D6030A67
:1005D800D8B4B1D6010AD8B4BBD6070AD8B4C1D6A4
:1005E800010AD8B4C5D6030AD8B4CAD6010AD8B401
:1005F800CED60F0AD8B4D8D6010AD8B4DDD6030AA5
:10060800D8B4E3D6010AD8B4E9D6070AD8B4CFD506
:10061800010AD8B4ECD6030AD8B4F1D6010AD8B482
:10062800F6D61F0AD8B408D7010AD8B412D7030AD5
:10063800D8B416D7010AD8B426D7070AD8B42FD702
:10064800010AD8B438D7030AD8B441D7010AD8B4B4
:100658004AD70F0AD8B460D7010AD8B467D7030AB3
:10066800D8B47BD7010AD8B496D7070AD8A4120001
:10067800A1D73A50000AD8B413D6010AD8A4120058
:100688009FD7000E6A6E010E6B6E5C50D8B406D010
:100698005C50D96EDA6ADF50D8A407D0A00E5A6E23
:1006A8001F0E5B6E15EC0DF012005E505F10D8A4A3
:1006B80010D066D05EC0F6FF5FC0F7FF6AC0D9FFF2
:1006C8006BC0DAFF0800F5CFDFFF5E4A5F2A6A4A8F
:1006D8006B2A5EC0F6FF5FC0F7FF0800F5500009FF
:1006E800D8A4E8D7550E01010019D8A431D0730E4B
:1006F8000119D8A42DD0750E0219D8A429D0610EDD
:100708000319D8A425D0720E0419D8A421D0690ED3
:100718000519D8A41DD0200E0619D8A419D05D50EB
:10072800310F6AC0D9FF6BC0DAFFDF6E6A4A6B2AE5
:100738006AC0D9FF6BC0DAFF3A0EDF6E6A4A6B2ACD
:100748006AC0D9FF6BC0DAFF200EDF6E6A4A6B2AD7
:100758006AC0D9FF6BC0DAFF0D0EDF6E6A4A6B2ADA
:100768006AC0D9FF6BC0DAFF0A0EDF6E6A4A6B2ACD
:100778006AC0D9FF6BC0DAFF090EDF6E6A4A6B2ABE
:100788006AC0D9FF6BC0DAFF550EDF6E6A4A6B2A62
:100798006AC0D9FF6BC0DAFF490EDF6E6A4A6B2A5E
:1007A8006AC0D9FF6BC0DAFF440EDF6E6A4A6B2A53
:1007B8006AC0D9FF6BC0DAFF3A0EDF6E6A4A6B2A4D
:1007C8006AC0D9FF6BC0DAFF200EDF6E6A4A6B2A57
:1007D800696A5C506924D96EDA6ADF50686E6838D5
:1007E8000F0B606E616A6B0E6024F66E1E0E612040
:1007F800F76E6AC0D9FF6BC0DAFF0800F5CFDFFFDC
:100808006A4A6B2A68500F0B606E616A6B0E60242F
:10081800F66E1E0E6120F76E6AC0D9FF6BC0DAFF54
:100828000800F5CFDFFF6A4A6B2A040E696008D01A
:100838006AC0D9FF6BC0DAFF2D0EDF6E6A4A6B2AD9
:10084800692A040E6964C5D76AC0D9FF6BC0DAFF8C
:100858000D0EDF6E6A4A6B2A6AC0D9FF6BC0DAFFD9
:100868000A0EDF6E6A4A6B2A6AC0D9FF6BC0DAFFCC
:10087800090EDF6E6A4A6B2A620E566E5DC057F02B
:1008880066EC0BF0696A6AC0D9FF6BC0DAFF4C0EE0
:10089800DF6E6A4A6B2A6950300F6AC0D9FF6BC095
:1008A800DAFFDF6E6A4A6B2A6AC0D9FF6BC0DAFFCB
:1008B8003A0EDF6E6A4A6B2A6AC0D9FF6BC0DAFF4C
:1008C800200EDF6E6A4A6B2A6950620FD96EDA6AA7
:1008D800DF500F0B606E616A6B0E6024F66E1E0EA1
:1008E8006120F76E6AC0D9FF6BC0DAFF0800F5CF48
:1008F800DFFF6A4A6B2A050E696018D06AC0D9FF03
:100908006BC0DAFF200EDF6E6A4A6B2A6AC0D9FF15
:100918006BC0DAFF2D0EDF6E6A4A6B2A6AC0D9FFF8
:100928006BC0DAFF200EDF6E6A4A6B2A692A050E51
:100938006964A9D76AC0D9FF6BC0DAFF0D0EDF6EF4
:100948006A4A6B2A6AC0D9FF6BC0DAFF0A0EDF6EEB
:100958006A4A6B2A6AC0D9FF6BC0DAFFDF6A000EE9
:100968005A6E010E5B6E15EC0DF0010E206E120032
:100978002050D8B4F2D0FEEC09F0E806D8A4120052
:10098800206AEBD07EEC0DF00009D8B405D099ECC4
:100998000DF01B0AD8B403D02150D8B41200D30EDE
:1009A8005A6E1F0E5B6E15EC0DF0010E206E0A0ECE
:1009B8001F6E216A12002050D8A41200E70E5A6E4A
:1009C8001E0E5B6E15EC0DF0010E206E0D0E1F6EE7
:1009D80012002050D8A41200880E5A6E1E0E5B6EAC
:1009E80015EC0DF0010E206E010E1F6E12007EEC4C
:1009F8000DF00009D8B4120099EC0DF06C6E300EB1
:100A08006C6411D0340E6C600ED0E20E5A6E1F0E5C
:100A18005B6E15EC0DF0010E206E6C500A0DF35054
:100A28002A0F1F6E12003D0E5A6E1F0E5B6E15ECDC
:100A38000DF0010E206E1F6A12002050D8A412007B
:100A480097EC0DF06D6E040E6D18D8B413D0BE0E71
:100A5800566E6DC057F037EC0AF0BE0E5C6E6DC076
:100A68005DF0F70E5E6E1F0E5F6E45EC03F0190E1B
:100A78001F6E12001C0E5A6E1F0E5B6E15EC0DF0E9
:100A8800010E206EF4D72050D8A41200E20E5A6E40
:100A98001F0E5B6E15EC0DF0CCD72050D8A41200B9
:100AA800E50E5A6E1F0E5B6E15EC0DF0010E206EF2
:100AB8001D6A200E1F6E12002050D8A41200040ECA
:100AC8001D6012D0BE0E566E1DC057F037EC0AF0EE
:100AD800BE0E5C6E1DC05DF0F70E5E6E1F0E5F6E83
:100AE80045EC03F01D2A1200E20E5A6E1F0E5B6ED3
:100AF80015EC0DF09ED72050D8A412007F0E5A6E28
:100B08001F0E5B6E15EC0DF0010E206E020E1F6EAF
:100B18001E6A12007EEC0DF00009D8B412001E50B7
:100B2800E10FD96EDA6A99EC0DF0DF6E1E50E10F15
:100B3800D96EDA6ADF5051EC0DF01E2A040E1E1829
:100B4800D8A41200E10E566ED2EC0CF05E0E5A6E6E
:100B58001F0E5B6E15EC0DF06CD71F50000AD8B451
:100B680011D7010AD8B443D7030AD8B4D3D7080A8F
:100B7800D8B421D7070AD8B42CD7190AD8B45DD766
:100B88000D0AD8B480D7070AD8B487D73E0AD8B494
:100B980093D7080AD8A41200AED7706E81D070C05F
:100BA80040F06CC041F06DC042F06EC043F06FC0C1
:100BB80044F0010E1B6E010E2FD0650E7018D8A4DC
:100BC80013D0DC0E6C18D8A40FD0F90E6D18D8A469
:100BD8000BD0030E6E18D8A407D0430E6F18D8A4F4
:100BE80003D07C6A060E18D0020E16D0DC0E7018E0
:100BF800D8A414D00D0E6C18D8A410D0F90E6D1806
:100C0800D8A40CD0030E6E18D8A408D02B0E6F18D9
:100C1800D8A404D0010E35D01A6E58D0030E1A6E1F
:100C2800DF0E7018D8A412D08B0E6C18D8A40ED072
:100C3800DF0E6D18D8A40AD0C40E6E18D8A406D03A
:100C48004F0E6F18D8A402D0020E1BD0040EE4D7A2
:100C5800210E7018D8A412D0320E6C18D8A40ED059
:100C6800A90E6D18D8A40AD0890E6E18D8A406D07B
:100C7800330E6F18D8A402D0030E03D0050ECCD7BC
:100C8800040E7C6EAFD7400E5C6E7CC05DF0BE0E6D
:100C98005E6E1F0E5F6E45EC03F01A6A010E1200BD
:100CA8001A50000AD8B47BD7010AD8B486D7030AE9
:100CB800D8B49CD7010AD8B4B3D7070AD8B4C8D7D0
:100CC800010AD8B4DDD7030AD8B4DDD7000E120064
:100CD80083500F0B266E66D02650D8B406D04A50E3
:100CE800E5EC0CF0030E236E1200256A21EC0DF0E2
:100CF800010E236E12002650D8B404D04A50E5ECF9
:100D08000CF0F0D7010E256E21EC0DF0020E236ECB
:100D180012002650D8B404D04A50E5EC0CF0E2D7C3
:100D2800020E256E21EC0DF0236A120008EC0BF080
:100D3800246E2650D8B4F4D74A50E4EC0BF059503E
:100D48005810571004E1050E565CD8A012000B0E7F
:100D58002418D8B406D02450AAEC0CF0050E236E43
:100D680012004A50E5EC0CF0040E236E12002650D7
:100D7800D8B4DAD74A50E4EC0BF05950581006E1D1
:100D8800DD0E565C050E5758D8A0120094EC0DF0F5
:100D9800E5D72650D8A41200236A020E256E21EC4E
:100DA8000DF012002350000AD8B496D7010AD8B41F
:100DB800A2D7030AD8B4ADD7010AD8B4B7D7070A5F
:100DC800D8B4D5D7010AD8A41200E3D76C6E540E54
:100DD800566E2BEC0CF06CC03FF06BC03EF03C6ADA
:100DE8003D6A939293949396000E6E6E000E6D6E0C
:100DF80054C063F0646A000E666E640E656E49EC5A
:100E08000CF0030E50EC09F054C063F0646A000E55
:100E1800666E040E656E49EC0CF0030E50EC09F09A
:100E280054C063F0646A000E666E010E656E49EC8C
:100E38000CF0030E50EC09F054C063F0646A000E25
:100E4800666E010E656E49EC0CF0020E50EC09F06E
:100E580054C063F0646A000E666E010E656E49EC5C
:100E68000CF0280E7CEC0CF065EC0DF0080E7CEC18
:100E78000CF065EC0DF0010E7CEC0CF054C063F046
:100E8800646A000E666E020E656E49EC0CF065EC45
:100E98000DF0060E7CEC0CF065EC0DF00F0E7CEC02
:100EA8000CF06D4A6E2A6EBEA3D76E5005E1020E95
:100EB8006D5CD8B012009CD71200B80E566E140E96
:100EC800576E66EC0BF05350E4EC0BF056C068F02C
:100ED80057C069F058C06AF059C06BF00B506818D9
:100EE8000AE10C50691807E10D506A1804E10E5028
:100EF8006B18D8B4120068C00BF069C00CF06AC057
:100F08000DF06BC00EF06B506A10691004E10A0E08
:100F1800685CD8A015D05350E5EC0CF06C6A6C50A6
:100F2800B80FD96EDA6ADF50D8B405D0010E566E04
:100F38006C50BDEC0BF06C2A050E6C64F0D71200F7
:100F48006D6A6D50B80FD96EDA6A0A0EDF601AD072
:100F58006D50B80FD96EDA6ADF50636E63C064F003
:100F6800656A666A676A6450685C65506958665065
:100F78006A5867506B58D8A005D0000E566E6D5051
:100F8800BDEC0BF06D2A050E6D64DBD71200948062
:100F98009492949494969498516A526A8B848B860E
:100FA8008B88010E39EC0DF08B98010E39EC0DF0A1
:100FB8008B88010E39EC0DF00F0E5D6E010E6EEC94
:100FC8000AF00009D8B4F8D7010E39EC0DF08D0EEF
:100FD8005D6E2A0E6EEC0AF00009D8B4F8D73E0E02
:100FE8005D6E2B0E6EEC0AF00009D8B4F8D71E0E11
:100FF8005D6E2D0E6EEC0AF00009D8B4F8D7000E1D
:101008005D6E2C0E6EEC0AF00009D8B4F8D7400ECD
:101018005D6E150E6EEC0AF00009D8B4F8D73D0ED7
:101028005D6E110E6EEC0AF00009D8B4F8D7140EF4
:1010380035EC08F0616EFE0E6118D8B4F8D7030ECF
:10104800611261C05DF0140E6EEC0AF00009D8B4AC
:10105800F8D7500E566E2BEC0CF05050E5EC0CF017
:1010680012005E6E134A142AE90E135C030E14581C
:10107800D8A053D08B848B86526A000E146E000E53
:10108800136EFF0E1200000E146E000E136E8B947A
:101098008B965E505E247E0B80094B6E3B6A4C6AD1
:1010A800010E526EFE0E12004B0E586E4C0E596E0B
:1010B800520E5A6E020E5B6E38EC0BF0F3D78B842F
:1010C800050E39EC0DF082A003D05D6A5D2A01D0CF
:1010D8005D6A3B503B245D103B6E8B94050E39ECEA
:1010E8000DF04C2A070E4C64DDD78B848B86526A30
:1010F800000E146E000E136EFE0E3B18D8B407D007
:101108003B28D8B404D03BC05FF0606A04D0000E1E
:10111800606EFD0E5F6E5F5012005250000AD8B428
:10112800B2D7010AD8B4C0D7030AD8B4C8D7BAD737
:1011380057D01C50D8A403D01B50D8B412001B6A37
:101148001C6A010E196E120044C017F0090E1764CC
:1011580002D0370E01D0300E1724746E756A000E57
:10116800752274508BEC09F0200E8BEC09F0020EFE
:10117800196E1200766A7650DD0FD96EDA6ADF5082
:101188008BEC09F07604D8A403D03A0E8BEC09F066
:10119800762A030E7664EFD7200E8BEC09F0186AD6
:1011A800030E196E1200060E186017D01850310F72
:1011B8008BEC09F02D0E8BEC09F07C50060DF350EA
:1011C800800F1824D96EDA6ADF50300F8BEC09F0E3
:1011D800200E8BEC09F0182A1200186A196A1200FE
:1011E8001950000AD8B4A5D7010AD8B4ADD7030A54
:1011F800D8B4C0D7010AD8A41200D5D7726E36D099
:101208006B50D8B404D0000E6F6E400E03D0000EA1
:101218006F6E000E6E6E72506E24706E000E6F2030
:10122800716E2FD072C070F0716A6B04D8A402D0AE
:10123800400E05D0020E6B18D8A404D03E5070267C
:10124800000E0ED0030E6B18D8A41BD03E506C6E47
:101258006D6A400E6C26000E6D226C5070266D5023
:1012680071220FD072C070F0716A0BD03F50010A22
:10127800D8B4F8D7030AD8B4C3D7060AD8B4D2D793
:10128800F1D765EC0DF0705080097CEC0CF06BC068
:101298003DF072C03CF01200576E96909692939A69
:1012A80093988A968A948A828A8257A603D0566A25
:1012B800562A01D0566A8D505618FE0B56188D6E58
:1012C80057A403D0566A562A01D0566A56468D50FE
:1012D8005618FD0B56188D6E57A203D0566A562A1B
:1012E80001D0566A563A56468A505618DF0B561899
:1012F8008A6E57A003D0566A562A01D0566A563AC3
:101308008A505618EF0B56188A6E8A921200736E1E
:1013180065EC0DF0735063EC0CF03C2A030E3F189B
:10132800D8A40FD0130E3C6412003C6A3D2A030E69
:101338003D6401D03D6A3DC06BF03C5002EC09F0C1
:101348001200020E3F18D8A40FD0270E3C641200DA
:101358003C6A3D2A010E3D6401D03D6A3DC06BF0F8
:101368003C5002EC09F012003D04D8A41200270EEC
:101378003C6401D03C6A3DC06BF03C5002EC09F083
:101388001200EE0EF66E190EF76E000EF86E00EEF5
:10139800C3F010EE22F00900F5CFEEFFE550E15062
:1013A800FAE1220EF66E1B0EF76E000EF86E00EED6
:1013B80077F010EE06F00900F5CFEEFFE550E150AA
:1013C800FAE101EE00F0500EEE6AE806FDE100EEEB
:1013D80080F0430EEE6AE806FDE100EE01F0540EDF
:1013E800EE6AE806FDE17D907D92000EF86E000140
:1013F8000AEF0CF030D0010E12000FC0F6FF10C03B
:10140800F7FFF86A010EF76403D00800F55005D01D
:10141800F6CFE1FFF7CFE2FFE7500009D8A402D0EA
:10142800226AE9D70FC0F6FF10C0F7FFF86A010E6D
:10143800F76403D00800F55005D0F6CFE1FFF7CFE9
:10144800E2FFE75008EC0DF00009D8B402D00F4ACB
:10145800102A000E12002250000AD8B4CCD7010A74
:10146800D8B4CBD7F6D75650D8B412005728D8A43A
:101478001ED04050D8B410D0596A5950400FD96E78
:10148800DA6A56505924E16EE26ADFCFE7FF592A3B
:10149800040E5964F2D71200586A56505824D96E6F
:1014A800DA6ADF6A582A040E5864F7D712005A6AB3
:1014B8005750050DF350C30F5A24D96EDA6A5650A7
:1014C8005A24E16EE26ADFCFE7FF5A2A040E5A6413
:1014D800EFD712005E6E28D08B948B965E505E24F8
:1014E8007E0B4E6E5DC04DF04F6A010E516E26D0D8
:1014F8004E0E586E4F0E596E510E5A6E020E5B6E9E
:1015080038EC0BF01BD04D0E586E4F0E596E510E25
:101518005A6E000E5B6E38EC0BF05150D8A40ED00A
:101528008B868B84010E12005150000AD8B4D4D790
:10153800010AD8B4DDD7030AD8B4E5D7000E1200E3
:10154800576E57A603D0566A562A01D0566A8D5050
:101558005618FE0B56188D6E57A403D0566A562A95
:1015680001D0566A56468D505618FD0B56188D6E8A
:1015780057A203D0566A562A01D0566A563A56469A
:101588008A505618DF0B56188A6E57A003D0566A31
:10159800562A01D0566A563A8A505618EF0B5618F2
:1015A8008A6E1200576E57AE03D0566A562A01D07B
:1015B800566A8D505618FE0B56188D6E57AC03D0D0
:1015C800566A562A01D0566A56468D505618FD0B53
:1015D80056188D6E57AA03D0566A562A01D0566AF5
:1015E800563A56468A505618DF0B56188A6E57A830
:1015F80003D0566A562A01D0566A563A8A50561867
:10160800EF0B56188A6E1200586A0BD0596A17D019
:10161800010E03D0020E01D0030E596E10D0FF0E3A
:1016280012002650010AD8B4F1D7030AD8B4F0D76B
:10163800060AD8B4EFD70C0AD8B4EED7F0D725C02D
:1016480058F05950030D7C0EF324566E1E0EF420EC
:10165800576E58505626000E572256C0F6FF57C0F0
:10166800F7FF0800F55012005850D96EDA6ADFAE5D
:1016780003D05C6A5C2A01D05C6A5C468B505C18BB
:10168800FD0B5C188B6E8B845850D96EDA6AD89033
:10169800DF36050E39EC0DF08B94050E39EC0DF0A4
:1016A8005950D96EDA6ADF2A080EDE18D8A412005B
:1016B8005950D96EDA6ADF6A5A50D96EDA6A5BC055
:1016C800DFFF12005650D8B41200140E5718D8A4D1
:1016D80013D0586A7C50060DF350800F5824D96EE9
:1016E800DA6A56505824E16EE26ADFCFE7FF582ADB
:1016F800050E5864EFD71200596A5750060DF3507B
:10170800800F5924D96EDA6A56505924E16EE26A7C
:10171800DFCFE7FF592A050E5964EFD71200566A42
:101728005650400FD96EDA6ADF6A562A040E56649C
:10173800F7D7596A576A5950060DF350800F572446
:10174800D96EDA6A59C0DFFF572A050E5764F3D7F6
:10175800592A030E5964EED7586A5850980FD96E13
:10176800DA6ADF6A582A050E5864F7D7040E7C6EC9
:101778001200596E060E596012D05650D8B407D0D0
:101788005950D70FD96EDA6ADF50891212005950B2
:10179800D70FD96EDA6ADF50FF0A89161200592866
:1017A800D8A412005650D8A404D0000E586E000ECB
:1017B80003D0000E586E3F0E576E57C089FF1200B7
:1017C800626EF29E07C05EF008C05FF009C060F06C
:1017D8000AC061F0F28E6250050DF3509E0FD96E6B
:1017E800DA6ADECF5AF0DECF5BF0DECF5CF0DECF18
:1017F8005DF05A505E5C566E5B505F58576E5C5099
:101808006058586E5D506158596E120095EC0CF096
:101818002DEC0DF0CBEC07F06FEC0DF08DEC0DF02E
:1018280077EC0DF0100E6B6E020EEAEC06F093ECFE
:101838000BF0F28EF29C6CEC06F0BCEC04F015ECAC
:1018480000F061EC07F09CEC08F08D74F4D7586A4E
:1018580005D0582A040E5818D8B412005850050D4F
:10186800F350A20FD96EDA6ADE04D8B4F2D7585012
:10187800050DF350A20FD96EDA6A010EDF6E5650CD
:10188800D96EDA6A58C0DFFF12006350E5EC0CF03D
:1018980065C067F066C068F0000E68BEFF0E696E2E
:1018A8006A6E6350E4EC0BF06750565C685057580A
:1018B800695058586A505958D8B01200E9D7586E2C
:1018C80096909692939A93988A868A948A82585088
:1018D800D6EC0AF08A828A928A928A825850A4ECBC
:1018E8000AF08A828A9296809682938A9388120056
:1018F800586E96909692939A93988A968A948A822A
:101908005850D6EC0AF08A828A928A928A82585073
:10191800A4EC0AF08A828A9296809682938A9388A7
:101928001200566A5650050DF350A20FD96EDA6AA6
:10193800DF6A562A030E5664F5D7820ED56EF60E68
:10194800D76E3C0ED66EF294F28A1200596E16507B
:10195800D8A405D05904156E010E166E120015C0D4
:1019680056F059C057F07C50BEEC0CF0010E1C6EBE
:10197800166A1200586E040E58601200060E566061
:1019880012000B0E576012005850060DF350800FCE
:101998005624D96EDA6A57C0DFFF12005650D8B401
:1019A8001200576A56505724D96EDA6A5750DD0F1D
:1019B800E16EE26ADFCFE7FF572A030E5764F2D7DA
:1019C8001200566EF29E5650050DF3509E0FD96EBA
:1019D800DA6A07C0DEFF08C0DEFF09C0DEFF0AC002
:1019E800DEFFF28E120065DCF90343DC0DF9032BF0
:1019F800DF8BDFC44F2132A989330102040810208C
:101A08003030303030303030596E5BEC0DF056509D
:101A18005710D8A402D0000E120059C0ADFF010E15
:101A28001200FEEC09F0E806D8A412005AC00FF024
:101A38005BC010F0010E226E1200030E256007D065
:101A48002550770FD96EDA6ADF508C6E12008C6AD7
:101A580012000F0E956E8C6A236A246A256A266A1C
:101A68004A0E566E2BEC0CF01200566E5650080DAE
:101A7800F3CF57F001D0000057065728D8B412000A
:101A8800FAD7F60ED76E3C0ED66EF294010E0726E4
:101A9800000E082209220A221200596E5BEC0DF092
:101AA80056505710D8B4FAD759C0ADFF12009EA8A7
:101AB80003D0586A582A01D0586A5850566E576A47
:101AC800120054C063F0646A000E666E020E656E02
:101AD80049EC0CF01200240EAC6E900EAB6EAF68A1
:101AE800B86A216A1200926A966A530E566E2BECF7
:101AF8000CF012009EAA02D0010E1200000E120075
:101B0800F2B445EC0DF07D921100566E56C07CF093
:101B180012000F0EC16E96941200204010E80304C4
:0E1B2800010E216E12007C501200AE50120011
:101E6A00003031323334353637383941424344450C
:101E7A0046000102030405060708090A000B093196
:101E8A002E205175692068692068612061206C6183
:101E9A002073616C613F0D0A09322E204D6F7374F5
:101EAA0072617220636F6E66696775726163696FCA
:101EBA006E730D0A09332E204D6F6469666963617A
:101ECA007220686F72612064656C2073697374652F
:101EDA006D610D0A4F706369C3B33A20004D656E98
:101EEA00C3BA207072696E636970616C0D0A2D2D18
:101EFA002D2D2D2D2D2D2D2D2D2D2D2D2D0D0A5424
:101F0A0072696120756E61206F706369C3B33A0D9F
:101F1A000A004E6F2068692068612063617020752D
:101F2A0073756172692061206C612073616C612E26
:101F3A000D0A004552524F522E2056616C6F722084
:101F4A00696E74726F64756974206572726F6E69F6
:101F5A002E0D0A000D0A486F726120696E74726F45
:101F6A00647569646120636F7272656374616D651B
:101F7A006E740D0A00496E74726F64756365206C25
:101F8A006120686F72612061637475616C284848CA
:101F9A004D4D293A2000094E6F20686179207573EA
:101FAA00756172696F20636F6E66696775726164C5
:101FBA006F0D0A000D0A54617267657461206465C9
:101FCA007465637461646121002D2D2D2D2D2D2DD5
:101FDA002D2D2D2D2D2D2D2D0D0A00436F6E666989
:101FEA006775726163696F6E733A0D0A005573758E
:061FFA0061726920000085
:020000040020DA
:08000000FFFFFFFFFFFFFFFF00
:020000040030CA
:0E000000FF06191EFF8181FF03C003E00340CD
:00000001FF
