:020000040000FA
:0400000013EF00F00A
:060008007E8244EF0EF0C1
:100018007E80E0CF56F056C0E0FF7E90100063EF80
:100028000AF02A04D8A40CD0295039EC09F0766ECD
:10003800FE0E7618D8B4120076C030F02A6A120084
:10004800020E2A18D8A40BD028C05EF029500CEC58
:100058000BF0766E7650D8B412002A6A12002B5034
:100068003A18D8B408D03AC02BF03A04D8A403D030
:100078005150A5EC0DF03A50D8A404D3515088EC57
:100088000CF05A505910581004E1C90E575CD8A00A
:10009800F9D2010E2C6E5150A5EC0DF0F3D20D0ED5
:1000A800296E070E286E020E2A6E010E396E120096
:1000B800260E336E770E386E300E376E020E296EAE
:1000C80038508009286E020E2A6E020E396E120010
:1000D800040E296E010E2A6E030E396E12003028A6
:1000E800D8A402D0396A1200020E296E30507F0B54
:1000F800286E020E2A6E040E396E12000A0E296E40
:10010800010E2A6E050E396E12003028D8B4EAD7CF
:100118000A0E296E30508009286E020E2A6E060ECD
:10012800396E1200010E296E286A020E2A6E070E19
:10013800396E1200090E296E33C028F0020E2A6E9D
:10014800080E396E1200010E296E0C0E286E020E72
:100158002A6E090E396E12000D0E296E010E2A6ED6
:100168000A0E396E12003028D8B4BCD70D0E296E8D
:1001780030508009286E020E2A6E0B0E396E12005E
:100188003568040E296E010E2A6E0C0E396E1200A7
:100198003028D8B4A7D730C036F036B007D036509C
:1001A80037140009D8A402D0352E07D00D0E296EB9
:1001B800010E2A6E0D0E396E1200040E296E010E04
:1001C8002A6E12003028D8B48DD73050D8B40AD04F
:1001D8000D0E296E30507F0B286E020E2A6E0E0E01
:1001E800396E12000D0E296E010E2A6E1200060ECF
:1001F800296E010E2A6E0F0E396E12003028D8B4FF
:1002080071D73550D8B40DD030C072F01B0E7216AD
:10021800D8A407D00A0E296E010E2A6E100E396E68
:100228001200396A3A6A12003028D8B45BD730C055
:100238002EF00C0E296E010E2A6E110E396E120068
:100248003028D8B44FD73050070B2F6E2F50D8A472
:1002580007D02E50080DF3CF74F0F4CF75F016D0F8
:100268002F502EC072F0736AD89072367336D890B9
:1002780072367336D890723673367226000E732231
:10028800F80E7224746EFF0E7320756E74C02DF014
:10029800100E2D18D8A4C5D7010E3A6E23D73950A1
:1002A800000AD8B4FCD6010AD8B402D7030AD8B4D5
:1002B8000FD7010AD8B413D7070AD8B41FD7010A31
:1002C800D8B423D7030AD8B42DD7010AD8B432D763
:1002D8000F0AD8B438D7010AD8B43ED7030AD8B41D
:1002E80042D7010AD8B44CD7070AD8B451D7010A63
:1002F800D8B468D7030AD8B47AD7010AD8B47ED755
:100308001F0AD8B491D7010AD8A4120099D70D0EA4
:10031800296E286A020E2A6E010E396E1200930E9B
:10032800016E200E026E080E296E010E2A6E020E54
:10033800396E12003028D8B474D7080E296E3050A0
:10034800F70B286E020E2A6E030E396E1200770E16
:10035800386E300E376E020E296E38508009C8D6B6
:10036800040E296E010E2A6E050E396E1200302811
:10037800D8B457D7040E296E30507F0BCDD60A0E4D
:10038800296E010E2A6E070E396E12003028D8B475
:1003980048D70A0E296E30508009286E020E2A6E40
:1003A800080E396E1200010E296E286A020E2A6E96
:1003B800090E396E1200090E296E01C028F0020ECE
:1003C8002A6E0A0E396E1200090E296E02C028F034
:1003D800020E2A6E0B0E396E1200010E296E0C0EDB
:1003E800286E020E2A6E0C0E396E12003028D8B410
:1003F80018D70D0E296E30508009EED63568040ED8
:10040800296E010E2A6E0F0E396E12003028D8B4EC
:1004180008D730C036F036B007D036503714000948
:10042800D8A402D0352EC9D60D0E296E010E2A6E1B
:10043800100E396E12003028D8B4F3D60D0E296E7E
:1004480030507F0B286E020E2A6E110E396E120084
:10045800060E296E010E2A6E120E396E1200302811
:10046800D8B4DFD63550D8B4DCD630C072F01B0E05
:100478007216D8A4D6D6090E296E010E2A6E130E4E
:10048800396E12003028D8B4CCD630C001F0090E2D
:10049800296E010E2A6E140E396E12003028D8B457
:1004A800C0D630C002F0090E296E010E2A6E150E54
:1004B800396E12003028D8B4B4D630C003F0090E13
:1004C800296E010E2A6E160E396E12003028D8B425
:1004D800A8D630C004F0090E296E010E2A6E170E38
:1004E800396E12003028D8B49CD630C005F0066AA0
:1004F8000250031804180118326E02500310041039
:1005080001100009D8A402D0010E01D0000E316EEE
:10051800180E396E120032500518D8A482D6315000
:10052800D8A47FD6190E396E1200450E576EFF0EED
:10053800586ED5EC0AF05EEC0EF0040AD8B403D07D
:100548001A0E396E12002C04D8A403D01B0E396E73
:1005580012001C0E396E120001504518D8A4F6D7A7
:1005680002504618D8A4F2D703504718D8A4EED79B
:1005780004504818D8A4EAD705504918D8A4E6D793
:100588002C04D8A4E6D7DC0E5B6E1E0E5C6EE1EC84
:100598000DF058EC0EF0040E49EC0EF055EC0EF090
:1005A8001C0E396E2C6A120002C06DF003C06EF08A
:1005B80004C06FF005C070F00150C7EC06F0E80603
:1005C800D8A41200EDD70D0E296E286A020E2A6EE5
:1005D80028D63950000AD8B49AD6010AD8B49FD67A
:1005E800030AD8B4A7D6010AD8B4B1D6070AD8B432
:1005F800B7D6010AD8B4BBD6030AD8B4C0D6010A04
:10060800D8B4C4D60F0AD8B4CED6010AD8B4D3D633
:10061800030AD8B4D9D6010AD8B4DFD6070AD8B4A1
:10062800C5D5010AD8B4E2D6030AD8B4E7D6010A78
:10063800D8B4ECD61F0AD8B4FED6010AD8B408D765
:10064800030AD8B40CD7010AD8B41CD7070AD8B4FF
:1006580025D7010AD8B42ED7030AD8B437D7010A48
:10066800D8B440D70F0AD8B456D7010AD8B45DD742
:10067800030AD8B471D7010AD8B496D7070AD8A400
:100688001200A1D73A50000AD8B409D6010AD8A452
:1006980012009FD7000E6B6E010E6C6E5D50D8B4C1
:1006A80006D05D50D96EDA6ADF50D8A407D0820E22
:1006B8005B6E1F0E5C6EE1EC0DF012005F50601077
:1006C800D8A410D066D05FC0F6FF60C0F7FF6BC03B
:1006D800D9FF6CC0DAFF0800F5CFDFFF5F4A602A58
:1006E8006B4A6C2A5FC0F6FF60C0F7FF0800F55040
:1006F8000009D8A4E8D7550E01010019D8A431D0B3
:10070800730E0119D8A42DD0750E0219D8A429D0BA
:10071800610E0319D8A425D0720E0419D8A421D0CB
:10072800690E0519D8A41DD0200E0619D8A419D011
:100738005E50310F6BC0D9FF6CC0DAFFDF6E6B4AB9
:100748006C2A6BC0D9FF6CC0DAFF3A0EDF6E6B4AB9
:100758006C2A6BC0D9FF6CC0DAFF200EDF6E6B4AC3
:100768006C2A6BC0D9FF6CC0DAFF0D0EDF6E6B4AC6
:100778006C2A6BC0D9FF6CC0DAFF0A0EDF6E6B4AB9
:100788006C2A6BC0D9FF6CC0DAFF090EDF6E6B4AAA
:100798006C2A6BC0D9FF6CC0DAFF550EDF6E6B4A4E
:1007A8006C2A6BC0D9FF6CC0DAFF490EDF6E6B4A4A
:1007B8006C2A6BC0D9FF6CC0DAFF440EDF6E6B4A3F
:1007C8006C2A6BC0D9FF6CC0DAFF3A0EDF6E6B4A39
:1007D8006C2A6BC0D9FF6CC0DAFF200EDF6E6B4A43
:1007E8006C2A6A6A5D506A24D96EDA6ADF50696ECB
:1007F80069380F0B616E626A2B0E6124F66E1E0E4D
:100808006220F76E6BC0D9FF6CC0DAFF0800F5CF25
:10081800DFFF6B4A6C2A69500F0B616E626A2B0E00
:100828006124F66E1E0E6220F76E6BC0D9FF6CC095
:10083800DAFF0800F5CFDFFF6B4A6C2A040E6A6006
:1008480008D06BC0D9FF6CC0DAFF2D0EDF6E6B4A83
:100858006C2A6A2A040E6A64C5D76BC0D9FF6CC0BB
:10086800DAFF0D0EDF6E6B4A6C2A6BC0D9FF6CC0C5
:10087800DAFF0A0EDF6E6B4A6C2A6BC0D9FF6CC0B8
:10088800DAFF090EDF6E6B4A6C2A630E576E5EC084
:1008980058F034EC0CF06A6A6BC0D9FF6CC0DAFF10
:1008A8004C0EDF6E6B4A6C2A6A50300F6BC0D9FF52
:1008B8006CC0DAFFDF6E6B4A6C2A6BC0D9FF6CC064
:1008C800DAFF3A0EDF6E6B4A6C2A6BC0D9FF6CC038
:1008D800DAFF200EDF6E6B4A6C2A6A50630FD96EFE
:1008E800DA6ADF500F0B616E626A2B0E6124F66EB6
:1008F8001E0E6220F76E6BC0D9FF6CC0DAFF0800CD
:10090800F5CFDFFF6B4A6C2A050E6A6018D06BC002
:10091800D9FF6CC0DAFF200EDF6E6B4A6C2A6BC001
:10092800D9FF6CC0DAFF2D0EDF6E6B4A6C2A6BC0E4
:10093800D9FF6CC0DAFF200EDF6E6B4A6C2A6A2A78
:10094800050E6A64A9D76BC0D9FF6CC0DAFF0D0E1B
:10095800DF6E6B4A6C2A6BC0D9FF6CC0DAFF0A0ED7
:10096800DF6E6B4A6C2A6BC0D9FF6CC0DAFFDF6A96
:10097800000E5B6E010E5C6EE1EC0DF0010E216E57
:1009880012002150D8B4F4D09CEC0AF0E806D8A4A0
:100998001200216AEDD03EEC0EF00009D8B405D063
:1009A80060EC0EF01B0AD8B403D02250D8B4120061
:1009B800D30E5B6E1F0E5C6EE1EC0DF0010E216E26
:1009C8000A0E206E226A12002150D8A41200A70E27
:1009D8005B6E1E0E5C6EE1EC0DF0010E216E0D0ECD
:1009E800206E12002150D8A41200480E5B6E1E0E15
:1009F8005C6EE1EC0DF0010E216E010E206E12000E
:100A08003EEC0EF00009D8B4120060EC0EF06D6EEA
:100A1800300E6D6411D0340E6D600ED0E20E5B6E38
:100A28001F0E5C6EE1EC0DF0010E216E6D500A0D8B
:100A3800F3502A0F206E12001F0E5B6E1F0E5C6EA5
:100A4800E1EC0DF0010E216E206A12002150D8A4AD
:100A580012005EEC0EF06E6E040E6E18D8B413D051
:100A6800C30E576E6EC058F0D5EC0AF0C30E5D6E1B
:100A78006EC05EF0F70E5F6E1F0E606E4EEC03F0F8
:100A8800190E206E1200FE0E5B6E1E0E5C6EE1ECFF
:100A98000DF0010E216EF4D72150D8A41200E20EF9
:100AA8005B6E1F0E5C6EE1EC0DF0CCD72150D8A424
:100AB8001200E50E5B6E1F0E5C6EE1EC0DF0010E90
:100AC800216E1E6A200E206E12002150D8A412003A
:100AD800040E1E6012D0C30E576E1EC058F0D5EC1F
:100AE8000AF0C30E5D6E1EC05EF0F70E5F6E1F0E3D
:100AF800606E4EEC03F01E2A1200E20E5B6E1F0EB3
:100B08005C6EE1EC0DF09ED72150D8A41200610E66
:100B18005B6E1F0E5C6EE1EC0DF0010E216E020E95
:100B2800206E1F6A12003EEC0EF00009D8B41200C5
:100B38001F50E50FD96EDA6A60EC0EF0DF6E1F50B9
:100B4800E50FD96EDA6ADF5011EC0EF01F2A040E99
:100B58001F18D8A41200E50E576E92EC0DF0400E47
:100B68005B6E1F0E5C6EE1EC0DF055EC0EF06AD773
:100B78002050000AD8B40FD7010AD8B441D7030AC5
:100B8800D8B4D1D7080AD8B41FD7070AD8B42AD7F7
:100B9800190AD8B45BD70D0AD8B47ED7070AD8B4D7
:100BA80085D73E0AD8B491D7080AD8A41200ACD782
:100BB8004A5088EC0CF05A50591006E1310E575C37
:100BC800750E5858D8A0B6D0010E1D6E390E7A1879
:100BD800D8A41BD0300E7A6E350E7918D8A413D04D
:100BE800300E796E390E7818D8A40BD0300E786E86
:100BF800320E7718D8A403D0300E776E07D0772A34
:100C080005D0782A03D0792A01D07A2A4A50A5EC4F
:100C18000DF090D01D50D8A403D01C50D8B41200A9
:100C28001C6A1D6A010E1A6E1200020E1A6E12005C
:100C3800000E6C6E000EA0EC09F0030E1A6E120086
:100C480044C018F0040E7D18D8B413D018C075F03D
:100C58000F0E75160A0E756006D018500F0B300F60
:100C680029EC0AF009D018500F0B370F29EC0AF0BD
:100C780003D0200E29EC0AF0040E1A6E1200200E82
:100C880029EC0AF0050E1A6E176A1200040E176096
:100C98000BD01750770FD96EDA6ADF5029EC0AF0BB
:100CA800172A060E1A6E1200090E1A6E1200020E8C
:100CB8001718D8A403D03A0E29EC0AF0050E1A6EBC
:100CC8001200200E29EC0AF0196A0A0E1A6E120098
:100CD800060E19600CD0020E1918D8A405D0010E02
:100CE8006C6E000EA0EC09F00B0E1A6E1200196A59
:100CF8001A6A12001950310F29EC0AF00C0E1A6EFC
:100D080012002D0E29EC0AF00D0E1A6E12007D50FD
:100D1800060DF350800F1924D96EDA6ADF50300FB0
:100D280029EC0AF00E0E1A6E1200200E29EC0AF0B9
:100D3800192ACBD71A50000AD8B46CD7010AD8B4EC
:100D480074D7030AD8B474D7010AD8B479D7070A74
:100D5800D8B495D7010AD8B499D7030AD8B4A7D775
:100D68000F0AD8B4AED7030AD8B4B2D7010AD8B498
:100D7800C1D7070AD8B4C5D7010AD8B4C8D7030A57
:100D8800D8A41200D2D7716E81D071C040F06DC066
:100D980041F06EC042F06FC043F070C044F0010EE5
:100DA8001C6E010E2FD0650E7118D8A413D0DC0E5E
:100DB8006D18D8A40FD0F90E6E18D8A40BD0030E56
:100DC8006F18D8A407D0430E7018D8A403D07D6A32
:100DD800060E18D0020E16D0DC0E7118D8A414D046
:100DE8000D0E6D18D8A410D0F90E6E18D8A40CD01A
:100DF800030E6F18D8A408D02B0E7018D8A404D0EE
:100E0800010E35D01B6E58D0030E1B6EDF0E711805
:100E1800D8A412D08B0E6D18D8A40ED0DF0E6E1881
:100E2800D8A40AD0C40E6F18D8A406D04F0E7018D4
:100E3800D8A402D0020E1BD0040EE4D7210E7118DC
:100E4800D8A412D0320E6D18D8A40ED0A90E6E18E0
:100E5800D8A40AD0890E6F18D8A406D0330E7018FB
:100E6800D8A402D0030E03D0050ECCD7040E7D6E95
:100E7800AFD7400E5D6E7DC05EF0BE0E5F6E1F0E7A
:100E8800606E4EEC03F01B6A010E12001B50000A44
:100E9800D8B47BD7010AD8B486D7030AD8B49CD76C
:100EA800010AD8B4B3D7070AD8B4C8D7010AD8B446
:100EB800DDD7030AD8B4DDD7000E120083500F0B1C
:100EC800276E74D02750D8B406D04B50A5EC0DF03F
:100ED800030E246E1200266AD5EC0DF0010E246E66
:100EE80012002750D8B404D04B50A5EC0DF0F0D721
:100EF800010E266ED5EC0DF0020E246E120027505E
:100F0800D8B404D04B50A5EC0DF0E2D7020E266EF3
:100F1800D5EC0DF0246A1200A6EC0BF0256E2750D4
:100F2800D8B4F4D74B5088EC0CF05A5059105810DC
:100F380004E1050E575CD8A012000B0E2518D8B492
:100F480006D02550EDEC0CF0050E246E12004B5027
:100F5800A5EC0DF0040E246E12002750D8A404D07E
:100F6800246A5BEC0EF012004B5088EC0CF05A50DF
:100F7800591006E1DD0E575C050E5858D8A012002E
:100F8800050E246E54EC0DF0A00E5B6E1F0E5C6E09
:100F9800E1EC0DF058EC0EF012002750D8A4120026
:100FA800246A020E266ED5EC0DF012002450000AB9
:100FB800D8B488D7010AD8B494D7030AD8B49FD72D
:100FC800010AD8B4A9D7070AD8B4C7D7010AD8A440
:100FD8001200E3D76D6E550E576ECFEC0CF06DC056
:100FE8003FF06CC03EF03C6A3D6A939293949396AE
:100FF800000E6F6E000E6E6E55C064F0656A000ECE
:10100800676E640E666E08EC0DF0030EEEEC09F0E8
:1010180055C064F0656A000E676E040E666E08ECD3
:101028000DF0030EEEEC09F055C064F0656A000E91
:10103800676E010E666E08EC0DF0030EEEEC09F01B
:1010480055C064F0656A000E676E010E666E08ECA6
:101058000DF0020EEEEC09F055C064F0656A000E62
:10106800676E010E666E08EC0DF0280E3BEC0DF075
:1010780025EC0EF0080E3BEC0DF025EC0EF0010E01
:101088003BEC0DF055C064F0656A000E676E020E09
:10109800666E08EC0DF025EC0EF0060E3BEC0DF03C
:1010A80025EC0EF00F0E3BEC0DF06E4A6F2A6FBE6A
:1010B800A3D76F5005E1020E6E5CD8B012009CD722
:1010C8001200BD0E576E140E586E34EC0CF05450CE
:1010D80088EC0CF057C069F058C06AF059C06BF042
:1010E8005AC06CF00B5069180AE10C506A1807E1F5
:1010F8000D506B1804E10E506C18D8B4120069C07A
:101108000BF06AC00CF06BC00DF06CC00EF06C50A8
:101118006B106A1004E10A0E695CD8A015D054500F
:10112800A5EC0DF06D6A6D50BD0FD96EDA6ADF500F
:10113800D8B405D0010E576E6D5061EC0CF06D2AD5
:10114800050E6D64F0D712006E6A6E50BD0FD96E31
:10115800DA6A0A0EDF601AD06E50BD0FD96EDA6AED
:10116800DF50646E64C065F0666A676A686A6550D5
:10117800695C66506A5867506B5868506C58D8A0BC
:1011880005D0000E576E6E5061EC0CF06E2A050EFD
:101198006E64DBD7120094809492949494969498F9
:1011A800526A536A8B848B868B88010EF9EC0DF09A
:1011B8008B98010EF9EC0DF08B88010EF9EC0DF00F
:1011C8000F0E5E6E010E0CEC0BF00009D8B4F8D7C8
:1011D800010EF9EC0DF08D0E5E6E2A0E0CEC0BF084
:1011E8000009D8B4F8D73E0E5E6E2B0E0CEC0BF04F
:1011F8000009D8B4F8D71E0E5E6E2D0E0CEC0BF05D
:101208000009D8B4F8D7000E5E6E2C0E0CEC0BF06B
:101218000009D8B4F8D7400E5E6E150E0CEC0BF032
:101228000009D8B4F8D73D0E5E6E110E0CEC0BF029
:101238000009D8B4F8D7140E39EC09F0626EFE0E26
:101248006218D8B4F8D7030E621262C05EF0140EAA
:101258000CEC0BF00009D8B4F8D7510E576ECFEC50
:101268000CF05150A5EC0DF012005F6E134A142AD1
:10127800E90E135C030E1458D8A053D08B848B86C8
:10128800536A000E146E000E136EFF0E1200000E4D
:10129800146E000E136E8B948B965F505F247E0B3A
:1012A80080094C6E3B6A4D6A010E536EFE0E1200A9
:1012B8004C0E596E4D0E5A6E530E5B6E020E5C6EDE
:1012C80006EC0CF0F3D78B84050EF9EC0DF082A038
:1012D80003D05E6A5E2A01D05E6A3B503B245E10F2
:1012E8003B6E8B94050EF9EC0DF04D2A070E4D64FC
:1012F800DDD78B848B86536A000E146E000E136E36
:10130800FE0E3B18D8B407D03B28D8B404D03BC055
:1013180060F0616A04D0000E616EFD0E606E605070
:1013280012005350000AD8B4B2D7010AD8B4C0D7B3
:10133800030AD8B4C8D7BAD7736E36D06C50D8B4AD
:1013480004D0000E706E400E03D0000E706E000EBA
:101358006F6E73506F24716E000E7020726E2FD0F6
:1013680073C071F0726A6C04D8A402D0400E05D024
:10137800020E6C18D8A404D03E507126000E0ED070
:10138800030E6C18D8A41BD03E506D6E6E6A400ECA
:101398006D26000E6E226D5071266E5072220FD08F
:1013A80073C071F0726A0BD03F50010AD8B4F8D7F5
:1013B800030AD8B4C3D7060AD8B4D2D7F1D725ECD4
:1013C8000EF0715080093BEC0DF06CC03DF073C01D
:1013D8003CF01200586E96909692939A93988A963B
:1013E8008A948A828A8258A603D0576A572A01D0DB
:1013F800576A8D505718FE0B57188D6E58A403D096
:10140800576A572A01D0576A57468D505718FD0B0F
:1014180057188D6E58A203D0576A572A01D0576AB9
:10142800573A57468A505718DF0B57188A6E58A0F4
:1014380003D0576A572A01D0576A573A8A50571823
:10144800EF0B57188A6E8A921200746E25EC0EF014
:10145800745022EC0DF03C2A030E3F18D8A40FD08C
:10146800130E3C6412003C6A3D2A030E3D6401D011
:101478003D6A3DC06CF03C50A0EC09F01200020E31
:101488003F18D8A40FD0270E3C6412003C6A3D2AAE
:10149800010E3D6401D03D6A3DC06CF03C50A0ECAB
:1014A80009F012003D04D8A41200270E3C6401D0B4
:1014B8003C6A3DC06CF03C50A0EC09F012006E0E86
:1014C800F66E1B0EF76E000EF86E00EEC8F010EE0A
:1014D80021F00900F5CFEEFFE550E150FAE1A20E48
:1014E800F66E1C0EF76E000EF86E00EE77F010EE3A
:1014F80007F00900F5CFEEFFE550E150FAE101EE03
:1015080000F0500EEE6AE806FDE100EE80F0480EAD
:10151800EE6AE806FDE100EE01F0550EEE6AE80617
:10152800FDE17E907E92000EF86E0001AEEF0CF0A9
:1015380030D0010E12000FC0F6FF10C0F7FFF86A96
:10154800010EF76403D00800F55005D0F6CFE1FF8F
:10155800F7CFE2FFE7500009D8A402D0236AE9D701
:101568000FC0F6FF10C0F7FFF86A010EF76403D04A
:101578000800F55005D0F6CFE1FFF7CFE2FFE750BE
:10158800C8EC0DF00009D8B402D00F4A102A000E9A
:1015980012002350000AD8B4CCD7010AD8B4CBD74C
:1015A800F6D75750D8B412005828D8A41ED04050A7
:1015B800D8B410D05A6A5A50400FD96EDA6A5750C8
:1015C8005A24E16EE26ADFCFE7FF5A2A040E5A6412
:1015D800F2D71200596A57505924D96EDA6ADF6A6D
:1015E800592A040E5964F7D712005B6A5850050D42
:1015F800F350C80F5B24D96EDA6A57505B24E16E4A
:10160800E26ADFCFE7FF5B2A040E5B64EFD71200C4
:101618005F6E28D08B948B965F505F247E0B4F6E45
:101628005EC04EF0506A010E526E26D04F0E596EB3
:10163800500E5A6E520E5B6E020E5C6E06EC0CF08B
:101648001BD04E0E596E500E5A6E520E5B6E000E27
:101658005C6E06EC0CF05250D8A40ED08B868B84AE
:10166800010E12005250000AD8B4D4D7010AD8B4D7
:10167800DDD7030AD8B4E5D7000E1200586E58A675
:1016880003D0576A572A01D0576A8D505718FE0B56
:1016980057188D6E58A403D0576A572A01D0576A35
:1016A80057468D505718FD0B57188D6E58A203D00A
:1016B800576A572A01D0576A573A57468A505718D7
:1016C800DF0B57188A6E58A003D0576A572A01D0E3
:1016D800576A573A8A505718EF0B57188A6E1200F4
:1016E800586E58AE03D0576A572A01D0576A8D50A2
:1016F8005718FE0B57188D6E58AC03D0576A572AE7
:1017080001D0576A57468D505718FD0B57188D6EE4
:1017180058AA03D0576A572A01D0576A573A5746EA
:101728008A505718DF0B57188A6E58A803D0576A83
:10173800572A01D0576A573A8A505718EF0B57184B
:101748008A6E1200596A0BD05A6A17D0010E03D05C
:10175800020E01D0030E5A6E10D0FF0E1200275051
:10176800010AD8B4F1D7030AD8B4F0D7060AD8B416
:10177800EFD70C0AD8B4EED7F0D726C059F05A5094
:10178800030D3C0EF324576E1E0EF420586E59506C
:101798005726000E582257C0F6FF58C0F7FF08001A
:1017A800F55012005A6A5A50400FD96EDA6ADF6A49
:1017B8005A2A040E5A64F7D75D6A5B6A5D50060DB3
:1017C800F350800F5B24D96EDA6A5DC0DFFF5B2AB5
:1017D800050E5B64F3D75D2A030E5D64EED75C6A81
:1017E8005C50980FD96EDA6ADF6A5C2A050E5C6471
:1017F800F7D7040E7D6E4A0E576ECFEC0CF0010E33
:101808001D6E12005950D96EDA6ADFAE03D05D6AD8
:101818005D2A01D05D6A5D468B505D18FD0B5D1831
:101828008B6E8B845950D96EDA6AD890DF36050EE4
:10183800F9EC0DF08B94050EF9EC0DF05A50D96EB9
:10184800DA6ADF2A080EDE18D8A412005A50D96EB8
:10185800DA6ADF6A5B50D96EDA6A5CC0DFFF1200B1
:101868005750D8B41200140E5818D8A413D0596A77
:101878007D50060DF350800F5924D96EDA6A5750FF
:101888005924E16EE26ADFCFE7FF592A050E596451
:10189800EFD712005A6A5850060DF350800F5A2499
:1018A800D96EDA6A57505A24E16EE26ADFCFE7FF51
:1018B8005A2A050E5A64EFD712005A6E060E5A605D
:1018C80012D05750D8B407D05A50DC0FD96EDA6A04
:1018D800DF50891212005A50DC0FD96EDA6ADF50D5
:1018E800FF0A891612005A28D8A412005750D8A403
:1018F80004D0000E596E000E03D0000E596E3F0E34
:10190800586E58C089FF1200636EF29E07C05FF0E0
:1019180008C060F009C061F00AC062F0F28E63503E
:10192800050DF3509E0FD96EDA6ADECF5BF0DECF7D
:101938005CF0DECF5DF0DECF5EF05B505F5C576E33
:101948005C506058586E5D506158596E5E506258D0
:101958005A6E120069EC0DF0EDEC0DF0CFEC08F0CA
:101968002FEC0EF04DEC0EF037EC0EF0100E6C6E06
:10197800020EEEEC07F0D6EC0BF0F28EF29C62EC65
:1019880007F0C5EC04F015EC00F065EC08F0DCECB1
:1019980005F08D74F4D7596A05D0592A050E5918DF
:1019A800D8B412005950050DF350A20FD96EDA6A57
:1019B800DE04D8B4F2D75950050DF350A20FD96EF2
:1019C800DA6A010EDF6E5750D96EDA6A59C0DFFF46
:1019D80012005A6E040E7D18D8B412001650D8A4FE
:1019E80005D05A04156E010E166E1200040E7D60A5
:1019F80009D015C057F05AC058F07D507EEC0DF054
:101A0800010E1D6E166A12006450A5EC0DF066C03A
:101A180068F067C069F0000E69BEFF0E6A6E6B6EF3
:101A2800645088EC0CF06850575C695058586A50FC
:101A380059586B505A58D8B01200E9D7596E969039
:101A48009692939A93988A868A948A82595074ECCB
:101A58000BF08A828A928A928A82595042EC0BF061
:101A68008A828A9296809682938A93881200596E07
:101A780096909692939A93988A968A948A825950C5
:101A880074EC0BF08A828A928A928A82595042ECCC
:101A98000BF08A828A9296809682938A93881200A3
:101AA800576A586A5750060DF350800F5824D96E5C
:101AB800DA6ADF6A582A050E5864F4D7572A030EE3
:101AC8005764EFD7010E1D6E1200576A5750050D67
:101AD800F350A20FD96EDA6ADF6A572A040E5764E8
:101AE800F5D7820ED56EF60ED76E3C0ED66EF294F2
:101AF800F28A1200596E040E59601200060E5760E1
:101B080012000B0E586012005950060DF350800F4A
:101B18005724D96EDA6A58C0DFFF12005750D8B47C
:101B28001200586A57505824D96EDA6A5850770FFD
:101B3800E16EE26ADFCFE7FF582A030E5864F2D756
:101B48001200576EF29E5750050DF3509E0FD96E36
:101B5800DA6A07C0DEFF08C0DEFF09C0DEFF0AC080
:101B6800DEFFF28E120065DCF90343DC0DF9032B6E
:101B7800DF8BDFC44F2132A989330102040810200A
:071B88002040103030303026
:101B90005A6E1BEC0EF057505810D8A402D0000E0D
:101BA00012005AC0ADFF010E1200030E266007D0CE
:101BB0002650E20FD96EDA6ADF508C6E12008C6A02
:101BC00012009CEC0AF0E806D8A412005BC00FF0EB
:101BD0005CC010F0010E236E12000F0E956E8C6A21
:101BE000246A256A266A276A4B0E576ECFEC0CF0E2
:101BF0001200576E5750080DF3CF58F001D0000077
:101C000058065828D8B41200FAD7F60ED76E3C0EF4
:101C1000D66EF294010E0726000E082209220A222F
:101C200012005A6E1BEC0EF057505810D8B4FAD769
:101C30005AC0ADFF12009EA803D0596A592A01D09C
:101C4000596A5950576E586A120055C064F0656A57
:101C5000000E676E020E666E08EC0DF01200240E88
:101C6000AC6E900EAB6EAF68B86A226A1200926AD0
:101C7000966A540E576ECFEC0CF012009EAA02D05A
:101C8000010E1200000E1200F2B405EC0EF07E926E
:101C90001100576E57C07DF012000F0EC16E969462
:091CA000120030303030E803047A
:101CAA00010E1D6E1200010E216E1200010E226E2F
:0A1CBA0012007D501200AE5012001F
:101E2A00003031323334353637383941424344454C
:101E3A0046000102030405060708090A000B0931D6
:101E4A002E205175692068692068612061206C61C3
:101E5A002073616C613F0D0A09322E204D6F737435
:101E6A0072617220636F6E66696775726163696F0A
:101E7A006E730D0A09332E204D6F646966696361BA
:101E8A007220686F72612064656C2073697374656F
:101E9A006D610D0A4F706369C3B33A20004D656ED8
:101EAA00C3BA207072696E636970616C0D0A2D2D58
:101EBA002D2D2D2D2D2D2D2D2D2D2D2D2D0D0A5464
:101ECA0072696120756E61206F706369C3B33A0DE0
:101EDA000A000D0A4C2775737561726920686120C2
:101EEA00736F72746974206465206C612073616C0D
:101EFA00610D0A004E6F2068692068612063617075
:101F0A00207573756172692061206C612073616C40
:101F1A00612E0D0A004552524F522E2056616C6FA7
:101F2A007220696E74726F64756974206572726F5B
:101F3A006E692E0D0A000D0A486F726120696E746F
:101F4A00726F647569646120636F7272656374612C
:101F5A006D656E740D0A00496E74726F64756365FF
:101F6A00206C6120686F72612061637475616C28EE
:101F7A0048484D4D293A2000094E6F206861792062
:101F8A007573756172696F20636F6E6669677572C2
:101F9A0061646F0D0A000D0A532768616E2072652D
:101FAA00736574656A6174206C6573206461646525
:101FBA00730D0A000D0A54617267657461206465C5
:101FCA007465637461646121002D2D2D2D2D2D2DD5
:101FDA002D2D2D2D2D2D2D2D0D0A00436F6E666989
:101FEA006775726163696F6E733A0D0A005573758E
:061FFA0061726920000085
:020000040020DA
:08000000FFFFFFFFFFFFFFFF00
:020000040030CA
:0E000000FF06191EFF8181FF03C003E00340CD
:00000001FF
